{
  "contractName": "NftMinter",
  "abi": [
    {
      "inputs": [],
      "stateMutability": "nonpayable",
      "type": "constructor"
    },
    {
      "anonymous": false,
      "inputs": [
        {
          "indexed": true,
          "internalType": "address",
          "name": "owner",
          "type": "address"
        },
        {
          "indexed": true,
          "internalType": "address",
          "name": "approved",
          "type": "address"
        },
        {
          "indexed": true,
          "internalType": "uint256",
          "name": "tokenId",
          "type": "uint256"
        }
      ],
      "name": "Approval",
      "type": "event"
    },
    {
      "anonymous": false,
      "inputs": [
        {
          "indexed": true,
          "internalType": "address",
          "name": "owner",
          "type": "address"
        },
        {
          "indexed": true,
          "internalType": "address",
          "name": "operator",
          "type": "address"
        },
        {
          "indexed": false,
          "internalType": "bool",
          "name": "approved",
          "type": "bool"
        }
      ],
      "name": "ApprovalForAll",
      "type": "event"
    },
    {
      "anonymous": false,
      "inputs": [
        {
          "indexed": false,
          "internalType": "address",
          "name": "sender",
          "type": "address"
        },
        {
          "indexed": false,
          "internalType": "uint256",
          "name": "tokenId",
          "type": "uint256"
        }
      ],
      "name": "NewEpicNFTMinted",
      "type": "event"
    },
    {
      "anonymous": false,
      "inputs": [
        {
          "indexed": true,
          "internalType": "address",
          "name": "from",
          "type": "address"
        },
        {
          "indexed": true,
          "internalType": "address",
          "name": "to",
          "type": "address"
        },
        {
          "indexed": true,
          "internalType": "uint256",
          "name": "tokenId",
          "type": "uint256"
        }
      ],
      "name": "Transfer",
      "type": "event"
    },
    {
      "inputs": [
        {
          "internalType": "address",
          "name": "to",
          "type": "address"
        },
        {
          "internalType": "uint256",
          "name": "tokenId",
          "type": "uint256"
        }
      ],
      "name": "approve",
      "outputs": [],
      "stateMutability": "nonpayable",
      "type": "function"
    },
    {
      "inputs": [
        {
          "internalType": "address",
          "name": "owner",
          "type": "address"
        }
      ],
      "name": "balanceOf",
      "outputs": [
        {
          "internalType": "uint256",
          "name": "",
          "type": "uint256"
        }
      ],
      "stateMutability": "view",
      "type": "function",
      "constant": true
    },
    {
      "inputs": [
        {
          "internalType": "uint256",
          "name": "tokenId",
          "type": "uint256"
        }
      ],
      "name": "getApproved",
      "outputs": [
        {
          "internalType": "address",
          "name": "",
          "type": "address"
        }
      ],
      "stateMutability": "view",
      "type": "function",
      "constant": true
    },
    {
      "inputs": [
        {
          "internalType": "address",
          "name": "owner",
          "type": "address"
        },
        {
          "internalType": "address",
          "name": "operator",
          "type": "address"
        }
      ],
      "name": "isApprovedForAll",
      "outputs": [
        {
          "internalType": "bool",
          "name": "",
          "type": "bool"
        }
      ],
      "stateMutability": "view",
      "type": "function",
      "constant": true
    },
    {
      "inputs": [],
      "name": "name",
      "outputs": [
        {
          "internalType": "string",
          "name": "",
          "type": "string"
        }
      ],
      "stateMutability": "view",
      "type": "function",
      "constant": true
    },
    {
      "inputs": [
        {
          "internalType": "uint256",
          "name": "tokenId",
          "type": "uint256"
        }
      ],
      "name": "ownerOf",
      "outputs": [
        {
          "internalType": "address",
          "name": "",
          "type": "address"
        }
      ],
      "stateMutability": "view",
      "type": "function",
      "constant": true
    },
    {
      "inputs": [
        {
          "internalType": "address",
          "name": "from",
          "type": "address"
        },
        {
          "internalType": "address",
          "name": "to",
          "type": "address"
        },
        {
          "internalType": "uint256",
          "name": "tokenId",
          "type": "uint256"
        }
      ],
      "name": "safeTransferFrom",
      "outputs": [],
      "stateMutability": "nonpayable",
      "type": "function"
    },
    {
      "inputs": [
        {
          "internalType": "address",
          "name": "from",
          "type": "address"
        },
        {
          "internalType": "address",
          "name": "to",
          "type": "address"
        },
        {
          "internalType": "uint256",
          "name": "tokenId",
          "type": "uint256"
        },
        {
          "internalType": "bytes",
          "name": "_data",
          "type": "bytes"
        }
      ],
      "name": "safeTransferFrom",
      "outputs": [],
      "stateMutability": "nonpayable",
      "type": "function"
    },
    {
      "inputs": [
        {
          "internalType": "address",
          "name": "operator",
          "type": "address"
        },
        {
          "internalType": "bool",
          "name": "approved",
          "type": "bool"
        }
      ],
      "name": "setApprovalForAll",
      "outputs": [],
      "stateMutability": "nonpayable",
      "type": "function"
    },
    {
      "inputs": [
        {
          "internalType": "bytes4",
          "name": "interfaceId",
          "type": "bytes4"
        }
      ],
      "name": "supportsInterface",
      "outputs": [
        {
          "internalType": "bool",
          "name": "",
          "type": "bool"
        }
      ],
      "stateMutability": "view",
      "type": "function",
      "constant": true
    },
    {
      "inputs": [],
      "name": "symbol",
      "outputs": [
        {
          "internalType": "string",
          "name": "",
          "type": "string"
        }
      ],
      "stateMutability": "view",
      "type": "function",
      "constant": true
    },
    {
      "inputs": [
        {
          "internalType": "uint256",
          "name": "tokenId",
          "type": "uint256"
        }
      ],
      "name": "tokenURI",
      "outputs": [
        {
          "internalType": "string",
          "name": "",
          "type": "string"
        }
      ],
      "stateMutability": "view",
      "type": "function",
      "constant": true
    },
    {
      "inputs": [
        {
          "internalType": "address",
          "name": "from",
          "type": "address"
        },
        {
          "internalType": "address",
          "name": "to",
          "type": "address"
        },
        {
          "internalType": "uint256",
          "name": "tokenId",
          "type": "uint256"
        }
      ],
      "name": "transferFrom",
      "outputs": [],
      "stateMutability": "nonpayable",
      "type": "function"
    },
    {
      "inputs": [
        {
          "internalType": "uint256",
          "name": "tokenId",
          "type": "uint256"
        }
      ],
      "name": "pickRandomFirstWord",
      "outputs": [
        {
          "internalType": "string",
          "name": "",
          "type": "string"
        }
      ],
      "stateMutability": "view",
      "type": "function",
      "constant": true
    },
    {
      "inputs": [
        {
          "internalType": "uint256",
          "name": "tokenId",
          "type": "uint256"
        }
      ],
      "name": "pickRandomSecondWord",
      "outputs": [
        {
          "internalType": "string",
          "name": "",
          "type": "string"
        }
      ],
      "stateMutability": "view",
      "type": "function",
      "constant": true
    },
    {
      "inputs": [
        {
          "internalType": "uint256",
          "name": "tokenId",
          "type": "uint256"
        }
      ],
      "name": "pickRandomThirdWord",
      "outputs": [
        {
          "internalType": "string",
          "name": "",
          "type": "string"
        }
      ],
      "stateMutability": "view",
      "type": "function",
      "constant": true
    },
    {
      "inputs": [
        {
          "internalType": "uint256",
          "name": "tokenId",
          "type": "uint256"
        }
      ],
      "name": "pickRandomColor",
      "outputs": [
        {
          "internalType": "string",
          "name": "",
          "type": "string"
        }
      ],
      "stateMutability": "view",
      "type": "function",
      "constant": true
    },
    {
      "inputs": [],
      "name": "getTotalNFTsMintedSoFar",
      "outputs": [
        {
          "internalType": "uint256",
          "name": "",
          "type": "uint256"
        }
      ],
      "stateMutability": "view",
      "type": "function",
      "constant": true
    },
    {
      "inputs": [],
      "name": "mintNFT",
      "outputs": [],
      "stateMutability": "nonpayable",
      "type": "function"
    }
  ],
  "bytecode": "0x608060405260405180610100016040528060d3815260200162004a6460d3913960089080519060200190620000369291906200082c565b5060405180608001604052806056815260200162004b376056913960099080519060200190620000689291906200082c565b506040518060c001604052806040518060400160405280600581526020017f536c69636b00000000000000000000000000000000000000000000000000000081525081526020016040518060400160405280600781526020017f536c6964696e670000000000000000000000000000000000000000000000000081525081526020016040518060400160405280600881526020017f466c617070696e6700000000000000000000000000000000000000000000000081525081526020016040518060400160405280600881526020017f466c697070696e6700000000000000000000000000000000000000000000000081525081526020016040518060400160405280600781526020017f536f6464696e670000000000000000000000000000000000000000000000000081525081526020016040518060400160405280600881526020017f57686f7070696e67000000000000000000000000000000000000000000000000815250815250600a906006620001e6929190620008bd565b506040518060c001604052806040518060400160405280600681526020017f466c616e6765000000000000000000000000000000000000000000000000000081525081526020016040518060400160405280600681526020017f53696d706c65000000000000000000000000000000000000000000000000000081525081526020016040518060400160405280600881526020017f4372617070696e6700000000000000000000000000000000000000000000000081525081526020016040518060400160405280600981526020017f48756d6f6e676f7573000000000000000000000000000000000000000000000081525081526020016040518060400160405280600681526020017f536c69707079000000000000000000000000000000000000000000000000000081525081526020016040518060400160405280600381526020017f6661740000000000000000000000000000000000000000000000000000000000815250815250600b90600662000364929190620008bd565b506040518060c001604052806040518060400160405280600581526020017f4d6f6e677900000000000000000000000000000000000000000000000000000081525081526020016040518060400160405280600781526020017f436162626167650000000000000000000000000000000000000000000000000081525081526020016040518060400160405280600781526020017f4c6574747563650000000000000000000000000000000000000000000000000081525081526020016040518060400160405280600681526020017f5475726e6970000000000000000000000000000000000000000000000000000081525081526020016040518060400160405280600681526020017f467269646765000000000000000000000000000000000000000000000000000081525081526020016040518060400160405280600681526020017f436172726f740000000000000000000000000000000000000000000000000000815250815250600c906006620004e2929190620008bd565b506040518060c001604052806040518060400160405280600381526020017f726564000000000000000000000000000000000000000000000000000000000081525081526020016040518060400160405280600781526020017f233038433241380000000000000000000000000000000000000000000000000081525081526020016040518060400160405280600581526020017f626c61636b00000000000000000000000000000000000000000000000000000081525081526020016040518060400160405280600681526020017f79656c6c6f77000000000000000000000000000000000000000000000000000081525081526020016040518060400160405280600481526020017f626c75650000000000000000000000000000000000000000000000000000000081525081526020016040518060400160405280600581526020017f677265656e000000000000000000000000000000000000000000000000000000815250815250600d90600662000660929190620008bd565b503480156200066e57600080fd5b506040518060400160405280600981526020017f5371756172654e465400000000000000000000000000000000000000000000008152506040518060400160405280600681526020017f53515541524500000000000000000000000000000000000000000000000000008152508160009080519060200190620006f39291906200082c565b5080600190805190602001906200070c9291906200082c565b5050506200075a6040518060400160405280601e81526020017f54686973206973206d79204e465420636f6e74726163742e20576f61682100008152506200076060201b6200155b1760201c565b62000ade565b620008008160405160240162000777919062000a55565b6040516020818303038152906040527f41304fac000000000000000000000000000000000000000000000000000000007bffffffffffffffffffffffffffffffffffffffffffffffffffffffff19166020820180517bffffffffffffffffffffffffffffffffffffffffffffffffffffffff83818316178352505050506200080360201b60201c565b50565b60008151905060006a636f6e736f6c652e6c6f679050602083016000808483855afa5050505050565b8280546200083a9062000aa8565b90600052602060002090601f0160209004810192826200085e5760008555620008aa565b82601f106200087957805160ff1916838001178555620008aa565b82800160010185558215620008aa579182015b82811115620008a95782518255916020019190600101906200088c565b5b509050620008b9919062000924565b5090565b82805482825590600052602060002090810192821562000911579160200282015b8281111562000910578251829080519060200190620008ff9291906200082c565b5091602001919060010190620008de565b5b50905062000920919062000943565b5090565b5b808211156200093f57600081600090555060010162000925565b5090565b5b808211156200096757600081816200095d91906200096b565b5060010162000944565b5090565b508054620009799062000aa8565b6000825580601f106200098d5750620009ae565b601f016020900490600052602060002090810190620009ad919062000924565b5b50565b600081519050919050565b600082825260208201905092915050565b60005b83811015620009ed578082015181840152602081019050620009d0565b83811115620009fd576000848401525b50505050565b6000601f19601f8301169050919050565b600062000a2182620009b1565b62000a2d8185620009bc565b935062000a3f818560208601620009cd565b62000a4a8162000a03565b840191505092915050565b6000602082019050818103600083015262000a71818462000a14565b905092915050565b7f4e487b7100000000000000000000000000000000000000000000000000000000600052602260045260246000fd5b6000600282049050600182168062000ac157607f821691505b6020821081141562000ad85762000ad762000a79565b5b50919050565b613f768062000aee6000396000f3fe608060405234801561001057600080fd5b50600436106101215760003560e01c8063514dc8c6116100ad578063b187301f11610071578063b187301f1461031a578063b88d4fde1461034a578063c575757a14610366578063c87b56dd14610396578063e985e9c5146103c657610121565b8063514dc8c6146102505780636352211e1461028057806370a08231146102b057806395d89b41146102e0578063a22cb465146102fe57610121565b8063095ea7b3116100f4578063095ea7b3146101c257806314f710fe146101de57806323b872dd146101e85780632de38d681461020457806342842e0e1461023457610121565b806301ffc9a714610126578063060475901461015657806306fdde0314610174578063081812fc14610192575b600080fd5b610140600480360381019061013b91906126a8565b6103f6565b60405161014d91906126f0565b60405180910390f35b61015e6104d8565b60405161016b9190612724565b60405180910390f35b61017c6104e9565b60405161018991906127d8565b60405180910390f35b6101ac60048036038101906101a79190612826565b61057b565b6040516101b99190612894565b60405180910390f35b6101dc60048036038101906101d791906128db565b610600565b005b6101e6610718565b005b61020260048036038101906101fd919061291b565b610a52565b005b61021e60048036038101906102199190612826565b610ab2565b60405161022b91906127d8565b60405180910390f35b61024e6004803603810190610249919061291b565b610baa565b005b61026a60048036038101906102659190612826565b610bca565b60405161027791906127d8565b60405180910390f35b61029a60048036038101906102959190612826565b610cc2565b6040516102a79190612894565b60405180910390f35b6102ca60048036038101906102c5919061296e565b610d74565b6040516102d79190612724565b60405180910390f35b6102e8610e2c565b6040516102f591906127d8565b60405180910390f35b610318600480360381019061031391906129c7565b610ebe565b005b610334600480360381019061032f9190612826565b61103f565b60405161034191906127d8565b60405180910390f35b610364600480360381019061035f9190612b3c565b611137565b005b610380600480360381019061037b9190612826565b611199565b60405161038d91906127d8565b60405180910390f35b6103b060048036038101906103ab9190612826565b611375565b6040516103bd91906127d8565b60405180910390f35b6103e060048036038101906103db9190612bbf565b6114c7565b6040516103ed91906126f0565b60405180910390f35b60007f80ac58cd000000000000000000000000000000000000000000000000000000007bffffffffffffffffffffffffffffffffffffffffffffffffffffffff1916827bffffffffffffffffffffffffffffffffffffffffffffffffffffffff191614806104c157507f5b5e139f000000000000000000000000000000000000000000000000000000007bffffffffffffffffffffffffffffffffffffffffffffffffffffffff1916827bffffffffffffffffffffffffffffffffffffffffffffffffffffffff1916145b806104d157506104d0826115f4565b5b9050919050565b60006104e4600761165e565b905090565b6060600080546104f890612c2e565b80601f016020809104026020016040519081016040528092919081815260200182805461052490612c2e565b80156105715780601f1061054657610100808354040283529160200191610571565b820191906000526020600020905b81548152906001019060200180831161055457829003601f168201915b5050505050905090565b60006105868261166c565b6105c5576040517f08c379a00000000000000000000000000000000000000000000000000000000081526004016105bc90612cd2565b60405180910390fd5b6004600083815260200190815260200160002060009054906101000a900473ffffffffffffffffffffffffffffffffffffffff169050919050565b600061060b82610cc2565b90508073ffffffffffffffffffffffffffffffffffffffff168373ffffffffffffffffffffffffffffffffffffffff16141561067c576040517f08c379a000000000000000000000000000000000000000000000000000000000815260040161067390612d64565b60405180910390fd5b8073ffffffffffffffffffffffffffffffffffffffff1661069b6116d8565b73ffffffffffffffffffffffffffffffffffffffff1614806106ca57506106c9816106c46116d8565b6114c7565b5b610709576040517f08c379a000000000000000000000000000000000000000000000000000000000815260040161070090612df6565b60405180910390fd5b61071383836116e0565b505050565b6014610724600761165e565b1115610765576040517f08c379a000000000000000000000000000000000000000000000000000000000815260040161075c90612e62565b60405180910390fd5b6000610771600761165e565b9050600061077e82610ab2565b9050600061078b8361103f565b9050600061079884611199565b905060008383836040516020016107b193929190612ebe565b60405160208183030381529060405290506108016040518060400160405280600e81526020017f636f6d62696e6564576f72643a2000000000000000000000000000000000000081525082611799565b600061080c86610bca565b905060006008826009856040516020016108299493929190612fcf565b60405160208183030381529060405290506108796040518060400160405280600a81526020017f66696e616c5376673a200000000000000000000000000000000000000000000081525082611799565b60006108ad8461088884611835565b60405160200161089992919061316e565b604051602081830303815290604052611835565b90506108ee6040518060400160405280601581526020017f42415345363420656e636f646564204a534f4e3a20000000000000000000000081525082611799565b60008160405160200161090191906131ff565b60405160208183030381529060405290506109516040518060400160405280600f81526020017f66696e616c546f6b656e5572693a20000000000000000000000000000000000081525082611799565b61098f6040518060400160405280601581526020017f0a2d2d2d2d2d2d2d2d2d2d2d2d2d2d2d2d2d2d2d2d000000000000000000000081525061155b565b6109cd6040518060400160405280601581526020017f2d2d2d2d2d2d2d2d2d2d2d2d2d2d2d2d2d2d2d2d0a000000000000000000000081525061155b565b6109d7338a6119cd565b6109e189826119eb565b6109eb6007611a5f565b610a0e604051806060016040528060278152602001613f1a602791398a33611a75565b7febb98688741ffa4c7589bf325de30cf7becb63de567842e1ccdb6cb949fdc82c338a604051610a3f929190613221565b60405180910390a1505050505050505050565b610a63610a5d6116d8565b82611b14565b610aa2576040517f08c379a0000000000000000000000000000000000000000000000000000000008152600401610a99906132bc565b60405180910390fd5b610aad838383611bf2565b505050565b60606000610ae6610ac284611e4e565b604051602001610ad29190613328565b604051602081830303815290604052611faf565b9050600a8054905081610af99190613379565b9050600a8181548110610b0f57610b0e6133aa565b5b906000526020600020018054610b2490612c2e565b80601f0160208091040260200160405190810160405280929190818152602001828054610b5090612c2e565b8015610b9d5780601f10610b7257610100808354040283529160200191610b9d565b820191906000526020600020905b815481529060010190602001808311610b8057829003601f168201915b5050505050915050919050565b610bc583838360405180602001604052806000815250611137565b505050565b60606000610bfe610bda84611e4e565b604051602001610bea9190613425565b604051602081830303815290604052611faf565b9050600d8054905081610c119190613379565b9050600d8181548110610c2757610c266133aa565b5b906000526020600020018054610c3c90612c2e565b80601f0160208091040260200160405190810160405280929190818152602001828054610c6890612c2e565b8015610cb55780601f10610c8a57610100808354040283529160200191610cb5565b820191906000526020600020905b815481529060010190602001808311610c9857829003601f168201915b5050505050915050919050565b6000806002600084815260200190815260200160002060009054906101000a900473ffffffffffffffffffffffffffffffffffffffff169050600073ffffffffffffffffffffffffffffffffffffffff168173ffffffffffffffffffffffffffffffffffffffff161415610d6b576040517f08c379a0000000000000000000000000000000000000000000000000000000008152600401610d62906134b9565b60405180910390fd5b80915050919050565b60008073ffffffffffffffffffffffffffffffffffffffff168273ffffffffffffffffffffffffffffffffffffffff161415610de5576040517f08c379a0000000000000000000000000000000000000000000000000000000008152600401610ddc9061354b565b60405180910390fd5b600360008373ffffffffffffffffffffffffffffffffffffffff1673ffffffffffffffffffffffffffffffffffffffff168152602001908152602001600020549050919050565b606060018054610e3b90612c2e565b80601f0160208091040260200160405190810160405280929190818152602001828054610e6790612c2e565b8015610eb45780601f10610e8957610100808354040283529160200191610eb4565b820191906000526020600020905b815481529060010190602001808311610e9757829003601f168201915b5050505050905090565b610ec66116d8565b73ffffffffffffffffffffffffffffffffffffffff168273ffffffffffffffffffffffffffffffffffffffff161415610f34576040517f08c379a0000000000000000000000000000000000000000000000000000000008152600401610f2b906135b7565b60405180910390fd5b8060056000610f416116d8565b73ffffffffffffffffffffffffffffffffffffffff1673ffffffffffffffffffffffffffffffffffffffff16815260200190815260200160002060008473ffffffffffffffffffffffffffffffffffffffff1673ffffffffffffffffffffffffffffffffffffffff16815260200190815260200160002060006101000a81548160ff0219169083151502179055508173ffffffffffffffffffffffffffffffffffffffff16610fee6116d8565b73ffffffffffffffffffffffffffffffffffffffff167f17307eab39ab6107e8899845ad3d59bd9653f200f220920489ca2b5937696c318360405161103391906126f0565b60405180910390a35050565b6060600061107361104f84611e4e565b60405160200161105f9190613623565b604051602081830303815290604052611faf565b9050600b80549050816110869190613379565b9050600b818154811061109c5761109b6133aa565b5b9060005260206000200180546110b190612c2e565b80601f01602080910402602001604051908101604052809291908181526020018280546110dd90612c2e565b801561112a5780601f106110ff5761010080835404028352916020019161112a565b820191906000526020600020905b81548152906001019060200180831161110d57829003601f168201915b5050505050915050919050565b6111486111426116d8565b83611b14565b611187576040517f08c379a000000000000000000000000000000000000000000000000000000000815260040161117e906132bc565b60405180910390fd5b61119384848484611fe2565b50505050565b60606112016040518060400160405280600d81526020017f52616e646f6d20536565643a20000000000000000000000000000000000000008152506111dd84611e4e565b6040516020016111ed9190613691565b604051602081830303815290604052611799565b600061123361120f84611e4e565b60405160200161121f9190613691565b604051602081830303815290604052611faf565b90506112746040518060400160405280601a81526020017f7069636b52616e646f6d5468697264576f72642072616e643a200000000000008152508261203e565b600c80549050816112859190613379565b90506112c66040518060400160405280601a81526020017f7069636b52616e646f6d5468697264576f72642072616e643a200000000000008152508261203e565b600c81815481106112da576112d96133aa565b5b9060005260206000200180546112ef90612c2e565b80601f016020809104026020016040519081016040528092919081815260200182805461131b90612c2e565b80156113685780601f1061133d57610100808354040283529160200191611368565b820191906000526020600020905b81548152906001019060200180831161134b57829003601f168201915b5050505050915050919050565b60606113808261166c565b6113bf576040517f08c379a00000000000000000000000000000000000000000000000000000000081526004016113b690613725565b60405180910390fd5b60006006600084815260200190815260200160002080546113df90612c2e565b80601f016020809104026020016040519081016040528092919081815260200182805461140b90612c2e565b80156114585780601f1061142d57610100808354040283529160200191611458565b820191906000526020600020905b81548152906001019060200180831161143b57829003601f168201915b5050505050905060006114696120da565b905060008151141561147f5781925050506114c2565b6000825111156114b457808260405160200161149c929190613745565b604051602081830303815290604052925050506114c2565b6114bd846120f1565b925050505b919050565b6000600560008473ffffffffffffffffffffffffffffffffffffffff1673ffffffffffffffffffffffffffffffffffffffff16815260200190815260200160002060008373ffffffffffffffffffffffffffffffffffffffff1673ffffffffffffffffffffffffffffffffffffffff16815260200190815260200160002060009054906101000a900460ff16905092915050565b6115f18160405160240161156f91906127d8565b6040516020818303038152906040527f41304fac000000000000000000000000000000000000000000000000000000007bffffffffffffffffffffffffffffffffffffffffffffffffffffffff19166020820180517bffffffffffffffffffffffffffffffffffffffffffffffffffffffff8381831617835250505050612198565b50565b60007f01ffc9a7000000000000000000000000000000000000000000000000000000007bffffffffffffffffffffffffffffffffffffffffffffffffffffffff1916827bffffffffffffffffffffffffffffffffffffffffffffffffffffffff1916149050919050565b600081600001549050919050565b60008073ffffffffffffffffffffffffffffffffffffffff166002600084815260200190815260200160002060009054906101000a900473ffffffffffffffffffffffffffffffffffffffff1673ffffffffffffffffffffffffffffffffffffffff1614159050919050565b600033905090565b816004600083815260200190815260200160002060006101000a81548173ffffffffffffffffffffffffffffffffffffffff021916908373ffffffffffffffffffffffffffffffffffffffff160217905550808273ffffffffffffffffffffffffffffffffffffffff1661175383610cc2565b73ffffffffffffffffffffffffffffffffffffffff167f8c5be1e5ebec7d5bd14f71427d1e84f3dd0314c0f7b2291e5b200ac8c7c3b92560405160405180910390a45050565b61183182826040516024016117af929190613769565b6040516020818303038152906040527f4b5c4277000000000000000000000000000000000000000000000000000000007bffffffffffffffffffffffffffffffffffffffffffffffffffffffff19166020820180517bffffffffffffffffffffffffffffffffffffffffffffffffffffffff8381831617835250505050612198565b5050565b6060600082519050600081141561185e57604051806020016040528060008152509150506119c8565b6000600360028361186f91906137cf565b6118799190613825565b60046118859190613856565b9050600060208261189691906137cf565b67ffffffffffffffff8111156118af576118ae612a11565b5b6040519080825280601f01601f1916602001820160405280156118e15781602001600182028036833780820191505090505b5090506000604051806060016040528060408152602001613eda604091399050600181016020830160005b868110156119855760038101905062ffffff818a015116603f8160121c168401518060081b905060ff603f83600c1c1686015116810190508060081b905060ff603f8360061c1686015116810190508060081b905060ff603f831686015116810190508060e01b9050808452600484019350505061190c565b50600386066001811461199f57600281146119af576119ba565b613d3d60f01b60028303526119ba565b603d60f81b60018303525b508484525050819450505050505b919050565b6119e78282604051806020016040528060008152506121c1565b5050565b6119f48261166c565b611a33576040517f08c379a0000000000000000000000000000000000000000000000000000000008152600401611a2a90613922565b60405180910390fd5b80600660008481526020019081526020016000209080519060200190611a5a929190612599565b505050565b6001816000016000828254019250508190555050565b611b0f838383604051602401611a8d93929190613942565b6040516020818303038152906040527fe3849f79000000000000000000000000000000000000000000000000000000007bffffffffffffffffffffffffffffffffffffffffffffffffffffffff19166020820180517bffffffffffffffffffffffffffffffffffffffffffffffffffffffff8381831617835250505050612198565b505050565b6000611b1f8261166c565b611b5e576040517f08c379a0000000000000000000000000000000000000000000000000000000008152600401611b55906139f2565b60405180910390fd5b6000611b6983610cc2565b90508073ffffffffffffffffffffffffffffffffffffffff168473ffffffffffffffffffffffffffffffffffffffff161480611bd857508373ffffffffffffffffffffffffffffffffffffffff16611bc08461057b565b73ffffffffffffffffffffffffffffffffffffffff16145b80611be95750611be881856114c7565b5b91505092915050565b8273ffffffffffffffffffffffffffffffffffffffff16611c1282610cc2565b73ffffffffffffffffffffffffffffffffffffffff1614611c68576040517f08c379a0000000000000000000000000000000000000000000000000000000008152600401611c5f90613a84565b60405180910390fd5b600073ffffffffffffffffffffffffffffffffffffffff168273ffffffffffffffffffffffffffffffffffffffff161415611cd8576040517f08c379a0000000000000000000000000000000000000000000000000000000008152600401611ccf90613b16565b60405180910390fd5b611ce383838361221c565b611cee6000826116e0565b6001600360008573ffffffffffffffffffffffffffffffffffffffff1673ffffffffffffffffffffffffffffffffffffffff1681526020019081526020016000206000828254611d3e9190613b36565b925050819055506001600360008473ffffffffffffffffffffffffffffffffffffffff1673ffffffffffffffffffffffffffffffffffffffff1681526020019081526020016000206000828254611d9591906137cf565b92505081905550816002600083815260200190815260200160002060006101000a81548173ffffffffffffffffffffffffffffffffffffffff021916908373ffffffffffffffffffffffffffffffffffffffff160217905550808273ffffffffffffffffffffffffffffffffffffffff168473ffffffffffffffffffffffffffffffffffffffff167fddf252ad1be2c89b69c2b068fc378daa952ba7f163c4a11628f55a4df523b3ef60405160405180910390a4505050565b60606000821415611e96576040518060400160405280600181526020017f30000000000000000000000000000000000000000000000000000000000000008152509050611faa565b600082905060005b60008214611ec8578080611eb190613b6a565b915050600a82611ec19190613825565b9150611e9e565b60008167ffffffffffffffff811115611ee457611ee3612a11565b5b6040519080825280601f01601f191660200182016040528015611f165781602001600182028036833780820191505090505b5090505b60008514611fa357600182611f2f9190613b36565b9150600a85611f3e9190613379565b6030611f4a91906137cf565b60f81b818381518110611f6057611f5f6133aa565b5b60200101907effffffffffffffffffffffffffffffffffffffffffffffffffffffffffffff1916908160001a905350600a85611f9c9190613825565b9450611f1a565b8093505050505b919050565b600081604051602001611fc29190613bb3565b6040516020818303038152906040528051906020012060001c9050919050565b611fed848484611bf2565b611ff984848484612221565b612038576040517f08c379a000000000000000000000000000000000000000000000000000000000815260040161202f90613c3c565b60405180910390fd5b50505050565b6120d68282604051602401612054929190613c5c565b6040516020818303038152906040527f9710a9d0000000000000000000000000000000000000000000000000000000007bffffffffffffffffffffffffffffffffffffffffffffffffffffffff19166020820180517bffffffffffffffffffffffffffffffffffffffffffffffffffffffff8381831617835250505050612198565b5050565b606060405180602001604052806000815250905090565b60606120fc8261166c565b61213b576040517f08c379a000000000000000000000000000000000000000000000000000000000815260040161213290613cfe565b60405180910390fd5b60006121456120da565b905060008151116121655760405180602001604052806000815250612190565b8061216f84611e4e565b604051602001612180929190613745565b6040516020818303038152906040525b915050919050565b60008151905060006a636f6e736f6c652e6c6f679050602083016000808483855afa5050505050565b6121cb83836123b8565b6121d86000848484612221565b612217576040517f08c379a000000000000000000000000000000000000000000000000000000000815260040161220e90613c3c565b60405180910390fd5b505050565b505050565b60006122428473ffffffffffffffffffffffffffffffffffffffff16612586565b156123ab578373ffffffffffffffffffffffffffffffffffffffff1663150b7a0261226b6116d8565b8786866040518563ffffffff1660e01b815260040161228d9493929190613d73565b602060405180830381600087803b1580156122a757600080fd5b505af19250505080156122d857506040513d601f19601f820116820180604052508101906122d59190613dd4565b60015b61235b573d8060008114612308576040519150601f19603f3d011682016040523d82523d6000602084013e61230d565b606091505b50600081511415612353576040517f08c379a000000000000000000000000000000000000000000000000000000000815260040161234a90613c3c565b60405180910390fd5b805181602001fd5b63150b7a0260e01b7bffffffffffffffffffffffffffffffffffffffffffffffffffffffff1916817bffffffffffffffffffffffffffffffffffffffffffffffffffffffff1916149150506123b0565b600190505b949350505050565b600073ffffffffffffffffffffffffffffffffffffffff168273ffffffffffffffffffffffffffffffffffffffff161415612428576040517f08c379a000000000000000000000000000000000000000000000000000000000815260040161241f90613e4d565b60405180910390fd5b6124318161166c565b15612471576040517f08c379a000000000000000000000000000000000000000000000000000000000815260040161246890613eb9565b60405180910390fd5b61247d6000838361221c565b6001600360008473ffffffffffffffffffffffffffffffffffffffff1673ffffffffffffffffffffffffffffffffffffffff16815260200190815260200160002060008282546124cd91906137cf565b92505081905550816002600083815260200190815260200160002060006101000a81548173ffffffffffffffffffffffffffffffffffffffff021916908373ffffffffffffffffffffffffffffffffffffffff160217905550808273ffffffffffffffffffffffffffffffffffffffff16600073ffffffffffffffffffffffffffffffffffffffff167fddf252ad1be2c89b69c2b068fc378daa952ba7f163c4a11628f55a4df523b3ef60405160405180910390a45050565b600080823b905060008111915050919050565b8280546125a590612c2e565b90600052602060002090601f0160209004810192826125c7576000855561260e565b82601f106125e057805160ff191683800117855561260e565b8280016001018555821561260e579182015b8281111561260d5782518255916020019190600101906125f2565b5b50905061261b919061261f565b5090565b5b80821115612638576000816000905550600101612620565b5090565b6000604051905090565b600080fd5b600080fd5b60007fffffffff0000000000000000000000000000000000000000000000000000000082169050919050565b61268581612650565b811461269057600080fd5b50565b6000813590506126a28161267c565b92915050565b6000602082840312156126be576126bd612646565b5b60006126cc84828501612693565b91505092915050565b60008115159050919050565b6126ea816126d5565b82525050565b600060208201905061270560008301846126e1565b92915050565b6000819050919050565b61271e8161270b565b82525050565b60006020820190506127396000830184612715565b92915050565b600081519050919050565b600082825260208201905092915050565b60005b8381101561277957808201518184015260208101905061275e565b83811115612788576000848401525b50505050565b6000601f19601f8301169050919050565b60006127aa8261273f565b6127b4818561274a565b93506127c481856020860161275b565b6127cd8161278e565b840191505092915050565b600060208201905081810360008301526127f2818461279f565b905092915050565b6128038161270b565b811461280e57600080fd5b50565b600081359050612820816127fa565b92915050565b60006020828403121561283c5761283b612646565b5b600061284a84828501612811565b91505092915050565b600073ffffffffffffffffffffffffffffffffffffffff82169050919050565b600061287e82612853565b9050919050565b61288e81612873565b82525050565b60006020820190506128a96000830184612885565b92915050565b6128b881612873565b81146128c357600080fd5b50565b6000813590506128d5816128af565b92915050565b600080604083850312156128f2576128f1612646565b5b6000612900858286016128c6565b925050602061291185828601612811565b9150509250929050565b60008060006060848603121561293457612933612646565b5b6000612942868287016128c6565b9350506020612953868287016128c6565b925050604061296486828701612811565b9150509250925092565b60006020828403121561298457612983612646565b5b6000612992848285016128c6565b91505092915050565b6129a4816126d5565b81146129af57600080fd5b50565b6000813590506129c18161299b565b92915050565b600080604083850312156129de576129dd612646565b5b60006129ec858286016128c6565b92505060206129fd858286016129b2565b9150509250929050565b600080fd5b600080fd5b7f4e487b7100000000000000000000000000000000000000000000000000000000600052604160045260246000fd5b612a498261278e565b810181811067ffffffffffffffff82111715612a6857612a67612a11565b5b80604052505050565b6000612a7b61263c565b9050612a878282612a40565b919050565b600067ffffffffffffffff821115612aa757612aa6612a11565b5b612ab08261278e565b9050602081019050919050565b82818337600083830152505050565b6000612adf612ada84612a8c565b612a71565b905082815260208101848484011115612afb57612afa612a0c565b5b612b06848285612abd565b509392505050565b600082601f830112612b2357612b22612a07565b5b8135612b33848260208601612acc565b91505092915050565b60008060008060808587031215612b5657612b55612646565b5b6000612b64878288016128c6565b9450506020612b75878288016128c6565b9350506040612b8687828801612811565b925050606085013567ffffffffffffffff811115612ba757612ba661264b565b5b612bb387828801612b0e565b91505092959194509250565b60008060408385031215612bd657612bd5612646565b5b6000612be4858286016128c6565b9250506020612bf5858286016128c6565b9150509250929050565b7f4e487b7100000000000000000000000000000000000000000000000000000000600052602260045260246000fd5b60006002820490506001821680612c4657607f821691505b60208210811415612c5a57612c59612bff565b5b50919050565b7f4552433732313a20617070726f76656420717565727920666f72206e6f6e657860008201527f697374656e7420746f6b656e0000000000000000000000000000000000000000602082015250565b6000612cbc602c8361274a565b9150612cc782612c60565b604082019050919050565b60006020820190508181036000830152612ceb81612caf565b9050919050565b7f4552433732313a20617070726f76616c20746f2063757272656e74206f776e6560008201527f7200000000000000000000000000000000000000000000000000000000000000602082015250565b6000612d4e60218361274a565b9150612d5982612cf2565b604082019050919050565b60006020820190508181036000830152612d7d81612d41565b9050919050565b7f4552433732313a20617070726f76652063616c6c6572206973206e6f74206f7760008201527f6e6572206e6f7220617070726f76656420666f7220616c6c0000000000000000602082015250565b6000612de060388361274a565b9150612deb82612d84565b604082019050919050565b60006020820190508181036000830152612e0f81612dd3565b9050919050565b7f546865726520617265206e6f204e465473206c65667420746f206d696e740000600082015250565b6000612e4c601e8361274a565b9150612e5782612e16565b602082019050919050565b60006020820190508181036000830152612e7b81612e3f565b9050919050565b600081905092915050565b6000612e988261273f565b612ea28185612e82565b9350612eb281856020860161275b565b80840191505092915050565b6000612eca8286612e8d565b9150612ed68285612e8d565b9150612ee28284612e8d565b9150819050949350505050565b60008190508160005260206000209050919050565b60008154612f1181612c2e565b612f1b8186612e82565b94506001821660008114612f365760018114612f4757612f7a565b60ff19831686528186019350612f7a565b612f5085612eef565b60005b83811015612f7257815481890152600182019150602081019050612f53565b838801955050505b50505092915050565b7f3c2f746578743e3c2f7376673e00000000000000000000000000000000000000600082015250565b6000612fb9600d83612e82565b9150612fc482612f83565b600d82019050919050565b6000612fdb8287612f04565b9150612fe78286612e8d565b9150612ff38285612f04565b9150612fff8284612e8d565b915061300a82612fac565b915081905095945050505050565b7f7b226e616d65223a202200000000000000000000000000000000000000000000600082015250565b600061304e600a83612e82565b915061305982613018565b600a82019050919050565b7f222c20226465736372697074696f6e223a20224120686967686c79206163636c60008201527f61696d656420636f6c6c656374696f6e206f6620737175617265732e222c202260208201527f696d616765223a2022646174613a696d6167652f7376672b786d6c3b6261736560408201527f36342c0000000000000000000000000000000000000000000000000000000000606082015250565b600061310c606383612e82565b915061311782613064565b606382019050919050565b7f227d000000000000000000000000000000000000000000000000000000000000600082015250565b6000613158600283612e82565b915061316382613122565b600282019050919050565b600061317982613041565b91506131858285612e8d565b9150613190826130ff565b915061319c8284612e8d565b91506131a78261314b565b91508190509392505050565b7f646174613a6170706c69636174696f6e2f6a736f6e3b6261736536342c000000600082015250565b60006131e9601d83612e82565b91506131f4826131b3565b601d82019050919050565b600061320a826131dc565b91506132168284612e8d565b915081905092915050565b60006040820190506132366000830185612885565b6132436020830184612715565b9392505050565b7f4552433732313a207472616e736665722063616c6c6572206973206e6f74206f60008201527f776e6572206e6f7220617070726f766564000000000000000000000000000000602082015250565b60006132a660318361274a565b91506132b18261324a565b604082019050919050565b600060208201905081810360008301526132d581613299565b9050919050565b7f46495253545f574f524400000000000000000000000000000000000000000000600082015250565b6000613312600a83612e82565b915061331d826132dc565b600a82019050919050565b600061333382613305565b915061333f8284612e8d565b915081905092915050565b7f4e487b7100000000000000000000000000000000000000000000000000000000600052601260045260246000fd5b60006133848261270b565b915061338f8361270b565b92508261339f5761339e61334a565b5b828206905092915050565b7f4e487b7100000000000000000000000000000000000000000000000000000000600052603260045260246000fd5b7f434f4c4f52000000000000000000000000000000000000000000000000000000600082015250565b600061340f600583612e82565b915061341a826133d9565b600582019050919050565b600061343082613402565b915061343c8284612e8d565b915081905092915050565b7f4552433732313a206f776e657220717565727920666f72206e6f6e657869737460008201527f656e7420746f6b656e0000000000000000000000000000000000000000000000602082015250565b60006134a360298361274a565b91506134ae82613447565b604082019050919050565b600060208201905081810360008301526134d281613496565b9050919050565b7f4552433732313a2062616c616e636520717565727920666f7220746865207a6560008201527f726f206164647265737300000000000000000000000000000000000000000000602082015250565b6000613535602a8361274a565b9150613540826134d9565b604082019050919050565b6000602082019050818103600083015261356481613528565b9050919050565b7f4552433732313a20617070726f766520746f2063616c6c657200000000000000600082015250565b60006135a160198361274a565b91506135ac8261356b565b602082019050919050565b600060208201905081810360008301526135d081613594565b9050919050565b7f5345434f4e445f574f5244000000000000000000000000000000000000000000600082015250565b600061360d600b83612e82565b9150613618826135d7565b600b82019050919050565b600061362e82613600565b915061363a8284612e8d565b915081905092915050565b7f54484952445f574f524400000000000000000000000000000000000000000000600082015250565b600061367b600a83612e82565b915061368682613645565b600a82019050919050565b600061369c8261366e565b91506136a88284612e8d565b915081905092915050565b7f45524337323155524953746f726167653a2055524920717565727920666f722060008201527f6e6f6e6578697374656e7420746f6b656e000000000000000000000000000000602082015250565b600061370f60318361274a565b915061371a826136b3565b604082019050919050565b6000602082019050818103600083015261373e81613702565b9050919050565b60006137518285612e8d565b915061375d8284612e8d565b91508190509392505050565b60006040820190508181036000830152613783818561279f565b90508181036020830152613797818461279f565b90509392505050565b7f4e487b7100000000000000000000000000000000000000000000000000000000600052601160045260246000fd5b60006137da8261270b565b91506137e58361270b565b9250827fffffffffffffffffffffffffffffffffffffffffffffffffffffffffffffffff0382111561381a576138196137a0565b5b828201905092915050565b60006138308261270b565b915061383b8361270b565b92508261384b5761384a61334a565b5b828204905092915050565b60006138618261270b565b915061386c8361270b565b9250817fffffffffffffffffffffffffffffffffffffffffffffffffffffffffffffffff04831182151516156138a5576138a46137a0565b5b828202905092915050565b7f45524337323155524953746f726167653a2055524920736574206f66206e6f6e60008201527f6578697374656e7420746f6b656e000000000000000000000000000000000000602082015250565b600061390c602e8361274a565b9150613917826138b0565b604082019050919050565b6000602082019050818103600083015261393b816138ff565b9050919050565b6000606082019050818103600083015261395c818661279f565b905061396b6020830185612715565b6139786040830184612885565b949350505050565b7f4552433732313a206f70657261746f7220717565727920666f72206e6f6e657860008201527f697374656e7420746f6b656e0000000000000000000000000000000000000000602082015250565b60006139dc602c8361274a565b91506139e782613980565b604082019050919050565b60006020820190508181036000830152613a0b816139cf565b9050919050565b7f4552433732313a207472616e73666572206f6620746f6b656e2074686174206960008201527f73206e6f74206f776e0000000000000000000000000000000000000000000000602082015250565b6000613a6e60298361274a565b9150613a7982613a12565b604082019050919050565b60006020820190508181036000830152613a9d81613a61565b9050919050565b7f4552433732313a207472616e7366657220746f20746865207a65726f2061646460008201527f7265737300000000000000000000000000000000000000000000000000000000602082015250565b6000613b0060248361274a565b9150613b0b82613aa4565b604082019050919050565b60006020820190508181036000830152613b2f81613af3565b9050919050565b6000613b418261270b565b9150613b4c8361270b565b925082821015613b5f57613b5e6137a0565b5b828203905092915050565b6000613b758261270b565b91507fffffffffffffffffffffffffffffffffffffffffffffffffffffffffffffffff821415613ba857613ba76137a0565b5b600182019050919050565b6000613bbf8284612e8d565b915081905092915050565b7f4552433732313a207472616e7366657220746f206e6f6e20455243373231526560008201527f63656976657220696d706c656d656e7465720000000000000000000000000000602082015250565b6000613c2660328361274a565b9150613c3182613bca565b604082019050919050565b60006020820190508181036000830152613c5581613c19565b9050919050565b60006040820190508181036000830152613c76818561279f565b9050613c856020830184612715565b9392505050565b7f4552433732314d657461646174613a2055524920717565727920666f72206e6f60008201527f6e6578697374656e7420746f6b656e0000000000000000000000000000000000602082015250565b6000613ce8602f8361274a565b9150613cf382613c8c565b604082019050919050565b60006020820190508181036000830152613d1781613cdb565b9050919050565b600081519050919050565b600082825260208201905092915050565b6000613d4582613d1e565b613d4f8185613d29565b9350613d5f81856020860161275b565b613d688161278e565b840191505092915050565b6000608082019050613d886000830187612885565b613d956020830186612885565b613da26040830185612715565b8181036060830152613db48184613d3a565b905095945050505050565b600081519050613dce8161267c565b92915050565b600060208284031215613dea57613de9612646565b5b6000613df884828501613dbf565b91505092915050565b7f4552433732313a206d696e7420746f20746865207a65726f2061646472657373600082015250565b6000613e3760208361274a565b9150613e4282613e01565b602082019050919050565b60006020820190508181036000830152613e6681613e2a565b9050919050565b7f4552433732313a20746f6b656e20616c7265616479206d696e74656400000000600082015250565b6000613ea3601c8361274a565b9150613eae82613e6d565b602082019050919050565b60006020820190508181036000830152613ed281613e96565b905091905056fe4142434445464748494a4b4c4d4e4f505152535455565758595a6162636465666768696a6b6c6d6e6f707172737475767778797a303132333435363738392b2f416e204e4654207769746820494420257320686173206265656e206d696e74656420746f202573a26469706673582212201eed2bb0052c1c14005ec7620a2a38b57714350c5da348090636b4987cc323d264736f6c634300080900333c73766720786d6c6e733d27687474703a2f2f7777772e77332e6f72672f323030302f73766727207072657365727665417370656374526174696f3d27784d696e594d696e206d656574272076696577426f783d273020302033353020333530273e3c7374796c653e2e62617365207b2066696c6c3a2077686974653b20666f6e742d66616d696c793a2073657269663b20666f6e742d73697a653a20323470783b207d3c2f7374796c653e3c726563742077696474683d273130302527206865696768743d2731303025272066696c6c3d27272f3e3c7465787420783d273530252720793d273530252720636c6173733d27626173652720646f6d696e616e742d626173656c696e653d276d6964646c652720746578742d616e63686f723d276d6964646c65273e",
  "immutableReferences": {},
  "source": "// SPDX-License-Identifier: MIT\npragma solidity ^0.8.0;\n\n// We first import some OpenZeppelin Contracts.\nimport \"@openzeppelin/contracts/utils/Strings.sol\";\nimport \"@openzeppelin/contracts/token/ERC721/extensions/ERC721URIStorage.sol\";\nimport \"@openzeppelin/contracts/utils/Counters.sol\";\nimport \"hardhat-console/contracts/console.sol\";\n\n// Import helper functions needed for Base62 encoding\nimport { Base64 } from \"./libraries/Base64.sol\";\n\ncontract NftMinter is ERC721URIStorage {\n\n    // Use OpenZeppelin utility to keep track of tokenIds\n    using Counters for Counters.Counter;\n    Counters.Counter private _tokenIds;\n\n    // We split the SVG at the part where it asks for the background color.\n    string svgPartOne = \"<svg xmlns='http://www.w3.org/2000/svg' preserveAspectRatio='xMinYMin meet' viewBox='0 0 350 350'><style>.base { fill: white; font-family: serif; font-size: 24px; }</style><rect width='100%' height='100%' fill='\";\n    string svgPartTwo = \"'/><text x='50%' y='50%' class='base' dominant-baseline='middle' text-anchor='middle'>\";\n\n    string[] firstWords = [\"Slick\", \"Sliding\", \"Flapping\", \"Flipping\", \"Sodding\", \"Whopping\"];\n    string[] secondWords = [\"Flange\", \"Simple\", \"Crapping\", \"Humongous\", \"Slippy\", \"fat\"];\n    string[] thirdWords = [\"Mongy\", \"Cabbage\", \"Lettuce\", \"Turnip\", \"Fridge\", \"Carrot\"];\n    string[] colors = [\"red\", \"#08C2A8\", \"black\", \"yellow\", \"blue\", \"green\"];\n\n    // define an event that canbe emitted after a mint\n    event NewEpicNFTMinted(address sender, uint256 tokenId);\n\n    constructor() ERC721(\"SquareNFT\", \"SQUARE\") { //ERC721URIStorage inherits from the ERC721 contract which requires arguments to be passed into its constructor. \n        console.log(\"This is my NFT contract. Woah!\");\n    }\n\n      // Bit of code duplication in the following 3 functions. This could probably be refactored to make it more DRY.\n    function pickRandomFirstWord(uint256 tokenId) public view returns (string memory) {\n        // I seed the random generator. More on this in the lesson. \n        uint256 rand = random(string(abi.encodePacked(\"FIRST_WORD\", Strings.toString(tokenId))));\n        // Squash the # between 0 and the length of the array to avoid going out of bounds.\n        rand = rand % firstWords.length;\n        return firstWords[rand];\n    }\n\n    function pickRandomSecondWord(uint256 tokenId) public view returns (string memory) {\n        uint256 rand = random(string(abi.encodePacked(\"SECOND_WORD\", Strings.toString(tokenId))));\n        rand = rand % secondWords.length;\n        return secondWords[rand];\n    }\n\n    function pickRandomThirdWord(uint256 tokenId) public view returns (string memory) {\n        console.log(\"Random Seed: \", string(abi.encodePacked(\"THIRD_WORD\", Strings.toString(tokenId))));\n        uint256 rand = random(string(abi.encodePacked(\"THIRD_WORD\", Strings.toString(tokenId))));\n        console.log(\"pickRandomThirdWord rand: \", rand);\n        rand = rand % thirdWords.length;\n        console.log(\"pickRandomThirdWord rand: \", rand);\n        return thirdWords[rand];\n    }\n\n    function pickRandomColor(uint256 tokenId) public view returns (string memory) {\n        uint256 rand = random(string(abi.encodePacked(\"COLOR\", Strings.toString(tokenId))));\n        rand = rand % colors.length;\n        return colors[rand];\n    } \n\n    function random(string memory input) internal pure returns (uint256) {\n        return uint(keccak256(abi.encodePacked(input)));\n    }\n\n    function getTotalNFTsMintedSoFar () public view returns (uint256) {\n        return _tokenIds.current();\n    }\n\n    function mintNFT() public {\n\n        // There will only be 5 NFT's available\n        require(_tokenIds.current() <= 20, \"There are no NFTs left to mint\");\n        \n        // get the current tokenId, this starts at 0\n        uint newItemId = _tokenIds.current();\n\n        // randomly grab one word from each of the arrays\n        string memory first = pickRandomFirstWord(newItemId);\n        string memory second = pickRandomSecondWord(newItemId);\n        string memory third = pickRandomThirdWord(newItemId);\n        string memory combinedWord = string(abi.encodePacked(first, second, third));\n        console.log(\"combinedWord: \", combinedWord);\n\n        // Add the random color in.\n        string memory randomColor = pickRandomColor(newItemId);\n        string memory finalSvg = string(abi.encodePacked(svgPartOne, randomColor, svgPartTwo, combinedWord, \"</text></svg>\"));\n        console.log(\"finalSvg: \", finalSvg);\n\n        // get all the JSON metadata in place and base64 encode it\n        string memory json = Base64.encode(\n            bytes(\n                string(\n                    abi.encodePacked(\n                        '{\"name\": \"',combinedWord,\n                        '\", \"description\": \"A highly acclaimed collection of squares.\", \"image\": \"data:image/svg+xml;base64,',\n                    // We add data:image/svg+xml;base64 and then append our base64 encode our svg.\n                    Base64.encode(bytes(finalSvg)),\n                    '\"}'\n                    )\n                )\n            )\n        );\n        console.log(\"BASE64 encoded JSON: \", json);\n\n        // Just like before, we prepend data:application/json;base64, to our data.\n        string memory finalTokenUri = string(\n            abi.encodePacked(\"data:application/json;base64,\", json)\n        );\n        console.log(\"finalTokenUri: \", finalTokenUri);\n\n        console.log(\"\\n--------------------\");\n        // console.log(finalTokenUri);\n        console.log(\"--------------------\\n\");  \n\n        // actually mint the NFT to the sender using msg.sender\n        _safeMint(msg.sender, newItemId);\n\n        // set the NFTs data\n        _setTokenURI(newItemId, finalTokenUri);\n\n        // increment the counter for when the next NFT is minted\n        _tokenIds.increment();\n        console.log(\"An NFT with ID %s has been minted to %s\", newItemId, msg.sender);\n        emit NewEpicNFTMinted(msg.sender, newItemId);\n    }\n}",
  "sourcePath": "/Users/bennaylor/Development/Consensys Academy/blockchain-developer-bootcamp-final-project/contracts/NftMinter.sol",
  "compiler": {
    "name": "solc",
    "version": "0.8.9+commit.e5eed63a.Emscripten.clang"
  },
  "schemaVersion": "3.4.3",
  "updatedAt": "2021-10-22T14:03:56.239Z",
  "networkType": "ethereum",
  "devdoc": {
    "kind": "dev",
    "methods": {
      "approve(address,uint256)": {
        "details": "See {IERC721-approve}."
      },
      "balanceOf(address)": {
        "details": "See {IERC721-balanceOf}."
      },
      "getApproved(uint256)": {
        "details": "See {IERC721-getApproved}."
      },
      "isApprovedForAll(address,address)": {
        "details": "See {IERC721-isApprovedForAll}."
      },
      "name()": {
        "details": "See {IERC721Metadata-name}."
      },
      "ownerOf(uint256)": {
        "details": "See {IERC721-ownerOf}."
      },
      "safeTransferFrom(address,address,uint256)": {
        "details": "See {IERC721-safeTransferFrom}."
      },
      "safeTransferFrom(address,address,uint256,bytes)": {
        "details": "See {IERC721-safeTransferFrom}."
      },
      "setApprovalForAll(address,bool)": {
        "details": "See {IERC721-setApprovalForAll}."
      },
      "supportsInterface(bytes4)": {
        "details": "See {IERC165-supportsInterface}."
      },
      "symbol()": {
        "details": "See {IERC721Metadata-symbol}."
      },
      "tokenURI(uint256)": {
        "details": "See {IERC721Metadata-tokenURI}."
      },
      "transferFrom(address,address,uint256)": {
        "details": "See {IERC721-transferFrom}."
      }
    },
    "version": 1
  },
  "userdoc": {
    "kind": "user",
    "methods": {},
    "version": 1
  }
}