{
  "contractName": "NftMinter",
  "abi": [
    {
      "inputs": [
        {
          "internalType": "string",
          "name": "_name",
          "type": "string"
        },
        {
          "internalType": "string",
          "name": "_symbol",
          "type": "string"
        },
        {
          "internalType": "uint256",
          "name": "_supplyCap",
          "type": "uint256"
        }
      ],
      "stateMutability": "nonpayable",
      "type": "constructor"
    },
    {
      "anonymous": false,
      "inputs": [
        {
          "indexed": true,
          "internalType": "address",
          "name": "owner",
          "type": "address"
        },
        {
          "indexed": true,
          "internalType": "address",
          "name": "approved",
          "type": "address"
        },
        {
          "indexed": true,
          "internalType": "uint256",
          "name": "tokenId",
          "type": "uint256"
        }
      ],
      "name": "Approval",
      "type": "event"
    },
    {
      "anonymous": false,
      "inputs": [
        {
          "indexed": true,
          "internalType": "address",
          "name": "owner",
          "type": "address"
        },
        {
          "indexed": true,
          "internalType": "address",
          "name": "operator",
          "type": "address"
        },
        {
          "indexed": false,
          "internalType": "bool",
          "name": "approved",
          "type": "bool"
        }
      ],
      "name": "ApprovalForAll",
      "type": "event"
    },
    {
      "anonymous": false,
      "inputs": [
        {
          "indexed": false,
          "internalType": "address",
          "name": "sender",
          "type": "address"
        },
        {
          "indexed": false,
          "internalType": "uint256",
          "name": "tokenId",
          "type": "uint256"
        }
      ],
      "name": "NewEpicNFTMinted",
      "type": "event"
    },
    {
      "anonymous": false,
      "inputs": [
        {
          "indexed": true,
          "internalType": "address",
          "name": "previousOwner",
          "type": "address"
        },
        {
          "indexed": true,
          "internalType": "address",
          "name": "newOwner",
          "type": "address"
        }
      ],
      "name": "OwnershipTransferred",
      "type": "event"
    },
    {
      "anonymous": false,
      "inputs": [
        {
          "indexed": false,
          "internalType": "address",
          "name": "account",
          "type": "address"
        }
      ],
      "name": "Paused",
      "type": "event"
    },
    {
      "anonymous": false,
      "inputs": [
        {
          "indexed": true,
          "internalType": "address",
          "name": "from",
          "type": "address"
        },
        {
          "indexed": true,
          "internalType": "address",
          "name": "to",
          "type": "address"
        },
        {
          "indexed": true,
          "internalType": "uint256",
          "name": "tokenId",
          "type": "uint256"
        }
      ],
      "name": "Transfer",
      "type": "event"
    },
    {
      "anonymous": false,
      "inputs": [
        {
          "indexed": false,
          "internalType": "address",
          "name": "account",
          "type": "address"
        }
      ],
      "name": "Unpaused",
      "type": "event"
    },
    {
      "inputs": [
        {
          "internalType": "address",
          "name": "to",
          "type": "address"
        },
        {
          "internalType": "uint256",
          "name": "tokenId",
          "type": "uint256"
        }
      ],
      "name": "approve",
      "outputs": [],
      "stateMutability": "nonpayable",
      "type": "function"
    },
    {
      "inputs": [
        {
          "internalType": "address",
          "name": "owner",
          "type": "address"
        }
      ],
      "name": "balanceOf",
      "outputs": [
        {
          "internalType": "uint256",
          "name": "",
          "type": "uint256"
        }
      ],
      "stateMutability": "view",
      "type": "function",
      "constant": true
    },
    {
      "inputs": [
        {
          "internalType": "uint256",
          "name": "tokenId",
          "type": "uint256"
        }
      ],
      "name": "getApproved",
      "outputs": [
        {
          "internalType": "address",
          "name": "",
          "type": "address"
        }
      ],
      "stateMutability": "view",
      "type": "function",
      "constant": true
    },
    {
      "inputs": [
        {
          "internalType": "address",
          "name": "owner",
          "type": "address"
        },
        {
          "internalType": "address",
          "name": "operator",
          "type": "address"
        }
      ],
      "name": "isApprovedForAll",
      "outputs": [
        {
          "internalType": "bool",
          "name": "",
          "type": "bool"
        }
      ],
      "stateMutability": "view",
      "type": "function",
      "constant": true
    },
    {
      "inputs": [],
      "name": "name",
      "outputs": [
        {
          "internalType": "string",
          "name": "",
          "type": "string"
        }
      ],
      "stateMutability": "view",
      "type": "function",
      "constant": true
    },
    {
      "inputs": [],
      "name": "owner",
      "outputs": [
        {
          "internalType": "address",
          "name": "",
          "type": "address"
        }
      ],
      "stateMutability": "view",
      "type": "function",
      "constant": true
    },
    {
      "inputs": [
        {
          "internalType": "uint256",
          "name": "tokenId",
          "type": "uint256"
        }
      ],
      "name": "ownerOf",
      "outputs": [
        {
          "internalType": "address",
          "name": "",
          "type": "address"
        }
      ],
      "stateMutability": "view",
      "type": "function",
      "constant": true
    },
    {
      "inputs": [],
      "name": "paused",
      "outputs": [
        {
          "internalType": "bool",
          "name": "",
          "type": "bool"
        }
      ],
      "stateMutability": "view",
      "type": "function",
      "constant": true
    },
    {
      "inputs": [],
      "name": "renounceOwnership",
      "outputs": [],
      "stateMutability": "nonpayable",
      "type": "function"
    },
    {
      "inputs": [
        {
          "internalType": "address",
          "name": "from",
          "type": "address"
        },
        {
          "internalType": "address",
          "name": "to",
          "type": "address"
        },
        {
          "internalType": "uint256",
          "name": "tokenId",
          "type": "uint256"
        }
      ],
      "name": "safeTransferFrom",
      "outputs": [],
      "stateMutability": "nonpayable",
      "type": "function"
    },
    {
      "inputs": [
        {
          "internalType": "address",
          "name": "from",
          "type": "address"
        },
        {
          "internalType": "address",
          "name": "to",
          "type": "address"
        },
        {
          "internalType": "uint256",
          "name": "tokenId",
          "type": "uint256"
        },
        {
          "internalType": "bytes",
          "name": "_data",
          "type": "bytes"
        }
      ],
      "name": "safeTransferFrom",
      "outputs": [],
      "stateMutability": "nonpayable",
      "type": "function"
    },
    {
      "inputs": [
        {
          "internalType": "address",
          "name": "operator",
          "type": "address"
        },
        {
          "internalType": "bool",
          "name": "approved",
          "type": "bool"
        }
      ],
      "name": "setApprovalForAll",
      "outputs": [],
      "stateMutability": "nonpayable",
      "type": "function"
    },
    {
      "inputs": [],
      "name": "symbol",
      "outputs": [
        {
          "internalType": "string",
          "name": "",
          "type": "string"
        }
      ],
      "stateMutability": "view",
      "type": "function",
      "constant": true
    },
    {
      "inputs": [
        {
          "internalType": "uint256",
          "name": "index",
          "type": "uint256"
        }
      ],
      "name": "tokenByIndex",
      "outputs": [
        {
          "internalType": "uint256",
          "name": "",
          "type": "uint256"
        }
      ],
      "stateMutability": "view",
      "type": "function",
      "constant": true
    },
    {
      "inputs": [
        {
          "internalType": "address",
          "name": "owner",
          "type": "address"
        },
        {
          "internalType": "uint256",
          "name": "index",
          "type": "uint256"
        }
      ],
      "name": "tokenOfOwnerByIndex",
      "outputs": [
        {
          "internalType": "uint256",
          "name": "",
          "type": "uint256"
        }
      ],
      "stateMutability": "view",
      "type": "function",
      "constant": true
    },
    {
      "inputs": [],
      "name": "totalSupply",
      "outputs": [
        {
          "internalType": "uint256",
          "name": "",
          "type": "uint256"
        }
      ],
      "stateMutability": "view",
      "type": "function",
      "constant": true
    },
    {
      "inputs": [
        {
          "internalType": "address",
          "name": "from",
          "type": "address"
        },
        {
          "internalType": "address",
          "name": "to",
          "type": "address"
        },
        {
          "internalType": "uint256",
          "name": "tokenId",
          "type": "uint256"
        }
      ],
      "name": "transferFrom",
      "outputs": [],
      "stateMutability": "nonpayable",
      "type": "function"
    },
    {
      "inputs": [
        {
          "internalType": "address",
          "name": "newOwner",
          "type": "address"
        }
      ],
      "name": "transferOwnership",
      "outputs": [],
      "stateMutability": "nonpayable",
      "type": "function"
    },
    {
      "inputs": [],
      "name": "pause",
      "outputs": [],
      "stateMutability": "nonpayable",
      "type": "function"
    },
    {
      "inputs": [],
      "name": "unpause",
      "outputs": [],
      "stateMutability": "nonpayable",
      "type": "function"
    },
    {
      "inputs": [],
      "name": "getSupplyCap",
      "outputs": [
        {
          "internalType": "uint256",
          "name": "",
          "type": "uint256"
        }
      ],
      "stateMutability": "view",
      "type": "function",
      "constant": true
    },
    {
      "inputs": [],
      "name": "getRemainingMints",
      "outputs": [
        {
          "internalType": "uint256",
          "name": "",
          "type": "uint256"
        }
      ],
      "stateMutability": "view",
      "type": "function",
      "constant": true
    },
    {
      "inputs": [],
      "name": "getTotalNFTsMintedSoFar",
      "outputs": [
        {
          "internalType": "uint256",
          "name": "",
          "type": "uint256"
        }
      ],
      "stateMutability": "view",
      "type": "function",
      "constant": true
    },
    {
      "inputs": [
        {
          "internalType": "uint256",
          "name": "tokenId",
          "type": "uint256"
        }
      ],
      "name": "tokenURI",
      "outputs": [
        {
          "internalType": "string",
          "name": "",
          "type": "string"
        }
      ],
      "stateMutability": "view",
      "type": "function",
      "constant": true
    },
    {
      "inputs": [],
      "name": "mintNFT",
      "outputs": [],
      "stateMutability": "nonpayable",
      "type": "function"
    },
    {
      "inputs": [
        {
          "internalType": "bytes4",
          "name": "interfaceId",
          "type": "bytes4"
        }
      ],
      "name": "supportsInterface",
      "outputs": [
        {
          "internalType": "bool",
          "name": "",
          "type": "bool"
        }
      ],
      "stateMutability": "view",
      "type": "function",
      "constant": true
    }
  ],
  "bytecode": "0x6080604052610bb8600c5560405180610100016040528060d3815260200162005d7e60d39139600e90805190602001906200003c9291906200084b565b506040518060400160405280600381526020017f272f3e0000000000000000000000000000000000000000000000000000000000815250600f90805190602001906200008a9291906200084b565b506040518060c001604052806040518060400160405280600881526020017f43726f7373626f7700000000000000000000000000000000000000000000000081525081526020016040518060400160405280600781526020017f53686f7467756e0000000000000000000000000000000000000000000000000081525081526020016040518060400160405280600581526020017f53776f726400000000000000000000000000000000000000000000000000000081525081526020016040518060400160405280600381526020017f426174000000000000000000000000000000000000000000000000000000000081525081526020016040518060400160405280600781526020017f43726f776261720000000000000000000000000000000000000000000000000081525081526020016040518060400160405280600981526020017f736c696e6773686f740000000000000000000000000000000000000000000000815250815250601090600662000208929190620008dc565b506040518060c001604052806040518060400160405280600981526020017f4d6f746f7262696b65000000000000000000000000000000000000000000000081525081526020016040518060400160405280600381526020017f436172000000000000000000000000000000000000000000000000000000000081525081526020016040518060400160405280600781526020017f42696379636c650000000000000000000000000000000000000000000000000081525081526020016040518060400160405280600281526020017f525600000000000000000000000000000000000000000000000000000000000081525081526020016040518060400160405280600781526020017f57616c6b696e670000000000000000000000000000000000000000000000000081525081526020016040518060400160405280600a81526020017f48656c69636f7074657200000000000000000000000000000000000000000000815250815250601190600662000386929190620008dc565b506040518060c001604052806040518060400160405280600581526020017f546f72636800000000000000000000000000000000000000000000000000000081525081526020016040518060400160405280600b81526020017f537572766976616c4b697400000000000000000000000000000000000000000081525081526020016040518060400160405280600a81526020017f4d65646963616c4b69740000000000000000000000000000000000000000000081525081526020016040518060400160405280600581526020017f526164696f00000000000000000000000000000000000000000000000000000081525081526020016040518060400160405280600381526020017f4d6170000000000000000000000000000000000000000000000000000000000081525081526020016040518060400160405280600681526020017f576973746c650000000000000000000000000000000000000000000000000000815250815250601290600662000504929190620008dc565b506040518060c001604052806040518060400160405280600381526020017f726564000000000000000000000000000000000000000000000000000000000081525081526020016040518060400160405280600781526020017f233038433241380000000000000000000000000000000000000000000000000081525081526020016040518060400160405280600581526020017f626c61636b00000000000000000000000000000000000000000000000000000081525081526020016040518060400160405280600681526020017f79656c6c6f77000000000000000000000000000000000000000000000000000081525081526020016040518060400160405280600481526020017f626c75650000000000000000000000000000000000000000000000000000000081525081526020016040518060400160405280600581526020017f677265656e000000000000000000000000000000000000000000000000000000815250815250601390600662000682929190620008dc565b503480156200069057600080fd5b5060405162005e5138038062005e518339818101604052810190620006b6919062000a59565b82828160009080519060200190620006d09291906200084b565b508060019080519060200190620006e99291906200084b565b5050506000600b60006101000a81548160ff021916908315150217905550620007276200071b6200077d60201b60201c565b6200078560201b60201c565b600081116200076d576040517f08c379a0000000000000000000000000000000000000000000000000000000008152600401620007649062000b23565b60405180910390fd5b80600c8190555050505062000cab565b600033905090565b6000600b60019054906101000a900473ffffffffffffffffffffffffffffffffffffffff16905081600b60016101000a81548173ffffffffffffffffffffffffffffffffffffffff021916908373ffffffffffffffffffffffffffffffffffffffff1602179055508173ffffffffffffffffffffffffffffffffffffffff168173ffffffffffffffffffffffffffffffffffffffff167f8be0079c531659141344cd1fd0a4f28419497f9722a3daafe3b4186f6b6457e060405160405180910390a35050565b828054620008599062000bfd565b90600052602060002090601f0160209004810192826200087d5760008555620008c9565b82601f106200089857805160ff1916838001178555620008c9565b82800160010185558215620008c9579182015b82811115620008c8578251825591602001919060010190620008ab565b5b509050620008d8919062000943565b5090565b82805482825590600052602060002090810192821562000930579160200282015b828111156200092f5782518290805190602001906200091e9291906200084b565b5091602001919060010190620008fd565b5b5090506200093f919062000962565b5090565b5b808211156200095e57600081600090555060010162000944565b5090565b5b808211156200098657600081816200097c91906200098a565b5060010162000963565b5090565b508054620009989062000bfd565b6000825580601f10620009ac5750620009cd565b601f016020900490600052602060002090810190620009cc919062000943565b5b50565b6000620009e7620009e18462000b79565b62000b45565b90508281526020810184848401111562000a0057600080fd5b62000a0d84828562000bc7565b509392505050565b600082601f83011262000a2757600080fd5b815162000a39848260208601620009d0565b91505092915050565b60008151905062000a538162000c91565b92915050565b60008060006060848603121562000a6f57600080fd5b600084015167ffffffffffffffff81111562000a8a57600080fd5b62000a988682870162000a15565b935050602084015167ffffffffffffffff81111562000ab657600080fd5b62000ac48682870162000a15565b925050604062000ad78682870162000a42565b9150509250925092565b600062000af060208362000bac565b91507f737570706c79436170206d7573742062652067726561746572207468616e20306000830152602082019050919050565b6000602082019050818103600083015262000b3e8162000ae1565b9050919050565b6000604051905081810181811067ffffffffffffffff8211171562000b6f5762000b6e62000c62565b5b8060405250919050565b600067ffffffffffffffff82111562000b975762000b9662000c62565b5b601f19601f8301169050602081019050919050565b600082825260208201905092915050565b6000819050919050565b60005b8381101562000be757808201518184015260208101905062000bca565b8381111562000bf7576000848401525b50505050565b6000600282049050600182168062000c1657607f821691505b6020821081141562000c2d5762000c2c62000c33565b5b50919050565b7f4e487b7100000000000000000000000000000000000000000000000000000000600052602260045260246000fd5b7f4e487b7100000000000000000000000000000000000000000000000000000000600052604160045260246000fd5b62000c9c8162000bbd565b811462000ca857600080fd5b50565b6150c38062000cbb6000396000f3fe608060405234801561001057600080fd5b506004361061018e5760003560e01c80635c975abb116100de57806395d89b4111610097578063c87b56dd11610071578063c87b56dd14610439578063e985e9c514610469578063f2fde38b14610499578063fd02c239146104b55761018e565b806395d89b41146103e3578063a22cb46514610401578063b88d4fde1461041d5761018e565b80635c975abb146103335780636352211e1461035157806370a0823114610381578063715018a6146103b15780638456cb59146103bb5780638da5cb5b146103c55761018e565b806318160ddd1161014b5780632f745c59116101255780632f745c59146102ad5780633f4ba83a146102dd57806342842e0e146102e75780634f6ccce7146103035761018e565b806318160ddd14610255578063203618141461027357806323b872dd146102915761018e565b806301ffc9a71461019357806306047590146101c357806306fdde03146101e1578063081812fc146101ff578063095ea7b31461022f57806314f710fe1461024b575b600080fd5b6101ad60048036038101906101a891906137c3565b6104d3565b6040516101ba91906147f0565b60405180910390f35b6101cb6104e5565b6040516101d89190614bb2565b60405180910390f35b6101e96104f6565b6040516101f6919061480b565b60405180910390f35b61021960048036038101906102149190613815565b610588565b6040516102269190614760565b60405180910390f35b61024960048036038101906102449190613787565b61060d565b005b610253610725565b005b61025d610ac8565b60405161026a9190614bb2565b60405180910390f35b61027b610ad5565b6040516102889190614bb2565b60405180910390f35b6102ab60048036038101906102a69190613681565b610adf565b005b6102c760048036038101906102c29190613787565b610b3f565b6040516102d49190614bb2565b60405180910390f35b6102e5610be4565b005b61030160048036038101906102fc9190613681565b610c6a565b005b61031d60048036038101906103189190613815565b610c8a565b60405161032a9190614bb2565b60405180910390f35b61033b610d21565b60405161034891906147f0565b60405180910390f35b61036b60048036038101906103669190613815565b610d38565b6040516103789190614760565b60405180910390f35b61039b6004803603810190610396919061361c565b610dea565b6040516103a89190614bb2565b60405180910390f35b6103b9610ea2565b005b6103c3610f2a565b005b6103cd610fb0565b6040516103da9190614760565b60405180910390f35b6103eb610fda565b6040516103f8919061480b565b60405180910390f35b61041b6004803603810190610416919061374b565b61106c565b005b610437600480360381019061043291906136d0565b6111ed565b005b610453600480360381019061044e9190613815565b61124f565b604051610460919061480b565b60405180910390f35b610483600480360381019061047e9190613645565b611261565b60405161049091906147f0565b60405180910390f35b6104b360048036038101906104ae919061361c565b6112f5565b005b6104bd6113ed565b6040516104ca9190614bb2565b60405180910390f35b60006104de8261140b565b9050919050565b60006104f1600d611485565b905090565b60606000805461050590614e51565b80601f016020809104026020016040519081016040528092919081815260200182805461053190614e51565b801561057e5780601f106105535761010080835404028352916020019161057e565b820191906000526020600020905b81548152906001019060200180831161056157829003601f168201915b5050505050905090565b600061059382611493565b6105d2576040517f08c379a00000000000000000000000000000000000000000000000000000000081526004016105c990614ad2565b60405180910390fd5b6004600083815260200190815260200160002060009054906101000a900473ffffffffffffffffffffffffffffffffffffffff169050919050565b600061061882610d38565b90508073ffffffffffffffffffffffffffffffffffffffff168373ffffffffffffffffffffffffffffffffffffffff161415610689576040517f08c379a000000000000000000000000000000000000000000000000000000000815260040161068090614b52565b60405180910390fd5b8073ffffffffffffffffffffffffffffffffffffffff166106a86114ff565b73ffffffffffffffffffffffffffffffffffffffff1614806106d757506106d6816106d16114ff565b611261565b5b610716576040517f08c379a000000000000000000000000000000000000000000000000000000000815260040161070d90614a12565b60405180910390fd5b6107208383611507565b505050565b61072d610d21565b1561076d576040517f08c379a0000000000000000000000000000000000000000000000000000000008152600401610764906149f2565b60405180910390fd5b600c5461077a600d611485565b11156107bb576040517f08c379a00000000000000000000000000000000000000000000000000000000081526004016107b290614932565b60405180910390fd5b60006107c7600d611485565b905060006107d4826115c0565b905060006107e1836116de565b905060006107ee846117fc565b905060008383836040516020016108079392919061459a565b60405160208183030381529060405290506108576040518060400160405280600d81526020017f636f6d706c6574654b69743a2000000000000000000000000000000000000000815250826119fe565b600061086286611a9a565b90506000600e82600f610876896001611bb8565b610881896002611bb8565b61088c896003611bb8565b6040516020016108a1969594939291906145cb565b60405160208183030381529060405290506108f16040518060400160405280600a81526020017f66696e616c5376673a2000000000000000000000000000000000000000000000815250826119fe565b60006109236108ff83611cac565b60405160200161090f91906146d9565b604051602081830303815290604052611cac565b90506109646040518060400160405280601581526020017f42415345363420656e636f646564204a534f4e3a200000000000000000000000815250826119fe565b600081604051602001610977919061471c565b60405160208183030381529060405290506109c76040518060400160405280600f81526020017f66696e616c546f6b656e5572693a200000000000000000000000000000000000815250826119fe565b610a056040518060400160405280601581526020017f0a2d2d2d2d2d2d2d2d2d2d2d2d2d2d2d2d2d2d2d2d0000000000000000000000815250611e6a565b610a436040518060400160405280601581526020017f2d2d2d2d2d2d2d2d2d2d2d2d2d2d2d2d2d2d2d2d0a0000000000000000000000815250611e6a565b610a4d338a611f03565b610a578982611f21565b610a61600d611f95565b610a84604051806060016040528060278152602001615067602791398a33611fab565b7febb98688741ffa4c7589bf325de30cf7becb63de567842e1ccdb6cb949fdc82c338a604051610ab59291906147c7565b60405180910390a1505050505050505050565b6000600880549050905090565b6000600c54905090565b610af0610aea6114ff565b8261204a565b610b2f576040517f08c379a0000000000000000000000000000000000000000000000000000000008152600401610b2690614b72565b60405180910390fd5b610b3a838383612128565b505050565b6000610b4a83610dea565b8210610b8b576040517f08c379a0000000000000000000000000000000000000000000000000000000008152600401610b82906148f2565b60405180910390fd5b600660008473ffffffffffffffffffffffffffffffffffffffff1673ffffffffffffffffffffffffffffffffffffffff168152602001908152602001600020600083815260200190815260200160002054905092915050565b610bec6114ff565b73ffffffffffffffffffffffffffffffffffffffff16610c0a610fb0565b73ffffffffffffffffffffffffffffffffffffffff1614610c60576040517f08c379a0000000000000000000000000000000000000000000000000000000008152600401610c5790614af2565b60405180910390fd5b610c68612384565b565b610c85838383604051806020016040528060008152506111ed565b505050565b6000610c94610ac8565b8210610cd5576040517f08c379a0000000000000000000000000000000000000000000000000000000008152600401610ccc90614b92565b60405180910390fd5b60088281548110610d0f577f4e487b7100000000000000000000000000000000000000000000000000000000600052603260045260246000fd5b90600052602060002001549050919050565b6000600b60009054906101000a900460ff16905090565b6000806002600084815260200190815260200160002060009054906101000a900473ffffffffffffffffffffffffffffffffffffffff169050600073ffffffffffffffffffffffffffffffffffffffff168173ffffffffffffffffffffffffffffffffffffffff161415610de1576040517f08c379a0000000000000000000000000000000000000000000000000000000008152600401610dd890614a52565b60405180910390fd5b80915050919050565b60008073ffffffffffffffffffffffffffffffffffffffff168273ffffffffffffffffffffffffffffffffffffffff161415610e5b576040517f08c379a0000000000000000000000000000000000000000000000000000000008152600401610e5290614a32565b60405180910390fd5b600360008373ffffffffffffffffffffffffffffffffffffffff1673ffffffffffffffffffffffffffffffffffffffff168152602001908152602001600020549050919050565b610eaa6114ff565b73ffffffffffffffffffffffffffffffffffffffff16610ec8610fb0565b73ffffffffffffffffffffffffffffffffffffffff1614610f1e576040517f08c379a0000000000000000000000000000000000000000000000000000000008152600401610f1590614af2565b60405180910390fd5b610f286000612426565b565b610f326114ff565b73ffffffffffffffffffffffffffffffffffffffff16610f50610fb0565b73ffffffffffffffffffffffffffffffffffffffff1614610fa6576040517f08c379a0000000000000000000000000000000000000000000000000000000008152600401610f9d90614af2565b60405180910390fd5b610fae6124ec565b565b6000600b60019054906101000a900473ffffffffffffffffffffffffffffffffffffffff16905090565b606060018054610fe990614e51565b80601f016020809104026020016040519081016040528092919081815260200182805461101590614e51565b80156110625780601f1061103757610100808354040283529160200191611062565b820191906000526020600020905b81548152906001019060200180831161104557829003601f168201915b5050505050905090565b6110746114ff565b73ffffffffffffffffffffffffffffffffffffffff168273ffffffffffffffffffffffffffffffffffffffff1614156110e2576040517f08c379a00000000000000000000000000000000000000000000000000000000081526004016110d9906149b2565b60405180910390fd5b80600560006110ef6114ff565b73ffffffffffffffffffffffffffffffffffffffff1673ffffffffffffffffffffffffffffffffffffffff16815260200190815260200160002060008473ffffffffffffffffffffffffffffffffffffffff1673ffffffffffffffffffffffffffffffffffffffff16815260200190815260200160002060006101000a81548160ff0219169083151502179055508173ffffffffffffffffffffffffffffffffffffffff1661119c6114ff565b73ffffffffffffffffffffffffffffffffffffffff167f17307eab39ab6107e8899845ad3d59bd9653f200f220920489ca2b5937696c31836040516111e191906147f0565b60405180910390a35050565b6111fe6111f86114ff565b8361204a565b61123d576040517f08c379a000000000000000000000000000000000000000000000000000000000815260040161123490614b72565b60405180910390fd5b6112498484848461258f565b50505050565b606061125a826125eb565b9050919050565b6000600560008473ffffffffffffffffffffffffffffffffffffffff1673ffffffffffffffffffffffffffffffffffffffff16815260200190815260200160002060008373ffffffffffffffffffffffffffffffffffffffff1673ffffffffffffffffffffffffffffffffffffffff16815260200190815260200160002060009054906101000a900460ff16905092915050565b6112fd6114ff565b73ffffffffffffffffffffffffffffffffffffffff1661131b610fb0565b73ffffffffffffffffffffffffffffffffffffffff1614611371576040517f08c379a000000000000000000000000000000000000000000000000000000000815260040161136890614af2565b60405180910390fd5b600073ffffffffffffffffffffffffffffffffffffffff168173ffffffffffffffffffffffffffffffffffffffff1614156113e1576040517f08c379a00000000000000000000000000000000000000000000000000000000081526004016113d890614952565b60405180910390fd5b6113ea81612426565b50565b60006113f9600d611485565b600c546114069190614d67565b905090565b60007f780e9d63000000000000000000000000000000000000000000000000000000007bffffffffffffffffffffffffffffffffffffffffffffffffffffffff1916827bffffffffffffffffffffffffffffffffffffffffffffffffffffffff1916148061147e575061147d8261273d565b5b9050919050565b600081600001549050919050565b60008073ffffffffffffffffffffffffffffffffffffffff166002600084815260200190815260200160002060009054906101000a900473ffffffffffffffffffffffffffffffffffffffff1673ffffffffffffffffffffffffffffffffffffffff1614159050919050565b600033905090565b816004600083815260200190815260200160002060006101000a81548173ffffffffffffffffffffffffffffffffffffffff021916908373ffffffffffffffffffffffffffffffffffffffff160217905550808273ffffffffffffffffffffffffffffffffffffffff1661157a83610d38565b73ffffffffffffffffffffffffffffffffffffffff167f8c5be1e5ebec7d5bd14f71427d1e84f3dd0314c0f7b2291e5b200ac8c7c3b92560405160405180910390a45050565b606060006115f46115d08461281f565b6040516020016115e09190614672565b6040516020818303038152906040526129cc565b9050601080549050816116079190614ecc565b905060108181548110611643577f4e487b7100000000000000000000000000000000000000000000000000000000600052603260045260246000fd5b90600052602060002001805461165890614e51565b80601f016020809104026020016040519081016040528092919081815260200182805461168490614e51565b80156116d15780601f106116a6576101008083540402835291602001916116d1565b820191906000526020600020905b8154815290600101906020018083116116b457829003601f168201915b5050505050915050919050565b606060006117126116ee8461281f565b6040516020016116fe9190614650565b6040516020818303038152906040526129cc565b9050601180549050816117259190614ecc565b905060118181548110611761577f4e487b7100000000000000000000000000000000000000000000000000000000600052603260045260246000fd5b90600052602060002001805461177690614e51565b80601f01602080910402602001604051908101604052809291908181526020018280546117a290614e51565b80156117ef5780601f106117c4576101008083540402835291602001916117ef565b820191906000526020600020905b8154815290600101906020018083116117d257829003601f168201915b5050505050915050919050565b60606118646040518060400160405280600d81526020017f52616e646f6d20536565643a20000000000000000000000000000000000000008152506118408461281f565b604051602001611850919061462e565b6040516020818303038152906040526119fe565b60006118966118728461281f565b604051602001611882919061462e565b6040516020818303038152906040526129cc565b90506118d76040518060400160405280601581526020017f7069636b52616e646f6d4974656d2072616e643a200000000000000000000000815250826129ff565b601280549050816118e89190614ecc565b90506119296040518060400160405280601581526020017f7069636b52616e646f6d4974656d2072616e643a200000000000000000000000815250826129ff565b60128181548110611963577f4e487b7100000000000000000000000000000000000000000000000000000000600052603260045260246000fd5b90600052602060002001805461197890614e51565b80601f01602080910402602001604051908101604052809291908181526020018280546119a490614e51565b80156119f15780601f106119c6576101008083540402835291602001916119f1565b820191906000526020600020905b8154815290600101906020018083116119d457829003601f168201915b5050505050915050919050565b611a968282604051602401611a1492919061482d565b6040516020818303038152906040527f4b5c4277000000000000000000000000000000000000000000000000000000007bffffffffffffffffffffffffffffffffffffffffffffffffffffffff19166020820180517bffffffffffffffffffffffffffffffffffffffffffffffffffffffff8381831617835250505050612a9b565b5050565b60606000611ace611aaa8461281f565b604051602001611aba919061473e565b6040516020818303038152906040526129cc565b905060138054905081611ae19190614ecc565b905060138181548110611b1d577f4e487b7100000000000000000000000000000000000000000000000000000000600052603260045260246000fd5b906000526020600020018054611b3290614e51565b80601f0160208091040260200160405190810160405280929190818152602001828054611b5e90614e51565b8015611bab5780601f10611b8057610100808354040283529160200191611bab565b820191906000526020600020905b815481529060010190602001808311611b8e57829003601f168201915b5050505050915050919050565b6060806001831415611c01576040518060400160405280600381526020017f34302500000000000000000000000000000000000000000000000000000000008152509050611c81565b6002831415611c47576040518060400160405280600381526020017f35302500000000000000000000000000000000000000000000000000000000008152509050611c80565b6040518060400160405280600381526020017f363025000000000000000000000000000000000000000000000000000000000081525090505b5b8084604051602001611c94929190614694565b60405160208183030381529060405291505092915050565b60606000825190506000811415611cd55760405180602001604052806000815250915050611e65565b60006003600283611ce69190614c86565b611cf09190614cdc565b6004611cfc9190614d0d565b90506000602082611d0d9190614c86565b67ffffffffffffffff811115611d4c577f4e487b7100000000000000000000000000000000000000000000000000000000600052604160045260246000fd5b6040519080825280601f01601f191660200182016040528015611d7e5781602001600182028036833780820191505090505b5090506000604051806060016040528060408152602001615027604091399050600181016020830160005b86811015611e225760038101905062ffffff818a015116603f8160121c168401518060081b905060ff603f83600c1c1686015116810190508060081b905060ff603f8360061c1686015116810190508060081b905060ff603f831686015116810190508060e01b90508084526004840193505050611da9565b506003860660018114611e3c5760028114611e4c57611e57565b613d3d60f01b6002830352611e57565b603d60f81b60018303525b508484525050819450505050505b919050565b611f0081604051602401611e7e919061480b565b6040516020818303038152906040527f41304fac000000000000000000000000000000000000000000000000000000007bffffffffffffffffffffffffffffffffffffffffffffffffffffffff19166020820180517bffffffffffffffffffffffffffffffffffffffffffffffffffffffff8381831617835250505050612a9b565b50565b611f1d828260405180602001604052806000815250612ac4565b5050565b611f2a82611493565b611f69576040517f08c379a0000000000000000000000000000000000000000000000000000000008152600401611f6090614a72565b60405180910390fd5b80600a60008481526020019081526020016000209080519060200190611f909291906134a8565b505050565b6001816000016000828254019250508190555050565b612045838383604051602401611fc393929190614894565b6040516020818303038152906040527fe3849f79000000000000000000000000000000000000000000000000000000007bffffffffffffffffffffffffffffffffffffffffffffffffffffffff19166020820180517bffffffffffffffffffffffffffffffffffffffffffffffffffffffff8381831617835250505050612a9b565b505050565b600061205582611493565b612094576040517f08c379a000000000000000000000000000000000000000000000000000000000815260040161208b906149d2565b60405180910390fd5b600061209f83610d38565b90508073ffffffffffffffffffffffffffffffffffffffff168473ffffffffffffffffffffffffffffffffffffffff16148061210e57508373ffffffffffffffffffffffffffffffffffffffff166120f684610588565b73ffffffffffffffffffffffffffffffffffffffff16145b8061211f575061211e8185611261565b5b91505092915050565b8273ffffffffffffffffffffffffffffffffffffffff1661214882610d38565b73ffffffffffffffffffffffffffffffffffffffff161461219e576040517f08c379a000000000000000000000000000000000000000000000000000000000815260040161219590614b12565b60405180910390fd5b600073ffffffffffffffffffffffffffffffffffffffff168273ffffffffffffffffffffffffffffffffffffffff16141561220e576040517f08c379a000000000000000000000000000000000000000000000000000000000815260040161220590614992565b60405180910390fd5b612219838383612b1f565b612224600082611507565b6001600360008573ffffffffffffffffffffffffffffffffffffffff1673ffffffffffffffffffffffffffffffffffffffff16815260200190815260200160002060008282546122749190614d67565b925050819055506001600360008473ffffffffffffffffffffffffffffffffffffffff1673ffffffffffffffffffffffffffffffffffffffff16815260200190815260200160002060008282546122cb9190614c86565b92505081905550816002600083815260200190815260200160002060006101000a81548173ffffffffffffffffffffffffffffffffffffffff021916908373ffffffffffffffffffffffffffffffffffffffff160217905550808273ffffffffffffffffffffffffffffffffffffffff168473ffffffffffffffffffffffffffffffffffffffff167fddf252ad1be2c89b69c2b068fc378daa952ba7f163c4a11628f55a4df523b3ef60405160405180910390a4505050565b61238c610d21565b6123cb576040517f08c379a00000000000000000000000000000000000000000000000000000000081526004016123c2906148d2565b60405180910390fd5b6000600b60006101000a81548160ff0219169083151502179055507f5db9ee0a495bf2e6ff9c91a7834c1ba4fdd244a5e8aa4e537bd38aeae4b073aa61240f6114ff565b60405161241c9190614760565b60405180910390a1565b6000600b60019054906101000a900473ffffffffffffffffffffffffffffffffffffffff16905081600b60016101000a81548173ffffffffffffffffffffffffffffffffffffffff021916908373ffffffffffffffffffffffffffffffffffffffff1602179055508173ffffffffffffffffffffffffffffffffffffffff168173ffffffffffffffffffffffffffffffffffffffff167f8be0079c531659141344cd1fd0a4f28419497f9722a3daafe3b4186f6b6457e060405160405180910390a35050565b6124f4610d21565b15612534576040517f08c379a000000000000000000000000000000000000000000000000000000000815260040161252b906149f2565b60405180910390fd5b6001600b60006101000a81548160ff0219169083151502179055507f62e78cea01bee320cd4e420270b5ea74000d11b0c9f74754ebdbfc544b05a2586125786114ff565b6040516125859190614760565b60405180910390a1565b61259a848484612128565b6125a684848484612b77565b6125e5576040517f08c379a00000000000000000000000000000000000000000000000000000000081526004016125dc90614912565b60405180910390fd5b50505050565b60606125f682611493565b612635576040517f08c379a000000000000000000000000000000000000000000000000000000000815260040161262c90614ab2565b60405180910390fd5b6000600a6000848152602001908152602001600020805461265590614e51565b80601f016020809104026020016040519081016040528092919081815260200182805461268190614e51565b80156126ce5780601f106126a3576101008083540402835291602001916126ce565b820191906000526020600020905b8154815290600101906020018083116126b157829003601f168201915b5050505050905060006126df612d0e565b90506000815114156126f5578192505050612738565b60008251111561272a578082604051602001612712929190614576565b60405160208183030381529060405292505050612738565b61273384612d25565b925050505b919050565b60007f80ac58cd000000000000000000000000000000000000000000000000000000007bffffffffffffffffffffffffffffffffffffffffffffffffffffffff1916827bffffffffffffffffffffffffffffffffffffffffffffffffffffffff1916148061280857507f5b5e139f000000000000000000000000000000000000000000000000000000007bffffffffffffffffffffffffffffffffffffffffffffffffffffffff1916827bffffffffffffffffffffffffffffffffffffffffffffffffffffffff1916145b80612818575061281782612dcc565b5b9050919050565b60606000821415612867576040518060400160405280600181526020017f300000000000000000000000000000000000000000000000000000000000000081525090506129c7565b600082905060005b6000821461289957808061288290614e83565b915050600a826128929190614cdc565b915061286f565b60008167ffffffffffffffff8111156128db577f4e487b7100000000000000000000000000000000000000000000000000000000600052604160045260246000fd5b6040519080825280601f01601f19166020018201604052801561290d5781602001600182028036833780820191505090505b5090505b600085146129c0576001826129269190614d67565b9150600a856129359190614ecc565b60306129419190614c86565b60f81b81838151811061297d577f4e487b7100000000000000000000000000000000000000000000000000000000600052603260045260246000fd5b60200101907effffffffffffffffffffffffffffffffffffffffffffffffffffffffffffff1916908160001a905350600a856129b99190614cdc565b9450612911565b8093505050505b919050565b6000816040516020016129df919061455f565b6040516020818303038152906040528051906020012060001c9050919050565b612a978282604051602401612a15929190614864565b6040516020818303038152906040527f9710a9d0000000000000000000000000000000000000000000000000000000007bffffffffffffffffffffffffffffffffffffffffffffffffffffffff19166020820180517bffffffffffffffffffffffffffffffffffffffffffffffffffffffff8381831617835250505050612a9b565b5050565b60008151905060006a636f6e736f6c652e6c6f679050602083016000808483855afa5050505050565b612ace8383612e36565b612adb6000848484612b77565b612b1a576040517f08c379a0000000000000000000000000000000000000000000000000000000008152600401612b1190614912565b60405180910390fd5b505050565b612b27610d21565b15612b67576040517f08c379a0000000000000000000000000000000000000000000000000000000008152600401612b5e906149f2565b60405180910390fd5b612b72838383613004565b505050565b6000612b988473ffffffffffffffffffffffffffffffffffffffff16613118565b15612d01578373ffffffffffffffffffffffffffffffffffffffff1663150b7a02612bc16114ff565b8786866040518563ffffffff1660e01b8152600401612be3949392919061477b565b602060405180830381600087803b158015612bfd57600080fd5b505af1925050508015612c2e57506040513d601f19601f82011682018060405250810190612c2b91906137ec565b60015b612cb1573d8060008114612c5e576040519150601f19603f3d011682016040523d82523d6000602084013e612c63565b606091505b50600081511415612ca9576040517f08c379a0000000000000000000000000000000000000000000000000000000008152600401612ca090614912565b60405180910390fd5b805181602001fd5b63150b7a0260e01b7bffffffffffffffffffffffffffffffffffffffffffffffffffffffff1916817bffffffffffffffffffffffffffffffffffffffffffffffffffffffff191614915050612d06565b600190505b949350505050565b606060405180602001604052806000815250905090565b6060612d3082611493565b612d6f576040517f08c379a0000000000000000000000000000000000000000000000000000000008152600401612d6690614b32565b60405180910390fd5b6000612d79612d0e565b90506000815111612d995760405180602001604052806000815250612dc4565b80612da38461281f565b604051602001612db4929190614576565b6040516020818303038152906040525b915050919050565b60007f01ffc9a7000000000000000000000000000000000000000000000000000000007bffffffffffffffffffffffffffffffffffffffffffffffffffffffff1916827bffffffffffffffffffffffffffffffffffffffffffffffffffffffff1916149050919050565b600073ffffffffffffffffffffffffffffffffffffffff168273ffffffffffffffffffffffffffffffffffffffff161415612ea6576040517f08c379a0000000000000000000000000000000000000000000000000000000008152600401612e9d90614a92565b60405180910390fd5b612eaf81611493565b15612eef576040517f08c379a0000000000000000000000000000000000000000000000000000000008152600401612ee690614972565b60405180910390fd5b612efb60008383612b1f565b6001600360008473ffffffffffffffffffffffffffffffffffffffff1673ffffffffffffffffffffffffffffffffffffffff1681526020019081526020016000206000828254612f4b9190614c86565b92505081905550816002600083815260200190815260200160002060006101000a81548173ffffffffffffffffffffffffffffffffffffffff021916908373ffffffffffffffffffffffffffffffffffffffff160217905550808273ffffffffffffffffffffffffffffffffffffffff16600073ffffffffffffffffffffffffffffffffffffffff167fddf252ad1be2c89b69c2b068fc378daa952ba7f163c4a11628f55a4df523b3ef60405160405180910390a45050565b61300f83838361312b565b600073ffffffffffffffffffffffffffffffffffffffff168373ffffffffffffffffffffffffffffffffffffffff1614156130525761304d81613130565b613091565b8173ffffffffffffffffffffffffffffffffffffffff168373ffffffffffffffffffffffffffffffffffffffff16146130905761308f8382613179565b5b5b600073ffffffffffffffffffffffffffffffffffffffff168273ffffffffffffffffffffffffffffffffffffffff1614156130d4576130cf816132e6565b613113565b8273ffffffffffffffffffffffffffffffffffffffff168273ffffffffffffffffffffffffffffffffffffffff1614613112576131118282613429565b5b5b505050565b600080823b905060008111915050919050565b505050565b6008805490506009600083815260200190815260200160002081905550600881908060018154018082558091505060019003906000526020600020016000909190919091505550565b6000600161318684610dea565b6131909190614d67565b9050600060076000848152602001908152602001600020549050818114613275576000600660008673ffffffffffffffffffffffffffffffffffffffff1673ffffffffffffffffffffffffffffffffffffffff168152602001908152602001600020600084815260200190815260200160002054905080600660008773ffffffffffffffffffffffffffffffffffffffff1673ffffffffffffffffffffffffffffffffffffffff168152602001908152602001600020600084815260200190815260200160002081905550816007600083815260200190815260200160002081905550505b6007600084815260200190815260200160002060009055600660008573ffffffffffffffffffffffffffffffffffffffff1673ffffffffffffffffffffffffffffffffffffffff16815260200190815260200160002060008381526020019081526020016000206000905550505050565b600060016008805490506132fa9190614d67565b9050600060096000848152602001908152602001600020549050600060088381548110613350577f4e487b7100000000000000000000000000000000000000000000000000000000600052603260045260246000fd5b906000526020600020015490508060088381548110613398577f4e487b7100000000000000000000000000000000000000000000000000000000600052603260045260246000fd5b90600052602060002001819055508160096000838152602001908152602001600020819055506009600085815260200190815260200160002060009055600880548061340d577f4e487b7100000000000000000000000000000000000000000000000000000000600052603160045260246000fd5b6001900381819060005260206000200160009055905550505050565b600061343483610dea565b905081600660008573ffffffffffffffffffffffffffffffffffffffff1673ffffffffffffffffffffffffffffffffffffffff168152602001908152602001600020600083815260200190815260200160002081905550806007600084815260200190815260200160002081905550505050565b8280546134b490614e51565b90600052602060002090601f0160209004810192826134d6576000855561351d565b82601f106134ef57805160ff191683800117855561351d565b8280016001018555821561351d579182015b8281111561351c578251825591602001919060010190613501565b5b50905061352a919061352e565b5090565b5b8082111561354757600081600090555060010161352f565b5090565b600061355e61355984614bfe565b614bcd565b90508281526020810184848401111561357657600080fd5b613581848285614e0f565b509392505050565b60008135905061359881614fca565b92915050565b6000813590506135ad81614fe1565b92915050565b6000813590506135c281614ff8565b92915050565b6000815190506135d781614ff8565b92915050565b600082601f8301126135ee57600080fd5b81356135fe84826020860161354b565b91505092915050565b6000813590506136168161500f565b92915050565b60006020828403121561362e57600080fd5b600061363c84828501613589565b91505092915050565b6000806040838503121561365857600080fd5b600061366685828601613589565b925050602061367785828601613589565b9150509250929050565b60008060006060848603121561369657600080fd5b60006136a486828701613589565b93505060206136b586828701613589565b92505060406136c686828701613607565b9150509250925092565b600080600080608085870312156136e657600080fd5b60006136f487828801613589565b945050602061370587828801613589565b935050604061371687828801613607565b925050606085013567ffffffffffffffff81111561373357600080fd5b61373f878288016135dd565b91505092959194509250565b6000806040838503121561375e57600080fd5b600061376c85828601613589565b925050602061377d8582860161359e565b9150509250929050565b6000806040838503121561379a57600080fd5b60006137a885828601613589565b92505060206137b985828601613607565b9150509250929050565b6000602082840312156137d557600080fd5b60006137e3848285016135b3565b91505092915050565b6000602082840312156137fe57600080fd5b600061380c848285016135c8565b91505092915050565b60006020828403121561382757600080fd5b600061383584828501613607565b91505092915050565b61384781614d9b565b82525050565b61385681614dad565b82525050565b600061386782614c43565b6138718185614c59565b9350613881818560208601614e1e565b61388a81614fb9565b840191505092915050565b60006138a082614c4e565b6138aa8185614c6a565b93506138ba818560208601614e1e565b6138c381614fb9565b840191505092915050565b60006138d982614c4e565b6138e38185614c7b565b93506138f3818560208601614e1e565b80840191505092915050565b6000815461390c81614e51565b6139168186614c7b565b94506001821660008114613931576001811461394257613975565b60ff19831686528186019350613975565b61394b85614c2e565b60005b8381101561396d5781548189015260018201915060208101905061394e565b838801955050505b50505092915050565b600061398b601483614c6a565b91507f5061757361626c653a206e6f74207061757365640000000000000000000000006000830152602082019050919050565b60006139cb602b83614c6a565b91507f455243373231456e756d657261626c653a206f776e657220696e646578206f7560008301527f74206f6620626f756e64730000000000000000000000000000000000000000006020830152604082019050919050565b6000613a31603283614c6a565b91507f4552433732313a207472616e7366657220746f206e6f6e20455243373231526560008301527f63656976657220696d706c656d656e74657200000000000000000000000000006020830152604082019050919050565b6000613a97603f83614c7b565b91507f2720636c6173733d27626173652720646f6d696e616e742d626173656c696e6560008301527f3d276d6964646c652720746578742d616e63686f723d276d6964646c65273e006020830152603f82019050919050565b6000613afd601e83614c6a565b91507f546865726520617265206e6f204e465473206c65667420746f206d696e7400006000830152602082019050919050565b6000613b3d602683614c6a565b91507f4f776e61626c653a206e6577206f776e657220697320746865207a65726f206160008301527f64647265737300000000000000000000000000000000000000000000000000006020830152604082019050919050565b6000613ba3600c83614c7b565b91507f537572766976616c204b697400000000000000000000000000000000000000006000830152600c82019050919050565b6000613be3601c83614c6a565b91507f4552433732313a20746f6b656e20616c7265616479206d696e746564000000006000830152602082019050919050565b6000613c23600a83614c7b565b91507f54484952445f574f5244000000000000000000000000000000000000000000006000830152600a82019050919050565b6000613c63600983614c7b565b91507f5452414e53504f525400000000000000000000000000000000000000000000006000830152600982019050919050565b6000613ca3600683614c7b565b91507f574541504f4e00000000000000000000000000000000000000000000000000006000830152600682019050919050565b6000613ce3602483614c6a565b91507f4552433732313a207472616e7366657220746f20746865207a65726f2061646460008301527f72657373000000000000000000000000000000000000000000000000000000006020830152604082019050919050565b6000613d49601983614c6a565b91507f4552433732313a20617070726f766520746f2063616c6c6572000000000000006000830152602082019050919050565b6000613d89602c83614c6a565b91507f4552433732313a206f70657261746f7220717565727920666f72206e6f6e657860008301527f697374656e7420746f6b656e00000000000000000000000000000000000000006020830152604082019050919050565b6000613def601083614c6a565b91507f5061757361626c653a20706175736564000000000000000000000000000000006000830152602082019050919050565b6000613e2f603883614c6a565b91507f4552433732313a20617070726f76652063616c6c6572206973206e6f74206f7760008301527f6e6572206e6f7220617070726f76656420666f7220616c6c00000000000000006020830152604082019050919050565b6000613e95602a83614c6a565b91507f4552433732313a2062616c616e636520717565727920666f7220746865207a6560008301527f726f2061646472657373000000000000000000000000000000000000000000006020830152604082019050919050565b6000613efb602983614c6a565b91507f4552433732313a206f776e657220717565727920666f72206e6f6e657869737460008301527f656e7420746f6b656e00000000000000000000000000000000000000000000006020830152604082019050919050565b6000613f61602e83614c6a565b91507f45524337323155524953746f726167653a2055524920736574206f66206e6f6e60008301527f6578697374656e7420746f6b656e0000000000000000000000000000000000006020830152604082019050919050565b6000613fc7600283614c7b565b91507f227d0000000000000000000000000000000000000000000000000000000000006000830152600282019050919050565b6000614007600783614c7b565b91507f3c2f746578743e000000000000000000000000000000000000000000000000006000830152600782019050919050565b6000614047602083614c6a565b91507f4552433732313a206d696e7420746f20746865207a65726f20616464726573736000830152602082019050919050565b6000614087603183614c6a565b91507f45524337323155524953746f726167653a2055524920717565727920666f722060008301527f6e6f6e6578697374656e7420746f6b656e0000000000000000000000000000006020830152604082019050919050565b60006140ed602c83614c6a565b91507f4552433732313a20617070726f76656420717565727920666f72206e6f6e657860008301527f697374656e7420746f6b656e00000000000000000000000000000000000000006020830152604082019050919050565b6000614153602083614c6a565b91507f4f776e61626c653a2063616c6c6572206973206e6f7420746865206f776e65726000830152602082019050919050565b6000614193602983614c6a565b91507f4552433732313a207472616e73666572206f6620746f6b656e2074686174206960008301527f73206e6f74206f776e00000000000000000000000000000000000000000000006020830152604082019050919050565b60006141f9602f83614c6a565b91507f4552433732314d657461646174613a2055524920717565727920666f72206e6f60008301527f6e6578697374656e7420746f6b656e00000000000000000000000000000000006020830152604082019050919050565b600061425f601183614c7b565b91507f3c7465787420783d273530252720793d270000000000000000000000000000006000830152601182019050919050565b600061429f600a83614c7b565b91507f7b226e616d65223a2022000000000000000000000000000000000000000000006000830152600a82019050919050565b60006142df602183614c6a565b91507f4552433732313a20617070726f76616c20746f2063757272656e74206f776e6560008301527f72000000000000000000000000000000000000000000000000000000000000006020830152604082019050919050565b6000614345601d83614c7b565b91507f646174613a6170706c69636174696f6e2f6a736f6e3b6261736536342c0000006000830152601d82019050919050565b6000614385605883614c7b565b91507f222c20226465736372697074696f6e223a20225a6f6d6269652041706f63616c60008301527f7970736520537572766976616c204b6974222c2022696d616765223a2022646160208301527f74613a696d6167652f7376672b786d6c3b6261736536342c00000000000000006040830152605882019050919050565b6000614411600683614c7b565b91507f434f4c4f555200000000000000000000000000000000000000000000000000006000830152600682019050919050565b6000614451603183614c6a565b91507f4552433732313a207472616e736665722063616c6c6572206973206e6f74206f60008301527f776e6572206e6f7220617070726f7665640000000000000000000000000000006020830152604082019050919050565b60006144b7602c83614c6a565b91507f455243373231456e756d657261626c653a20676c6f62616c20696e646578206f60008301527f7574206f6620626f756e647300000000000000000000000000000000000000006020830152604082019050919050565b600061451d600683614c7b565b91507f3c2f7376673e00000000000000000000000000000000000000000000000000006000830152600682019050919050565b61455981614e05565b82525050565b600061456b82846138ce565b915081905092915050565b600061458282856138ce565b915061458e82846138ce565b91508190509392505050565b60006145a682866138ce565b91506145b282856138ce565b91506145be82846138ce565b9150819050949350505050565b60006145d782896138ff565b91506145e382886138ce565b91506145ef82876138ff565b91506145fb82866138ce565b915061460782856138ce565b915061461382846138ce565b915061461e82614510565b9150819050979650505050505050565b600061463982613c16565b915061464582846138ce565b915081905092915050565b600061465b82613c56565b915061466782846138ce565b915081905092915050565b600061467d82613c96565b915061468982846138ce565b915081905092915050565b600061469f82614252565b91506146ab82856138ce565b91506146b682613a8a565b91506146c282846138ce565b91506146cd82613ffa565b91508190509392505050565b60006146e482614292565b91506146ef82613b96565b91506146fa82614378565b915061470682846138ce565b915061471182613fba565b915081905092915050565b600061472782614338565b915061473382846138ce565b915081905092915050565b600061474982614404565b915061475582846138ce565b915081905092915050565b6000602082019050614775600083018461383e565b92915050565b6000608082019050614790600083018761383e565b61479d602083018661383e565b6147aa6040830185614550565b81810360608301526147bc818461385c565b905095945050505050565b60006040820190506147dc600083018561383e565b6147e96020830184614550565b9392505050565b6000602082019050614805600083018461384d565b92915050565b600060208201905081810360008301526148258184613895565b905092915050565b600060408201905081810360008301526148478185613895565b9050818103602083015261485b8184613895565b90509392505050565b6000604082019050818103600083015261487e8185613895565b905061488d6020830184614550565b9392505050565b600060608201905081810360008301526148ae8186613895565b90506148bd6020830185614550565b6148ca604083018461383e565b949350505050565b600060208201905081810360008301526148eb8161397e565b9050919050565b6000602082019050818103600083015261490b816139be565b9050919050565b6000602082019050818103600083015261492b81613a24565b9050919050565b6000602082019050818103600083015261494b81613af0565b9050919050565b6000602082019050818103600083015261496b81613b30565b9050919050565b6000602082019050818103600083015261498b81613bd6565b9050919050565b600060208201905081810360008301526149ab81613cd6565b9050919050565b600060208201905081810360008301526149cb81613d3c565b9050919050565b600060208201905081810360008301526149eb81613d7c565b9050919050565b60006020820190508181036000830152614a0b81613de2565b9050919050565b60006020820190508181036000830152614a2b81613e22565b9050919050565b60006020820190508181036000830152614a4b81613e88565b9050919050565b60006020820190508181036000830152614a6b81613eee565b9050919050565b60006020820190508181036000830152614a8b81613f54565b9050919050565b60006020820190508181036000830152614aab8161403a565b9050919050565b60006020820190508181036000830152614acb8161407a565b9050919050565b60006020820190508181036000830152614aeb816140e0565b9050919050565b60006020820190508181036000830152614b0b81614146565b9050919050565b60006020820190508181036000830152614b2b81614186565b9050919050565b60006020820190508181036000830152614b4b816141ec565b9050919050565b60006020820190508181036000830152614b6b816142d2565b9050919050565b60006020820190508181036000830152614b8b81614444565b9050919050565b60006020820190508181036000830152614bab816144aa565b9050919050565b6000602082019050614bc76000830184614550565b92915050565b6000604051905081810181811067ffffffffffffffff82111715614bf457614bf3614f8a565b5b8060405250919050565b600067ffffffffffffffff821115614c1957614c18614f8a565b5b601f19601f8301169050602081019050919050565b60008190508160005260206000209050919050565b600081519050919050565b600081519050919050565b600082825260208201905092915050565b600082825260208201905092915050565b600081905092915050565b6000614c9182614e05565b9150614c9c83614e05565b9250827fffffffffffffffffffffffffffffffffffffffffffffffffffffffffffffffff03821115614cd157614cd0614efd565b5b828201905092915050565b6000614ce782614e05565b9150614cf283614e05565b925082614d0257614d01614f2c565b5b828204905092915050565b6000614d1882614e05565b9150614d2383614e05565b9250817fffffffffffffffffffffffffffffffffffffffffffffffffffffffffffffffff0483118215151615614d5c57614d5b614efd565b5b828202905092915050565b6000614d7282614e05565b9150614d7d83614e05565b925082821015614d9057614d8f614efd565b5b828203905092915050565b6000614da682614de5565b9050919050565b60008115159050919050565b60007fffffffff0000000000000000000000000000000000000000000000000000000082169050919050565b600073ffffffffffffffffffffffffffffffffffffffff82169050919050565b6000819050919050565b82818337600083830152505050565b60005b83811015614e3c578082015181840152602081019050614e21565b83811115614e4b576000848401525b50505050565b60006002820490506001821680614e6957607f821691505b60208210811415614e7d57614e7c614f5b565b5b50919050565b6000614e8e82614e05565b91507fffffffffffffffffffffffffffffffffffffffffffffffffffffffffffffffff821415614ec157614ec0614efd565b5b600182019050919050565b6000614ed782614e05565b9150614ee283614e05565b925082614ef257614ef1614f2c565b5b828206905092915050565b7f4e487b7100000000000000000000000000000000000000000000000000000000600052601160045260246000fd5b7f4e487b7100000000000000000000000000000000000000000000000000000000600052601260045260246000fd5b7f4e487b7100000000000000000000000000000000000000000000000000000000600052602260045260246000fd5b7f4e487b7100000000000000000000000000000000000000000000000000000000600052604160045260246000fd5b6000601f19601f8301169050919050565b614fd381614d9b565b8114614fde57600080fd5b50565b614fea81614dad565b8114614ff557600080fd5b50565b61500181614db9565b811461500c57600080fd5b50565b61501881614e05565b811461502357600080fd5b5056fe4142434445464748494a4b4c4d4e4f505152535455565758595a6162636465666768696a6b6c6d6e6f707172737475767778797a303132333435363738392b2f416e204e4654207769746820494420257320686173206265656e206d696e74656420746f202573a26469706673582212201f14580cd03ea0bc2a9d72f297c28c446726aaee8142e4116bd823286f1f25f464736f6c634300080000333c73766720786d6c6e733d27687474703a2f2f7777772e77332e6f72672f323030302f73766727207072657365727665417370656374526174696f3d27784d696e594d696e206d656574272076696577426f783d273020302033353020333530273e3c7374796c653e2e62617365207b2066696c6c3a2077686974653b20666f6e742d66616d696c793a2073657269663b20666f6e742d73697a653a20323470783b207d3c2f7374796c653e3c726563742077696474683d273130302527206865696768743d2731303025272066696c6c3d27",
  "immutableReferences": {},
  "source": "// SPDX-License-Identifier: MIT\npragma solidity 0.8.0;\n\n// We selectedWeapon import some OpenZeppelin Contracts.\nimport \"@openzeppelin/contracts/utils/Strings.sol\";\nimport \"@openzeppelin/contracts/token/ERC721/ERC721.sol\";\nimport \"@openzeppelin/contracts/token/ERC721/extensions/ERC721URIStorage.sol\";\nimport \"@openzeppelin/contracts/utils/Counters.sol\";\nimport \"@openzeppelin/contracts/security/Pausable.sol\";\nimport \"@openzeppelin/contracts/access/Ownable.sol\";\nimport \"@openzeppelin/contracts/token/ERC721/extensions/ERC721Enumerable.sol\";\nimport \"hardhat-console/contracts/console.sol\";\n\n// Import helper functions needed for Base62 encoding\nimport { Base64 } from \"./libraries/Base64.sol\";\n\n/**\n@title Zombie Apocalipse Survival kit generator\n@author Ben Naylor\n@notice This contract currently only handles free mints. No payment is taken.\n\n */\ncontract NftMinter is ERC721, ERC721Enumerable, ERC721URIStorage, Pausable, Ownable {\n\n    uint private supplyCap = 3000;\n\n    /// @notice keep track of token ids using purpose built OpenZeppelin utility\n    using Counters for Counters.Counter;\n    Counters.Counter private _tokenIds;\n\n    /// @dev We split the SVG at the part where it asks for the background color.\n    string svgPartOne = \"<svg xmlns='http://www.w3.org/2000/svg' preserveAspectRatio='xMinYMin meet' viewBox='0 0 350 350'><style>.base { fill: white; font-family: serif; font-size: 24px; }</style><rect width='100%' height='100%' fill='\";\n    // string svgPartTwo = \"'/><text x='50%' y='50%' class='base' dominant-baseline='middle' text-anchor='middle'>\";\n    string svgPartTwo = \"'/>\";\n\n    string[] weapon = [\"Crossbow\", \"Shotgun\", \"Sword\", \"Bat\", \"Crowbar\", \"slingshot\"];\n    string[] transport = [\"Motorbike\", \"Car\", \"Bicycle\", \"RV\", \"Walking\", \"Helicopter\"];\n    string[] item = [\"Torch\", \"SurvivalKit\", \"MedicalKit\", \"Radio\", \"Map\", \"Wistle\"];\n    string[] colors = [\"red\", \"#08C2A8\", \"black\", \"yellow\", \"blue\", \"green\"];\n\n    /// @notice Event to be emitted after a successful mint\n    /// @param sender The address of the transaction sender\n    /// @param tokenId The id of the token that has just been minted\n    event NewEpicNFTMinted(address sender, uint256 tokenId);\n\n    /// @notice contract constructor. Takes parameters and passes them to the inherited ERC721 contract constructor\n    /// @param _name the name of the contract\n    /// @param _symbol the symbol that contract tokens will be represented by\n    /// @param _supplyCap the maximum token that are mintable from this contract\n    constructor(string memory _name, string memory _symbol, uint _supplyCap) ERC721(_name, _symbol) {\n        require(_supplyCap > 0, \"supplyCap must be greater than 0\");\n        supplyCap = _supplyCap;\n    }\n\n    /// @notice pauses the contract. \n    /// @dev Inherits _pause() function from Pausable.sol and the onlyOwner modifier from Ownable.sol\n    function pause() public onlyOwner {\n        _pause();\n    }\n\n    /// @notice unpauses the contract. \n    /// @dev Inherits _unpause() function from Pausable.sol and the onlyOwner modifier from Ownable.sol\n    function unpause() public onlyOwner {\n        _unpause();\n    }\n\n    /// @return maximum number of mints allowed on contract \n    function getSupplyCap() public view returns(uint256) {\n        return supplyCap;\n    }\n\n    /// @return number of remaining mints on the contract\n    function getRemainingMints () public view returns (uint256) {\n        return supplyCap - _tokenIds.current();\n    }\n\n    /// @return number of tokens minted on the contract so far.\n    function getTotalNFTsMintedSoFar () public view returns (uint256) {\n        return _tokenIds.current();\n    }\n\n    /// @notice pick a random weappon to equip the player with\n    /// @dev the randomness could be improved by using an oracle feed.\n    /// @param tokenId used to seed the random function\n    /// @return A random weapon from the array of weapons available.\n    function pickRandomWeapon(uint256 tokenId) internal view returns (string memory) {\n        // seed the random generator\n        uint256 rand = random(string(abi.encodePacked(\"WEAPON\", Strings.toString(tokenId))));\n        // Squash the # between 0 and the length of the array to avoid going out of bounds.\n        rand = rand % weapon.length;\n        return weapon[rand];\n    }\n\n    /// @notice pick a random transport to equip the player with\n    /// @param tokenId used to seed the random function\n    /// @return A random weapon from the array of transport available.\n    function pickRandomTransport(uint256 tokenId) internal view returns (string memory) {\n        uint256 rand = random(string(abi.encodePacked(\"TRANSPORT\", Strings.toString(tokenId))));\n        rand = rand % transport.length;\n        return transport[rand];\n    }\n\n    /// @notice pick a random item to equip the player with\n    /// @param tokenId used to seed the random function\n    /// @return A random item from the array of items available.\n    function pickRandomItem(uint256 tokenId) internal view returns (string memory) {\n        console.log(\"Random Seed: \", string(abi.encodePacked(\"THIRD_WORD\", Strings.toString(tokenId))));\n        uint256 rand = random(string(abi.encodePacked(\"THIRD_WORD\", Strings.toString(tokenId))));\n        console.log(\"pickRandomItem rand: \", rand);\n        rand = rand % item.length;\n        console.log(\"pickRandomItem rand: \", rand);\n        return item[rand];\n    }\n\n    /// @notice pick a random background colour for the players card\n    /// @param tokenId used to seed the random function\n    /// @return A random background colour from the array of colours available.\n    function pickRandomBackgroundColour(uint256 tokenId) internal view returns (string memory) {\n        uint256 rand = random(string(abi.encodePacked(\"COLOUR\", Strings.toString(tokenId))));\n        rand = rand % colors.length;\n        return colors[rand];\n    } \n\n    /// @param input string input which is hashed to generate the 'random' number.\n    /// @dev this function could be made truly random by using an oracle feed.\n    /// @return A random integer\n    function random(string memory input) internal pure returns (uint256) {\n        return uint(keccak256(abi.encodePacked(input)));\n    }\n\n    /// @dev overriding this function was required to inherit from ERC721 and ERC721URIStorage\n    function _burn(uint256 tokenId) internal whenNotPaused override(ERC721, ERC721URIStorage) {\n        super._burn(tokenId);\n    }\n\n    /// @param tokenId the tokenId to retrieve URI for\n    /// @return the token URI containing the tokens metadata\n    function tokenURI(uint256 tokenId) public view override (ERC721, ERC721URIStorage) returns (string memory) {\n        return super.tokenURI(tokenId);\n    }\n\n    function createItem(string memory claimedItem, uint itemNumber) internal pure returns (string memory) {\n        string memory position;\n        if(itemNumber == 1) {\n            position = \"40%\";\n        } else if (itemNumber == 2) {\n            position = \"50%\";\n        } else {\n            position = \"60%\";\n        }\n        \n        return string(abi.encodePacked(\"<text x='50%' y='\", position, \"' class='base' dominant-baseline='middle' text-anchor='middle'>\", claimedItem, \"</text>\"));\n    }\n    \n\n    /// @notice mint an ERC721 token on the contract. The caller will receive a token containing a survival kit that includes a weapon, a transport and an item. All are randomly selected.  \n    /// @dev currently does not accept payment\n    /// @dev this function creates and stores the tokens URI. This is a JSON string constisting of name, description and image fields. The image is a BASE64 encoded SVG. Finally The whole JSON metadata string is BASE64 encoded and mapped to the tokenId.\n    function mintNFT() public whenNotPaused{\n        require(_tokenIds.current() <= supplyCap, \"There are no NFTs left to mint\");\n        \n        // get the current tokenId, this starts at 0\n        uint newItemId = _tokenIds.current();\n\n        // randomly grab one word from each of the arrays\n        string memory selectedWeapon = pickRandomWeapon(newItemId);\n        string memory selectedTransport = pickRandomTransport(newItemId);\n        string memory selectedItem = pickRandomItem(newItemId);\n        string memory completeKit = string(abi.encodePacked(selectedWeapon, selectedTransport, selectedItem));\n\n        console.log(\"completeKit: \", completeKit);\n\n        // Add the random color in.\n        string memory randomColor = pickRandomBackgroundColour(newItemId);\n        // string memory finalSvg = string(abi.encodePacked(svgPartOne, randomColor, svgPartTwo, completeKit, \"</text></svg>\"));\n        string memory finalSvg = string(abi.encodePacked(svgPartOne, randomColor, svgPartTwo, \n        createItem(selectedWeapon, 1), \n        createItem(selectedTransport, 2), \n        createItem(selectedItem, 3), \n        \"</svg>\"));\n\n        console.log(\"finalSvg: \", finalSvg);\n\n        // get all the JSON metadata in place and base64 encode it\n        string memory json = Base64.encode(\n            bytes(\n                string(\n                    abi.encodePacked(\n                        '{\"name\": \"',\"Survival Kit\",\n                        '\", \"description\": \"Zombie Apocalypse Survival Kit\", \"image\": \"data:image/svg+xml;base64,',\n                    // add data:image/svg+xml;base64 and then append our base64 encode our svg.\n                    Base64.encode(bytes(finalSvg)),\n                    '\"}'\n                    )\n                )\n            )\n        );\n        console.log(\"BASE64 encoded JSON: \", json);\n\n        // Just like before, we prepend data:application/json;base64, to our data.\n        string memory finalTokenUri = string(\n            abi.encodePacked(\"data:application/json;base64,\", json)\n        );\n        console.log(\"finalTokenUri: \", finalTokenUri);\n\n        console.log(\"\\n--------------------\");\n        // console.log(finalTokenUri);\n        console.log(\"--------------------\\n\");  \n\n        // actually mint the NFT to the sender using msg.sender\n        _safeMint(msg.sender, newItemId);\n\n        // store the tokens metadata\n        _setTokenURI(newItemId, finalTokenUri);\n\n        // increment the counter for when the next NFT is minted\n        _tokenIds.increment();\n        console.log(\"An NFT with ID %s has been minted to %s\", newItemId, msg.sender);\n        emit NewEpicNFTMinted(msg.sender, newItemId);\n    }\n\n    // The following functions are overrides required by Solidity.\n    function _beforeTokenTransfer(address from, address to, uint256 tokenId) internal whenNotPaused override(ERC721, ERC721Enumerable) {\n        super._beforeTokenTransfer(from, to, tokenId);\n    }\n\n    function supportsInterface(bytes4 interfaceId) public view override(ERC721, ERC721Enumerable) returns (bool) {\n        return super.supportsInterface(interfaceId);\n    }\n}",
  "sourcePath": "/Users/bennaylor/Development/Consensys Academy/blockchain-developer-bootcamp-final-project/contracts/NftMinter.sol",
  "compiler": {
    "name": "solc",
    "version": "0.8.0+commit.c7dfd78e.Emscripten.clang"
  },
  "schemaVersion": "3.4.3",
  "updatedAt": "2021-11-10T19:32:52.700Z",
  "networkType": "ethereum",
  "devdoc": {
    "author": "Ben Naylor",
    "events": {
      "NewEpicNFTMinted(address,uint256)": {
        "params": {
          "sender": "The address of the transaction sender",
          "tokenId": "The id of the token that has just been minted"
        }
      }
    },
    "kind": "dev",
    "methods": {
      "approve(address,uint256)": {
        "details": "See {IERC721-approve}."
      },
      "balanceOf(address)": {
        "details": "See {IERC721-balanceOf}."
      },
      "constructor": {
        "params": {
          "_name": "the name of the contract",
          "_supplyCap": "the maximum token that are mintable from this contract",
          "_symbol": "the symbol that contract tokens will be represented by"
        }
      },
      "getApproved(uint256)": {
        "details": "See {IERC721-getApproved}."
      },
      "getRemainingMints()": {
        "returns": {
          "_0": "number of remaining mints on the contract"
        }
      },
      "getSupplyCap()": {
        "returns": {
          "_0": "maximum number of mints allowed on contract "
        }
      },
      "getTotalNFTsMintedSoFar()": {
        "returns": {
          "_0": "number of tokens minted on the contract so far."
        }
      },
      "isApprovedForAll(address,address)": {
        "details": "See {IERC721-isApprovedForAll}."
      },
      "mintNFT()": {
        "details": "currently does not accept paymentthis function creates and stores the tokens URI. This is a JSON string constisting of name, description and image fields. The image is a BASE64 encoded SVG. Finally The whole JSON metadata string is BASE64 encoded and mapped to the tokenId."
      },
      "name()": {
        "details": "See {IERC721Metadata-name}."
      },
      "owner()": {
        "details": "Returns the address of the current owner."
      },
      "ownerOf(uint256)": {
        "details": "See {IERC721-ownerOf}."
      },
      "pause()": {
        "details": "Inherits _pause() function from Pausable.sol and the onlyOwner modifier from Ownable.sol"
      },
      "paused()": {
        "details": "Returns true if the contract is paused, and false otherwise."
      },
      "renounceOwnership()": {
        "details": "Leaves the contract without owner. It will not be possible to call `onlyOwner` functions anymore. Can only be called by the current owner. NOTE: Renouncing ownership will leave the contract without an owner, thereby removing any functionality that is only available to the owner."
      },
      "safeTransferFrom(address,address,uint256)": {
        "details": "See {IERC721-safeTransferFrom}."
      },
      "safeTransferFrom(address,address,uint256,bytes)": {
        "details": "See {IERC721-safeTransferFrom}."
      },
      "setApprovalForAll(address,bool)": {
        "details": "See {IERC721-setApprovalForAll}."
      },
      "symbol()": {
        "details": "See {IERC721Metadata-symbol}."
      },
      "tokenByIndex(uint256)": {
        "details": "See {IERC721Enumerable-tokenByIndex}."
      },
      "tokenOfOwnerByIndex(address,uint256)": {
        "details": "See {IERC721Enumerable-tokenOfOwnerByIndex}."
      },
      "tokenURI(uint256)": {
        "params": {
          "tokenId": "the tokenId to retrieve URI for"
        },
        "returns": {
          "_0": "the token URI containing the tokens metadata"
        }
      },
      "totalSupply()": {
        "details": "See {IERC721Enumerable-totalSupply}."
      },
      "transferFrom(address,address,uint256)": {
        "details": "See {IERC721-transferFrom}."
      },
      "transferOwnership(address)": {
        "details": "Transfers ownership of the contract to a new account (`newOwner`). Can only be called by the current owner."
      },
      "unpause()": {
        "details": "Inherits _unpause() function from Pausable.sol and the onlyOwner modifier from Ownable.sol"
      }
    },
    "stateVariables": {
      "svgPartOne": {
        "details": "We split the SVG at the part where it asks for the background color."
      }
    },
    "title": "Zombie Apocalipse Survival kit generator",
    "version": 1
  },
  "userdoc": {
    "events": {
      "NewEpicNFTMinted(address,uint256)": {
        "notice": "Event to be emitted after a successful mint"
      }
    },
    "kind": "user",
    "methods": {
      "constructor": {
        "notice": "contract constructor. Takes parameters and passes them to the inherited ERC721 contract constructor"
      },
      "mintNFT()": {
        "notice": "mint an ERC721 token on the contract. The caller will receive a token containing a survival kit that includes a weapon, a transport and an item. All are randomly selected.  "
      },
      "pause()": {
        "notice": "pauses the contract. "
      },
      "unpause()": {
        "notice": "unpauses the contract. "
      }
    },
    "notice": "This contract currently only handles free mints. No payment is taken.",
    "version": 1
  }
}