{
  "contractName": "NftMinter",
  "abi": [
    {
      "inputs": [
        {
          "internalType": "string",
          "name": "_name",
          "type": "string"
        },
        {
          "internalType": "string",
          "name": "_symbol",
          "type": "string"
        },
        {
          "internalType": "uint256",
          "name": "_supplyCap",
          "type": "uint256"
        }
      ],
      "stateMutability": "nonpayable",
      "type": "constructor"
    },
    {
      "anonymous": false,
      "inputs": [
        {
          "indexed": true,
          "internalType": "address",
          "name": "owner",
          "type": "address"
        },
        {
          "indexed": true,
          "internalType": "address",
          "name": "approved",
          "type": "address"
        },
        {
          "indexed": true,
          "internalType": "uint256",
          "name": "tokenId",
          "type": "uint256"
        }
      ],
      "name": "Approval",
      "type": "event"
    },
    {
      "anonymous": false,
      "inputs": [
        {
          "indexed": true,
          "internalType": "address",
          "name": "owner",
          "type": "address"
        },
        {
          "indexed": true,
          "internalType": "address",
          "name": "operator",
          "type": "address"
        },
        {
          "indexed": false,
          "internalType": "bool",
          "name": "approved",
          "type": "bool"
        }
      ],
      "name": "ApprovalForAll",
      "type": "event"
    },
    {
      "anonymous": false,
      "inputs": [
        {
          "indexed": false,
          "internalType": "address",
          "name": "sender",
          "type": "address"
        },
        {
          "indexed": false,
          "internalType": "uint256",
          "name": "tokenId",
          "type": "uint256"
        }
      ],
      "name": "NewEpicNFTMinted",
      "type": "event"
    },
    {
      "anonymous": false,
      "inputs": [
        {
          "indexed": true,
          "internalType": "address",
          "name": "previousOwner",
          "type": "address"
        },
        {
          "indexed": true,
          "internalType": "address",
          "name": "newOwner",
          "type": "address"
        }
      ],
      "name": "OwnershipTransferred",
      "type": "event"
    },
    {
      "anonymous": false,
      "inputs": [
        {
          "indexed": false,
          "internalType": "address",
          "name": "account",
          "type": "address"
        }
      ],
      "name": "Paused",
      "type": "event"
    },
    {
      "anonymous": false,
      "inputs": [
        {
          "indexed": true,
          "internalType": "address",
          "name": "from",
          "type": "address"
        },
        {
          "indexed": true,
          "internalType": "address",
          "name": "to",
          "type": "address"
        },
        {
          "indexed": true,
          "internalType": "uint256",
          "name": "tokenId",
          "type": "uint256"
        }
      ],
      "name": "Transfer",
      "type": "event"
    },
    {
      "anonymous": false,
      "inputs": [
        {
          "indexed": false,
          "internalType": "address",
          "name": "account",
          "type": "address"
        }
      ],
      "name": "Unpaused",
      "type": "event"
    },
    {
      "inputs": [
        {
          "internalType": "address",
          "name": "to",
          "type": "address"
        },
        {
          "internalType": "uint256",
          "name": "tokenId",
          "type": "uint256"
        }
      ],
      "name": "approve",
      "outputs": [],
      "stateMutability": "nonpayable",
      "type": "function"
    },
    {
      "inputs": [
        {
          "internalType": "address",
          "name": "owner",
          "type": "address"
        }
      ],
      "name": "balanceOf",
      "outputs": [
        {
          "internalType": "uint256",
          "name": "",
          "type": "uint256"
        }
      ],
      "stateMutability": "view",
      "type": "function",
      "constant": true
    },
    {
      "inputs": [
        {
          "internalType": "uint256",
          "name": "tokenId",
          "type": "uint256"
        }
      ],
      "name": "getApproved",
      "outputs": [
        {
          "internalType": "address",
          "name": "",
          "type": "address"
        }
      ],
      "stateMutability": "view",
      "type": "function",
      "constant": true
    },
    {
      "inputs": [
        {
          "internalType": "address",
          "name": "owner",
          "type": "address"
        },
        {
          "internalType": "address",
          "name": "operator",
          "type": "address"
        }
      ],
      "name": "isApprovedForAll",
      "outputs": [
        {
          "internalType": "bool",
          "name": "",
          "type": "bool"
        }
      ],
      "stateMutability": "view",
      "type": "function",
      "constant": true
    },
    {
      "inputs": [],
      "name": "name",
      "outputs": [
        {
          "internalType": "string",
          "name": "",
          "type": "string"
        }
      ],
      "stateMutability": "view",
      "type": "function",
      "constant": true
    },
    {
      "inputs": [],
      "name": "owner",
      "outputs": [
        {
          "internalType": "address",
          "name": "",
          "type": "address"
        }
      ],
      "stateMutability": "view",
      "type": "function",
      "constant": true
    },
    {
      "inputs": [
        {
          "internalType": "uint256",
          "name": "tokenId",
          "type": "uint256"
        }
      ],
      "name": "ownerOf",
      "outputs": [
        {
          "internalType": "address",
          "name": "",
          "type": "address"
        }
      ],
      "stateMutability": "view",
      "type": "function",
      "constant": true
    },
    {
      "inputs": [],
      "name": "paused",
      "outputs": [
        {
          "internalType": "bool",
          "name": "",
          "type": "bool"
        }
      ],
      "stateMutability": "view",
      "type": "function",
      "constant": true
    },
    {
      "inputs": [],
      "name": "renounceOwnership",
      "outputs": [],
      "stateMutability": "nonpayable",
      "type": "function"
    },
    {
      "inputs": [
        {
          "internalType": "address",
          "name": "from",
          "type": "address"
        },
        {
          "internalType": "address",
          "name": "to",
          "type": "address"
        },
        {
          "internalType": "uint256",
          "name": "tokenId",
          "type": "uint256"
        }
      ],
      "name": "safeTransferFrom",
      "outputs": [],
      "stateMutability": "nonpayable",
      "type": "function"
    },
    {
      "inputs": [
        {
          "internalType": "address",
          "name": "from",
          "type": "address"
        },
        {
          "internalType": "address",
          "name": "to",
          "type": "address"
        },
        {
          "internalType": "uint256",
          "name": "tokenId",
          "type": "uint256"
        },
        {
          "internalType": "bytes",
          "name": "_data",
          "type": "bytes"
        }
      ],
      "name": "safeTransferFrom",
      "outputs": [],
      "stateMutability": "nonpayable",
      "type": "function"
    },
    {
      "inputs": [
        {
          "internalType": "address",
          "name": "operator",
          "type": "address"
        },
        {
          "internalType": "bool",
          "name": "approved",
          "type": "bool"
        }
      ],
      "name": "setApprovalForAll",
      "outputs": [],
      "stateMutability": "nonpayable",
      "type": "function"
    },
    {
      "inputs": [],
      "name": "symbol",
      "outputs": [
        {
          "internalType": "string",
          "name": "",
          "type": "string"
        }
      ],
      "stateMutability": "view",
      "type": "function",
      "constant": true
    },
    {
      "inputs": [
        {
          "internalType": "uint256",
          "name": "index",
          "type": "uint256"
        }
      ],
      "name": "tokenByIndex",
      "outputs": [
        {
          "internalType": "uint256",
          "name": "",
          "type": "uint256"
        }
      ],
      "stateMutability": "view",
      "type": "function",
      "constant": true
    },
    {
      "inputs": [
        {
          "internalType": "address",
          "name": "owner",
          "type": "address"
        },
        {
          "internalType": "uint256",
          "name": "index",
          "type": "uint256"
        }
      ],
      "name": "tokenOfOwnerByIndex",
      "outputs": [
        {
          "internalType": "uint256",
          "name": "",
          "type": "uint256"
        }
      ],
      "stateMutability": "view",
      "type": "function",
      "constant": true
    },
    {
      "inputs": [],
      "name": "totalSupply",
      "outputs": [
        {
          "internalType": "uint256",
          "name": "",
          "type": "uint256"
        }
      ],
      "stateMutability": "view",
      "type": "function",
      "constant": true
    },
    {
      "inputs": [
        {
          "internalType": "address",
          "name": "from",
          "type": "address"
        },
        {
          "internalType": "address",
          "name": "to",
          "type": "address"
        },
        {
          "internalType": "uint256",
          "name": "tokenId",
          "type": "uint256"
        }
      ],
      "name": "transferFrom",
      "outputs": [],
      "stateMutability": "nonpayable",
      "type": "function"
    },
    {
      "inputs": [
        {
          "internalType": "address",
          "name": "newOwner",
          "type": "address"
        }
      ],
      "name": "transferOwnership",
      "outputs": [],
      "stateMutability": "nonpayable",
      "type": "function"
    },
    {
      "inputs": [],
      "name": "pause",
      "outputs": [],
      "stateMutability": "nonpayable",
      "type": "function"
    },
    {
      "inputs": [],
      "name": "unpause",
      "outputs": [],
      "stateMutability": "nonpayable",
      "type": "function"
    },
    {
      "inputs": [],
      "name": "getSupplyCap",
      "outputs": [
        {
          "internalType": "uint256",
          "name": "",
          "type": "uint256"
        }
      ],
      "stateMutability": "view",
      "type": "function",
      "constant": true
    },
    {
      "inputs": [],
      "name": "getRemainingMints",
      "outputs": [
        {
          "internalType": "uint256",
          "name": "",
          "type": "uint256"
        }
      ],
      "stateMutability": "view",
      "type": "function",
      "constant": true
    },
    {
      "inputs": [],
      "name": "getTotalNFTsMintedSoFar",
      "outputs": [
        {
          "internalType": "uint256",
          "name": "",
          "type": "uint256"
        }
      ],
      "stateMutability": "view",
      "type": "function",
      "constant": true
    },
    {
      "inputs": [
        {
          "internalType": "uint256",
          "name": "tokenId",
          "type": "uint256"
        }
      ],
      "name": "tokenURI",
      "outputs": [
        {
          "internalType": "string",
          "name": "",
          "type": "string"
        }
      ],
      "stateMutability": "view",
      "type": "function",
      "constant": true
    },
    {
      "inputs": [],
      "name": "mintNFT",
      "outputs": [],
      "stateMutability": "nonpayable",
      "type": "function"
    },
    {
      "inputs": [
        {
          "internalType": "bytes4",
          "name": "interfaceId",
          "type": "bytes4"
        }
      ],
      "name": "supportsInterface",
      "outputs": [
        {
          "internalType": "bool",
          "name": "",
          "type": "bool"
        }
      ],
      "stateMutability": "view",
      "type": "function",
      "constant": true
    }
  ],
  "bytecode": "0x6080604052610bb8600c5560405180610100016040528060d3815260200162005b0760d39139600e90805190602001906200003c9291906200082f565b5060405180608001604052806056815260200162005bda60569139600f90805190602001906200006e9291906200082f565b506040518060c001604052806040518060400160405280600881526020017f43726f7373626f7700000000000000000000000000000000000000000000000081525081526020016040518060400160405280600781526020017f53686f7467756e0000000000000000000000000000000000000000000000000081525081526020016040518060400160405280600581526020017f53776f726400000000000000000000000000000000000000000000000000000081525081526020016040518060400160405280600381526020017f426174000000000000000000000000000000000000000000000000000000000081525081526020016040518060400160405280600781526020017f43726f776261720000000000000000000000000000000000000000000000000081525081526020016040518060400160405280600981526020017f736c696e6773686f7400000000000000000000000000000000000000000000008152508152506010906006620001ec929190620008c0565b506040518060c001604052806040518060400160405280600981526020017f4d6f746f7262696b65000000000000000000000000000000000000000000000081525081526020016040518060400160405280600381526020017f436172000000000000000000000000000000000000000000000000000000000081525081526020016040518060400160405280600781526020017f42696379636c650000000000000000000000000000000000000000000000000081525081526020016040518060400160405280600281526020017f525600000000000000000000000000000000000000000000000000000000000081525081526020016040518060400160405280600781526020017f57616c6b696e670000000000000000000000000000000000000000000000000081525081526020016040518060400160405280600a81526020017f48656c69636f707465720000000000000000000000000000000000000000000081525081525060119060066200036a929190620008c0565b506040518060c001604052806040518060400160405280600581526020017f546f72636800000000000000000000000000000000000000000000000000000081525081526020016040518060400160405280600b81526020017f537572766976616c4b697400000000000000000000000000000000000000000081525081526020016040518060400160405280600a81526020017f4d65646963616c4b69740000000000000000000000000000000000000000000081525081526020016040518060400160405280600581526020017f526164696f00000000000000000000000000000000000000000000000000000081525081526020016040518060400160405280600381526020017f4d6170000000000000000000000000000000000000000000000000000000000081525081526020016040518060400160405280600681526020017f576973746c6500000000000000000000000000000000000000000000000000008152508152506012906006620004e8929190620008c0565b506040518060c001604052806040518060400160405280600381526020017f726564000000000000000000000000000000000000000000000000000000000081525081526020016040518060400160405280600781526020017f233038433241380000000000000000000000000000000000000000000000000081525081526020016040518060400160405280600581526020017f626c61636b00000000000000000000000000000000000000000000000000000081525081526020016040518060400160405280600681526020017f79656c6c6f77000000000000000000000000000000000000000000000000000081525081526020016040518060400160405280600481526020017f626c75650000000000000000000000000000000000000000000000000000000081525081526020016040518060400160405280600581526020017f677265656e000000000000000000000000000000000000000000000000000000815250815250601390600662000666929190620008c0565b503480156200067457600080fd5b5060405162005c3038038062005c3083398181016040528101906200069a919062000a3d565b82828160009080519060200190620006b49291906200082f565b508060019080519060200190620006cd9291906200082f565b5050506000600b60006101000a81548160ff0219169083151502179055506200070b620006ff6200076160201b60201c565b6200076960201b60201c565b6000811162000751576040517f08c379a0000000000000000000000000000000000000000000000000000000008152600401620007489062000b07565b60405180910390fd5b80600c8190555050505062000c8f565b600033905090565b6000600b60019054906101000a900473ffffffffffffffffffffffffffffffffffffffff16905081600b60016101000a81548173ffffffffffffffffffffffffffffffffffffffff021916908373ffffffffffffffffffffffffffffffffffffffff1602179055508173ffffffffffffffffffffffffffffffffffffffff168173ffffffffffffffffffffffffffffffffffffffff167f8be0079c531659141344cd1fd0a4f28419497f9722a3daafe3b4186f6b6457e060405160405180910390a35050565b8280546200083d9062000be1565b90600052602060002090601f016020900481019282620008615760008555620008ad565b82601f106200087c57805160ff1916838001178555620008ad565b82800160010185558215620008ad579182015b82811115620008ac5782518255916020019190600101906200088f565b5b509050620008bc919062000927565b5090565b82805482825590600052602060002090810192821562000914579160200282015b8281111562000913578251829080519060200190620009029291906200082f565b5091602001919060010190620008e1565b5b50905062000923919062000946565b5090565b5b808211156200094257600081600090555060010162000928565b5090565b5b808211156200096a57600081816200096091906200096e565b5060010162000947565b5090565b5080546200097c9062000be1565b6000825580601f10620009905750620009b1565b601f016020900490600052602060002090810190620009b0919062000927565b5b50565b6000620009cb620009c58462000b5d565b62000b29565b905082815260208101848484011115620009e457600080fd5b620009f184828562000bab565b509392505050565b600082601f83011262000a0b57600080fd5b815162000a1d848260208601620009b4565b91505092915050565b60008151905062000a378162000c75565b92915050565b60008060006060848603121562000a5357600080fd5b600084015167ffffffffffffffff81111562000a6e57600080fd5b62000a7c86828701620009f9565b935050602084015167ffffffffffffffff81111562000a9a57600080fd5b62000aa886828701620009f9565b925050604062000abb8682870162000a26565b9150509250925092565b600062000ad460208362000b90565b91507f737570706c79436170206d7573742062652067726561746572207468616e20306000830152602082019050919050565b6000602082019050818103600083015262000b228162000ac5565b9050919050565b6000604051905081810181811067ffffffffffffffff8211171562000b535762000b5262000c46565b5b8060405250919050565b600067ffffffffffffffff82111562000b7b5762000b7a62000c46565b5b601f19601f8301169050602081019050919050565b600082825260208201905092915050565b6000819050919050565b60005b8381101562000bcb57808201518184015260208101905062000bae565b8381111562000bdb576000848401525b50505050565b6000600282049050600182168062000bfa57607f821691505b6020821081141562000c115762000c1062000c17565b5b50919050565b7f4e487b7100000000000000000000000000000000000000000000000000000000600052602260045260246000fd5b7f4e487b7100000000000000000000000000000000000000000000000000000000600052604160045260246000fd5b62000c808162000ba1565b811462000c8c57600080fd5b50565b614e688062000c9f6000396000f3fe608060405234801561001057600080fd5b506004361061018e5760003560e01c80635c975abb116100de57806395d89b4111610097578063c87b56dd11610071578063c87b56dd14610439578063e985e9c514610469578063f2fde38b14610499578063fd02c239146104b55761018e565b806395d89b41146103e3578063a22cb46514610401578063b88d4fde1461041d5761018e565b80635c975abb146103335780636352211e1461035157806370a0823114610381578063715018a6146103b15780638456cb59146103bb5780638da5cb5b146103c55761018e565b806318160ddd1161014b5780632f745c59116101255780632f745c59146102ad5780633f4ba83a146102dd57806342842e0e146102e75780634f6ccce7146103035761018e565b806318160ddd14610255578063203618141461027357806323b872dd146102915761018e565b806301ffc9a71461019357806306047590146101c357806306fdde03146101e1578063081812fc146101ff578063095ea7b31461022f57806314f710fe1461024b575b600080fd5b6101ad60048036038101906101a891906136ad565b6104d3565b6040516101ba9190614595565b60405180910390f35b6101cb6104e5565b6040516101d89190614957565b60405180910390f35b6101e96104f6565b6040516101f691906145b0565b60405180910390f35b610219600480360381019061021491906136ff565b610588565b6040516102269190614505565b60405180910390f35b61024960048036038101906102449190613671565b61060d565b005b610253610725565b005b61025d610aa6565b60405161026a9190614957565b60405180910390f35b61027b610ab3565b6040516102889190614957565b60405180910390f35b6102ab60048036038101906102a6919061356b565b610abd565b005b6102c760048036038101906102c29190613671565b610b1d565b6040516102d49190614957565b60405180910390f35b6102e5610bc2565b005b61030160048036038101906102fc919061356b565b610c48565b005b61031d600480360381019061031891906136ff565b610c68565b60405161032a9190614957565b60405180910390f35b61033b610cff565b6040516103489190614595565b60405180910390f35b61036b600480360381019061036691906136ff565b610d16565b6040516103789190614505565b60405180910390f35b61039b60048036038101906103969190613506565b610dc8565b6040516103a89190614957565b60405180910390f35b6103b9610e80565b005b6103c3610f08565b005b6103cd610f8e565b6040516103da9190614505565b60405180910390f35b6103eb610fb8565b6040516103f891906145b0565b60405180910390f35b61041b60048036038101906104169190613635565b61104a565b005b610437600480360381019061043291906135ba565b6111cb565b005b610453600480360381019061044e91906136ff565b61122d565b60405161046091906145b0565b60405180910390f35b610483600480360381019061047e919061352f565b61123f565b6040516104909190614595565b60405180910390f35b6104b360048036038101906104ae9190613506565b6112d3565b005b6104bd6113cb565b6040516104ca9190614957565b60405180910390f35b60006104de826113e9565b9050919050565b60006104f1600d611463565b905090565b60606000805461050590614bf6565b80601f016020809104026020016040519081016040528092919081815260200182805461053190614bf6565b801561057e5780601f106105535761010080835404028352916020019161057e565b820191906000526020600020905b81548152906001019060200180831161056157829003601f168201915b5050505050905090565b600061059382611471565b6105d2576040517f08c379a00000000000000000000000000000000000000000000000000000000081526004016105c990614877565b60405180910390fd5b6004600083815260200190815260200160002060009054906101000a900473ffffffffffffffffffffffffffffffffffffffff169050919050565b600061061882610d16565b90508073ffffffffffffffffffffffffffffffffffffffff168373ffffffffffffffffffffffffffffffffffffffff161415610689576040517f08c379a0000000000000000000000000000000000000000000000000000000008152600401610680906148f7565b60405180910390fd5b8073ffffffffffffffffffffffffffffffffffffffff166106a86114dd565b73ffffffffffffffffffffffffffffffffffffffff1614806106d757506106d6816106d16114dd565b61123f565b5b610716576040517f08c379a000000000000000000000000000000000000000000000000000000000815260040161070d906147b7565b60405180910390fd5b61072083836114e5565b505050565b61072d610cff565b1561076d576040517f08c379a000000000000000000000000000000000000000000000000000000000815260040161076490614797565b60405180910390fd5b600c5461077a600d611463565b11156107bb576040517f08c379a00000000000000000000000000000000000000000000000000000000081526004016107b2906146d7565b60405180910390fd5b60006107c7600d611463565b905060006107d48261159e565b905060006107e1836116bc565b905060006107ee846117da565b905060008383836040516020016108079392919061439e565b60405160208183030381529060405290506108576040518060400160405280600d81526020017f636f6d706c6574654b69743a2000000000000000000000000000000000000000815250826119dc565b600061086286611a78565b90506000600e82600f8560405160200161087f94939291906143cf565b60405160208183030381529060405290506108cf6040518060400160405280600a81526020017f66696e616c5376673a2000000000000000000000000000000000000000000000815250826119dc565b60006109016108dd83611b96565b6040516020016108ed919061447e565b604051602081830303815290604052611b96565b90506109426040518060400160405280601581526020017f42415345363420656e636f646564204a534f4e3a200000000000000000000000815250826119dc565b60008160405160200161095591906144c1565b60405160208183030381529060405290506109a56040518060400160405280600f81526020017f66696e616c546f6b656e5572693a200000000000000000000000000000000000815250826119dc565b6109e36040518060400160405280601581526020017f0a2d2d2d2d2d2d2d2d2d2d2d2d2d2d2d2d2d2d2d2d0000000000000000000000815250611d54565b610a216040518060400160405280601581526020017f2d2d2d2d2d2d2d2d2d2d2d2d2d2d2d2d2d2d2d2d0a0000000000000000000000815250611d54565b610a2b338a611ded565b610a358982611e0b565b610a3f600d611e7f565b610a62604051806060016040528060278152602001614e0c602791398a33611e95565b7febb98688741ffa4c7589bf325de30cf7becb63de567842e1ccdb6cb949fdc82c338a604051610a9392919061456c565b60405180910390a1505050505050505050565b6000600880549050905090565b6000600c54905090565b610ace610ac86114dd565b82611f34565b610b0d576040517f08c379a0000000000000000000000000000000000000000000000000000000008152600401610b0490614917565b60405180910390fd5b610b18838383612012565b505050565b6000610b2883610dc8565b8210610b69576040517f08c379a0000000000000000000000000000000000000000000000000000000008152600401610b6090614697565b60405180910390fd5b600660008473ffffffffffffffffffffffffffffffffffffffff1673ffffffffffffffffffffffffffffffffffffffff168152602001908152602001600020600083815260200190815260200160002054905092915050565b610bca6114dd565b73ffffffffffffffffffffffffffffffffffffffff16610be8610f8e565b73ffffffffffffffffffffffffffffffffffffffff1614610c3e576040517f08c379a0000000000000000000000000000000000000000000000000000000008152600401610c3590614897565b60405180910390fd5b610c4661226e565b565b610c63838383604051806020016040528060008152506111cb565b505050565b6000610c72610aa6565b8210610cb3576040517f08c379a0000000000000000000000000000000000000000000000000000000008152600401610caa90614937565b60405180910390fd5b60088281548110610ced577f4e487b7100000000000000000000000000000000000000000000000000000000600052603260045260246000fd5b90600052602060002001549050919050565b6000600b60009054906101000a900460ff16905090565b6000806002600084815260200190815260200160002060009054906101000a900473ffffffffffffffffffffffffffffffffffffffff169050600073ffffffffffffffffffffffffffffffffffffffff168173ffffffffffffffffffffffffffffffffffffffff161415610dbf576040517f08c379a0000000000000000000000000000000000000000000000000000000008152600401610db6906147f7565b60405180910390fd5b80915050919050565b60008073ffffffffffffffffffffffffffffffffffffffff168273ffffffffffffffffffffffffffffffffffffffff161415610e39576040517f08c379a0000000000000000000000000000000000000000000000000000000008152600401610e30906147d7565b60405180910390fd5b600360008373ffffffffffffffffffffffffffffffffffffffff1673ffffffffffffffffffffffffffffffffffffffff168152602001908152602001600020549050919050565b610e886114dd565b73ffffffffffffffffffffffffffffffffffffffff16610ea6610f8e565b73ffffffffffffffffffffffffffffffffffffffff1614610efc576040517f08c379a0000000000000000000000000000000000000000000000000000000008152600401610ef390614897565b60405180910390fd5b610f066000612310565b565b610f106114dd565b73ffffffffffffffffffffffffffffffffffffffff16610f2e610f8e565b73ffffffffffffffffffffffffffffffffffffffff1614610f84576040517f08c379a0000000000000000000000000000000000000000000000000000000008152600401610f7b90614897565b60405180910390fd5b610f8c6123d6565b565b6000600b60019054906101000a900473ffffffffffffffffffffffffffffffffffffffff16905090565b606060018054610fc790614bf6565b80601f0160208091040260200160405190810160405280929190818152602001828054610ff390614bf6565b80156110405780601f1061101557610100808354040283529160200191611040565b820191906000526020600020905b81548152906001019060200180831161102357829003601f168201915b5050505050905090565b6110526114dd565b73ffffffffffffffffffffffffffffffffffffffff168273ffffffffffffffffffffffffffffffffffffffff1614156110c0576040517f08c379a00000000000000000000000000000000000000000000000000000000081526004016110b790614757565b60405180910390fd5b80600560006110cd6114dd565b73ffffffffffffffffffffffffffffffffffffffff1673ffffffffffffffffffffffffffffffffffffffff16815260200190815260200160002060008473ffffffffffffffffffffffffffffffffffffffff1673ffffffffffffffffffffffffffffffffffffffff16815260200190815260200160002060006101000a81548160ff0219169083151502179055508173ffffffffffffffffffffffffffffffffffffffff1661117a6114dd565b73ffffffffffffffffffffffffffffffffffffffff167f17307eab39ab6107e8899845ad3d59bd9653f200f220920489ca2b5937696c31836040516111bf9190614595565b60405180910390a35050565b6111dc6111d66114dd565b83611f34565b61121b576040517f08c379a000000000000000000000000000000000000000000000000000000000815260040161121290614917565b60405180910390fd5b61122784848484612479565b50505050565b6060611238826124d5565b9050919050565b6000600560008473ffffffffffffffffffffffffffffffffffffffff1673ffffffffffffffffffffffffffffffffffffffff16815260200190815260200160002060008373ffffffffffffffffffffffffffffffffffffffff1673ffffffffffffffffffffffffffffffffffffffff16815260200190815260200160002060009054906101000a900460ff16905092915050565b6112db6114dd565b73ffffffffffffffffffffffffffffffffffffffff166112f9610f8e565b73ffffffffffffffffffffffffffffffffffffffff161461134f576040517f08c379a000000000000000000000000000000000000000000000000000000000815260040161134690614897565b60405180910390fd5b600073ffffffffffffffffffffffffffffffffffffffff168173ffffffffffffffffffffffffffffffffffffffff1614156113bf576040517f08c379a00000000000000000000000000000000000000000000000000000000081526004016113b6906146f7565b60405180910390fd5b6113c881612310565b50565b60006113d7600d611463565b600c546113e49190614b0c565b905090565b60007f780e9d63000000000000000000000000000000000000000000000000000000007bffffffffffffffffffffffffffffffffffffffffffffffffffffffff1916827bffffffffffffffffffffffffffffffffffffffffffffffffffffffff1916148061145c575061145b82612627565b5b9050919050565b600081600001549050919050565b60008073ffffffffffffffffffffffffffffffffffffffff166002600084815260200190815260200160002060009054906101000a900473ffffffffffffffffffffffffffffffffffffffff1673ffffffffffffffffffffffffffffffffffffffff1614159050919050565b600033905090565b816004600083815260200190815260200160002060006101000a81548173ffffffffffffffffffffffffffffffffffffffff021916908373ffffffffffffffffffffffffffffffffffffffff160217905550808273ffffffffffffffffffffffffffffffffffffffff1661155883610d16565b73ffffffffffffffffffffffffffffffffffffffff167f8c5be1e5ebec7d5bd14f71427d1e84f3dd0314c0f7b2291e5b200ac8c7c3b92560405160405180910390a45050565b606060006115d26115ae84612709565b6040516020016115be919061445c565b6040516020818303038152906040526128b6565b9050601080549050816115e59190614c71565b905060108181548110611621577f4e487b7100000000000000000000000000000000000000000000000000000000600052603260045260246000fd5b90600052602060002001805461163690614bf6565b80601f016020809104026020016040519081016040528092919081815260200182805461166290614bf6565b80156116af5780601f10611684576101008083540402835291602001916116af565b820191906000526020600020905b81548152906001019060200180831161169257829003601f168201915b5050505050915050919050565b606060006116f06116cc84612709565b6040516020016116dc919061443a565b6040516020818303038152906040526128b6565b9050601180549050816117039190614c71565b90506011818154811061173f577f4e487b7100000000000000000000000000000000000000000000000000000000600052603260045260246000fd5b90600052602060002001805461175490614bf6565b80601f016020809104026020016040519081016040528092919081815260200182805461178090614bf6565b80156117cd5780601f106117a2576101008083540402835291602001916117cd565b820191906000526020600020905b8154815290600101906020018083116117b057829003601f168201915b5050505050915050919050565b60606118426040518060400160405280600d81526020017f52616e646f6d20536565643a200000000000000000000000000000000000000081525061181e84612709565b60405160200161182e9190614418565b6040516020818303038152906040526119dc565b600061187461185084612709565b6040516020016118609190614418565b6040516020818303038152906040526128b6565b90506118b56040518060400160405280601581526020017f7069636b52616e646f6d4974656d2072616e643a200000000000000000000000815250826128e9565b601280549050816118c69190614c71565b90506119076040518060400160405280601581526020017f7069636b52616e646f6d4974656d2072616e643a200000000000000000000000815250826128e9565b60128181548110611941577f4e487b7100000000000000000000000000000000000000000000000000000000600052603260045260246000fd5b90600052602060002001805461195690614bf6565b80601f016020809104026020016040519081016040528092919081815260200182805461198290614bf6565b80156119cf5780601f106119a4576101008083540402835291602001916119cf565b820191906000526020600020905b8154815290600101906020018083116119b257829003601f168201915b5050505050915050919050565b611a7482826040516024016119f29291906145d2565b6040516020818303038152906040527f4b5c4277000000000000000000000000000000000000000000000000000000007bffffffffffffffffffffffffffffffffffffffffffffffffffffffff19166020820180517bffffffffffffffffffffffffffffffffffffffffffffffffffffffff8381831617835250505050612985565b5050565b60606000611aac611a8884612709565b604051602001611a9891906144e3565b6040516020818303038152906040526128b6565b905060138054905081611abf9190614c71565b905060138181548110611afb577f4e487b7100000000000000000000000000000000000000000000000000000000600052603260045260246000fd5b906000526020600020018054611b1090614bf6565b80601f0160208091040260200160405190810160405280929190818152602001828054611b3c90614bf6565b8015611b895780601f10611b5e57610100808354040283529160200191611b89565b820191906000526020600020905b815481529060010190602001808311611b6c57829003601f168201915b5050505050915050919050565b60606000825190506000811415611bbf5760405180602001604052806000815250915050611d4f565b60006003600283611bd09190614a2b565b611bda9190614a81565b6004611be69190614ab2565b90506000602082611bf79190614a2b565b67ffffffffffffffff811115611c36577f4e487b7100000000000000000000000000000000000000000000000000000000600052604160045260246000fd5b6040519080825280601f01601f191660200182016040528015611c685781602001600182028036833780820191505090505b5090506000604051806060016040528060408152602001614dcc604091399050600181016020830160005b86811015611d0c5760038101905062ffffff818a015116603f8160121c168401518060081b905060ff603f83600c1c1686015116810190508060081b905060ff603f8360061c1686015116810190508060081b905060ff603f831686015116810190508060e01b90508084526004840193505050611c93565b506003860660018114611d265760028114611d3657611d41565b613d3d60f01b6002830352611d41565b603d60f81b60018303525b508484525050819450505050505b919050565b611dea81604051602401611d6891906145b0565b6040516020818303038152906040527f41304fac000000000000000000000000000000000000000000000000000000007bffffffffffffffffffffffffffffffffffffffffffffffffffffffff19166020820180517bffffffffffffffffffffffffffffffffffffffffffffffffffffffff8381831617835250505050612985565b50565b611e078282604051806020016040528060008152506129ae565b5050565b611e1482611471565b611e53576040517f08c379a0000000000000000000000000000000000000000000000000000000008152600401611e4a90614817565b60405180910390fd5b80600a60008481526020019081526020016000209080519060200190611e7a929190613392565b505050565b6001816000016000828254019250508190555050565b611f2f838383604051602401611ead93929190614639565b6040516020818303038152906040527fe3849f79000000000000000000000000000000000000000000000000000000007bffffffffffffffffffffffffffffffffffffffffffffffffffffffff19166020820180517bffffffffffffffffffffffffffffffffffffffffffffffffffffffff8381831617835250505050612985565b505050565b6000611f3f82611471565b611f7e576040517f08c379a0000000000000000000000000000000000000000000000000000000008152600401611f7590614777565b60405180910390fd5b6000611f8983610d16565b90508073ffffffffffffffffffffffffffffffffffffffff168473ffffffffffffffffffffffffffffffffffffffff161480611ff857508373ffffffffffffffffffffffffffffffffffffffff16611fe084610588565b73ffffffffffffffffffffffffffffffffffffffff16145b806120095750612008818561123f565b5b91505092915050565b8273ffffffffffffffffffffffffffffffffffffffff1661203282610d16565b73ffffffffffffffffffffffffffffffffffffffff1614612088576040517f08c379a000000000000000000000000000000000000000000000000000000000815260040161207f906148b7565b60405180910390fd5b600073ffffffffffffffffffffffffffffffffffffffff168273ffffffffffffffffffffffffffffffffffffffff1614156120f8576040517f08c379a00000000000000000000000000000000000000000000000000000000081526004016120ef90614737565b60405180910390fd5b612103838383612a09565b61210e6000826114e5565b6001600360008573ffffffffffffffffffffffffffffffffffffffff1673ffffffffffffffffffffffffffffffffffffffff168152602001908152602001600020600082825461215e9190614b0c565b925050819055506001600360008473ffffffffffffffffffffffffffffffffffffffff1673ffffffffffffffffffffffffffffffffffffffff16815260200190815260200160002060008282546121b59190614a2b565b92505081905550816002600083815260200190815260200160002060006101000a81548173ffffffffffffffffffffffffffffffffffffffff021916908373ffffffffffffffffffffffffffffffffffffffff160217905550808273ffffffffffffffffffffffffffffffffffffffff168473ffffffffffffffffffffffffffffffffffffffff167fddf252ad1be2c89b69c2b068fc378daa952ba7f163c4a11628f55a4df523b3ef60405160405180910390a4505050565b612276610cff565b6122b5576040517f08c379a00000000000000000000000000000000000000000000000000000000081526004016122ac90614677565b60405180910390fd5b6000600b60006101000a81548160ff0219169083151502179055507f5db9ee0a495bf2e6ff9c91a7834c1ba4fdd244a5e8aa4e537bd38aeae4b073aa6122f96114dd565b6040516123069190614505565b60405180910390a1565b6000600b60019054906101000a900473ffffffffffffffffffffffffffffffffffffffff16905081600b60016101000a81548173ffffffffffffffffffffffffffffffffffffffff021916908373ffffffffffffffffffffffffffffffffffffffff1602179055508173ffffffffffffffffffffffffffffffffffffffff168173ffffffffffffffffffffffffffffffffffffffff167f8be0079c531659141344cd1fd0a4f28419497f9722a3daafe3b4186f6b6457e060405160405180910390a35050565b6123de610cff565b1561241e576040517f08c379a000000000000000000000000000000000000000000000000000000000815260040161241590614797565b60405180910390fd5b6001600b60006101000a81548160ff0219169083151502179055507f62e78cea01bee320cd4e420270b5ea74000d11b0c9f74754ebdbfc544b05a2586124626114dd565b60405161246f9190614505565b60405180910390a1565b612484848484612012565b61249084848484612a61565b6124cf576040517f08c379a00000000000000000000000000000000000000000000000000000000081526004016124c6906146b7565b60405180910390fd5b50505050565b60606124e082611471565b61251f576040517f08c379a000000000000000000000000000000000000000000000000000000000815260040161251690614857565b60405180910390fd5b6000600a6000848152602001908152602001600020805461253f90614bf6565b80601f016020809104026020016040519081016040528092919081815260200182805461256b90614bf6565b80156125b85780601f1061258d576101008083540402835291602001916125b8565b820191906000526020600020905b81548152906001019060200180831161259b57829003601f168201915b5050505050905060006125c9612bf8565b90506000815114156125df578192505050612622565b6000825111156126145780826040516020016125fc92919061437a565b60405160208183030381529060405292505050612622565b61261d84612c0f565b925050505b919050565b60007f80ac58cd000000000000000000000000000000000000000000000000000000007bffffffffffffffffffffffffffffffffffffffffffffffffffffffff1916827bffffffffffffffffffffffffffffffffffffffffffffffffffffffff191614806126f257507f5b5e139f000000000000000000000000000000000000000000000000000000007bffffffffffffffffffffffffffffffffffffffffffffffffffffffff1916827bffffffffffffffffffffffffffffffffffffffffffffffffffffffff1916145b80612702575061270182612cb6565b5b9050919050565b60606000821415612751576040518060400160405280600181526020017f300000000000000000000000000000000000000000000000000000000000000081525090506128b1565b600082905060005b6000821461278357808061276c90614c28565b915050600a8261277c9190614a81565b9150612759565b60008167ffffffffffffffff8111156127c5577f4e487b7100000000000000000000000000000000000000000000000000000000600052604160045260246000fd5b6040519080825280601f01601f1916602001820160405280156127f75781602001600182028036833780820191505090505b5090505b600085146128aa576001826128109190614b0c565b9150600a8561281f9190614c71565b603061282b9190614a2b565b60f81b818381518110612867577f4e487b7100000000000000000000000000000000000000000000000000000000600052603260045260246000fd5b60200101907effffffffffffffffffffffffffffffffffffffffffffffffffffffffffffff1916908160001a905350600a856128a39190614a81565b94506127fb565b8093505050505b919050565b6000816040516020016128c99190614363565b6040516020818303038152906040528051906020012060001c9050919050565b61298182826040516024016128ff929190614609565b6040516020818303038152906040527f9710a9d0000000000000000000000000000000000000000000000000000000007bffffffffffffffffffffffffffffffffffffffffffffffffffffffff19166020820180517bffffffffffffffffffffffffffffffffffffffffffffffffffffffff8381831617835250505050612985565b5050565b60008151905060006a636f6e736f6c652e6c6f679050602083016000808483855afa5050505050565b6129b88383612d20565b6129c56000848484612a61565b612a04576040517f08c379a00000000000000000000000000000000000000000000000000000000081526004016129fb906146b7565b60405180910390fd5b505050565b612a11610cff565b15612a51576040517f08c379a0000000000000000000000000000000000000000000000000000000008152600401612a4890614797565b60405180910390fd5b612a5c838383612eee565b505050565b6000612a828473ffffffffffffffffffffffffffffffffffffffff16613002565b15612beb578373ffffffffffffffffffffffffffffffffffffffff1663150b7a02612aab6114dd565b8786866040518563ffffffff1660e01b8152600401612acd9493929190614520565b602060405180830381600087803b158015612ae757600080fd5b505af1925050508015612b1857506040513d601f19601f82011682018060405250810190612b1591906136d6565b60015b612b9b573d8060008114612b48576040519150601f19603f3d011682016040523d82523d6000602084013e612b4d565b606091505b50600081511415612b93576040517f08c379a0000000000000000000000000000000000000000000000000000000008152600401612b8a906146b7565b60405180910390fd5b805181602001fd5b63150b7a0260e01b7bffffffffffffffffffffffffffffffffffffffffffffffffffffffff1916817bffffffffffffffffffffffffffffffffffffffffffffffffffffffff191614915050612bf0565b600190505b949350505050565b606060405180602001604052806000815250905090565b6060612c1a82611471565b612c59576040517f08c379a0000000000000000000000000000000000000000000000000000000008152600401612c50906148d7565b60405180910390fd5b6000612c63612bf8565b90506000815111612c835760405180602001604052806000815250612cae565b80612c8d84612709565b604051602001612c9e92919061437a565b6040516020818303038152906040525b915050919050565b60007f01ffc9a7000000000000000000000000000000000000000000000000000000007bffffffffffffffffffffffffffffffffffffffffffffffffffffffff1916827bffffffffffffffffffffffffffffffffffffffffffffffffffffffff1916149050919050565b600073ffffffffffffffffffffffffffffffffffffffff168273ffffffffffffffffffffffffffffffffffffffff161415612d90576040517f08c379a0000000000000000000000000000000000000000000000000000000008152600401612d8790614837565b60405180910390fd5b612d9981611471565b15612dd9576040517f08c379a0000000000000000000000000000000000000000000000000000000008152600401612dd090614717565b60405180910390fd5b612de560008383612a09565b6001600360008473ffffffffffffffffffffffffffffffffffffffff1673ffffffffffffffffffffffffffffffffffffffff1681526020019081526020016000206000828254612e359190614a2b565b92505081905550816002600083815260200190815260200160002060006101000a81548173ffffffffffffffffffffffffffffffffffffffff021916908373ffffffffffffffffffffffffffffffffffffffff160217905550808273ffffffffffffffffffffffffffffffffffffffff16600073ffffffffffffffffffffffffffffffffffffffff167fddf252ad1be2c89b69c2b068fc378daa952ba7f163c4a11628f55a4df523b3ef60405160405180910390a45050565b612ef9838383613015565b600073ffffffffffffffffffffffffffffffffffffffff168373ffffffffffffffffffffffffffffffffffffffff161415612f3c57612f378161301a565b612f7b565b8173ffffffffffffffffffffffffffffffffffffffff168373ffffffffffffffffffffffffffffffffffffffff1614612f7a57612f798382613063565b5b5b600073ffffffffffffffffffffffffffffffffffffffff168273ffffffffffffffffffffffffffffffffffffffff161415612fbe57612fb9816131d0565b612ffd565b8273ffffffffffffffffffffffffffffffffffffffff168273ffffffffffffffffffffffffffffffffffffffff1614612ffc57612ffb8282613313565b5b5b505050565b600080823b905060008111915050919050565b505050565b6008805490506009600083815260200190815260200160002081905550600881908060018154018082558091505060019003906000526020600020016000909190919091505550565b6000600161307084610dc8565b61307a9190614b0c565b905060006007600084815260200190815260200160002054905081811461315f576000600660008673ffffffffffffffffffffffffffffffffffffffff1673ffffffffffffffffffffffffffffffffffffffff168152602001908152602001600020600084815260200190815260200160002054905080600660008773ffffffffffffffffffffffffffffffffffffffff1673ffffffffffffffffffffffffffffffffffffffff168152602001908152602001600020600084815260200190815260200160002081905550816007600083815260200190815260200160002081905550505b6007600084815260200190815260200160002060009055600660008573ffffffffffffffffffffffffffffffffffffffff1673ffffffffffffffffffffffffffffffffffffffff16815260200190815260200160002060008381526020019081526020016000206000905550505050565b600060016008805490506131e49190614b0c565b905060006009600084815260200190815260200160002054905060006008838154811061323a577f4e487b7100000000000000000000000000000000000000000000000000000000600052603260045260246000fd5b906000526020600020015490508060088381548110613282577f4e487b7100000000000000000000000000000000000000000000000000000000600052603260045260246000fd5b9060005260206000200181905550816009600083815260200190815260200160002081905550600960008581526020019081526020016000206000905560088054806132f7577f4e487b7100000000000000000000000000000000000000000000000000000000600052603160045260246000fd5b6001900381819060005260206000200160009055905550505050565b600061331e83610dc8565b905081600660008573ffffffffffffffffffffffffffffffffffffffff1673ffffffffffffffffffffffffffffffffffffffff168152602001908152602001600020600083815260200190815260200160002081905550806007600084815260200190815260200160002081905550505050565b82805461339e90614bf6565b90600052602060002090601f0160209004810192826133c05760008555613407565b82601f106133d957805160ff1916838001178555613407565b82800160010185558215613407579182015b828111156134065782518255916020019190600101906133eb565b5b5090506134149190613418565b5090565b5b80821115613431576000816000905550600101613419565b5090565b6000613448613443846149a3565b614972565b90508281526020810184848401111561346057600080fd5b61346b848285614bb4565b509392505050565b60008135905061348281614d6f565b92915050565b60008135905061349781614d86565b92915050565b6000813590506134ac81614d9d565b92915050565b6000815190506134c181614d9d565b92915050565b600082601f8301126134d857600080fd5b81356134e8848260208601613435565b91505092915050565b60008135905061350081614db4565b92915050565b60006020828403121561351857600080fd5b600061352684828501613473565b91505092915050565b6000806040838503121561354257600080fd5b600061355085828601613473565b925050602061356185828601613473565b9150509250929050565b60008060006060848603121561358057600080fd5b600061358e86828701613473565b935050602061359f86828701613473565b92505060406135b0868287016134f1565b9150509250925092565b600080600080608085870312156135d057600080fd5b60006135de87828801613473565b94505060206135ef87828801613473565b9350506040613600878288016134f1565b925050606085013567ffffffffffffffff81111561361d57600080fd5b613629878288016134c7565b91505092959194509250565b6000806040838503121561364857600080fd5b600061365685828601613473565b925050602061366785828601613488565b9150509250929050565b6000806040838503121561368457600080fd5b600061369285828601613473565b92505060206136a3858286016134f1565b9150509250929050565b6000602082840312156136bf57600080fd5b60006136cd8482850161349d565b91505092915050565b6000602082840312156136e857600080fd5b60006136f6848285016134b2565b91505092915050565b60006020828403121561371157600080fd5b600061371f848285016134f1565b91505092915050565b61373181614b40565b82525050565b61374081614b52565b82525050565b6000613751826149e8565b61375b81856149fe565b935061376b818560208601614bc3565b61377481614d5e565b840191505092915050565b600061378a826149f3565b6137948185614a0f565b93506137a4818560208601614bc3565b6137ad81614d5e565b840191505092915050565b60006137c3826149f3565b6137cd8185614a20565b93506137dd818560208601614bc3565b80840191505092915050565b600081546137f681614bf6565b6138008186614a20565b9450600182166000811461381b576001811461382c5761385f565b60ff1983168652818601935061385f565b613835856149d3565b60005b8381101561385757815481890152600182019150602081019050613838565b838801955050505b50505092915050565b6000613875601483614a0f565b91507f5061757361626c653a206e6f74207061757365640000000000000000000000006000830152602082019050919050565b60006138b5602b83614a0f565b91507f455243373231456e756d657261626c653a206f776e657220696e646578206f7560008301527f74206f6620626f756e64730000000000000000000000000000000000000000006020830152604082019050919050565b600061391b603283614a0f565b91507f4552433732313a207472616e7366657220746f206e6f6e20455243373231526560008301527f63656976657220696d706c656d656e74657200000000000000000000000000006020830152604082019050919050565b6000613981601e83614a0f565b91507f546865726520617265206e6f204e465473206c65667420746f206d696e7400006000830152602082019050919050565b60006139c1602683614a0f565b91507f4f776e61626c653a206e6577206f776e657220697320746865207a65726f206160008301527f64647265737300000000000000000000000000000000000000000000000000006020830152604082019050919050565b6000613a27600c83614a20565b91507f537572766976616c204b697400000000000000000000000000000000000000006000830152600c82019050919050565b6000613a67601c83614a0f565b91507f4552433732313a20746f6b656e20616c7265616479206d696e746564000000006000830152602082019050919050565b6000613aa7600a83614a20565b91507f54484952445f574f5244000000000000000000000000000000000000000000006000830152600a82019050919050565b6000613ae7600983614a20565b91507f5452414e53504f525400000000000000000000000000000000000000000000006000830152600982019050919050565b6000613b27600683614a20565b91507f574541504f4e00000000000000000000000000000000000000000000000000006000830152600682019050919050565b6000613b67602483614a0f565b91507f4552433732313a207472616e7366657220746f20746865207a65726f2061646460008301527f72657373000000000000000000000000000000000000000000000000000000006020830152604082019050919050565b6000613bcd601983614a0f565b91507f4552433732313a20617070726f766520746f2063616c6c6572000000000000006000830152602082019050919050565b6000613c0d602c83614a0f565b91507f4552433732313a206f70657261746f7220717565727920666f72206e6f6e657860008301527f697374656e7420746f6b656e00000000000000000000000000000000000000006020830152604082019050919050565b6000613c73600d83614a20565b91507f3c2f746578743e3c2f7376673e000000000000000000000000000000000000006000830152600d82019050919050565b6000613cb3601083614a0f565b91507f5061757361626c653a20706175736564000000000000000000000000000000006000830152602082019050919050565b6000613cf3603883614a0f565b91507f4552433732313a20617070726f76652063616c6c6572206973206e6f74206f7760008301527f6e6572206e6f7220617070726f76656420666f7220616c6c00000000000000006020830152604082019050919050565b6000613d59602a83614a0f565b91507f4552433732313a2062616c616e636520717565727920666f7220746865207a6560008301527f726f2061646472657373000000000000000000000000000000000000000000006020830152604082019050919050565b6000613dbf602983614a0f565b91507f4552433732313a206f776e657220717565727920666f72206e6f6e657869737460008301527f656e7420746f6b656e00000000000000000000000000000000000000000000006020830152604082019050919050565b6000613e25602e83614a0f565b91507f45524337323155524953746f726167653a2055524920736574206f66206e6f6e60008301527f6578697374656e7420746f6b656e0000000000000000000000000000000000006020830152604082019050919050565b6000613e8b600283614a20565b91507f227d0000000000000000000000000000000000000000000000000000000000006000830152600282019050919050565b6000613ecb602083614a0f565b91507f4552433732313a206d696e7420746f20746865207a65726f20616464726573736000830152602082019050919050565b6000613f0b603183614a0f565b91507f45524337323155524953746f726167653a2055524920717565727920666f722060008301527f6e6f6e6578697374656e7420746f6b656e0000000000000000000000000000006020830152604082019050919050565b6000613f71602c83614a0f565b91507f4552433732313a20617070726f76656420717565727920666f72206e6f6e657860008301527f697374656e7420746f6b656e00000000000000000000000000000000000000006020830152604082019050919050565b6000613fd7602083614a0f565b91507f4f776e61626c653a2063616c6c6572206973206e6f7420746865206f776e65726000830152602082019050919050565b6000614017602983614a0f565b91507f4552433732313a207472616e73666572206f6620746f6b656e2074686174206960008301527f73206e6f74206f776e00000000000000000000000000000000000000000000006020830152604082019050919050565b600061407d602f83614a0f565b91507f4552433732314d657461646174613a2055524920717565727920666f72206e6f60008301527f6e6578697374656e7420746f6b656e00000000000000000000000000000000006020830152604082019050919050565b60006140e3600a83614a20565b91507f7b226e616d65223a2022000000000000000000000000000000000000000000006000830152600a82019050919050565b6000614123602183614a0f565b91507f4552433732313a20617070726f76616c20746f2063757272656e74206f776e6560008301527f72000000000000000000000000000000000000000000000000000000000000006020830152604082019050919050565b6000614189601d83614a20565b91507f646174613a6170706c69636174696f6e2f6a736f6e3b6261736536342c0000006000830152601d82019050919050565b60006141c9605883614a20565b91507f222c20226465736372697074696f6e223a20225a6f6d6269652041706f63616c60008301527f7970736520537572766976616c204b6974222c2022696d616765223a2022646160208301527f74613a696d6167652f7376672b786d6c3b6261736536342c00000000000000006040830152605882019050919050565b6000614255600683614a20565b91507f434f4c4f555200000000000000000000000000000000000000000000000000006000830152600682019050919050565b6000614295603183614a0f565b91507f4552433732313a207472616e736665722063616c6c6572206973206e6f74206f60008301527f776e6572206e6f7220617070726f7665640000000000000000000000000000006020830152604082019050919050565b60006142fb602c83614a0f565b91507f455243373231456e756d657261626c653a20676c6f62616c20696e646578206f60008301527f7574206f6620626f756e647300000000000000000000000000000000000000006020830152604082019050919050565b61435d81614baa565b82525050565b600061436f82846137b8565b915081905092915050565b600061438682856137b8565b915061439282846137b8565b91508190509392505050565b60006143aa82866137b8565b91506143b682856137b8565b91506143c282846137b8565b9150819050949350505050565b60006143db82876137e9565b91506143e782866137b8565b91506143f382856137e9565b91506143ff82846137b8565b915061440a82613c66565b915081905095945050505050565b600061442382613a9a565b915061442f82846137b8565b915081905092915050565b600061444582613ada565b915061445182846137b8565b915081905092915050565b600061446782613b1a565b915061447382846137b8565b915081905092915050565b6000614489826140d6565b915061449482613a1a565b915061449f826141bc565b91506144ab82846137b8565b91506144b682613e7e565b915081905092915050565b60006144cc8261417c565b91506144d882846137b8565b915081905092915050565b60006144ee82614248565b91506144fa82846137b8565b915081905092915050565b600060208201905061451a6000830184613728565b92915050565b60006080820190506145356000830187613728565b6145426020830186613728565b61454f6040830185614354565b81810360608301526145618184613746565b905095945050505050565b60006040820190506145816000830185613728565b61458e6020830184614354565b9392505050565b60006020820190506145aa6000830184613737565b92915050565b600060208201905081810360008301526145ca818461377f565b905092915050565b600060408201905081810360008301526145ec818561377f565b90508181036020830152614600818461377f565b90509392505050565b60006040820190508181036000830152614623818561377f565b90506146326020830184614354565b9392505050565b60006060820190508181036000830152614653818661377f565b90506146626020830185614354565b61466f6040830184613728565b949350505050565b6000602082019050818103600083015261469081613868565b9050919050565b600060208201905081810360008301526146b0816138a8565b9050919050565b600060208201905081810360008301526146d08161390e565b9050919050565b600060208201905081810360008301526146f081613974565b9050919050565b60006020820190508181036000830152614710816139b4565b9050919050565b6000602082019050818103600083015261473081613a5a565b9050919050565b6000602082019050818103600083015261475081613b5a565b9050919050565b6000602082019050818103600083015261477081613bc0565b9050919050565b6000602082019050818103600083015261479081613c00565b9050919050565b600060208201905081810360008301526147b081613ca6565b9050919050565b600060208201905081810360008301526147d081613ce6565b9050919050565b600060208201905081810360008301526147f081613d4c565b9050919050565b6000602082019050818103600083015261481081613db2565b9050919050565b6000602082019050818103600083015261483081613e18565b9050919050565b6000602082019050818103600083015261485081613ebe565b9050919050565b6000602082019050818103600083015261487081613efe565b9050919050565b6000602082019050818103600083015261489081613f64565b9050919050565b600060208201905081810360008301526148b081613fca565b9050919050565b600060208201905081810360008301526148d08161400a565b9050919050565b600060208201905081810360008301526148f081614070565b9050919050565b6000602082019050818103600083015261491081614116565b9050919050565b6000602082019050818103600083015261493081614288565b9050919050565b60006020820190508181036000830152614950816142ee565b9050919050565b600060208201905061496c6000830184614354565b92915050565b6000604051905081810181811067ffffffffffffffff8211171561499957614998614d2f565b5b8060405250919050565b600067ffffffffffffffff8211156149be576149bd614d2f565b5b601f19601f8301169050602081019050919050565b60008190508160005260206000209050919050565b600081519050919050565b600081519050919050565b600082825260208201905092915050565b600082825260208201905092915050565b600081905092915050565b6000614a3682614baa565b9150614a4183614baa565b9250827fffffffffffffffffffffffffffffffffffffffffffffffffffffffffffffffff03821115614a7657614a75614ca2565b5b828201905092915050565b6000614a8c82614baa565b9150614a9783614baa565b925082614aa757614aa6614cd1565b5b828204905092915050565b6000614abd82614baa565b9150614ac883614baa565b9250817fffffffffffffffffffffffffffffffffffffffffffffffffffffffffffffffff0483118215151615614b0157614b00614ca2565b5b828202905092915050565b6000614b1782614baa565b9150614b2283614baa565b925082821015614b3557614b34614ca2565b5b828203905092915050565b6000614b4b82614b8a565b9050919050565b60008115159050919050565b60007fffffffff0000000000000000000000000000000000000000000000000000000082169050919050565b600073ffffffffffffffffffffffffffffffffffffffff82169050919050565b6000819050919050565b82818337600083830152505050565b60005b83811015614be1578082015181840152602081019050614bc6565b83811115614bf0576000848401525b50505050565b60006002820490506001821680614c0e57607f821691505b60208210811415614c2257614c21614d00565b5b50919050565b6000614c3382614baa565b91507fffffffffffffffffffffffffffffffffffffffffffffffffffffffffffffffff821415614c6657614c65614ca2565b5b600182019050919050565b6000614c7c82614baa565b9150614c8783614baa565b925082614c9757614c96614cd1565b5b828206905092915050565b7f4e487b7100000000000000000000000000000000000000000000000000000000600052601160045260246000fd5b7f4e487b7100000000000000000000000000000000000000000000000000000000600052601260045260246000fd5b7f4e487b7100000000000000000000000000000000000000000000000000000000600052602260045260246000fd5b7f4e487b7100000000000000000000000000000000000000000000000000000000600052604160045260246000fd5b6000601f19601f8301169050919050565b614d7881614b40565b8114614d8357600080fd5b50565b614d8f81614b52565b8114614d9a57600080fd5b50565b614da681614b5e565b8114614db157600080fd5b50565b614dbd81614baa565b8114614dc857600080fd5b5056fe4142434445464748494a4b4c4d4e4f505152535455565758595a6162636465666768696a6b6c6d6e6f707172737475767778797a303132333435363738392b2f416e204e4654207769746820494420257320686173206265656e206d696e74656420746f202573a2646970667358221220ee05677830353716e9822e538e3e04ac6e73d7af61ae4310373e0fb77f35c08064736f6c634300080000333c73766720786d6c6e733d27687474703a2f2f7777772e77332e6f72672f323030302f73766727207072657365727665417370656374526174696f3d27784d696e594d696e206d656574272076696577426f783d273020302033353020333530273e3c7374796c653e2e62617365207b2066696c6c3a2077686974653b20666f6e742d66616d696c793a2073657269663b20666f6e742d73697a653a20323470783b207d3c2f7374796c653e3c726563742077696474683d273130302527206865696768743d2731303025272066696c6c3d27272f3e3c7465787420783d273530252720793d273530252720636c6173733d27626173652720646f6d696e616e742d626173656c696e653d276d6964646c652720746578742d616e63686f723d276d6964646c65273e",
  "immutableReferences": {},
  "source": "// SPDX-License-Identifier: MIT\npragma solidity 0.8.0;\n\n// We selectedWeapon import some OpenZeppelin Contracts.\nimport \"@openzeppelin/contracts/utils/Strings.sol\";\nimport \"@openzeppelin/contracts/token/ERC721/ERC721.sol\";\nimport \"@openzeppelin/contracts/token/ERC721/extensions/ERC721URIStorage.sol\";\nimport \"@openzeppelin/contracts/utils/Counters.sol\";\nimport \"@openzeppelin/contracts/security/Pausable.sol\";\nimport \"@openzeppelin/contracts/access/Ownable.sol\";\nimport \"@openzeppelin/contracts/token/ERC721/extensions/ERC721Enumerable.sol\";\nimport \"hardhat-console/contracts/console.sol\";\n\n// Import helper functions needed for Base62 encoding\nimport { Base64 } from \"./libraries/Base64.sol\";\n\n/**\n@title Zombie Apocalipse Survival kit generator\n@author Ben Naylor\n@notice This contract currently only handles free mints. No payment is taken.\n\n */\ncontract NftMinter is ERC721, ERC721Enumerable, ERC721URIStorage, Pausable, Ownable {\n\n    uint private supplyCap = 3000;\n\n    /// @notice keep track of token ids using purpose built OpenZeppelin utility\n    using Counters for Counters.Counter;\n    Counters.Counter private _tokenIds;\n\n    /// @dev We split the SVG at the part where it asks for the background color.\n    string svgPartOne = \"<svg xmlns='http://www.w3.org/2000/svg' preserveAspectRatio='xMinYMin meet' viewBox='0 0 350 350'><style>.base { fill: white; font-family: serif; font-size: 24px; }</style><rect width='100%' height='100%' fill='\";\n    string svgPartTwo = \"'/><text x='50%' y='50%' class='base' dominant-baseline='middle' text-anchor='middle'>\";\n\n    string[] weapon = [\"Crossbow\", \"Shotgun\", \"Sword\", \"Bat\", \"Crowbar\", \"slingshot\"];\n    string[] transport = [\"Motorbike\", \"Car\", \"Bicycle\", \"RV\", \"Walking\", \"Helicopter\"];\n    string[] item = [\"Torch\", \"SurvivalKit\", \"MedicalKit\", \"Radio\", \"Map\", \"Wistle\"];\n    string[] colors = [\"red\", \"#08C2A8\", \"black\", \"yellow\", \"blue\", \"green\"];\n\n    /// @notice Event to be emitted after a successful mint\n    /// @param sender The address of the transaction sender\n    /// @param tokenId The id of the token that has just been minted\n    event NewEpicNFTMinted(address sender, uint256 tokenId);\n\n    /// @notice contract constructor. Takes parameters and passes them to the inherited ERC721 contract constructor\n    /// @param _name the name of the contract\n    /// @param _symbol the symbol that contract tokens will be represented by\n    /// @param _supplyCap the maximum token that are mintable from this contract\n    constructor(string memory _name, string memory _symbol, uint _supplyCap) ERC721(_name, _symbol) {\n        require(_supplyCap > 0, \"supplyCap must be greater than 0\");\n        supplyCap = _supplyCap;\n    }\n\n    /// @notice pauses the contract. \n    /// @dev Inherits _pause() function from Pausable.sol and the onlyOwner modifier from Ownable.sol\n    function pause() public onlyOwner {\n        _pause();\n    }\n\n    /// @notice unpauses the contract. \n    /// @dev Inherits _unpause() function from Pausable.sol and the onlyOwner modifier from Ownable.sol\n    function unpause() public onlyOwner {\n        _unpause();\n    }\n\n    /// @return maximum number of mints allowed on contract \n    function getSupplyCap() public view returns(uint256) {\n        return supplyCap;\n    }\n\n    /// @return number of remaining mints on the contract\n    function getRemainingMints () public view returns (uint256) {\n        return supplyCap - _tokenIds.current();\n    }\n\n    /// @return number of tokens minted on the contract so far.\n    function getTotalNFTsMintedSoFar () public view returns (uint256) {\n        return _tokenIds.current();\n    }\n\n    /// @notice pick a random weappon to equip the player with\n    /// @dev the randomness could be improved by using an oracle feed.\n    /// @param tokenId used to seed the random function\n    /// @return A random weapon from the array of weapons available.\n    function pickRandomWeapon(uint256 tokenId) internal view returns (string memory) {\n        // seed the random generator\n        uint256 rand = random(string(abi.encodePacked(\"WEAPON\", Strings.toString(tokenId))));\n        // Squash the # between 0 and the length of the array to avoid going out of bounds.\n        rand = rand % weapon.length;\n        return weapon[rand];\n    }\n\n    /// @notice pick a random transport to equip the player with\n    /// @param tokenId used to seed the random function\n    /// @return A random weapon from the array of transport available.\n    function pickRandomTransport(uint256 tokenId) internal view returns (string memory) {\n        uint256 rand = random(string(abi.encodePacked(\"TRANSPORT\", Strings.toString(tokenId))));\n        rand = rand % transport.length;\n        return transport[rand];\n    }\n\n    /// @notice pick a random item to equip the player with\n    /// @param tokenId used to seed the random function\n    /// @return A random item from the array of items available.\n    function pickRandomItem(uint256 tokenId) internal view returns (string memory) {\n        console.log(\"Random Seed: \", string(abi.encodePacked(\"THIRD_WORD\", Strings.toString(tokenId))));\n        uint256 rand = random(string(abi.encodePacked(\"THIRD_WORD\", Strings.toString(tokenId))));\n        console.log(\"pickRandomItem rand: \", rand);\n        rand = rand % item.length;\n        console.log(\"pickRandomItem rand: \", rand);\n        return item[rand];\n    }\n\n    /// @notice pick a random background colour for the players card\n    /// @param tokenId used to seed the random function\n    /// @return A random background colour from the array of colours available.\n    function pickRandomBackgroundColour(uint256 tokenId) internal view returns (string memory) {\n        uint256 rand = random(string(abi.encodePacked(\"COLOUR\", Strings.toString(tokenId))));\n        rand = rand % colors.length;\n        return colors[rand];\n    } \n\n    /// @param input string input which is hashed to generate the 'random' number.\n    /// @dev this function could be made truly random by using an oracle feed.\n    /// @return A random integer\n    function random(string memory input) internal pure returns (uint256) {\n        return uint(keccak256(abi.encodePacked(input)));\n    }\n\n    /// @dev overriding this function was required to inherit from ERC721 and ERC721URIStorage\n    function _burn(uint256 tokenId) internal whenNotPaused override(ERC721, ERC721URIStorage) {\n        super._burn(tokenId);\n    }\n\n    /// @param tokenId the tokenId to retrieve URI for\n    /// @return the token URI containing the tokens metadata\n    function tokenURI(uint256 tokenId) public view override (ERC721, ERC721URIStorage) returns (string memory) {\n        return super.tokenURI(tokenId);\n    }\n\n    /// @notice mint an ERC721 token on the contract. The caller will receive a token containing a survival kit that includes a weapon, a transport and an item. All are randomly selected.  \n    /// @dev currently does not accept payment\n    /// @dev this function creates and stores the tokens URI. This is a JSON string constisting of name, description and image fields. The image is a BASE64 encoded SVG. Finally The whole JSON metadata string is BASE64 encoded and mapped to the tokenId.\n    function mintNFT() public whenNotPaused{\n        require(_tokenIds.current() <= supplyCap, \"There are no NFTs left to mint\");\n        \n        // get the current tokenId, this starts at 0\n        uint newItemId = _tokenIds.current();\n\n        // randomly grab one word from each of the arrays\n        string memory selectedWeapon = pickRandomWeapon(newItemId);\n        string memory selectedTransport = pickRandomTransport(newItemId);\n        string memory selectedItem = pickRandomItem(newItemId);\n        string memory completeKit = string(abi.encodePacked(selectedWeapon, selectedTransport, selectedItem));\n\n        console.log(\"completeKit: \", completeKit);\n\n        // Add the random color in.\n        string memory randomColor = pickRandomBackgroundColour(newItemId);\n        string memory finalSvg = string(abi.encodePacked(svgPartOne, randomColor, svgPartTwo, completeKit, \"</text></svg>\"));\n        console.log(\"finalSvg: \", finalSvg);\n\n        // get all the JSON metadata in place and base64 encode it\n        string memory json = Base64.encode(\n            bytes(\n                string(\n                    abi.encodePacked(\n                        '{\"name\": \"',\"Survival Kit\",\n                        '\", \"description\": \"Zombie Apocalypse Survival Kit\", \"image\": \"data:image/svg+xml;base64,',\n                    // add data:image/svg+xml;base64 and then append our base64 encode our svg.\n                    Base64.encode(bytes(finalSvg)),\n                    '\"}'\n                    )\n                )\n            )\n        );\n        console.log(\"BASE64 encoded JSON: \", json);\n\n        // Just like before, we prepend data:application/json;base64, to our data.\n        string memory finalTokenUri = string(\n            abi.encodePacked(\"data:application/json;base64,\", json)\n        );\n        console.log(\"finalTokenUri: \", finalTokenUri);\n\n        console.log(\"\\n--------------------\");\n        // console.log(finalTokenUri);\n        console.log(\"--------------------\\n\");  \n\n        // actually mint the NFT to the sender using msg.sender\n        _safeMint(msg.sender, newItemId);\n\n        // store the tokens metadata\n        _setTokenURI(newItemId, finalTokenUri);\n\n        // increment the counter for when the next NFT is minted\n        _tokenIds.increment();\n        console.log(\"An NFT with ID %s has been minted to %s\", newItemId, msg.sender);\n        emit NewEpicNFTMinted(msg.sender, newItemId);\n    }\n\n    // The following functions are overrides required by Solidity.\n    function _beforeTokenTransfer(address from, address to, uint256 tokenId) internal whenNotPaused override(ERC721, ERC721Enumerable) {\n        super._beforeTokenTransfer(from, to, tokenId);\n    }\n\n    function supportsInterface(bytes4 interfaceId) public view override(ERC721, ERC721Enumerable) returns (bool) {\n        return super.supportsInterface(interfaceId);\n    }\n}",
  "sourcePath": "/Users/bennaylor/Development/Consensys Academy/blockchain-developer-bootcamp-final-project/contracts/NftMinter.sol",
  "compiler": {
    "name": "solc",
    "version": "0.8.0+commit.c7dfd78e.Emscripten.clang"
  },
  "schemaVersion": "3.4.3",
  "updatedAt": "2021-11-09T16:28:18.356Z",
  "networkType": "ethereum",
  "devdoc": {
    "author": "Ben Naylor",
    "events": {
      "NewEpicNFTMinted(address,uint256)": {
        "params": {
          "sender": "The address of the transaction sender",
          "tokenId": "The id of the token that has just been minted"
        }
      }
    },
    "kind": "dev",
    "methods": {
      "approve(address,uint256)": {
        "details": "See {IERC721-approve}."
      },
      "balanceOf(address)": {
        "details": "See {IERC721-balanceOf}."
      },
      "constructor": {
        "params": {
          "_name": "the name of the contract",
          "_supplyCap": "the maximum token that are mintable from this contract",
          "_symbol": "the symbol that contract tokens will be represented by"
        }
      },
      "getApproved(uint256)": {
        "details": "See {IERC721-getApproved}."
      },
      "getRemainingMints()": {
        "returns": {
          "_0": "number of remaining mints on the contract"
        }
      },
      "getSupplyCap()": {
        "returns": {
          "_0": "maximum number of mints allowed on contract "
        }
      },
      "getTotalNFTsMintedSoFar()": {
        "returns": {
          "_0": "number of tokens minted on the contract so far."
        }
      },
      "isApprovedForAll(address,address)": {
        "details": "See {IERC721-isApprovedForAll}."
      },
      "mintNFT()": {
        "details": "currently does not accept paymentthis function creates and stores the tokens URI. This is a JSON string constisting of name, description and image fields. The image is a BASE64 encoded SVG. Finally The whole JSON metadata string is BASE64 encoded and mapped to the tokenId."
      },
      "name()": {
        "details": "See {IERC721Metadata-name}."
      },
      "owner()": {
        "details": "Returns the address of the current owner."
      },
      "ownerOf(uint256)": {
        "details": "See {IERC721-ownerOf}."
      },
      "pause()": {
        "details": "Inherits _pause() function from Pausable.sol and the onlyOwner modifier from Ownable.sol"
      },
      "paused()": {
        "details": "Returns true if the contract is paused, and false otherwise."
      },
      "renounceOwnership()": {
        "details": "Leaves the contract without owner. It will not be possible to call `onlyOwner` functions anymore. Can only be called by the current owner. NOTE: Renouncing ownership will leave the contract without an owner, thereby removing any functionality that is only available to the owner."
      },
      "safeTransferFrom(address,address,uint256)": {
        "details": "See {IERC721-safeTransferFrom}."
      },
      "safeTransferFrom(address,address,uint256,bytes)": {
        "details": "See {IERC721-safeTransferFrom}."
      },
      "setApprovalForAll(address,bool)": {
        "details": "See {IERC721-setApprovalForAll}."
      },
      "symbol()": {
        "details": "See {IERC721Metadata-symbol}."
      },
      "tokenByIndex(uint256)": {
        "details": "See {IERC721Enumerable-tokenByIndex}."
      },
      "tokenOfOwnerByIndex(address,uint256)": {
        "details": "See {IERC721Enumerable-tokenOfOwnerByIndex}."
      },
      "tokenURI(uint256)": {
        "params": {
          "tokenId": "the tokenId to retrieve URI for"
        },
        "returns": {
          "_0": "the token URI containing the tokens metadata"
        }
      },
      "totalSupply()": {
        "details": "See {IERC721Enumerable-totalSupply}."
      },
      "transferFrom(address,address,uint256)": {
        "details": "See {IERC721-transferFrom}."
      },
      "transferOwnership(address)": {
        "details": "Transfers ownership of the contract to a new account (`newOwner`). Can only be called by the current owner."
      },
      "unpause()": {
        "details": "Inherits _unpause() function from Pausable.sol and the onlyOwner modifier from Ownable.sol"
      }
    },
    "stateVariables": {
      "svgPartOne": {
        "details": "We split the SVG at the part where it asks for the background color."
      }
    },
    "title": "Zombie Apocalipse Survival kit generator",
    "version": 1
  },
  "userdoc": {
    "events": {
      "NewEpicNFTMinted(address,uint256)": {
        "notice": "Event to be emitted after a successful mint"
      }
    },
    "kind": "user",
    "methods": {
      "constructor": {
        "notice": "contract constructor. Takes parameters and passes them to the inherited ERC721 contract constructor"
      },
      "mintNFT()": {
        "notice": "mint an ERC721 token on the contract. The caller will receive a token containing a survival kit that includes a weapon, a transport and an item. All are randomly selected.  "
      },
      "pause()": {
        "notice": "pauses the contract. "
      },
      "unpause()": {
        "notice": "unpauses the contract. "
      }
    },
    "notice": "This contract currently only handles free mints. No payment is taken.",
    "version": 1
  }
}