{
  "contractName": "NftMinter",
  "abi": [
    {
      "inputs": [],
      "stateMutability": "nonpayable",
      "type": "constructor"
    },
    {
      "anonymous": false,
      "inputs": [
        {
          "indexed": true,
          "internalType": "address",
          "name": "owner",
          "type": "address"
        },
        {
          "indexed": true,
          "internalType": "address",
          "name": "approved",
          "type": "address"
        },
        {
          "indexed": true,
          "internalType": "uint256",
          "name": "tokenId",
          "type": "uint256"
        }
      ],
      "name": "Approval",
      "type": "event"
    },
    {
      "anonymous": false,
      "inputs": [
        {
          "indexed": true,
          "internalType": "address",
          "name": "owner",
          "type": "address"
        },
        {
          "indexed": true,
          "internalType": "address",
          "name": "operator",
          "type": "address"
        },
        {
          "indexed": false,
          "internalType": "bool",
          "name": "approved",
          "type": "bool"
        }
      ],
      "name": "ApprovalForAll",
      "type": "event"
    },
    {
      "anonymous": false,
      "inputs": [
        {
          "indexed": false,
          "internalType": "address",
          "name": "sender",
          "type": "address"
        },
        {
          "indexed": false,
          "internalType": "uint256",
          "name": "tokenId",
          "type": "uint256"
        }
      ],
      "name": "NewEpicNFTMinted",
      "type": "event"
    },
    {
      "anonymous": false,
      "inputs": [
        {
          "indexed": true,
          "internalType": "address",
          "name": "from",
          "type": "address"
        },
        {
          "indexed": true,
          "internalType": "address",
          "name": "to",
          "type": "address"
        },
        {
          "indexed": true,
          "internalType": "uint256",
          "name": "tokenId",
          "type": "uint256"
        }
      ],
      "name": "Transfer",
      "type": "event"
    },
    {
      "inputs": [
        {
          "internalType": "address",
          "name": "to",
          "type": "address"
        },
        {
          "internalType": "uint256",
          "name": "tokenId",
          "type": "uint256"
        }
      ],
      "name": "approve",
      "outputs": [],
      "stateMutability": "nonpayable",
      "type": "function"
    },
    {
      "inputs": [
        {
          "internalType": "address",
          "name": "owner",
          "type": "address"
        }
      ],
      "name": "balanceOf",
      "outputs": [
        {
          "internalType": "uint256",
          "name": "",
          "type": "uint256"
        }
      ],
      "stateMutability": "view",
      "type": "function",
      "constant": true
    },
    {
      "inputs": [
        {
          "internalType": "uint256",
          "name": "tokenId",
          "type": "uint256"
        }
      ],
      "name": "getApproved",
      "outputs": [
        {
          "internalType": "address",
          "name": "",
          "type": "address"
        }
      ],
      "stateMutability": "view",
      "type": "function",
      "constant": true
    },
    {
      "inputs": [
        {
          "internalType": "address",
          "name": "owner",
          "type": "address"
        },
        {
          "internalType": "address",
          "name": "operator",
          "type": "address"
        }
      ],
      "name": "isApprovedForAll",
      "outputs": [
        {
          "internalType": "bool",
          "name": "",
          "type": "bool"
        }
      ],
      "stateMutability": "view",
      "type": "function",
      "constant": true
    },
    {
      "inputs": [],
      "name": "name",
      "outputs": [
        {
          "internalType": "string",
          "name": "",
          "type": "string"
        }
      ],
      "stateMutability": "view",
      "type": "function",
      "constant": true
    },
    {
      "inputs": [
        {
          "internalType": "uint256",
          "name": "tokenId",
          "type": "uint256"
        }
      ],
      "name": "ownerOf",
      "outputs": [
        {
          "internalType": "address",
          "name": "",
          "type": "address"
        }
      ],
      "stateMutability": "view",
      "type": "function",
      "constant": true
    },
    {
      "inputs": [
        {
          "internalType": "address",
          "name": "from",
          "type": "address"
        },
        {
          "internalType": "address",
          "name": "to",
          "type": "address"
        },
        {
          "internalType": "uint256",
          "name": "tokenId",
          "type": "uint256"
        }
      ],
      "name": "safeTransferFrom",
      "outputs": [],
      "stateMutability": "nonpayable",
      "type": "function"
    },
    {
      "inputs": [
        {
          "internalType": "address",
          "name": "from",
          "type": "address"
        },
        {
          "internalType": "address",
          "name": "to",
          "type": "address"
        },
        {
          "internalType": "uint256",
          "name": "tokenId",
          "type": "uint256"
        },
        {
          "internalType": "bytes",
          "name": "_data",
          "type": "bytes"
        }
      ],
      "name": "safeTransferFrom",
      "outputs": [],
      "stateMutability": "nonpayable",
      "type": "function"
    },
    {
      "inputs": [
        {
          "internalType": "address",
          "name": "operator",
          "type": "address"
        },
        {
          "internalType": "bool",
          "name": "approved",
          "type": "bool"
        }
      ],
      "name": "setApprovalForAll",
      "outputs": [],
      "stateMutability": "nonpayable",
      "type": "function"
    },
    {
      "inputs": [
        {
          "internalType": "bytes4",
          "name": "interfaceId",
          "type": "bytes4"
        }
      ],
      "name": "supportsInterface",
      "outputs": [
        {
          "internalType": "bool",
          "name": "",
          "type": "bool"
        }
      ],
      "stateMutability": "view",
      "type": "function",
      "constant": true
    },
    {
      "inputs": [],
      "name": "symbol",
      "outputs": [
        {
          "internalType": "string",
          "name": "",
          "type": "string"
        }
      ],
      "stateMutability": "view",
      "type": "function",
      "constant": true
    },
    {
      "inputs": [
        {
          "internalType": "uint256",
          "name": "tokenId",
          "type": "uint256"
        }
      ],
      "name": "tokenURI",
      "outputs": [
        {
          "internalType": "string",
          "name": "",
          "type": "string"
        }
      ],
      "stateMutability": "view",
      "type": "function",
      "constant": true
    },
    {
      "inputs": [
        {
          "internalType": "address",
          "name": "from",
          "type": "address"
        },
        {
          "internalType": "address",
          "name": "to",
          "type": "address"
        },
        {
          "internalType": "uint256",
          "name": "tokenId",
          "type": "uint256"
        }
      ],
      "name": "transferFrom",
      "outputs": [],
      "stateMutability": "nonpayable",
      "type": "function"
    },
    {
      "inputs": [],
      "name": "getRemainingMints",
      "outputs": [
        {
          "internalType": "uint256",
          "name": "",
          "type": "uint256"
        }
      ],
      "stateMutability": "view",
      "type": "function",
      "constant": true
    },
    {
      "inputs": [],
      "name": "getTotalNFTsMintedSoFar",
      "outputs": [
        {
          "internalType": "uint256",
          "name": "",
          "type": "uint256"
        }
      ],
      "stateMutability": "view",
      "type": "function",
      "constant": true
    },
    {
      "inputs": [
        {
          "internalType": "uint256",
          "name": "tokenId",
          "type": "uint256"
        }
      ],
      "name": "pickRandomFirstWord",
      "outputs": [
        {
          "internalType": "string",
          "name": "",
          "type": "string"
        }
      ],
      "stateMutability": "view",
      "type": "function",
      "constant": true
    },
    {
      "inputs": [
        {
          "internalType": "uint256",
          "name": "tokenId",
          "type": "uint256"
        }
      ],
      "name": "pickRandomSecondWord",
      "outputs": [
        {
          "internalType": "string",
          "name": "",
          "type": "string"
        }
      ],
      "stateMutability": "view",
      "type": "function",
      "constant": true
    },
    {
      "inputs": [
        {
          "internalType": "uint256",
          "name": "tokenId",
          "type": "uint256"
        }
      ],
      "name": "pickRandomThirdWord",
      "outputs": [
        {
          "internalType": "string",
          "name": "",
          "type": "string"
        }
      ],
      "stateMutability": "view",
      "type": "function",
      "constant": true
    },
    {
      "inputs": [
        {
          "internalType": "uint256",
          "name": "tokenId",
          "type": "uint256"
        }
      ],
      "name": "pickRandomColor",
      "outputs": [
        {
          "internalType": "string",
          "name": "",
          "type": "string"
        }
      ],
      "stateMutability": "view",
      "type": "function",
      "constant": true
    },
    {
      "inputs": [],
      "name": "mintNFT",
      "outputs": [],
      "stateMutability": "nonpayable",
      "type": "function"
    }
  ],
  "bytecode": "0x6080604052610bb860075560405180610100016040528060d3815260200162004ab160d39139600990805190602001906200003c92919062000832565b5060405180608001604052806056815260200162004b8460569139600a90805190602001906200006e92919062000832565b506040518060c001604052806040518060400160405280600581526020017f536c69636b00000000000000000000000000000000000000000000000000000081525081526020016040518060400160405280600781526020017f536c6964696e670000000000000000000000000000000000000000000000000081525081526020016040518060400160405280600881526020017f466c617070696e6700000000000000000000000000000000000000000000000081525081526020016040518060400160405280600881526020017f466c697070696e6700000000000000000000000000000000000000000000000081525081526020016040518060400160405280600781526020017f536f6464696e670000000000000000000000000000000000000000000000000081525081526020016040518060400160405280600881526020017f57686f7070696e67000000000000000000000000000000000000000000000000815250815250600b906006620001ec929190620008c3565b506040518060c001604052806040518060400160405280600681526020017f466c616e6765000000000000000000000000000000000000000000000000000081525081526020016040518060400160405280600681526020017f53696d706c65000000000000000000000000000000000000000000000000000081525081526020016040518060400160405280600881526020017f4372617070696e6700000000000000000000000000000000000000000000000081525081526020016040518060400160405280600981526020017f48756d6f6e676f7573000000000000000000000000000000000000000000000081525081526020016040518060400160405280600681526020017f536c69707079000000000000000000000000000000000000000000000000000081525081526020016040518060400160405280600381526020017f6661740000000000000000000000000000000000000000000000000000000000815250815250600c9060066200036a929190620008c3565b506040518060c001604052806040518060400160405280600581526020017f4d6f6e677900000000000000000000000000000000000000000000000000000081525081526020016040518060400160405280600781526020017f436162626167650000000000000000000000000000000000000000000000000081525081526020016040518060400160405280600781526020017f4c6574747563650000000000000000000000000000000000000000000000000081525081526020016040518060400160405280600681526020017f5475726e6970000000000000000000000000000000000000000000000000000081525081526020016040518060400160405280600681526020017f467269646765000000000000000000000000000000000000000000000000000081525081526020016040518060400160405280600681526020017f436172726f740000000000000000000000000000000000000000000000000000815250815250600d906006620004e8929190620008c3565b506040518060c001604052806040518060400160405280600381526020017f726564000000000000000000000000000000000000000000000000000000000081525081526020016040518060400160405280600781526020017f233038433241380000000000000000000000000000000000000000000000000081525081526020016040518060400160405280600581526020017f626c61636b00000000000000000000000000000000000000000000000000000081525081526020016040518060400160405280600681526020017f79656c6c6f77000000000000000000000000000000000000000000000000000081525081526020016040518060400160405280600481526020017f626c75650000000000000000000000000000000000000000000000000000000081525081526020016040518060400160405280600581526020017f677265656e000000000000000000000000000000000000000000000000000000815250815250600e90600662000666929190620008c3565b503480156200067457600080fd5b506040518060400160405280600981526020017f5371756172654e465400000000000000000000000000000000000000000000008152506040518060400160405280600681526020017f53515541524500000000000000000000000000000000000000000000000000008152508160009080519060200190620006f992919062000832565b5080600190805190602001906200071292919062000832565b505050620007606040518060400160405280601e81526020017f54686973206973206d79204e465420636f6e74726163742e20576f61682100008152506200076660201b620015a21760201c565b62000ae4565b62000806816040516024016200077d919062000a5b565b6040516020818303038152906040527f41304fac000000000000000000000000000000000000000000000000000000007bffffffffffffffffffffffffffffffffffffffffffffffffffffffff19166020820180517bffffffffffffffffffffffffffffffffffffffffffffffffffffffff83818316178352505050506200080960201b60201c565b50565b60008151905060006a636f6e736f6c652e6c6f679050602083016000808483855afa5050505050565b828054620008409062000aae565b90600052602060002090601f016020900481019282620008645760008555620008b0565b82601f106200087f57805160ff1916838001178555620008b0565b82800160010185558215620008b0579182015b82811115620008af57825182559160200191906001019062000892565b5b509050620008bf91906200092a565b5090565b82805482825590600052602060002090810192821562000917579160200282015b82811115620009165782518290805190602001906200090592919062000832565b5091602001919060010190620008e4565b5b50905062000926919062000949565b5090565b5b80821115620009455760008160009055506001016200092b565b5090565b5b808211156200096d576000818162000963919062000971565b506001016200094a565b5090565b5080546200097f9062000aae565b6000825580601f10620009935750620009b4565b601f016020900490600052602060002090810190620009b391906200092a565b5b50565b600081519050919050565b600082825260208201905092915050565b60005b83811015620009f3578082015181840152602081019050620009d6565b8381111562000a03576000848401525b50505050565b6000601f19601f8301169050919050565b600062000a2782620009b7565b62000a338185620009c2565b935062000a45818560208601620009d3565b62000a508162000a09565b840191505092915050565b6000602082019050818103600083015262000a77818462000a1a565b905092915050565b7f4e487b7100000000000000000000000000000000000000000000000000000000600052602260045260246000fd5b6000600282049050600182168062000ac757607f821691505b6020821081141562000ade5762000add62000a7f565b5b50919050565b613fbd8062000af46000396000f3fe608060405234801561001057600080fd5b506004361061012c5760003560e01c80636352211e116100ad578063b88d4fde11610071578063b88d4fde14610355578063c575757a14610371578063c87b56dd146103a1578063e985e9c5146103d1578063fd02c239146104015761012c565b80636352211e1461028b57806370a08231146102bb57806395d89b41146102eb578063a22cb46514610309578063b187301f146103255761012c565b806314f710fe116100f457806314f710fe146101e957806323b872dd146101f35780632de38d681461020f57806342842e0e1461023f578063514dc8c61461025b5761012c565b806301ffc9a714610131578063060475901461016157806306fdde031461017f578063081812fc1461019d578063095ea7b3146101cd575b600080fd5b61014b600480360381019061014691906126ef565b61041f565b6040516101589190612737565b60405180910390f35b610169610501565b604051610176919061276b565b60405180910390f35b610187610512565b604051610194919061281f565b60405180910390f35b6101b760048036038101906101b2919061286d565b6105a4565b6040516101c491906128db565b60405180910390f35b6101e760048036038101906101e29190612922565b610629565b005b6101f1610741565b005b61020d60048036038101906102089190612962565b610a7b565b005b6102296004803603810190610224919061286d565b610adb565b604051610236919061281f565b60405180910390f35b61025960048036038101906102549190612962565b610bd3565b005b6102756004803603810190610270919061286d565b610bf3565b604051610282919061281f565b60405180910390f35b6102a560048036038101906102a0919061286d565b610ceb565b6040516102b291906128db565b60405180910390f35b6102d560048036038101906102d091906129b5565b610d9d565b6040516102e2919061276b565b60405180910390f35b6102f3610e55565b604051610300919061281f565b60405180910390f35b610323600480360381019061031e9190612a0e565b610ee7565b005b61033f600480360381019061033a919061286d565b611068565b60405161034c919061281f565b60405180910390f35b61036f600480360381019061036a9190612b83565b611160565b005b61038b6004803603810190610386919061286d565b6111c2565b604051610398919061281f565b60405180910390f35b6103bb60048036038101906103b6919061286d565b61139e565b6040516103c8919061281f565b60405180910390f35b6103eb60048036038101906103e69190612c06565b6114f0565b6040516103f89190612737565b60405180910390f35b610409611584565b604051610416919061276b565b60405180910390f35b60007f80ac58cd000000000000000000000000000000000000000000000000000000007bffffffffffffffffffffffffffffffffffffffffffffffffffffffff1916827bffffffffffffffffffffffffffffffffffffffffffffffffffffffff191614806104ea57507f5b5e139f000000000000000000000000000000000000000000000000000000007bffffffffffffffffffffffffffffffffffffffffffffffffffffffff1916827bffffffffffffffffffffffffffffffffffffffffffffffffffffffff1916145b806104fa57506104f98261163b565b5b9050919050565b600061050d60086116a5565b905090565b60606000805461052190612c75565b80601f016020809104026020016040519081016040528092919081815260200182805461054d90612c75565b801561059a5780601f1061056f5761010080835404028352916020019161059a565b820191906000526020600020905b81548152906001019060200180831161057d57829003601f168201915b5050505050905090565b60006105af826116b3565b6105ee576040517f08c379a00000000000000000000000000000000000000000000000000000000081526004016105e590612d19565b60405180910390fd5b6004600083815260200190815260200160002060009054906101000a900473ffffffffffffffffffffffffffffffffffffffff169050919050565b600061063482610ceb565b90508073ffffffffffffffffffffffffffffffffffffffff168373ffffffffffffffffffffffffffffffffffffffff1614156106a5576040517f08c379a000000000000000000000000000000000000000000000000000000000815260040161069c90612dab565b60405180910390fd5b8073ffffffffffffffffffffffffffffffffffffffff166106c461171f565b73ffffffffffffffffffffffffffffffffffffffff1614806106f357506106f2816106ed61171f565b6114f0565b5b610732576040517f08c379a000000000000000000000000000000000000000000000000000000000815260040161072990612e3d565b60405180910390fd5b61073c8383611727565b505050565b601461074d60086116a5565b111561078e576040517f08c379a000000000000000000000000000000000000000000000000000000000815260040161078590612ea9565b60405180910390fd5b600061079a60086116a5565b905060006107a782610adb565b905060006107b483611068565b905060006107c1846111c2565b905060008383836040516020016107da93929190612f05565b604051602081830303815290604052905061082a6040518060400160405280600e81526020017f636f6d62696e6564576f72643a20000000000000000000000000000000000000815250826117e0565b600061083586610bf3565b90506000600982600a856040516020016108529493929190613016565b60405160208183030381529060405290506108a26040518060400160405280600a81526020017f66696e616c5376673a2000000000000000000000000000000000000000000000815250826117e0565b60006108d6846108b18461187c565b6040516020016108c29291906131b5565b60405160208183030381529060405261187c565b90506109176040518060400160405280601581526020017f42415345363420656e636f646564204a534f4e3a200000000000000000000000815250826117e0565b60008160405160200161092a9190613246565b604051602081830303815290604052905061097a6040518060400160405280600f81526020017f66696e616c546f6b656e5572693a200000000000000000000000000000000000815250826117e0565b6109b86040518060400160405280601581526020017f0a2d2d2d2d2d2d2d2d2d2d2d2d2d2d2d2d2d2d2d2d00000000000000000000008152506115a2565b6109f66040518060400160405280601581526020017f2d2d2d2d2d2d2d2d2d2d2d2d2d2d2d2d2d2d2d2d0a00000000000000000000008152506115a2565b610a00338a611a14565b610a0a8982611a32565b610a146008611aa6565b610a37604051806060016040528060278152602001613f61602791398a33611abc565b7febb98688741ffa4c7589bf325de30cf7becb63de567842e1ccdb6cb949fdc82c338a604051610a68929190613268565b60405180910390a1505050505050505050565b610a8c610a8661171f565b82611b5b565b610acb576040517f08c379a0000000000000000000000000000000000000000000000000000000008152600401610ac290613303565b60405180910390fd5b610ad6838383611c39565b505050565b60606000610b0f610aeb84611e95565b604051602001610afb919061336f565b604051602081830303815290604052611ff6565b9050600b8054905081610b2291906133c0565b9050600b8181548110610b3857610b376133f1565b5b906000526020600020018054610b4d90612c75565b80601f0160208091040260200160405190810160405280929190818152602001828054610b7990612c75565b8015610bc65780601f10610b9b57610100808354040283529160200191610bc6565b820191906000526020600020905b815481529060010190602001808311610ba957829003601f168201915b5050505050915050919050565b610bee83838360405180602001604052806000815250611160565b505050565b60606000610c27610c0384611e95565b604051602001610c13919061346c565b604051602081830303815290604052611ff6565b9050600e8054905081610c3a91906133c0565b9050600e8181548110610c5057610c4f6133f1565b5b906000526020600020018054610c6590612c75565b80601f0160208091040260200160405190810160405280929190818152602001828054610c9190612c75565b8015610cde5780601f10610cb357610100808354040283529160200191610cde565b820191906000526020600020905b815481529060010190602001808311610cc157829003601f168201915b5050505050915050919050565b6000806002600084815260200190815260200160002060009054906101000a900473ffffffffffffffffffffffffffffffffffffffff169050600073ffffffffffffffffffffffffffffffffffffffff168173ffffffffffffffffffffffffffffffffffffffff161415610d94576040517f08c379a0000000000000000000000000000000000000000000000000000000008152600401610d8b90613500565b60405180910390fd5b80915050919050565b60008073ffffffffffffffffffffffffffffffffffffffff168273ffffffffffffffffffffffffffffffffffffffff161415610e0e576040517f08c379a0000000000000000000000000000000000000000000000000000000008152600401610e0590613592565b60405180910390fd5b600360008373ffffffffffffffffffffffffffffffffffffffff1673ffffffffffffffffffffffffffffffffffffffff168152602001908152602001600020549050919050565b606060018054610e6490612c75565b80601f0160208091040260200160405190810160405280929190818152602001828054610e9090612c75565b8015610edd5780601f10610eb257610100808354040283529160200191610edd565b820191906000526020600020905b815481529060010190602001808311610ec057829003601f168201915b5050505050905090565b610eef61171f565b73ffffffffffffffffffffffffffffffffffffffff168273ffffffffffffffffffffffffffffffffffffffff161415610f5d576040517f08c379a0000000000000000000000000000000000000000000000000000000008152600401610f54906135fe565b60405180910390fd5b8060056000610f6a61171f565b73ffffffffffffffffffffffffffffffffffffffff1673ffffffffffffffffffffffffffffffffffffffff16815260200190815260200160002060008473ffffffffffffffffffffffffffffffffffffffff1673ffffffffffffffffffffffffffffffffffffffff16815260200190815260200160002060006101000a81548160ff0219169083151502179055508173ffffffffffffffffffffffffffffffffffffffff1661101761171f565b73ffffffffffffffffffffffffffffffffffffffff167f17307eab39ab6107e8899845ad3d59bd9653f200f220920489ca2b5937696c318360405161105c9190612737565b60405180910390a35050565b6060600061109c61107884611e95565b604051602001611088919061366a565b604051602081830303815290604052611ff6565b9050600c80549050816110af91906133c0565b9050600c81815481106110c5576110c46133f1565b5b9060005260206000200180546110da90612c75565b80601f016020809104026020016040519081016040528092919081815260200182805461110690612c75565b80156111535780601f1061112857610100808354040283529160200191611153565b820191906000526020600020905b81548152906001019060200180831161113657829003601f168201915b5050505050915050919050565b61117161116b61171f565b83611b5b565b6111b0576040517f08c379a00000000000000000000000000000000000000000000000000000000081526004016111a790613303565b60405180910390fd5b6111bc84848484612029565b50505050565b606061122a6040518060400160405280600d81526020017f52616e646f6d20536565643a200000000000000000000000000000000000000081525061120684611e95565b60405160200161121691906136d8565b6040516020818303038152906040526117e0565b600061125c61123884611e95565b60405160200161124891906136d8565b604051602081830303815290604052611ff6565b905061129d6040518060400160405280601a81526020017f7069636b52616e646f6d5468697264576f72642072616e643a2000000000000081525082612085565b600d80549050816112ae91906133c0565b90506112ef6040518060400160405280601a81526020017f7069636b52616e646f6d5468697264576f72642072616e643a2000000000000081525082612085565b600d8181548110611303576113026133f1565b5b90600052602060002001805461131890612c75565b80601f016020809104026020016040519081016040528092919081815260200182805461134490612c75565b80156113915780601f1061136657610100808354040283529160200191611391565b820191906000526020600020905b81548152906001019060200180831161137457829003601f168201915b5050505050915050919050565b60606113a9826116b3565b6113e8576040517f08c379a00000000000000000000000000000000000000000000000000000000081526004016113df9061376c565b60405180910390fd5b600060066000848152602001908152602001600020805461140890612c75565b80601f016020809104026020016040519081016040528092919081815260200182805461143490612c75565b80156114815780601f1061145657610100808354040283529160200191611481565b820191906000526020600020905b81548152906001019060200180831161146457829003601f168201915b505050505090506000611492612121565b90506000815114156114a85781925050506114eb565b6000825111156114dd5780826040516020016114c592919061378c565b604051602081830303815290604052925050506114eb565b6114e684612138565b925050505b919050565b6000600560008473ffffffffffffffffffffffffffffffffffffffff1673ffffffffffffffffffffffffffffffffffffffff16815260200190815260200160002060008373ffffffffffffffffffffffffffffffffffffffff1673ffffffffffffffffffffffffffffffffffffffff16815260200190815260200160002060009054906101000a900460ff16905092915050565b600061159060086116a5565b60075461159d91906137df565b905090565b611638816040516024016115b6919061281f565b6040516020818303038152906040527f41304fac000000000000000000000000000000000000000000000000000000007bffffffffffffffffffffffffffffffffffffffffffffffffffffffff19166020820180517bffffffffffffffffffffffffffffffffffffffffffffffffffffffff83818316178352505050506121df565b50565b60007f01ffc9a7000000000000000000000000000000000000000000000000000000007bffffffffffffffffffffffffffffffffffffffffffffffffffffffff1916827bffffffffffffffffffffffffffffffffffffffffffffffffffffffff1916149050919050565b600081600001549050919050565b60008073ffffffffffffffffffffffffffffffffffffffff166002600084815260200190815260200160002060009054906101000a900473ffffffffffffffffffffffffffffffffffffffff1673ffffffffffffffffffffffffffffffffffffffff1614159050919050565b600033905090565b816004600083815260200190815260200160002060006101000a81548173ffffffffffffffffffffffffffffffffffffffff021916908373ffffffffffffffffffffffffffffffffffffffff160217905550808273ffffffffffffffffffffffffffffffffffffffff1661179a83610ceb565b73ffffffffffffffffffffffffffffffffffffffff167f8c5be1e5ebec7d5bd14f71427d1e84f3dd0314c0f7b2291e5b200ac8c7c3b92560405160405180910390a45050565b61187882826040516024016117f6929190613813565b6040516020818303038152906040527f4b5c4277000000000000000000000000000000000000000000000000000000007bffffffffffffffffffffffffffffffffffffffffffffffffffffffff19166020820180517bffffffffffffffffffffffffffffffffffffffffffffffffffffffff83818316178352505050506121df565b5050565b606060008251905060008114156118a55760405180602001604052806000815250915050611a0f565b600060036002836118b6919061384a565b6118c091906138a0565b60046118cc91906138d1565b905060006020826118dd919061384a565b67ffffffffffffffff8111156118f6576118f5612a58565b5b6040519080825280601f01601f1916602001820160405280156119285781602001600182028036833780820191505090505b5090506000604051806060016040528060408152602001613f21604091399050600181016020830160005b868110156119cc5760038101905062ffffff818a015116603f8160121c168401518060081b905060ff603f83600c1c1686015116810190508060081b905060ff603f8360061c1686015116810190508060081b905060ff603f831686015116810190508060e01b90508084526004840193505050611953565b5060038606600181146119e657600281146119f657611a01565b613d3d60f01b6002830352611a01565b603d60f81b60018303525b508484525050819450505050505b919050565b611a2e828260405180602001604052806000815250612208565b5050565b611a3b826116b3565b611a7a576040517f08c379a0000000000000000000000000000000000000000000000000000000008152600401611a719061399d565b60405180910390fd5b80600660008481526020019081526020016000209080519060200190611aa19291906125e0565b505050565b6001816000016000828254019250508190555050565b611b56838383604051602401611ad4939291906139bd565b6040516020818303038152906040527fe3849f79000000000000000000000000000000000000000000000000000000007bffffffffffffffffffffffffffffffffffffffffffffffffffffffff19166020820180517bffffffffffffffffffffffffffffffffffffffffffffffffffffffff83818316178352505050506121df565b505050565b6000611b66826116b3565b611ba5576040517f08c379a0000000000000000000000000000000000000000000000000000000008152600401611b9c90613a6d565b60405180910390fd5b6000611bb083610ceb565b90508073ffffffffffffffffffffffffffffffffffffffff168473ffffffffffffffffffffffffffffffffffffffff161480611c1f57508373ffffffffffffffffffffffffffffffffffffffff16611c07846105a4565b73ffffffffffffffffffffffffffffffffffffffff16145b80611c305750611c2f81856114f0565b5b91505092915050565b8273ffffffffffffffffffffffffffffffffffffffff16611c5982610ceb565b73ffffffffffffffffffffffffffffffffffffffff1614611caf576040517f08c379a0000000000000000000000000000000000000000000000000000000008152600401611ca690613aff565b60405180910390fd5b600073ffffffffffffffffffffffffffffffffffffffff168273ffffffffffffffffffffffffffffffffffffffff161415611d1f576040517f08c379a0000000000000000000000000000000000000000000000000000000008152600401611d1690613b91565b60405180910390fd5b611d2a838383612263565b611d35600082611727565b6001600360008573ffffffffffffffffffffffffffffffffffffffff1673ffffffffffffffffffffffffffffffffffffffff1681526020019081526020016000206000828254611d8591906137df565b925050819055506001600360008473ffffffffffffffffffffffffffffffffffffffff1673ffffffffffffffffffffffffffffffffffffffff1681526020019081526020016000206000828254611ddc919061384a565b92505081905550816002600083815260200190815260200160002060006101000a81548173ffffffffffffffffffffffffffffffffffffffff021916908373ffffffffffffffffffffffffffffffffffffffff160217905550808273ffffffffffffffffffffffffffffffffffffffff168473ffffffffffffffffffffffffffffffffffffffff167fddf252ad1be2c89b69c2b068fc378daa952ba7f163c4a11628f55a4df523b3ef60405160405180910390a4505050565b60606000821415611edd576040518060400160405280600181526020017f30000000000000000000000000000000000000000000000000000000000000008152509050611ff1565b600082905060005b60008214611f0f578080611ef890613bb1565b915050600a82611f0891906138a0565b9150611ee5565b60008167ffffffffffffffff811115611f2b57611f2a612a58565b5b6040519080825280601f01601f191660200182016040528015611f5d5781602001600182028036833780820191505090505b5090505b60008514611fea57600182611f7691906137df565b9150600a85611f8591906133c0565b6030611f91919061384a565b60f81b818381518110611fa757611fa66133f1565b5b60200101907effffffffffffffffffffffffffffffffffffffffffffffffffffffffffffff1916908160001a905350600a85611fe391906138a0565b9450611f61565b8093505050505b919050565b6000816040516020016120099190613bfa565b6040516020818303038152906040528051906020012060001c9050919050565b612034848484611c39565b61204084848484612268565b61207f576040517f08c379a000000000000000000000000000000000000000000000000000000000815260040161207690613c83565b60405180910390fd5b50505050565b61211d828260405160240161209b929190613ca3565b6040516020818303038152906040527f9710a9d0000000000000000000000000000000000000000000000000000000007bffffffffffffffffffffffffffffffffffffffffffffffffffffffff19166020820180517bffffffffffffffffffffffffffffffffffffffffffffffffffffffff83818316178352505050506121df565b5050565b606060405180602001604052806000815250905090565b6060612143826116b3565b612182576040517f08c379a000000000000000000000000000000000000000000000000000000000815260040161217990613d45565b60405180910390fd5b600061218c612121565b905060008151116121ac57604051806020016040528060008152506121d7565b806121b684611e95565b6040516020016121c792919061378c565b6040516020818303038152906040525b915050919050565b60008151905060006a636f6e736f6c652e6c6f679050602083016000808483855afa5050505050565b61221283836123ff565b61221f6000848484612268565b61225e576040517f08c379a000000000000000000000000000000000000000000000000000000000815260040161225590613c83565b60405180910390fd5b505050565b505050565b60006122898473ffffffffffffffffffffffffffffffffffffffff166125cd565b156123f2578373ffffffffffffffffffffffffffffffffffffffff1663150b7a026122b261171f565b8786866040518563ffffffff1660e01b81526004016122d49493929190613dba565b602060405180830381600087803b1580156122ee57600080fd5b505af192505050801561231f57506040513d601f19601f8201168201806040525081019061231c9190613e1b565b60015b6123a2573d806000811461234f576040519150601f19603f3d011682016040523d82523d6000602084013e612354565b606091505b5060008151141561239a576040517f08c379a000000000000000000000000000000000000000000000000000000000815260040161239190613c83565b60405180910390fd5b805181602001fd5b63150b7a0260e01b7bffffffffffffffffffffffffffffffffffffffffffffffffffffffff1916817bffffffffffffffffffffffffffffffffffffffffffffffffffffffff1916149150506123f7565b600190505b949350505050565b600073ffffffffffffffffffffffffffffffffffffffff168273ffffffffffffffffffffffffffffffffffffffff16141561246f576040517f08c379a000000000000000000000000000000000000000000000000000000000815260040161246690613e94565b60405180910390fd5b612478816116b3565b156124b8576040517f08c379a00000000000000000000000000000000000000000000000000000000081526004016124af90613f00565b60405180910390fd5b6124c460008383612263565b6001600360008473ffffffffffffffffffffffffffffffffffffffff1673ffffffffffffffffffffffffffffffffffffffff1681526020019081526020016000206000828254612514919061384a565b92505081905550816002600083815260200190815260200160002060006101000a81548173ffffffffffffffffffffffffffffffffffffffff021916908373ffffffffffffffffffffffffffffffffffffffff160217905550808273ffffffffffffffffffffffffffffffffffffffff16600073ffffffffffffffffffffffffffffffffffffffff167fddf252ad1be2c89b69c2b068fc378daa952ba7f163c4a11628f55a4df523b3ef60405160405180910390a45050565b600080823b905060008111915050919050565b8280546125ec90612c75565b90600052602060002090601f01602090048101928261260e5760008555612655565b82601f1061262757805160ff1916838001178555612655565b82800160010185558215612655579182015b82811115612654578251825591602001919060010190612639565b5b5090506126629190612666565b5090565b5b8082111561267f576000816000905550600101612667565b5090565b6000604051905090565b600080fd5b600080fd5b60007fffffffff0000000000000000000000000000000000000000000000000000000082169050919050565b6126cc81612697565b81146126d757600080fd5b50565b6000813590506126e9816126c3565b92915050565b6000602082840312156127055761270461268d565b5b6000612713848285016126da565b91505092915050565b60008115159050919050565b6127318161271c565b82525050565b600060208201905061274c6000830184612728565b92915050565b6000819050919050565b61276581612752565b82525050565b6000602082019050612780600083018461275c565b92915050565b600081519050919050565b600082825260208201905092915050565b60005b838110156127c05780820151818401526020810190506127a5565b838111156127cf576000848401525b50505050565b6000601f19601f8301169050919050565b60006127f182612786565b6127fb8185612791565b935061280b8185602086016127a2565b612814816127d5565b840191505092915050565b6000602082019050818103600083015261283981846127e6565b905092915050565b61284a81612752565b811461285557600080fd5b50565b60008135905061286781612841565b92915050565b6000602082840312156128835761288261268d565b5b600061289184828501612858565b91505092915050565b600073ffffffffffffffffffffffffffffffffffffffff82169050919050565b60006128c58261289a565b9050919050565b6128d5816128ba565b82525050565b60006020820190506128f060008301846128cc565b92915050565b6128ff816128ba565b811461290a57600080fd5b50565b60008135905061291c816128f6565b92915050565b600080604083850312156129395761293861268d565b5b60006129478582860161290d565b925050602061295885828601612858565b9150509250929050565b60008060006060848603121561297b5761297a61268d565b5b60006129898682870161290d565b935050602061299a8682870161290d565b92505060406129ab86828701612858565b9150509250925092565b6000602082840312156129cb576129ca61268d565b5b60006129d98482850161290d565b91505092915050565b6129eb8161271c565b81146129f657600080fd5b50565b600081359050612a08816129e2565b92915050565b60008060408385031215612a2557612a2461268d565b5b6000612a338582860161290d565b9250506020612a44858286016129f9565b9150509250929050565b600080fd5b600080fd5b7f4e487b7100000000000000000000000000000000000000000000000000000000600052604160045260246000fd5b612a90826127d5565b810181811067ffffffffffffffff82111715612aaf57612aae612a58565b5b80604052505050565b6000612ac2612683565b9050612ace8282612a87565b919050565b600067ffffffffffffffff821115612aee57612aed612a58565b5b612af7826127d5565b9050602081019050919050565b82818337600083830152505050565b6000612b26612b2184612ad3565b612ab8565b905082815260208101848484011115612b4257612b41612a53565b5b612b4d848285612b04565b509392505050565b600082601f830112612b6a57612b69612a4e565b5b8135612b7a848260208601612b13565b91505092915050565b60008060008060808587031215612b9d57612b9c61268d565b5b6000612bab8782880161290d565b9450506020612bbc8782880161290d565b9350506040612bcd87828801612858565b925050606085013567ffffffffffffffff811115612bee57612bed612692565b5b612bfa87828801612b55565b91505092959194509250565b60008060408385031215612c1d57612c1c61268d565b5b6000612c2b8582860161290d565b9250506020612c3c8582860161290d565b9150509250929050565b7f4e487b7100000000000000000000000000000000000000000000000000000000600052602260045260246000fd5b60006002820490506001821680612c8d57607f821691505b60208210811415612ca157612ca0612c46565b5b50919050565b7f4552433732313a20617070726f76656420717565727920666f72206e6f6e657860008201527f697374656e7420746f6b656e0000000000000000000000000000000000000000602082015250565b6000612d03602c83612791565b9150612d0e82612ca7565b604082019050919050565b60006020820190508181036000830152612d3281612cf6565b9050919050565b7f4552433732313a20617070726f76616c20746f2063757272656e74206f776e6560008201527f7200000000000000000000000000000000000000000000000000000000000000602082015250565b6000612d95602183612791565b9150612da082612d39565b604082019050919050565b60006020820190508181036000830152612dc481612d88565b9050919050565b7f4552433732313a20617070726f76652063616c6c6572206973206e6f74206f7760008201527f6e6572206e6f7220617070726f76656420666f7220616c6c0000000000000000602082015250565b6000612e27603883612791565b9150612e3282612dcb565b604082019050919050565b60006020820190508181036000830152612e5681612e1a565b9050919050565b7f546865726520617265206e6f204e465473206c65667420746f206d696e740000600082015250565b6000612e93601e83612791565b9150612e9e82612e5d565b602082019050919050565b60006020820190508181036000830152612ec281612e86565b9050919050565b600081905092915050565b6000612edf82612786565b612ee98185612ec9565b9350612ef98185602086016127a2565b80840191505092915050565b6000612f118286612ed4565b9150612f1d8285612ed4565b9150612f298284612ed4565b9150819050949350505050565b60008190508160005260206000209050919050565b60008154612f5881612c75565b612f628186612ec9565b94506001821660008114612f7d5760018114612f8e57612fc1565b60ff19831686528186019350612fc1565b612f9785612f36565b60005b83811015612fb957815481890152600182019150602081019050612f9a565b838801955050505b50505092915050565b7f3c2f746578743e3c2f7376673e00000000000000000000000000000000000000600082015250565b6000613000600d83612ec9565b915061300b82612fca565b600d82019050919050565b60006130228287612f4b565b915061302e8286612ed4565b915061303a8285612f4b565b91506130468284612ed4565b915061305182612ff3565b915081905095945050505050565b7f7b226e616d65223a202200000000000000000000000000000000000000000000600082015250565b6000613095600a83612ec9565b91506130a08261305f565b600a82019050919050565b7f222c20226465736372697074696f6e223a20224120686967686c79206163636c60008201527f61696d656420636f6c6c656374696f6e206f6620737175617265732e222c202260208201527f696d616765223a2022646174613a696d6167652f7376672b786d6c3b6261736560408201527f36342c0000000000000000000000000000000000000000000000000000000000606082015250565b6000613153606383612ec9565b915061315e826130ab565b606382019050919050565b7f227d000000000000000000000000000000000000000000000000000000000000600082015250565b600061319f600283612ec9565b91506131aa82613169565b600282019050919050565b60006131c082613088565b91506131cc8285612ed4565b91506131d782613146565b91506131e38284612ed4565b91506131ee82613192565b91508190509392505050565b7f646174613a6170706c69636174696f6e2f6a736f6e3b6261736536342c000000600082015250565b6000613230601d83612ec9565b915061323b826131fa565b601d82019050919050565b600061325182613223565b915061325d8284612ed4565b915081905092915050565b600060408201905061327d60008301856128cc565b61328a602083018461275c565b9392505050565b7f4552433732313a207472616e736665722063616c6c6572206973206e6f74206f60008201527f776e6572206e6f7220617070726f766564000000000000000000000000000000602082015250565b60006132ed603183612791565b91506132f882613291565b604082019050919050565b6000602082019050818103600083015261331c816132e0565b9050919050565b7f46495253545f574f524400000000000000000000000000000000000000000000600082015250565b6000613359600a83612ec9565b915061336482613323565b600a82019050919050565b600061337a8261334c565b91506133868284612ed4565b915081905092915050565b7f4e487b7100000000000000000000000000000000000000000000000000000000600052601260045260246000fd5b60006133cb82612752565b91506133d683612752565b9250826133e6576133e5613391565b5b828206905092915050565b7f4e487b7100000000000000000000000000000000000000000000000000000000600052603260045260246000fd5b7f434f4c4f52000000000000000000000000000000000000000000000000000000600082015250565b6000613456600583612ec9565b915061346182613420565b600582019050919050565b600061347782613449565b91506134838284612ed4565b915081905092915050565b7f4552433732313a206f776e657220717565727920666f72206e6f6e657869737460008201527f656e7420746f6b656e0000000000000000000000000000000000000000000000602082015250565b60006134ea602983612791565b91506134f58261348e565b604082019050919050565b60006020820190508181036000830152613519816134dd565b9050919050565b7f4552433732313a2062616c616e636520717565727920666f7220746865207a6560008201527f726f206164647265737300000000000000000000000000000000000000000000602082015250565b600061357c602a83612791565b915061358782613520565b604082019050919050565b600060208201905081810360008301526135ab8161356f565b9050919050565b7f4552433732313a20617070726f766520746f2063616c6c657200000000000000600082015250565b60006135e8601983612791565b91506135f3826135b2565b602082019050919050565b60006020820190508181036000830152613617816135db565b9050919050565b7f5345434f4e445f574f5244000000000000000000000000000000000000000000600082015250565b6000613654600b83612ec9565b915061365f8261361e565b600b82019050919050565b600061367582613647565b91506136818284612ed4565b915081905092915050565b7f54484952445f574f524400000000000000000000000000000000000000000000600082015250565b60006136c2600a83612ec9565b91506136cd8261368c565b600a82019050919050565b60006136e3826136b5565b91506136ef8284612ed4565b915081905092915050565b7f45524337323155524953746f726167653a2055524920717565727920666f722060008201527f6e6f6e6578697374656e7420746f6b656e000000000000000000000000000000602082015250565b6000613756603183612791565b9150613761826136fa565b604082019050919050565b6000602082019050818103600083015261378581613749565b9050919050565b60006137988285612ed4565b91506137a48284612ed4565b91508190509392505050565b7f4e487b7100000000000000000000000000000000000000000000000000000000600052601160045260246000fd5b60006137ea82612752565b91506137f583612752565b925082821015613808576138076137b0565b5b828203905092915050565b6000604082019050818103600083015261382d81856127e6565b9050818103602083015261384181846127e6565b90509392505050565b600061385582612752565b915061386083612752565b9250827fffffffffffffffffffffffffffffffffffffffffffffffffffffffffffffffff03821115613895576138946137b0565b5b828201905092915050565b60006138ab82612752565b91506138b683612752565b9250826138c6576138c5613391565b5b828204905092915050565b60006138dc82612752565b91506138e783612752565b9250817fffffffffffffffffffffffffffffffffffffffffffffffffffffffffffffffff04831182151516156139205761391f6137b0565b5b828202905092915050565b7f45524337323155524953746f726167653a2055524920736574206f66206e6f6e60008201527f6578697374656e7420746f6b656e000000000000000000000000000000000000602082015250565b6000613987602e83612791565b91506139928261392b565b604082019050919050565b600060208201905081810360008301526139b68161397a565b9050919050565b600060608201905081810360008301526139d781866127e6565b90506139e6602083018561275c565b6139f360408301846128cc565b949350505050565b7f4552433732313a206f70657261746f7220717565727920666f72206e6f6e657860008201527f697374656e7420746f6b656e0000000000000000000000000000000000000000602082015250565b6000613a57602c83612791565b9150613a62826139fb565b604082019050919050565b60006020820190508181036000830152613a8681613a4a565b9050919050565b7f4552433732313a207472616e73666572206f6620746f6b656e2074686174206960008201527f73206e6f74206f776e0000000000000000000000000000000000000000000000602082015250565b6000613ae9602983612791565b9150613af482613a8d565b604082019050919050565b60006020820190508181036000830152613b1881613adc565b9050919050565b7f4552433732313a207472616e7366657220746f20746865207a65726f2061646460008201527f7265737300000000000000000000000000000000000000000000000000000000602082015250565b6000613b7b602483612791565b9150613b8682613b1f565b604082019050919050565b60006020820190508181036000830152613baa81613b6e565b9050919050565b6000613bbc82612752565b91507fffffffffffffffffffffffffffffffffffffffffffffffffffffffffffffffff821415613bef57613bee6137b0565b5b600182019050919050565b6000613c068284612ed4565b915081905092915050565b7f4552433732313a207472616e7366657220746f206e6f6e20455243373231526560008201527f63656976657220696d706c656d656e7465720000000000000000000000000000602082015250565b6000613c6d603283612791565b9150613c7882613c11565b604082019050919050565b60006020820190508181036000830152613c9c81613c60565b9050919050565b60006040820190508181036000830152613cbd81856127e6565b9050613ccc602083018461275c565b9392505050565b7f4552433732314d657461646174613a2055524920717565727920666f72206e6f60008201527f6e6578697374656e7420746f6b656e0000000000000000000000000000000000602082015250565b6000613d2f602f83612791565b9150613d3a82613cd3565b604082019050919050565b60006020820190508181036000830152613d5e81613d22565b9050919050565b600081519050919050565b600082825260208201905092915050565b6000613d8c82613d65565b613d968185613d70565b9350613da68185602086016127a2565b613daf816127d5565b840191505092915050565b6000608082019050613dcf60008301876128cc565b613ddc60208301866128cc565b613de9604083018561275c565b8181036060830152613dfb8184613d81565b905095945050505050565b600081519050613e15816126c3565b92915050565b600060208284031215613e3157613e3061268d565b5b6000613e3f84828501613e06565b91505092915050565b7f4552433732313a206d696e7420746f20746865207a65726f2061646472657373600082015250565b6000613e7e602083612791565b9150613e8982613e48565b602082019050919050565b60006020820190508181036000830152613ead81613e71565b9050919050565b7f4552433732313a20746f6b656e20616c7265616479206d696e74656400000000600082015250565b6000613eea601c83612791565b9150613ef582613eb4565b602082019050919050565b60006020820190508181036000830152613f1981613edd565b905091905056fe4142434445464748494a4b4c4d4e4f505152535455565758595a6162636465666768696a6b6c6d6e6f707172737475767778797a303132333435363738392b2f416e204e4654207769746820494420257320686173206265656e206d696e74656420746f202573a2646970667358221220437d11d45c61c980131871eb514c72dde2ec790fdf16975bc773496dcfdcf98a64736f6c634300080900333c73766720786d6c6e733d27687474703a2f2f7777772e77332e6f72672f323030302f73766727207072657365727665417370656374526174696f3d27784d696e594d696e206d656574272076696577426f783d273020302033353020333530273e3c7374796c653e2e62617365207b2066696c6c3a2077686974653b20666f6e742d66616d696c793a2073657269663b20666f6e742d73697a653a20323470783b207d3c2f7374796c653e3c726563742077696474683d273130302527206865696768743d2731303025272066696c6c3d27272f3e3c7465787420783d273530252720793d273530252720636c6173733d27626173652720646f6d696e616e742d626173656c696e653d276d6964646c652720746578742d616e63686f723d276d6964646c65273e",
  "immutableReferences": {},
  "source": "// SPDX-License-Identifier: MIT\npragma solidity ^0.8.0;\n\n// We first import some OpenZeppelin Contracts.\nimport \"@openzeppelin/contracts/utils/Strings.sol\";\nimport \"@openzeppelin/contracts/token/ERC721/extensions/ERC721URIStorage.sol\";\nimport \"@openzeppelin/contracts/utils/Counters.sol\";\nimport \"hardhat-console/contracts/console.sol\";\n\n// Import helper functions needed for Base62 encoding\nimport { Base64 } from \"./libraries/Base64.sol\";\n\ncontract NftMinter is ERC721URIStorage {\n\n    uint maxMints = 3000;\n\n    // Use OpenZeppelin utility to keep track of tokenIds\n    using Counters for Counters.Counter;\n    Counters.Counter private _tokenIds;\n\n    // We split the SVG at the part where it asks for the background color.\n    string svgPartOne = \"<svg xmlns='http://www.w3.org/2000/svg' preserveAspectRatio='xMinYMin meet' viewBox='0 0 350 350'><style>.base { fill: white; font-family: serif; font-size: 24px; }</style><rect width='100%' height='100%' fill='\";\n    string svgPartTwo = \"'/><text x='50%' y='50%' class='base' dominant-baseline='middle' text-anchor='middle'>\";\n\n    string[] firstWords = [\"Slick\", \"Sliding\", \"Flapping\", \"Flipping\", \"Sodding\", \"Whopping\"];\n    string[] secondWords = [\"Flange\", \"Simple\", \"Crapping\", \"Humongous\", \"Slippy\", \"fat\"];\n    string[] thirdWords = [\"Mongy\", \"Cabbage\", \"Lettuce\", \"Turnip\", \"Fridge\", \"Carrot\"];\n    string[] colors = [\"red\", \"#08C2A8\", \"black\", \"yellow\", \"blue\", \"green\"];\n\n    // define an event that canbe emitted after a mint\n    event NewEpicNFTMinted(address sender, uint256 tokenId);\n\n    constructor() ERC721(\"SquareNFT\", \"SQUARE\") { //ERC721URIStorage inherits from the ERC721 contract which requires arguments to be passed into its constructor. \n        console.log(\"This is my NFT contract. Woah!\");\n    }\n\n    function getRemainingMints () public view returns (uint256) {\n        return maxMints - _tokenIds.current();\n    }\n\n    function getTotalNFTsMintedSoFar () public view returns (uint256) {\n        return _tokenIds.current();\n    }\n\n      // Bit of code duplication in the following 3 functions. This could probably be refactored to make it more DRY.\n    function pickRandomFirstWord(uint256 tokenId) public view returns (string memory) {\n        // I seed the random generator. More on this in the lesson. \n        uint256 rand = random(string(abi.encodePacked(\"FIRST_WORD\", Strings.toString(tokenId))));\n        // Squash the # between 0 and the length of the array to avoid going out of bounds.\n        rand = rand % firstWords.length;\n        return firstWords[rand];\n    }\n\n    function pickRandomSecondWord(uint256 tokenId) public view returns (string memory) {\n        uint256 rand = random(string(abi.encodePacked(\"SECOND_WORD\", Strings.toString(tokenId))));\n        rand = rand % secondWords.length;\n        return secondWords[rand];\n    }\n\n    function pickRandomThirdWord(uint256 tokenId) public view returns (string memory) {\n        console.log(\"Random Seed: \", string(abi.encodePacked(\"THIRD_WORD\", Strings.toString(tokenId))));\n        uint256 rand = random(string(abi.encodePacked(\"THIRD_WORD\", Strings.toString(tokenId))));\n        console.log(\"pickRandomThirdWord rand: \", rand);\n        rand = rand % thirdWords.length;\n        console.log(\"pickRandomThirdWord rand: \", rand);\n        return thirdWords[rand];\n    }\n\n    function pickRandomColor(uint256 tokenId) public view returns (string memory) {\n        uint256 rand = random(string(abi.encodePacked(\"COLOR\", Strings.toString(tokenId))));\n        rand = rand % colors.length;\n        return colors[rand];\n    } \n\n    function random(string memory input) internal pure returns (uint256) {\n        return uint(keccak256(abi.encodePacked(input)));\n    }\n\n    function mintNFT() public {\n\n        // There will only be 5 NFT's available\n        require(_tokenIds.current() <= 20, \"There are no NFTs left to mint\");\n        \n        // get the current tokenId, this starts at 0\n        uint newItemId = _tokenIds.current();\n\n        // randomly grab one word from each of the arrays\n        string memory first = pickRandomFirstWord(newItemId);\n        string memory second = pickRandomSecondWord(newItemId);\n        string memory third = pickRandomThirdWord(newItemId);\n        string memory combinedWord = string(abi.encodePacked(first, second, third));\n        console.log(\"combinedWord: \", combinedWord);\n\n        // Add the random color in.\n        string memory randomColor = pickRandomColor(newItemId);\n        string memory finalSvg = string(abi.encodePacked(svgPartOne, randomColor, svgPartTwo, combinedWord, \"</text></svg>\"));\n        console.log(\"finalSvg: \", finalSvg);\n\n        // get all the JSON metadata in place and base64 encode it\n        string memory json = Base64.encode(\n            bytes(\n                string(\n                    abi.encodePacked(\n                        '{\"name\": \"',combinedWord,\n                        '\", \"description\": \"A highly acclaimed collection of squares.\", \"image\": \"data:image/svg+xml;base64,',\n                    // We add data:image/svg+xml;base64 and then append our base64 encode our svg.\n                    Base64.encode(bytes(finalSvg)),\n                    '\"}'\n                    )\n                )\n            )\n        );\n        console.log(\"BASE64 encoded JSON: \", json);\n\n        // Just like before, we prepend data:application/json;base64, to our data.\n        string memory finalTokenUri = string(\n            abi.encodePacked(\"data:application/json;base64,\", json)\n        );\n        console.log(\"finalTokenUri: \", finalTokenUri);\n\n        console.log(\"\\n--------------------\");\n        // console.log(finalTokenUri);\n        console.log(\"--------------------\\n\");  \n\n        // actually mint the NFT to the sender using msg.sender\n        _safeMint(msg.sender, newItemId);\n\n        // set the NFTs data\n        _setTokenURI(newItemId, finalTokenUri);\n\n        // increment the counter for when the next NFT is minted\n        _tokenIds.increment();\n        console.log(\"An NFT with ID %s has been minted to %s\", newItemId, msg.sender);\n        emit NewEpicNFTMinted(msg.sender, newItemId);\n    }\n}",
  "sourcePath": "/Users/bennaylor/Development/Consensys Academy/blockchain-developer-bootcamp-final-project/contracts/NftMinter.sol",
  "compiler": {
    "name": "solc",
    "version": "0.8.9+commit.e5eed63a.Emscripten.clang"
  },
  "schemaVersion": "3.4.3",
  "updatedAt": "2021-11-02T10:13:28.432Z",
  "networkType": "ethereum",
  "devdoc": {
    "kind": "dev",
    "methods": {
      "approve(address,uint256)": {
        "details": "See {IERC721-approve}."
      },
      "balanceOf(address)": {
        "details": "See {IERC721-balanceOf}."
      },
      "getApproved(uint256)": {
        "details": "See {IERC721-getApproved}."
      },
      "isApprovedForAll(address,address)": {
        "details": "See {IERC721-isApprovedForAll}."
      },
      "name()": {
        "details": "See {IERC721Metadata-name}."
      },
      "ownerOf(uint256)": {
        "details": "See {IERC721-ownerOf}."
      },
      "safeTransferFrom(address,address,uint256)": {
        "details": "See {IERC721-safeTransferFrom}."
      },
      "safeTransferFrom(address,address,uint256,bytes)": {
        "details": "See {IERC721-safeTransferFrom}."
      },
      "setApprovalForAll(address,bool)": {
        "details": "See {IERC721-setApprovalForAll}."
      },
      "supportsInterface(bytes4)": {
        "details": "See {IERC165-supportsInterface}."
      },
      "symbol()": {
        "details": "See {IERC721Metadata-symbol}."
      },
      "tokenURI(uint256)": {
        "details": "See {IERC721Metadata-tokenURI}."
      },
      "transferFrom(address,address,uint256)": {
        "details": "See {IERC721-transferFrom}."
      }
    },
    "version": 1
  },
  "userdoc": {
    "kind": "user",
    "methods": {},
    "version": 1
  }
}