{
  "contractName": "NftMinter",
  "abi": [
    {
      "inputs": [],
      "stateMutability": "nonpayable",
      "type": "constructor"
    },
    {
      "anonymous": false,
      "inputs": [
        {
          "indexed": true,
          "internalType": "address",
          "name": "owner",
          "type": "address"
        },
        {
          "indexed": true,
          "internalType": "address",
          "name": "approved",
          "type": "address"
        },
        {
          "indexed": true,
          "internalType": "uint256",
          "name": "tokenId",
          "type": "uint256"
        }
      ],
      "name": "Approval",
      "type": "event"
    },
    {
      "anonymous": false,
      "inputs": [
        {
          "indexed": true,
          "internalType": "address",
          "name": "owner",
          "type": "address"
        },
        {
          "indexed": true,
          "internalType": "address",
          "name": "operator",
          "type": "address"
        },
        {
          "indexed": false,
          "internalType": "bool",
          "name": "approved",
          "type": "bool"
        }
      ],
      "name": "ApprovalForAll",
      "type": "event"
    },
    {
      "anonymous": false,
      "inputs": [
        {
          "indexed": false,
          "internalType": "address",
          "name": "sender",
          "type": "address"
        },
        {
          "indexed": false,
          "internalType": "uint256",
          "name": "tokenId",
          "type": "uint256"
        }
      ],
      "name": "NewEpicNFTMinted",
      "type": "event"
    },
    {
      "anonymous": false,
      "inputs": [
        {
          "indexed": true,
          "internalType": "address",
          "name": "previousOwner",
          "type": "address"
        },
        {
          "indexed": true,
          "internalType": "address",
          "name": "newOwner",
          "type": "address"
        }
      ],
      "name": "OwnershipTransferred",
      "type": "event"
    },
    {
      "anonymous": false,
      "inputs": [
        {
          "indexed": false,
          "internalType": "address",
          "name": "account",
          "type": "address"
        }
      ],
      "name": "Paused",
      "type": "event"
    },
    {
      "anonymous": false,
      "inputs": [
        {
          "indexed": true,
          "internalType": "address",
          "name": "from",
          "type": "address"
        },
        {
          "indexed": true,
          "internalType": "address",
          "name": "to",
          "type": "address"
        },
        {
          "indexed": true,
          "internalType": "uint256",
          "name": "tokenId",
          "type": "uint256"
        }
      ],
      "name": "Transfer",
      "type": "event"
    },
    {
      "anonymous": false,
      "inputs": [
        {
          "indexed": false,
          "internalType": "address",
          "name": "account",
          "type": "address"
        }
      ],
      "name": "Unpaused",
      "type": "event"
    },
    {
      "inputs": [
        {
          "internalType": "address",
          "name": "to",
          "type": "address"
        },
        {
          "internalType": "uint256",
          "name": "tokenId",
          "type": "uint256"
        }
      ],
      "name": "approve",
      "outputs": [],
      "stateMutability": "nonpayable",
      "type": "function"
    },
    {
      "inputs": [
        {
          "internalType": "address",
          "name": "owner",
          "type": "address"
        }
      ],
      "name": "balanceOf",
      "outputs": [
        {
          "internalType": "uint256",
          "name": "",
          "type": "uint256"
        }
      ],
      "stateMutability": "view",
      "type": "function",
      "constant": true
    },
    {
      "inputs": [
        {
          "internalType": "uint256",
          "name": "tokenId",
          "type": "uint256"
        }
      ],
      "name": "getApproved",
      "outputs": [
        {
          "internalType": "address",
          "name": "",
          "type": "address"
        }
      ],
      "stateMutability": "view",
      "type": "function",
      "constant": true
    },
    {
      "inputs": [
        {
          "internalType": "address",
          "name": "owner",
          "type": "address"
        },
        {
          "internalType": "address",
          "name": "operator",
          "type": "address"
        }
      ],
      "name": "isApprovedForAll",
      "outputs": [
        {
          "internalType": "bool",
          "name": "",
          "type": "bool"
        }
      ],
      "stateMutability": "view",
      "type": "function",
      "constant": true
    },
    {
      "inputs": [],
      "name": "maxMints",
      "outputs": [
        {
          "internalType": "uint256",
          "name": "",
          "type": "uint256"
        }
      ],
      "stateMutability": "view",
      "type": "function",
      "constant": true
    },
    {
      "inputs": [],
      "name": "name",
      "outputs": [
        {
          "internalType": "string",
          "name": "",
          "type": "string"
        }
      ],
      "stateMutability": "view",
      "type": "function",
      "constant": true
    },
    {
      "inputs": [],
      "name": "owner",
      "outputs": [
        {
          "internalType": "address",
          "name": "",
          "type": "address"
        }
      ],
      "stateMutability": "view",
      "type": "function",
      "constant": true
    },
    {
      "inputs": [
        {
          "internalType": "uint256",
          "name": "tokenId",
          "type": "uint256"
        }
      ],
      "name": "ownerOf",
      "outputs": [
        {
          "internalType": "address",
          "name": "",
          "type": "address"
        }
      ],
      "stateMutability": "view",
      "type": "function",
      "constant": true
    },
    {
      "inputs": [],
      "name": "paused",
      "outputs": [
        {
          "internalType": "bool",
          "name": "",
          "type": "bool"
        }
      ],
      "stateMutability": "view",
      "type": "function",
      "constant": true
    },
    {
      "inputs": [],
      "name": "renounceOwnership",
      "outputs": [],
      "stateMutability": "nonpayable",
      "type": "function"
    },
    {
      "inputs": [
        {
          "internalType": "address",
          "name": "from",
          "type": "address"
        },
        {
          "internalType": "address",
          "name": "to",
          "type": "address"
        },
        {
          "internalType": "uint256",
          "name": "tokenId",
          "type": "uint256"
        }
      ],
      "name": "safeTransferFrom",
      "outputs": [],
      "stateMutability": "nonpayable",
      "type": "function"
    },
    {
      "inputs": [
        {
          "internalType": "address",
          "name": "from",
          "type": "address"
        },
        {
          "internalType": "address",
          "name": "to",
          "type": "address"
        },
        {
          "internalType": "uint256",
          "name": "tokenId",
          "type": "uint256"
        },
        {
          "internalType": "bytes",
          "name": "_data",
          "type": "bytes"
        }
      ],
      "name": "safeTransferFrom",
      "outputs": [],
      "stateMutability": "nonpayable",
      "type": "function"
    },
    {
      "inputs": [
        {
          "internalType": "address",
          "name": "operator",
          "type": "address"
        },
        {
          "internalType": "bool",
          "name": "approved",
          "type": "bool"
        }
      ],
      "name": "setApprovalForAll",
      "outputs": [],
      "stateMutability": "nonpayable",
      "type": "function"
    },
    {
      "inputs": [
        {
          "internalType": "bytes4",
          "name": "interfaceId",
          "type": "bytes4"
        }
      ],
      "name": "supportsInterface",
      "outputs": [
        {
          "internalType": "bool",
          "name": "",
          "type": "bool"
        }
      ],
      "stateMutability": "view",
      "type": "function",
      "constant": true
    },
    {
      "inputs": [],
      "name": "symbol",
      "outputs": [
        {
          "internalType": "string",
          "name": "",
          "type": "string"
        }
      ],
      "stateMutability": "view",
      "type": "function",
      "constant": true
    },
    {
      "inputs": [
        {
          "internalType": "address",
          "name": "from",
          "type": "address"
        },
        {
          "internalType": "address",
          "name": "to",
          "type": "address"
        },
        {
          "internalType": "uint256",
          "name": "tokenId",
          "type": "uint256"
        }
      ],
      "name": "transferFrom",
      "outputs": [],
      "stateMutability": "nonpayable",
      "type": "function"
    },
    {
      "inputs": [
        {
          "internalType": "address",
          "name": "newOwner",
          "type": "address"
        }
      ],
      "name": "transferOwnership",
      "outputs": [],
      "stateMutability": "nonpayable",
      "type": "function"
    },
    {
      "inputs": [],
      "name": "pause",
      "outputs": [],
      "stateMutability": "nonpayable",
      "type": "function"
    },
    {
      "inputs": [],
      "name": "unpause",
      "outputs": [],
      "stateMutability": "nonpayable",
      "type": "function"
    },
    {
      "inputs": [],
      "name": "getRemainingMints",
      "outputs": [
        {
          "internalType": "uint256",
          "name": "",
          "type": "uint256"
        }
      ],
      "stateMutability": "view",
      "type": "function",
      "constant": true
    },
    {
      "inputs": [],
      "name": "getTotalNFTsMintedSoFar",
      "outputs": [
        {
          "internalType": "uint256",
          "name": "",
          "type": "uint256"
        }
      ],
      "stateMutability": "view",
      "type": "function",
      "constant": true
    },
    {
      "inputs": [
        {
          "internalType": "uint256",
          "name": "tokenId",
          "type": "uint256"
        }
      ],
      "name": "tokenURI",
      "outputs": [
        {
          "internalType": "string",
          "name": "",
          "type": "string"
        }
      ],
      "stateMutability": "view",
      "type": "function",
      "constant": true
    },
    {
      "inputs": [],
      "name": "mintNFT",
      "outputs": [],
      "stateMutability": "nonpayable",
      "type": "function"
    }
  ],
  "bytecode": "0x6080604052610bb860085560405180610100016040528060d38152602001620052ce60d39139600a90805190602001906200003c9291906200093b565b50604051806080016040528060568152602001620053a160569139600b90805190602001906200006e9291906200093b565b506040518060c001604052806040518060400160405280600581526020017f536c69636b00000000000000000000000000000000000000000000000000000081525081526020016040518060400160405280600781526020017f536c6964696e670000000000000000000000000000000000000000000000000081525081526020016040518060400160405280600881526020017f466c617070696e6700000000000000000000000000000000000000000000000081525081526020016040518060400160405280600881526020017f466c697070696e6700000000000000000000000000000000000000000000000081525081526020016040518060400160405280600781526020017f536f6464696e670000000000000000000000000000000000000000000000000081525081526020016040518060400160405280600881526020017f57686f7070696e67000000000000000000000000000000000000000000000000815250815250600c906006620001ec929190620009cc565b506040518060c001604052806040518060400160405280600681526020017f466c616e6765000000000000000000000000000000000000000000000000000081525081526020016040518060400160405280600681526020017f53696d706c65000000000000000000000000000000000000000000000000000081525081526020016040518060400160405280600881526020017f4372617070696e6700000000000000000000000000000000000000000000000081525081526020016040518060400160405280600981526020017f48756d6f6e676f7573000000000000000000000000000000000000000000000081525081526020016040518060400160405280600681526020017f536c69707079000000000000000000000000000000000000000000000000000081525081526020016040518060400160405280600381526020017f6661740000000000000000000000000000000000000000000000000000000000815250815250600d9060066200036a929190620009cc565b506040518060c001604052806040518060400160405280600581526020017f4d6f6e677900000000000000000000000000000000000000000000000000000081525081526020016040518060400160405280600781526020017f436162626167650000000000000000000000000000000000000000000000000081525081526020016040518060400160405280600781526020017f4c6574747563650000000000000000000000000000000000000000000000000081525081526020016040518060400160405280600681526020017f5475726e6970000000000000000000000000000000000000000000000000000081525081526020016040518060400160405280600681526020017f467269646765000000000000000000000000000000000000000000000000000081525081526020016040518060400160405280600681526020017f436172726f740000000000000000000000000000000000000000000000000000815250815250600e906006620004e8929190620009cc565b506040518060c001604052806040518060400160405280600381526020017f726564000000000000000000000000000000000000000000000000000000000081525081526020016040518060400160405280600781526020017f233038433241380000000000000000000000000000000000000000000000000081525081526020016040518060400160405280600581526020017f626c61636b00000000000000000000000000000000000000000000000000000081525081526020016040518060400160405280600681526020017f79656c6c6f77000000000000000000000000000000000000000000000000000081525081526020016040518060400160405280600481526020017f626c75650000000000000000000000000000000000000000000000000000000081525081526020016040518060400160405280600581526020017f677265656e000000000000000000000000000000000000000000000000000000815250815250600f90600662000666929190620009cc565b503480156200067457600080fd5b506040518060400160405280600981526020017f5371756172654e465400000000000000000000000000000000000000000000008152506040518060400160405280600681526020017f53515541524500000000000000000000000000000000000000000000000000008152508160009080519060200190620006f99291906200093b565b508060019080519060200190620007129291906200093b565b5050506000600760006101000a81548160ff0219169083151502179055506200075062000744620007a160201b60201c565b620007a960201b60201c565b6200079b6040518060400160405280601e81526020017f54686973206973206d79204e465420636f6e74726163742e20576f61682100008152506200086f60201b620012671760201c565b62000bed565b600033905090565b6000600760019054906101000a900473ffffffffffffffffffffffffffffffffffffffff16905081600760016101000a81548173ffffffffffffffffffffffffffffffffffffffff021916908373ffffffffffffffffffffffffffffffffffffffff1602179055508173ffffffffffffffffffffffffffffffffffffffff168173ffffffffffffffffffffffffffffffffffffffff167f8be0079c531659141344cd1fd0a4f28419497f9722a3daafe3b4186f6b6457e060405160405180910390a35050565b6200090f8160405160240162000886919062000b64565b6040516020818303038152906040527f41304fac000000000000000000000000000000000000000000000000000000007bffffffffffffffffffffffffffffffffffffffffffffffffffffffff19166020820180517bffffffffffffffffffffffffffffffffffffffffffffffffffffffff83818316178352505050506200091260201b60201c565b50565b60008151905060006a636f6e736f6c652e6c6f679050602083016000808483855afa5050505050565b828054620009499062000bb7565b90600052602060002090601f0160209004810192826200096d5760008555620009b9565b82601f106200098857805160ff1916838001178555620009b9565b82800160010185558215620009b9579182015b82811115620009b85782518255916020019190600101906200099b565b5b509050620009c8919062000a33565b5090565b82805482825590600052602060002090810192821562000a20579160200282015b8281111562000a1f57825182908051906020019062000a0e9291906200093b565b5091602001919060010190620009ed565b5b50905062000a2f919062000a52565b5090565b5b8082111562000a4e57600081600090555060010162000a34565b5090565b5b8082111562000a76576000818162000a6c919062000a7a565b5060010162000a53565b5090565b50805462000a889062000bb7565b6000825580601f1062000a9c575062000abd565b601f01602090049060005260206000209081019062000abc919062000a33565b5b50565b600081519050919050565b600082825260208201905092915050565b60005b8381101562000afc57808201518184015260208101905062000adf565b8381111562000b0c576000848401525b50505050565b6000601f19601f8301169050919050565b600062000b308262000ac0565b62000b3c818562000acb565b935062000b4e81856020860162000adc565b62000b598162000b12565b840191505092915050565b6000602082019050818103600083015262000b80818462000b23565b905092915050565b7f4e487b7100000000000000000000000000000000000000000000000000000000600052602260045260246000fd5b6000600282049050600182168062000bd057607f821691505b6020821081141562000be75762000be662000b88565b5b50919050565b6146d18062000bfd6000396000f3fe608060405234801561001057600080fd5b506004361061014d5760003560e01c806370a08231116100c3578063b6b6f0c31161007c578063b6b6f0c314610340578063b88d4fde1461035e578063c87b56dd1461037a578063e985e9c5146103aa578063f2fde38b146103da578063fd02c239146103f65761014d565b806370a08231146102a4578063715018a6146102d45780638456cb59146102de5780638da5cb5b146102e857806395d89b4114610306578063a22cb465146103245761014d565b806314f710fe1161011557806314f710fe1461020a57806323b872dd146102145780633f4ba83a1461023057806342842e0e1461023a5780635c975abb146102565780636352211e146102745761014d565b806301ffc9a714610152578063060475901461018257806306fdde03146101a0578063081812fc146101be578063095ea7b3146101ee575b600080fd5b61016c60048036038101906101679190612c2d565b610414565b6040516101799190612c75565b60405180910390f35b61018a6104f6565b6040516101979190612ca9565b60405180910390f35b6101a8610507565b6040516101b59190612d5d565b60405180910390f35b6101d860048036038101906101d39190612dab565b610599565b6040516101e59190612e19565b60405180910390f35b61020860048036038101906102039190612e60565b61061e565b005b610212610736565b005b61022e60048036038101906102299190612ea0565b610a71565b005b610238610ad1565b005b610254600480360381019061024f9190612ea0565b610b57565b005b61025e610b77565b60405161026b9190612c75565b60405180910390f35b61028e60048036038101906102899190612dab565b610b8e565b60405161029b9190612e19565b60405180910390f35b6102be60048036038101906102b99190612ef3565b610c40565b6040516102cb9190612ca9565b60405180910390f35b6102dc610cf8565b005b6102e6610d80565b005b6102f0610e06565b6040516102fd9190612e19565b60405180910390f35b61030e610e30565b60405161031b9190612d5d565b60405180910390f35b61033e60048036038101906103399190612f4c565b610ec2565b005b610348611043565b6040516103559190612ca9565b60405180910390f35b610378600480360381019061037391906130c1565b611049565b005b610394600480360381019061038f9190612dab565b6110ab565b6040516103a19190612d5d565b60405180910390f35b6103c460048036038101906103bf9190613144565b6110bd565b6040516103d19190612c75565b60405180910390f35b6103f460048036038101906103ef9190612ef3565b611151565b005b6103fe611249565b60405161040b9190612ca9565b60405180910390f35b60007f80ac58cd000000000000000000000000000000000000000000000000000000007bffffffffffffffffffffffffffffffffffffffffffffffffffffffff1916827bffffffffffffffffffffffffffffffffffffffffffffffffffffffff191614806104df57507f5b5e139f000000000000000000000000000000000000000000000000000000007bffffffffffffffffffffffffffffffffffffffffffffffffffffffff1916827bffffffffffffffffffffffffffffffffffffffffffffffffffffffff1916145b806104ef57506104ee82611300565b5b9050919050565b6000610502600961136a565b905090565b606060008054610516906131b3565b80601f0160208091040260200160405190810160405280929190818152602001828054610542906131b3565b801561058f5780601f106105645761010080835404028352916020019161058f565b820191906000526020600020905b81548152906001019060200180831161057257829003601f168201915b5050505050905090565b60006105a482611378565b6105e3576040517f08c379a00000000000000000000000000000000000000000000000000000000081526004016105da90613257565b60405180910390fd5b6004600083815260200190815260200160002060009054906101000a900473ffffffffffffffffffffffffffffffffffffffff169050919050565b600061062982610b8e565b90508073ffffffffffffffffffffffffffffffffffffffff168373ffffffffffffffffffffffffffffffffffffffff16141561069a576040517f08c379a0000000000000000000000000000000000000000000000000000000008152600401610691906132e9565b60405180910390fd5b8073ffffffffffffffffffffffffffffffffffffffff166106b96113e4565b73ffffffffffffffffffffffffffffffffffffffff1614806106e857506106e7816106e26113e4565b6110bd565b5b610727576040517f08c379a000000000000000000000000000000000000000000000000000000000815260040161071e9061337b565b60405180910390fd5b61073183836113ec565b505050565b600854610743600961136a565b1115610784576040517f08c379a000000000000000000000000000000000000000000000000000000000815260040161077b906133e7565b60405180910390fd5b6000610790600961136a565b9050600061079d826114a5565b905060006107aa8361159d565b905060006107b784611695565b905060008383836040516020016107d093929190613443565b60405160208183030381529060405290506108206040518060400160405280600e81526020017f636f6d62696e6564576f72643a2000000000000000000000000000000000000081525082611871565b600061082b8661190d565b90506000600a82600b856040516020016108489493929190613554565b60405160208183030381529060405290506108986040518060400160405280600a81526020017f66696e616c5376673a200000000000000000000000000000000000000000000081525082611871565b60006108cc846108a784611a05565b6040516020016108b89291906136f3565b604051602081830303815290604052611a05565b905061090d6040518060400160405280601581526020017f42415345363420656e636f646564204a534f4e3a20000000000000000000000081525082611871565b6000816040516020016109209190613784565b60405160208183030381529060405290506109706040518060400160405280600f81526020017f66696e616c546f6b656e5572693a20000000000000000000000000000000000081525082611871565b6109ae6040518060400160405280601581526020017f0a2d2d2d2d2d2d2d2d2d2d2d2d2d2d2d2d2d2d2d2d0000000000000000000000815250611267565b6109ec6040518060400160405280601581526020017f2d2d2d2d2d2d2d2d2d2d2d2d2d2d2d2d2d2d2d2d0a0000000000000000000000815250611267565b6109f6338a611b9d565b610a008982611bbb565b610a0a6009611c2f565b610a2d604051806060016040528060278152602001614675602791398a33611c45565b7febb98688741ffa4c7589bf325de30cf7becb63de567842e1ccdb6cb949fdc82c338a604051610a5e9291906137a6565b60405180910390a1505050505050505050565b610a82610a7c6113e4565b82611ce4565b610ac1576040517f08c379a0000000000000000000000000000000000000000000000000000000008152600401610ab890613841565b60405180910390fd5b610acc838383611dc2565b505050565b610ad96113e4565b73ffffffffffffffffffffffffffffffffffffffff16610af7610e06565b73ffffffffffffffffffffffffffffffffffffffff1614610b4d576040517f08c379a0000000000000000000000000000000000000000000000000000000008152600401610b44906138ad565b60405180910390fd5b610b5561201e565b565b610b7283838360405180602001604052806000815250611049565b505050565b6000600760009054906101000a900460ff16905090565b6000806002600084815260200190815260200160002060009054906101000a900473ffffffffffffffffffffffffffffffffffffffff169050600073ffffffffffffffffffffffffffffffffffffffff168173ffffffffffffffffffffffffffffffffffffffff161415610c37576040517f08c379a0000000000000000000000000000000000000000000000000000000008152600401610c2e9061393f565b60405180910390fd5b80915050919050565b60008073ffffffffffffffffffffffffffffffffffffffff168273ffffffffffffffffffffffffffffffffffffffff161415610cb1576040517f08c379a0000000000000000000000000000000000000000000000000000000008152600401610ca8906139d1565b60405180910390fd5b600360008373ffffffffffffffffffffffffffffffffffffffff1673ffffffffffffffffffffffffffffffffffffffff168152602001908152602001600020549050919050565b610d006113e4565b73ffffffffffffffffffffffffffffffffffffffff16610d1e610e06565b73ffffffffffffffffffffffffffffffffffffffff1614610d74576040517f08c379a0000000000000000000000000000000000000000000000000000000008152600401610d6b906138ad565b60405180910390fd5b610d7e60006120c0565b565b610d886113e4565b73ffffffffffffffffffffffffffffffffffffffff16610da6610e06565b73ffffffffffffffffffffffffffffffffffffffff1614610dfc576040517f08c379a0000000000000000000000000000000000000000000000000000000008152600401610df3906138ad565b60405180910390fd5b610e04612186565b565b6000600760019054906101000a900473ffffffffffffffffffffffffffffffffffffffff16905090565b606060018054610e3f906131b3565b80601f0160208091040260200160405190810160405280929190818152602001828054610e6b906131b3565b8015610eb85780601f10610e8d57610100808354040283529160200191610eb8565b820191906000526020600020905b815481529060010190602001808311610e9b57829003601f168201915b5050505050905090565b610eca6113e4565b73ffffffffffffffffffffffffffffffffffffffff168273ffffffffffffffffffffffffffffffffffffffff161415610f38576040517f08c379a0000000000000000000000000000000000000000000000000000000008152600401610f2f90613a3d565b60405180910390fd5b8060056000610f456113e4565b73ffffffffffffffffffffffffffffffffffffffff1673ffffffffffffffffffffffffffffffffffffffff16815260200190815260200160002060008473ffffffffffffffffffffffffffffffffffffffff1673ffffffffffffffffffffffffffffffffffffffff16815260200190815260200160002060006101000a81548160ff0219169083151502179055508173ffffffffffffffffffffffffffffffffffffffff16610ff26113e4565b73ffffffffffffffffffffffffffffffffffffffff167f17307eab39ab6107e8899845ad3d59bd9653f200f220920489ca2b5937696c31836040516110379190612c75565b60405180910390a35050565b60085481565b61105a6110546113e4565b83611ce4565b611099576040517f08c379a000000000000000000000000000000000000000000000000000000000815260040161109090613841565b60405180910390fd5b6110a584848484612229565b50505050565b60606110b682612285565b9050919050565b6000600560008473ffffffffffffffffffffffffffffffffffffffff1673ffffffffffffffffffffffffffffffffffffffff16815260200190815260200160002060008373ffffffffffffffffffffffffffffffffffffffff1673ffffffffffffffffffffffffffffffffffffffff16815260200190815260200160002060009054906101000a900460ff16905092915050565b6111596113e4565b73ffffffffffffffffffffffffffffffffffffffff16611177610e06565b73ffffffffffffffffffffffffffffffffffffffff16146111cd576040517f08c379a00000000000000000000000000000000000000000000000000000000081526004016111c4906138ad565b60405180910390fd5b600073ffffffffffffffffffffffffffffffffffffffff168173ffffffffffffffffffffffffffffffffffffffff16141561123d576040517f08c379a000000000000000000000000000000000000000000000000000000000815260040161123490613acf565b60405180910390fd5b611246816120c0565b50565b6000611255600961136a565b6008546112629190613b1e565b905090565b6112fd8160405160240161127b9190612d5d565b6040516020818303038152906040527f41304fac000000000000000000000000000000000000000000000000000000007bffffffffffffffffffffffffffffffffffffffffffffffffffffffff19166020820180517bffffffffffffffffffffffffffffffffffffffffffffffffffffffff83818316178352505050506123d7565b50565b60007f01ffc9a7000000000000000000000000000000000000000000000000000000007bffffffffffffffffffffffffffffffffffffffffffffffffffffffff1916827bffffffffffffffffffffffffffffffffffffffffffffffffffffffff1916149050919050565b600081600001549050919050565b60008073ffffffffffffffffffffffffffffffffffffffff166002600084815260200190815260200160002060009054906101000a900473ffffffffffffffffffffffffffffffffffffffff1673ffffffffffffffffffffffffffffffffffffffff1614159050919050565b600033905090565b816004600083815260200190815260200160002060006101000a81548173ffffffffffffffffffffffffffffffffffffffff021916908373ffffffffffffffffffffffffffffffffffffffff160217905550808273ffffffffffffffffffffffffffffffffffffffff1661145f83610b8e565b73ffffffffffffffffffffffffffffffffffffffff167f8c5be1e5ebec7d5bd14f71427d1e84f3dd0314c0f7b2291e5b200ac8c7c3b92560405160405180910390a45050565b606060006114d96114b584612400565b6040516020016114c59190613b9e565b604051602081830303815290604052612561565b9050600c80549050816114ec9190613bef565b9050600c818154811061150257611501613c20565b5b906000526020600020018054611517906131b3565b80601f0160208091040260200160405190810160405280929190818152602001828054611543906131b3565b80156115905780601f1061156557610100808354040283529160200191611590565b820191906000526020600020905b81548152906001019060200180831161157357829003601f168201915b5050505050915050919050565b606060006115d16115ad84612400565b6040516020016115bd9190613c9b565b604051602081830303815290604052612561565b9050600d80549050816115e49190613bef565b9050600d81815481106115fa576115f9613c20565b5b90600052602060002001805461160f906131b3565b80601f016020809104026020016040519081016040528092919081815260200182805461163b906131b3565b80156116885780601f1061165d57610100808354040283529160200191611688565b820191906000526020600020905b81548152906001019060200180831161166b57829003601f168201915b5050505050915050919050565b60606116fd6040518060400160405280600d81526020017f52616e646f6d20536565643a20000000000000000000000000000000000000008152506116d984612400565b6040516020016116e99190613d09565b604051602081830303815290604052611871565b600061172f61170b84612400565b60405160200161171b9190613d09565b604051602081830303815290604052612561565b90506117706040518060400160405280601a81526020017f7069636b52616e646f6d5468697264576f72642072616e643a2000000000000081525082612594565b600e80549050816117819190613bef565b90506117c26040518060400160405280601a81526020017f7069636b52616e646f6d5468697264576f72642072616e643a2000000000000081525082612594565b600e81815481106117d6576117d5613c20565b5b9060005260206000200180546117eb906131b3565b80601f0160208091040260200160405190810160405280929190818152602001828054611817906131b3565b80156118645780601f1061183957610100808354040283529160200191611864565b820191906000526020600020905b81548152906001019060200180831161184757829003601f168201915b5050505050915050919050565b6119098282604051602401611887929190613d2b565b6040516020818303038152906040527f4b5c4277000000000000000000000000000000000000000000000000000000007bffffffffffffffffffffffffffffffffffffffffffffffffffffffff19166020820180517bffffffffffffffffffffffffffffffffffffffffffffffffffffffff83818316178352505050506123d7565b5050565b6060600061194161191d84612400565b60405160200161192d9190613dae565b604051602081830303815290604052612561565b9050600f80549050816119549190613bef565b9050600f818154811061196a57611969613c20565b5b90600052602060002001805461197f906131b3565b80601f01602080910402602001604051908101604052809291908181526020018280546119ab906131b3565b80156119f85780601f106119cd576101008083540402835291602001916119f8565b820191906000526020600020905b8154815290600101906020018083116119db57829003601f168201915b5050505050915050919050565b60606000825190506000811415611a2e5760405180602001604052806000815250915050611b98565b60006003600283611a3f9190613dd0565b611a499190613e26565b6004611a559190613e57565b90506000602082611a669190613dd0565b67ffffffffffffffff811115611a7f57611a7e612f96565b5b6040519080825280601f01601f191660200182016040528015611ab15781602001600182028036833780820191505090505b5090506000604051806060016040528060408152602001614635604091399050600181016020830160005b86811015611b555760038101905062ffffff818a015116603f8160121c168401518060081b905060ff603f83600c1c1686015116810190508060081b905060ff603f8360061c1686015116810190508060081b905060ff603f831686015116810190508060e01b90508084526004840193505050611adc565b506003860660018114611b6f5760028114611b7f57611b8a565b613d3d60f01b6002830352611b8a565b603d60f81b60018303525b508484525050819450505050505b919050565b611bb7828260405180602001604052806000815250612630565b5050565b611bc482611378565b611c03576040517f08c379a0000000000000000000000000000000000000000000000000000000008152600401611bfa90613f23565b60405180910390fd5b80600660008481526020019081526020016000209080519060200190611c2a929190612b1e565b505050565b6001816000016000828254019250508190555050565b611cdf838383604051602401611c5d93929190613f43565b6040516020818303038152906040527fe3849f79000000000000000000000000000000000000000000000000000000007bffffffffffffffffffffffffffffffffffffffffffffffffffffffff19166020820180517bffffffffffffffffffffffffffffffffffffffffffffffffffffffff83818316178352505050506123d7565b505050565b6000611cef82611378565b611d2e576040517f08c379a0000000000000000000000000000000000000000000000000000000008152600401611d2590613ff3565b60405180910390fd5b6000611d3983610b8e565b90508073ffffffffffffffffffffffffffffffffffffffff168473ffffffffffffffffffffffffffffffffffffffff161480611da857508373ffffffffffffffffffffffffffffffffffffffff16611d9084610599565b73ffffffffffffffffffffffffffffffffffffffff16145b80611db95750611db881856110bd565b5b91505092915050565b8273ffffffffffffffffffffffffffffffffffffffff16611de282610b8e565b73ffffffffffffffffffffffffffffffffffffffff1614611e38576040517f08c379a0000000000000000000000000000000000000000000000000000000008152600401611e2f90614085565b60405180910390fd5b600073ffffffffffffffffffffffffffffffffffffffff168273ffffffffffffffffffffffffffffffffffffffff161415611ea8576040517f08c379a0000000000000000000000000000000000000000000000000000000008152600401611e9f90614117565b60405180910390fd5b611eb383838361268b565b611ebe6000826113ec565b6001600360008573ffffffffffffffffffffffffffffffffffffffff1673ffffffffffffffffffffffffffffffffffffffff1681526020019081526020016000206000828254611f0e9190613b1e565b925050819055506001600360008473ffffffffffffffffffffffffffffffffffffffff1673ffffffffffffffffffffffffffffffffffffffff1681526020019081526020016000206000828254611f659190613dd0565b92505081905550816002600083815260200190815260200160002060006101000a81548173ffffffffffffffffffffffffffffffffffffffff021916908373ffffffffffffffffffffffffffffffffffffffff160217905550808273ffffffffffffffffffffffffffffffffffffffff168473ffffffffffffffffffffffffffffffffffffffff167fddf252ad1be2c89b69c2b068fc378daa952ba7f163c4a11628f55a4df523b3ef60405160405180910390a4505050565b612026610b77565b612065576040517f08c379a000000000000000000000000000000000000000000000000000000000815260040161205c90614183565b60405180910390fd5b6000600760006101000a81548160ff0219169083151502179055507f5db9ee0a495bf2e6ff9c91a7834c1ba4fdd244a5e8aa4e537bd38aeae4b073aa6120a96113e4565b6040516120b69190612e19565b60405180910390a1565b6000600760019054906101000a900473ffffffffffffffffffffffffffffffffffffffff16905081600760016101000a81548173ffffffffffffffffffffffffffffffffffffffff021916908373ffffffffffffffffffffffffffffffffffffffff1602179055508173ffffffffffffffffffffffffffffffffffffffff168173ffffffffffffffffffffffffffffffffffffffff167f8be0079c531659141344cd1fd0a4f28419497f9722a3daafe3b4186f6b6457e060405160405180910390a35050565b61218e610b77565b156121ce576040517f08c379a00000000000000000000000000000000000000000000000000000000081526004016121c5906141ef565b60405180910390fd5b6001600760006101000a81548160ff0219169083151502179055507f62e78cea01bee320cd4e420270b5ea74000d11b0c9f74754ebdbfc544b05a2586122126113e4565b60405161221f9190612e19565b60405180910390a1565b612234848484611dc2565b612240848484846126e3565b61227f576040517f08c379a000000000000000000000000000000000000000000000000000000000815260040161227690614281565b60405180910390fd5b50505050565b606061229082611378565b6122cf576040517f08c379a00000000000000000000000000000000000000000000000000000000081526004016122c690614313565b60405180910390fd5b60006006600084815260200190815260200160002080546122ef906131b3565b80601f016020809104026020016040519081016040528092919081815260200182805461231b906131b3565b80156123685780601f1061233d57610100808354040283529160200191612368565b820191906000526020600020905b81548152906001019060200180831161234b57829003601f168201915b50505050509050600061237961287a565b905060008151141561238f5781925050506123d2565b6000825111156123c45780826040516020016123ac929190614333565b604051602081830303815290604052925050506123d2565b6123cd84612891565b925050505b919050565b60008151905060006a636f6e736f6c652e6c6f679050602083016000808483855afa5050505050565b60606000821415612448576040518060400160405280600181526020017f3000000000000000000000000000000000000000000000000000000000000000815250905061255c565b600082905060005b6000821461247a57808061246390614357565b915050600a826124739190613e26565b9150612450565b60008167ffffffffffffffff81111561249657612495612f96565b5b6040519080825280601f01601f1916602001820160405280156124c85781602001600182028036833780820191505090505b5090505b60008514612555576001826124e19190613b1e565b9150600a856124f09190613bef565b60306124fc9190613dd0565b60f81b81838151811061251257612511613c20565b5b60200101907effffffffffffffffffffffffffffffffffffffffffffffffffffffffffffff1916908160001a905350600a8561254e9190613e26565b94506124cc565b8093505050505b919050565b60008160405160200161257491906143a0565b6040516020818303038152906040528051906020012060001c9050919050565b61262c82826040516024016125aa9291906143b7565b6040516020818303038152906040527f9710a9d0000000000000000000000000000000000000000000000000000000007bffffffffffffffffffffffffffffffffffffffffffffffffffffffff19166020820180517bffffffffffffffffffffffffffffffffffffffffffffffffffffffff83818316178352505050506123d7565b5050565b61263a8383612938565b61264760008484846126e3565b612686576040517f08c379a000000000000000000000000000000000000000000000000000000000815260040161267d90614281565b60405180910390fd5b505050565b612693610b77565b156126d3576040517f08c379a00000000000000000000000000000000000000000000000000000000081526004016126ca906141ef565b60405180910390fd5b6126de838383612b06565b505050565b60006127048473ffffffffffffffffffffffffffffffffffffffff16612b0b565b1561286d578373ffffffffffffffffffffffffffffffffffffffff1663150b7a0261272d6113e4565b8786866040518563ffffffff1660e01b815260040161274f949392919061443c565b602060405180830381600087803b15801561276957600080fd5b505af192505050801561279a57506040513d601f19601f82011682018060405250810190612797919061449d565b60015b61281d573d80600081146127ca576040519150601f19603f3d011682016040523d82523d6000602084013e6127cf565b606091505b50600081511415612815576040517f08c379a000000000000000000000000000000000000000000000000000000000815260040161280c90614281565b60405180910390fd5b805181602001fd5b63150b7a0260e01b7bffffffffffffffffffffffffffffffffffffffffffffffffffffffff1916817bffffffffffffffffffffffffffffffffffffffffffffffffffffffff191614915050612872565b600190505b949350505050565b606060405180602001604052806000815250905090565b606061289c82611378565b6128db576040517f08c379a00000000000000000000000000000000000000000000000000000000081526004016128d29061453c565b60405180910390fd5b60006128e561287a565b905060008151116129055760405180602001604052806000815250612930565b8061290f84612400565b604051602001612920929190614333565b6040516020818303038152906040525b915050919050565b600073ffffffffffffffffffffffffffffffffffffffff168273ffffffffffffffffffffffffffffffffffffffff1614156129a8576040517f08c379a000000000000000000000000000000000000000000000000000000000815260040161299f906145a8565b60405180910390fd5b6129b181611378565b156129f1576040517f08c379a00000000000000000000000000000000000000000000000000000000081526004016129e890614614565b60405180910390fd5b6129fd6000838361268b565b6001600360008473ffffffffffffffffffffffffffffffffffffffff1673ffffffffffffffffffffffffffffffffffffffff1681526020019081526020016000206000828254612a4d9190613dd0565b92505081905550816002600083815260200190815260200160002060006101000a81548173ffffffffffffffffffffffffffffffffffffffff021916908373ffffffffffffffffffffffffffffffffffffffff160217905550808273ffffffffffffffffffffffffffffffffffffffff16600073ffffffffffffffffffffffffffffffffffffffff167fddf252ad1be2c89b69c2b068fc378daa952ba7f163c4a11628f55a4df523b3ef60405160405180910390a45050565b505050565b600080823b905060008111915050919050565b828054612b2a906131b3565b90600052602060002090601f016020900481019282612b4c5760008555612b93565b82601f10612b6557805160ff1916838001178555612b93565b82800160010185558215612b93579182015b82811115612b92578251825591602001919060010190612b77565b5b509050612ba09190612ba4565b5090565b5b80821115612bbd576000816000905550600101612ba5565b5090565b6000604051905090565b600080fd5b600080fd5b60007fffffffff0000000000000000000000000000000000000000000000000000000082169050919050565b612c0a81612bd5565b8114612c1557600080fd5b50565b600081359050612c2781612c01565b92915050565b600060208284031215612c4357612c42612bcb565b5b6000612c5184828501612c18565b91505092915050565b60008115159050919050565b612c6f81612c5a565b82525050565b6000602082019050612c8a6000830184612c66565b92915050565b6000819050919050565b612ca381612c90565b82525050565b6000602082019050612cbe6000830184612c9a565b92915050565b600081519050919050565b600082825260208201905092915050565b60005b83811015612cfe578082015181840152602081019050612ce3565b83811115612d0d576000848401525b50505050565b6000601f19601f8301169050919050565b6000612d2f82612cc4565b612d398185612ccf565b9350612d49818560208601612ce0565b612d5281612d13565b840191505092915050565b60006020820190508181036000830152612d778184612d24565b905092915050565b612d8881612c90565b8114612d9357600080fd5b50565b600081359050612da581612d7f565b92915050565b600060208284031215612dc157612dc0612bcb565b5b6000612dcf84828501612d96565b91505092915050565b600073ffffffffffffffffffffffffffffffffffffffff82169050919050565b6000612e0382612dd8565b9050919050565b612e1381612df8565b82525050565b6000602082019050612e2e6000830184612e0a565b92915050565b612e3d81612df8565b8114612e4857600080fd5b50565b600081359050612e5a81612e34565b92915050565b60008060408385031215612e7757612e76612bcb565b5b6000612e8585828601612e4b565b9250506020612e9685828601612d96565b9150509250929050565b600080600060608486031215612eb957612eb8612bcb565b5b6000612ec786828701612e4b565b9350506020612ed886828701612e4b565b9250506040612ee986828701612d96565b9150509250925092565b600060208284031215612f0957612f08612bcb565b5b6000612f1784828501612e4b565b91505092915050565b612f2981612c5a565b8114612f3457600080fd5b50565b600081359050612f4681612f20565b92915050565b60008060408385031215612f6357612f62612bcb565b5b6000612f7185828601612e4b565b9250506020612f8285828601612f37565b9150509250929050565b600080fd5b600080fd5b7f4e487b7100000000000000000000000000000000000000000000000000000000600052604160045260246000fd5b612fce82612d13565b810181811067ffffffffffffffff82111715612fed57612fec612f96565b5b80604052505050565b6000613000612bc1565b905061300c8282612fc5565b919050565b600067ffffffffffffffff82111561302c5761302b612f96565b5b61303582612d13565b9050602081019050919050565b82818337600083830152505050565b600061306461305f84613011565b612ff6565b9050828152602081018484840111156130805761307f612f91565b5b61308b848285613042565b509392505050565b600082601f8301126130a8576130a7612f8c565b5b81356130b8848260208601613051565b91505092915050565b600080600080608085870312156130db576130da612bcb565b5b60006130e987828801612e4b565b94505060206130fa87828801612e4b565b935050604061310b87828801612d96565b925050606085013567ffffffffffffffff81111561312c5761312b612bd0565b5b61313887828801613093565b91505092959194509250565b6000806040838503121561315b5761315a612bcb565b5b600061316985828601612e4b565b925050602061317a85828601612e4b565b9150509250929050565b7f4e487b7100000000000000000000000000000000000000000000000000000000600052602260045260246000fd5b600060028204905060018216806131cb57607f821691505b602082108114156131df576131de613184565b5b50919050565b7f4552433732313a20617070726f76656420717565727920666f72206e6f6e657860008201527f697374656e7420746f6b656e0000000000000000000000000000000000000000602082015250565b6000613241602c83612ccf565b915061324c826131e5565b604082019050919050565b6000602082019050818103600083015261327081613234565b9050919050565b7f4552433732313a20617070726f76616c20746f2063757272656e74206f776e6560008201527f7200000000000000000000000000000000000000000000000000000000000000602082015250565b60006132d3602183612ccf565b91506132de82613277565b604082019050919050565b60006020820190508181036000830152613302816132c6565b9050919050565b7f4552433732313a20617070726f76652063616c6c6572206973206e6f74206f7760008201527f6e6572206e6f7220617070726f76656420666f7220616c6c0000000000000000602082015250565b6000613365603883612ccf565b915061337082613309565b604082019050919050565b6000602082019050818103600083015261339481613358565b9050919050565b7f546865726520617265206e6f204e465473206c65667420746f206d696e740000600082015250565b60006133d1601e83612ccf565b91506133dc8261339b565b602082019050919050565b60006020820190508181036000830152613400816133c4565b9050919050565b600081905092915050565b600061341d82612cc4565b6134278185613407565b9350613437818560208601612ce0565b80840191505092915050565b600061344f8286613412565b915061345b8285613412565b91506134678284613412565b9150819050949350505050565b60008190508160005260206000209050919050565b60008154613496816131b3565b6134a08186613407565b945060018216600081146134bb57600181146134cc576134ff565b60ff198316865281860193506134ff565b6134d585613474565b60005b838110156134f7578154818901526001820191506020810190506134d8565b838801955050505b50505092915050565b7f3c2f746578743e3c2f7376673e00000000000000000000000000000000000000600082015250565b600061353e600d83613407565b915061354982613508565b600d82019050919050565b60006135608287613489565b915061356c8286613412565b91506135788285613489565b91506135848284613412565b915061358f82613531565b915081905095945050505050565b7f7b226e616d65223a202200000000000000000000000000000000000000000000600082015250565b60006135d3600a83613407565b91506135de8261359d565b600a82019050919050565b7f222c20226465736372697074696f6e223a20224120686967686c79206163636c60008201527f61696d656420636f6c6c656374696f6e206f6620737175617265732e222c202260208201527f696d616765223a2022646174613a696d6167652f7376672b786d6c3b6261736560408201527f36342c0000000000000000000000000000000000000000000000000000000000606082015250565b6000613691606383613407565b915061369c826135e9565b606382019050919050565b7f227d000000000000000000000000000000000000000000000000000000000000600082015250565b60006136dd600283613407565b91506136e8826136a7565b600282019050919050565b60006136fe826135c6565b915061370a8285613412565b915061371582613684565b91506137218284613412565b915061372c826136d0565b91508190509392505050565b7f646174613a6170706c69636174696f6e2f6a736f6e3b6261736536342c000000600082015250565b600061376e601d83613407565b915061377982613738565b601d82019050919050565b600061378f82613761565b915061379b8284613412565b915081905092915050565b60006040820190506137bb6000830185612e0a565b6137c86020830184612c9a565b9392505050565b7f4552433732313a207472616e736665722063616c6c6572206973206e6f74206f60008201527f776e6572206e6f7220617070726f766564000000000000000000000000000000602082015250565b600061382b603183612ccf565b9150613836826137cf565b604082019050919050565b6000602082019050818103600083015261385a8161381e565b9050919050565b7f4f776e61626c653a2063616c6c6572206973206e6f7420746865206f776e6572600082015250565b6000613897602083612ccf565b91506138a282613861565b602082019050919050565b600060208201905081810360008301526138c68161388a565b9050919050565b7f4552433732313a206f776e657220717565727920666f72206e6f6e657869737460008201527f656e7420746f6b656e0000000000000000000000000000000000000000000000602082015250565b6000613929602983612ccf565b9150613934826138cd565b604082019050919050565b600060208201905081810360008301526139588161391c565b9050919050565b7f4552433732313a2062616c616e636520717565727920666f7220746865207a6560008201527f726f206164647265737300000000000000000000000000000000000000000000602082015250565b60006139bb602a83612ccf565b91506139c68261395f565b604082019050919050565b600060208201905081810360008301526139ea816139ae565b9050919050565b7f4552433732313a20617070726f766520746f2063616c6c657200000000000000600082015250565b6000613a27601983612ccf565b9150613a32826139f1565b602082019050919050565b60006020820190508181036000830152613a5681613a1a565b9050919050565b7f4f776e61626c653a206e6577206f776e657220697320746865207a65726f206160008201527f6464726573730000000000000000000000000000000000000000000000000000602082015250565b6000613ab9602683612ccf565b9150613ac482613a5d565b604082019050919050565b60006020820190508181036000830152613ae881613aac565b9050919050565b7f4e487b7100000000000000000000000000000000000000000000000000000000600052601160045260246000fd5b6000613b2982612c90565b9150613b3483612c90565b925082821015613b4757613b46613aef565b5b828203905092915050565b7f46495253545f574f524400000000000000000000000000000000000000000000600082015250565b6000613b88600a83613407565b9150613b9382613b52565b600a82019050919050565b6000613ba982613b7b565b9150613bb58284613412565b915081905092915050565b7f4e487b7100000000000000000000000000000000000000000000000000000000600052601260045260246000fd5b6000613bfa82612c90565b9150613c0583612c90565b925082613c1557613c14613bc0565b5b828206905092915050565b7f4e487b7100000000000000000000000000000000000000000000000000000000600052603260045260246000fd5b7f5345434f4e445f574f5244000000000000000000000000000000000000000000600082015250565b6000613c85600b83613407565b9150613c9082613c4f565b600b82019050919050565b6000613ca682613c78565b9150613cb28284613412565b915081905092915050565b7f54484952445f574f524400000000000000000000000000000000000000000000600082015250565b6000613cf3600a83613407565b9150613cfe82613cbd565b600a82019050919050565b6000613d1482613ce6565b9150613d208284613412565b915081905092915050565b60006040820190508181036000830152613d458185612d24565b90508181036020830152613d598184612d24565b90509392505050565b7f434f4c4f52000000000000000000000000000000000000000000000000000000600082015250565b6000613d98600583613407565b9150613da382613d62565b600582019050919050565b6000613db982613d8b565b9150613dc58284613412565b915081905092915050565b6000613ddb82612c90565b9150613de683612c90565b9250827fffffffffffffffffffffffffffffffffffffffffffffffffffffffffffffffff03821115613e1b57613e1a613aef565b5b828201905092915050565b6000613e3182612c90565b9150613e3c83612c90565b925082613e4c57613e4b613bc0565b5b828204905092915050565b6000613e6282612c90565b9150613e6d83612c90565b9250817fffffffffffffffffffffffffffffffffffffffffffffffffffffffffffffffff0483118215151615613ea657613ea5613aef565b5b828202905092915050565b7f45524337323155524953746f726167653a2055524920736574206f66206e6f6e60008201527f6578697374656e7420746f6b656e000000000000000000000000000000000000602082015250565b6000613f0d602e83612ccf565b9150613f1882613eb1565b604082019050919050565b60006020820190508181036000830152613f3c81613f00565b9050919050565b60006060820190508181036000830152613f5d8186612d24565b9050613f6c6020830185612c9a565b613f796040830184612e0a565b949350505050565b7f4552433732313a206f70657261746f7220717565727920666f72206e6f6e657860008201527f697374656e7420746f6b656e0000000000000000000000000000000000000000602082015250565b6000613fdd602c83612ccf565b9150613fe882613f81565b604082019050919050565b6000602082019050818103600083015261400c81613fd0565b9050919050565b7f4552433732313a207472616e73666572206f6620746f6b656e2074686174206960008201527f73206e6f74206f776e0000000000000000000000000000000000000000000000602082015250565b600061406f602983612ccf565b915061407a82614013565b604082019050919050565b6000602082019050818103600083015261409e81614062565b9050919050565b7f4552433732313a207472616e7366657220746f20746865207a65726f2061646460008201527f7265737300000000000000000000000000000000000000000000000000000000602082015250565b6000614101602483612ccf565b915061410c826140a5565b604082019050919050565b60006020820190508181036000830152614130816140f4565b9050919050565b7f5061757361626c653a206e6f7420706175736564000000000000000000000000600082015250565b600061416d601483612ccf565b915061417882614137565b602082019050919050565b6000602082019050818103600083015261419c81614160565b9050919050565b7f5061757361626c653a2070617573656400000000000000000000000000000000600082015250565b60006141d9601083612ccf565b91506141e4826141a3565b602082019050919050565b60006020820190508181036000830152614208816141cc565b9050919050565b7f4552433732313a207472616e7366657220746f206e6f6e20455243373231526560008201527f63656976657220696d706c656d656e7465720000000000000000000000000000602082015250565b600061426b603283612ccf565b91506142768261420f565b604082019050919050565b6000602082019050818103600083015261429a8161425e565b9050919050565b7f45524337323155524953746f726167653a2055524920717565727920666f722060008201527f6e6f6e6578697374656e7420746f6b656e000000000000000000000000000000602082015250565b60006142fd603183612ccf565b9150614308826142a1565b604082019050919050565b6000602082019050818103600083015261432c816142f0565b9050919050565b600061433f8285613412565b915061434b8284613412565b91508190509392505050565b600061436282612c90565b91507fffffffffffffffffffffffffffffffffffffffffffffffffffffffffffffffff82141561439557614394613aef565b5b600182019050919050565b60006143ac8284613412565b915081905092915050565b600060408201905081810360008301526143d18185612d24565b90506143e06020830184612c9a565b9392505050565b600081519050919050565b600082825260208201905092915050565b600061440e826143e7565b61441881856143f2565b9350614428818560208601612ce0565b61443181612d13565b840191505092915050565b60006080820190506144516000830187612e0a565b61445e6020830186612e0a565b61446b6040830185612c9a565b818103606083015261447d8184614403565b905095945050505050565b60008151905061449781612c01565b92915050565b6000602082840312156144b3576144b2612bcb565b5b60006144c184828501614488565b91505092915050565b7f4552433732314d657461646174613a2055524920717565727920666f72206e6f60008201527f6e6578697374656e7420746f6b656e0000000000000000000000000000000000602082015250565b6000614526602f83612ccf565b9150614531826144ca565b604082019050919050565b6000602082019050818103600083015261455581614519565b9050919050565b7f4552433732313a206d696e7420746f20746865207a65726f2061646472657373600082015250565b6000614592602083612ccf565b915061459d8261455c565b602082019050919050565b600060208201905081810360008301526145c181614585565b9050919050565b7f4552433732313a20746f6b656e20616c7265616479206d696e74656400000000600082015250565b60006145fe601c83612ccf565b9150614609826145c8565b602082019050919050565b6000602082019050818103600083015261462d816145f1565b905091905056fe4142434445464748494a4b4c4d4e4f505152535455565758595a6162636465666768696a6b6c6d6e6f707172737475767778797a303132333435363738392b2f416e204e4654207769746820494420257320686173206265656e206d696e74656420746f202573a264697066735822122092b09c35d8f99ebfedd4032f1983a712ed8957deaedbcf843a856131d2eac2c264736f6c634300080900333c73766720786d6c6e733d27687474703a2f2f7777772e77332e6f72672f323030302f73766727207072657365727665417370656374526174696f3d27784d696e594d696e206d656574272076696577426f783d273020302033353020333530273e3c7374796c653e2e62617365207b2066696c6c3a2077686974653b20666f6e742d66616d696c793a2073657269663b20666f6e742d73697a653a20323470783b207d3c2f7374796c653e3c726563742077696474683d273130302527206865696768743d2731303025272066696c6c3d27272f3e3c7465787420783d273530252720793d273530252720636c6173733d27626173652720646f6d696e616e742d626173656c696e653d276d6964646c652720746578742d616e63686f723d276d6964646c65273e",
  "immutableReferences": {},
  "source": "// SPDX-License-Identifier: MIT\npragma solidity ^0.8.0;\n\n// We first import some OpenZeppelin Contracts.\nimport \"@openzeppelin/contracts/utils/Strings.sol\";\nimport \"@openzeppelin/contracts/token/ERC721/ERC721.sol\";\nimport \"@openzeppelin/contracts/token/ERC721/extensions/ERC721URIStorage.sol\";\nimport \"@openzeppelin/contracts/utils/Counters.sol\";\nimport \"@openzeppelin/contracts/security/Pausable.sol\";\nimport \"@openzeppelin/contracts/access/Ownable.sol\";\nimport \"hardhat-console/contracts/console.sol\";\n\n// Import helper functions needed for Base62 encoding\nimport { Base64 } from \"./libraries/Base64.sol\";\n\ncontract NftMinter is ERC721, ERC721URIStorage, Pausable, Ownable {\n\n    uint public maxMints = 3000;\n\n    // Use OpenZeppelin utility to keep track of tokenIds\n    using Counters for Counters.Counter;\n    Counters.Counter private _tokenIds;\n\n    // We split the SVG at the part where it asks for the background color.\n    string svgPartOne = \"<svg xmlns='http://www.w3.org/2000/svg' preserveAspectRatio='xMinYMin meet' viewBox='0 0 350 350'><style>.base { fill: white; font-family: serif; font-size: 24px; }</style><rect width='100%' height='100%' fill='\";\n    string svgPartTwo = \"'/><text x='50%' y='50%' class='base' dominant-baseline='middle' text-anchor='middle'>\";\n\n    string[] firstWords = [\"Slick\", \"Sliding\", \"Flapping\", \"Flipping\", \"Sodding\", \"Whopping\"];\n    string[] secondWords = [\"Flange\", \"Simple\", \"Crapping\", \"Humongous\", \"Slippy\", \"fat\"];\n    string[] thirdWords = [\"Mongy\", \"Cabbage\", \"Lettuce\", \"Turnip\", \"Fridge\", \"Carrot\"];\n    string[] colors = [\"red\", \"#08C2A8\", \"black\", \"yellow\", \"blue\", \"green\"];\n\n    // define an event that canbe emitted after a mint\n    event NewEpicNFTMinted(address sender, uint256 tokenId);\n\n    constructor() ERC721(\"SquareNFT\", \"SQUARE\") { //ERC721URIStorage inherits from the ERC721 contract which requires arguments to be passed into its constructor. \n        console.log(\"This is my NFT contract. Woah!\");\n    }\n\n    function pause() public onlyOwner {\n        _pause();\n    }\n\n    function unpause() public onlyOwner {\n        _unpause();\n    }\n\n    function _beforeTokenTransfer(address from, address to, uint256 tokenId) internal whenNotPaused override {\n        super._beforeTokenTransfer(from, to, tokenId);\n    }\n\n    function getRemainingMints () public view returns (uint256) {\n        return maxMints - _tokenIds.current();\n    }\n\n    function getTotalNFTsMintedSoFar () public view returns (uint256) {\n        return _tokenIds.current();\n    }\n\n      // Bit of code duplication in the following 3 functions. This could probably be refactored to make it more DRY.\n      // I think these functions should be internal.\n    function pickRandomFirstWord(uint256 tokenId) internal view returns (string memory) {\n        // I seed the random generator. More on this in the lesson. \n        uint256 rand = random(string(abi.encodePacked(\"FIRST_WORD\", Strings.toString(tokenId))));\n        // Squash the # between 0 and the length of the array to avoid going out of bounds.\n        rand = rand % firstWords.length;\n        return firstWords[rand];\n    }\n\n    function pickRandomSecondWord(uint256 tokenId) internal view returns (string memory) {\n        uint256 rand = random(string(abi.encodePacked(\"SECOND_WORD\", Strings.toString(tokenId))));\n        rand = rand % secondWords.length;\n        return secondWords[rand];\n    }\n\n    function pickRandomThirdWord(uint256 tokenId) internal view returns (string memory) {\n        console.log(\"Random Seed: \", string(abi.encodePacked(\"THIRD_WORD\", Strings.toString(tokenId))));\n        uint256 rand = random(string(abi.encodePacked(\"THIRD_WORD\", Strings.toString(tokenId))));\n        console.log(\"pickRandomThirdWord rand: \", rand);\n        rand = rand % thirdWords.length;\n        console.log(\"pickRandomThirdWord rand: \", rand);\n        return thirdWords[rand];\n    }\n\n    function pickRandomColor(uint256 tokenId) internal view returns (string memory) {\n        uint256 rand = random(string(abi.encodePacked(\"COLOR\", Strings.toString(tokenId))));\n        rand = rand % colors.length;\n        return colors[rand];\n    } \n\n    function random(string memory input) internal pure returns (uint256) {\n        return uint(keccak256(abi.encodePacked(input)));\n    }\n\n    function _burn(uint256 tokenId) internal override(ERC721, ERC721URIStorage) {\n        super._burn(tokenId);\n    }\n\n    function tokenURI(uint256 tokenId) public view override (ERC721, ERC721URIStorage) returns (string memory) {\n        return super.tokenURI(tokenId);\n    }\n\n    function mintNFT() public {\n        require(_tokenIds.current() <= maxMints, \"There are no NFTs left to mint\");\n        \n        // get the current tokenId, this starts at 0\n        uint newItemId = _tokenIds.current();\n\n        // randomly grab one word from each of the arrays\n        string memory first = pickRandomFirstWord(newItemId);\n        string memory second = pickRandomSecondWord(newItemId);\n        string memory third = pickRandomThirdWord(newItemId);\n        string memory combinedWord = string(abi.encodePacked(first, second, third));\n        console.log(\"combinedWord: \", combinedWord);\n\n        // Add the random color in.\n        string memory randomColor = pickRandomColor(newItemId);\n        string memory finalSvg = string(abi.encodePacked(svgPartOne, randomColor, svgPartTwo, combinedWord, \"</text></svg>\"));\n        console.log(\"finalSvg: \", finalSvg);\n\n        // get all the JSON metadata in place and base64 encode it\n        string memory json = Base64.encode(\n            bytes(\n                string(\n                    abi.encodePacked(\n                        '{\"name\": \"',combinedWord,\n                        '\", \"description\": \"A highly acclaimed collection of squares.\", \"image\": \"data:image/svg+xml;base64,',\n                    // We add data:image/svg+xml;base64 and then append our base64 encode our svg.\n                    Base64.encode(bytes(finalSvg)),\n                    '\"}'\n                    )\n                )\n            )\n        );\n        console.log(\"BASE64 encoded JSON: \", json);\n\n        // Just like before, we prepend data:application/json;base64, to our data.\n        string memory finalTokenUri = string(\n            abi.encodePacked(\"data:application/json;base64,\", json)\n        );\n        console.log(\"finalTokenUri: \", finalTokenUri);\n\n        console.log(\"\\n--------------------\");\n        // console.log(finalTokenUri);\n        console.log(\"--------------------\\n\");  \n\n        // actually mint the NFT to the sender using msg.sender\n        _safeMint(msg.sender, newItemId);\n\n        // set the NFTs data\n        _setTokenURI(newItemId, finalTokenUri);\n\n        // increment the counter for when the next NFT is minted\n        _tokenIds.increment();\n        console.log(\"An NFT with ID %s has been minted to %s\", newItemId, msg.sender);\n        emit NewEpicNFTMinted(msg.sender, newItemId);\n    }\n}",
  "sourcePath": "/Users/bennaylor/Development/Consensys Academy/blockchain-developer-bootcamp-final-project/contracts/NftMinter.sol",
  "compiler": {
    "name": "solc",
    "version": "0.8.9+commit.e5eed63a.Emscripten.clang"
  },
  "schemaVersion": "3.4.3",
  "updatedAt": "2021-11-02T15:10:55.133Z",
  "networkType": "ethereum",
  "devdoc": {
    "kind": "dev",
    "methods": {
      "approve(address,uint256)": {
        "details": "See {IERC721-approve}."
      },
      "balanceOf(address)": {
        "details": "See {IERC721-balanceOf}."
      },
      "getApproved(uint256)": {
        "details": "See {IERC721-getApproved}."
      },
      "isApprovedForAll(address,address)": {
        "details": "See {IERC721-isApprovedForAll}."
      },
      "name()": {
        "details": "See {IERC721Metadata-name}."
      },
      "owner()": {
        "details": "Returns the address of the current owner."
      },
      "ownerOf(uint256)": {
        "details": "See {IERC721-ownerOf}."
      },
      "paused()": {
        "details": "Returns true if the contract is paused, and false otherwise."
      },
      "renounceOwnership()": {
        "details": "Leaves the contract without owner. It will not be possible to call `onlyOwner` functions anymore. Can only be called by the current owner. NOTE: Renouncing ownership will leave the contract without an owner, thereby removing any functionality that is only available to the owner."
      },
      "safeTransferFrom(address,address,uint256)": {
        "details": "See {IERC721-safeTransferFrom}."
      },
      "safeTransferFrom(address,address,uint256,bytes)": {
        "details": "See {IERC721-safeTransferFrom}."
      },
      "setApprovalForAll(address,bool)": {
        "details": "See {IERC721-setApprovalForAll}."
      },
      "supportsInterface(bytes4)": {
        "details": "See {IERC165-supportsInterface}."
      },
      "symbol()": {
        "details": "See {IERC721Metadata-symbol}."
      },
      "transferFrom(address,address,uint256)": {
        "details": "See {IERC721-transferFrom}."
      },
      "transferOwnership(address)": {
        "details": "Transfers ownership of the contract to a new account (`newOwner`). Can only be called by the current owner."
      }
    },
    "version": 1
  },
  "userdoc": {
    "kind": "user",
    "methods": {},
    "version": 1
  }
}