{
  "contractName": "SurvivalKitClaim",
  "abi": [
    {
      "inputs": [
        {
          "internalType": "address",
          "name": "_VRFCoordinator",
          "type": "address"
        },
        {
          "internalType": "address",
          "name": "_linkToken",
          "type": "address"
        },
        {
          "internalType": "bytes32",
          "name": "_keyhash",
          "type": "bytes32"
        },
        {
          "internalType": "string",
          "name": "_name",
          "type": "string"
        },
        {
          "internalType": "string",
          "name": "_symbol",
          "type": "string"
        },
        {
          "internalType": "uint256",
          "name": "_supplyCap",
          "type": "uint256"
        }
      ],
      "stateMutability": "nonpayable",
      "type": "constructor"
    },
    {
      "anonymous": false,
      "inputs": [
        {
          "indexed": true,
          "internalType": "address",
          "name": "owner",
          "type": "address"
        },
        {
          "indexed": true,
          "internalType": "address",
          "name": "approved",
          "type": "address"
        },
        {
          "indexed": true,
          "internalType": "uint256",
          "name": "tokenId",
          "type": "uint256"
        }
      ],
      "name": "Approval",
      "type": "event"
    },
    {
      "anonymous": false,
      "inputs": [
        {
          "indexed": true,
          "internalType": "address",
          "name": "owner",
          "type": "address"
        },
        {
          "indexed": true,
          "internalType": "address",
          "name": "operator",
          "type": "address"
        },
        {
          "indexed": false,
          "internalType": "bool",
          "name": "approved",
          "type": "bool"
        }
      ],
      "name": "ApprovalForAll",
      "type": "event"
    },
    {
      "anonymous": false,
      "inputs": [
        {
          "indexed": true,
          "internalType": "uint256",
          "name": "tokenId",
          "type": "uint256"
        },
        {
          "indexed": false,
          "internalType": "uint256",
          "name": "randomNumber",
          "type": "uint256"
        }
      ],
      "name": "CreatedUnfinishedRandomSVG",
      "type": "event"
    },
    {
      "anonymous": false,
      "inputs": [
        {
          "indexed": true,
          "internalType": "address",
          "name": "previousOwner",
          "type": "address"
        },
        {
          "indexed": true,
          "internalType": "address",
          "name": "newOwner",
          "type": "address"
        }
      ],
      "name": "OwnershipTransferred",
      "type": "event"
    },
    {
      "anonymous": false,
      "inputs": [
        {
          "indexed": false,
          "internalType": "address",
          "name": "account",
          "type": "address"
        }
      ],
      "name": "Paused",
      "type": "event"
    },
    {
      "anonymous": false,
      "inputs": [
        {
          "indexed": true,
          "internalType": "bytes32",
          "name": "requestId",
          "type": "bytes32"
        },
        {
          "indexed": true,
          "internalType": "uint256",
          "name": "tokenId",
          "type": "uint256"
        }
      ],
      "name": "RequestRandomNumber",
      "type": "event"
    },
    {
      "anonymous": false,
      "inputs": [
        {
          "indexed": false,
          "internalType": "address",
          "name": "sender",
          "type": "address"
        },
        {
          "indexed": false,
          "internalType": "uint256",
          "name": "tokenId",
          "type": "uint256"
        }
      ],
      "name": "SurvivalKitNftClaimed",
      "type": "event"
    },
    {
      "anonymous": false,
      "inputs": [
        {
          "indexed": true,
          "internalType": "address",
          "name": "from",
          "type": "address"
        },
        {
          "indexed": true,
          "internalType": "address",
          "name": "to",
          "type": "address"
        },
        {
          "indexed": true,
          "internalType": "uint256",
          "name": "tokenId",
          "type": "uint256"
        }
      ],
      "name": "Transfer",
      "type": "event"
    },
    {
      "anonymous": false,
      "inputs": [
        {
          "indexed": false,
          "internalType": "address",
          "name": "account",
          "type": "address"
        }
      ],
      "name": "Unpaused",
      "type": "event"
    },
    {
      "inputs": [
        {
          "internalType": "address",
          "name": "to",
          "type": "address"
        },
        {
          "internalType": "uint256",
          "name": "tokenId",
          "type": "uint256"
        }
      ],
      "name": "approve",
      "outputs": [],
      "stateMutability": "nonpayable",
      "type": "function"
    },
    {
      "inputs": [
        {
          "internalType": "address",
          "name": "owner",
          "type": "address"
        }
      ],
      "name": "balanceOf",
      "outputs": [
        {
          "internalType": "uint256",
          "name": "",
          "type": "uint256"
        }
      ],
      "stateMutability": "view",
      "type": "function"
    },
    {
      "inputs": [
        {
          "internalType": "uint256",
          "name": "tokenId",
          "type": "uint256"
        }
      ],
      "name": "getApproved",
      "outputs": [
        {
          "internalType": "address",
          "name": "",
          "type": "address"
        }
      ],
      "stateMutability": "view",
      "type": "function"
    },
    {
      "inputs": [
        {
          "internalType": "address",
          "name": "owner",
          "type": "address"
        },
        {
          "internalType": "address",
          "name": "operator",
          "type": "address"
        }
      ],
      "name": "isApprovedForAll",
      "outputs": [
        {
          "internalType": "bool",
          "name": "",
          "type": "bool"
        }
      ],
      "stateMutability": "view",
      "type": "function"
    },
    {
      "inputs": [],
      "name": "name",
      "outputs": [
        {
          "internalType": "string",
          "name": "",
          "type": "string"
        }
      ],
      "stateMutability": "view",
      "type": "function"
    },
    {
      "inputs": [],
      "name": "owner",
      "outputs": [
        {
          "internalType": "address",
          "name": "",
          "type": "address"
        }
      ],
      "stateMutability": "view",
      "type": "function"
    },
    {
      "inputs": [
        {
          "internalType": "uint256",
          "name": "tokenId",
          "type": "uint256"
        }
      ],
      "name": "ownerOf",
      "outputs": [
        {
          "internalType": "address",
          "name": "",
          "type": "address"
        }
      ],
      "stateMutability": "view",
      "type": "function"
    },
    {
      "inputs": [],
      "name": "paused",
      "outputs": [
        {
          "internalType": "bool",
          "name": "",
          "type": "bool"
        }
      ],
      "stateMutability": "view",
      "type": "function"
    },
    {
      "inputs": [],
      "name": "randomResult",
      "outputs": [
        {
          "internalType": "uint256",
          "name": "",
          "type": "uint256"
        }
      ],
      "stateMutability": "view",
      "type": "function"
    },
    {
      "inputs": [
        {
          "internalType": "bytes32",
          "name": "requestId",
          "type": "bytes32"
        },
        {
          "internalType": "uint256",
          "name": "randomness",
          "type": "uint256"
        }
      ],
      "name": "rawFulfillRandomness",
      "outputs": [],
      "stateMutability": "nonpayable",
      "type": "function"
    },
    {
      "inputs": [],
      "name": "renounceOwnership",
      "outputs": [],
      "stateMutability": "nonpayable",
      "type": "function"
    },
    {
      "inputs": [
        {
          "internalType": "address",
          "name": "from",
          "type": "address"
        },
        {
          "internalType": "address",
          "name": "to",
          "type": "address"
        },
        {
          "internalType": "uint256",
          "name": "tokenId",
          "type": "uint256"
        }
      ],
      "name": "safeTransferFrom",
      "outputs": [],
      "stateMutability": "nonpayable",
      "type": "function"
    },
    {
      "inputs": [
        {
          "internalType": "address",
          "name": "from",
          "type": "address"
        },
        {
          "internalType": "address",
          "name": "to",
          "type": "address"
        },
        {
          "internalType": "uint256",
          "name": "tokenId",
          "type": "uint256"
        },
        {
          "internalType": "bytes",
          "name": "_data",
          "type": "bytes"
        }
      ],
      "name": "safeTransferFrom",
      "outputs": [],
      "stateMutability": "nonpayable",
      "type": "function"
    },
    {
      "inputs": [
        {
          "internalType": "address",
          "name": "operator",
          "type": "address"
        },
        {
          "internalType": "bool",
          "name": "approved",
          "type": "bool"
        }
      ],
      "name": "setApprovalForAll",
      "outputs": [],
      "stateMutability": "nonpayable",
      "type": "function"
    },
    {
      "inputs": [],
      "name": "symbol",
      "outputs": [
        {
          "internalType": "string",
          "name": "",
          "type": "string"
        }
      ],
      "stateMutability": "view",
      "type": "function"
    },
    {
      "inputs": [
        {
          "internalType": "uint256",
          "name": "index",
          "type": "uint256"
        }
      ],
      "name": "tokenByIndex",
      "outputs": [
        {
          "internalType": "uint256",
          "name": "",
          "type": "uint256"
        }
      ],
      "stateMutability": "view",
      "type": "function"
    },
    {
      "inputs": [
        {
          "internalType": "address",
          "name": "owner",
          "type": "address"
        },
        {
          "internalType": "uint256",
          "name": "index",
          "type": "uint256"
        }
      ],
      "name": "tokenOfOwnerByIndex",
      "outputs": [
        {
          "internalType": "uint256",
          "name": "",
          "type": "uint256"
        }
      ],
      "stateMutability": "view",
      "type": "function"
    },
    {
      "inputs": [],
      "name": "totalSupply",
      "outputs": [
        {
          "internalType": "uint256",
          "name": "",
          "type": "uint256"
        }
      ],
      "stateMutability": "view",
      "type": "function"
    },
    {
      "inputs": [
        {
          "internalType": "address",
          "name": "from",
          "type": "address"
        },
        {
          "internalType": "address",
          "name": "to",
          "type": "address"
        },
        {
          "internalType": "uint256",
          "name": "tokenId",
          "type": "uint256"
        }
      ],
      "name": "transferFrom",
      "outputs": [],
      "stateMutability": "nonpayable",
      "type": "function"
    },
    {
      "inputs": [
        {
          "internalType": "address",
          "name": "newOwner",
          "type": "address"
        }
      ],
      "name": "transferOwnership",
      "outputs": [],
      "stateMutability": "nonpayable",
      "type": "function"
    },
    {
      "inputs": [],
      "name": "pause",
      "outputs": [],
      "stateMutability": "nonpayable",
      "type": "function"
    },
    {
      "inputs": [],
      "name": "unpause",
      "outputs": [],
      "stateMutability": "nonpayable",
      "type": "function"
    },
    {
      "inputs": [],
      "name": "getSupplyCap",
      "outputs": [
        {
          "internalType": "uint256",
          "name": "",
          "type": "uint256"
        }
      ],
      "stateMutability": "view",
      "type": "function"
    },
    {
      "inputs": [],
      "name": "getRemainingMints",
      "outputs": [
        {
          "internalType": "uint256",
          "name": "",
          "type": "uint256"
        }
      ],
      "stateMutability": "view",
      "type": "function"
    },
    {
      "inputs": [],
      "name": "getTotalNFTsMintedSoFar",
      "outputs": [
        {
          "internalType": "uint256",
          "name": "",
          "type": "uint256"
        }
      ],
      "stateMutability": "view",
      "type": "function"
    },
    {
      "inputs": [],
      "name": "balanceOfContract",
      "outputs": [
        {
          "internalType": "uint256",
          "name": "",
          "type": "uint256"
        }
      ],
      "stateMutability": "view",
      "type": "function"
    },
    {
      "inputs": [],
      "name": "withdrawAllFunds",
      "outputs": [],
      "stateMutability": "payable",
      "type": "function"
    },
    {
      "inputs": [
        {
          "internalType": "uint256",
          "name": "amount",
          "type": "uint256"
        }
      ],
      "name": "withdrawFunds",
      "outputs": [],
      "stateMutability": "payable",
      "type": "function"
    },
    {
      "inputs": [],
      "name": "create",
      "outputs": [
        {
          "internalType": "bytes32",
          "name": "requestId",
          "type": "bytes32"
        }
      ],
      "stateMutability": "nonpayable",
      "type": "function"
    },
    {
      "inputs": [
        {
          "internalType": "uint256",
          "name": "tokenId",
          "type": "uint256"
        }
      ],
      "name": "tokenURI",
      "outputs": [
        {
          "internalType": "string",
          "name": "",
          "type": "string"
        }
      ],
      "stateMutability": "view",
      "type": "function"
    },
    {
      "inputs": [],
      "name": "mintNFT",
      "outputs": [],
      "stateMutability": "payable",
      "type": "function"
    },
    {
      "inputs": [
        {
          "internalType": "bytes4",
          "name": "interfaceId",
          "type": "bytes4"
        }
      ],
      "name": "supportsInterface",
      "outputs": [
        {
          "internalType": "bool",
          "name": "",
          "type": "bool"
        }
      ],
      "stateMutability": "view",
      "type": "function"
    }
  ],
  "bytecode": "0x60c0604052610bb8600d5560405180610100016040528060d381526020016200734f60d39139601590805190602001906200003c92919062000db0565b506040518060400160405280600381526020017f272f3e0000000000000000000000000000000000000000000000000000000000815250601690805190602001906200008a92919062000db0565b50604051806101e001604052806040518060400160405280600881526020017f43726f7373626f7700000000000000000000000000000000000000000000000081525081526020016040518060400160405280600781526020017f53686f7467756e0000000000000000000000000000000000000000000000000081525081526020016040518060400160405280600c81526020017f53616d7572692053776f7264000000000000000000000000000000000000000081525081526020016040518060400160405280600c81526020017f4261736562616c6c20426174000000000000000000000000000000000000000081525081526020016040518060400160405280600781526020017f43726f776261720000000000000000000000000000000000000000000000000081525081526020016040518060400160405280600981526020017f736c696e6773686f74000000000000000000000000000000000000000000000081525081526020016040518060400160405280600381526020017f417865000000000000000000000000000000000000000000000000000000000081525081526020016040518060400160405280600681526020017f4b6174616e61000000000000000000000000000000000000000000000000000081525081526020016040518060400160405280600d81526020017f536c656467652048616d6d65720000000000000000000000000000000000000081525081526020016040518060400160405280600781526020017f4d6163686574650000000000000000000000000000000000000000000000000081525081526020016040518060400160405280600781526020017f48616e6467756e0000000000000000000000000000000000000000000000000081525081526020016040518060400160405280600e81526020017f4b756e636b6c652044757374657200000000000000000000000000000000000081525081526020016040518060400160405280600581526020017f5269666c6500000000000000000000000000000000000000000000000000000081525081526020016040518060400160405280600881526020017f546f6d616861776b00000000000000000000000000000000000000000000000081525081526020016040518060400160405280600c81526020017f506f696e747920537469636b0000000000000000000000000000000000000000815250815250601790600f6200041c92919062000e41565b506040518061014001604052806040518060400160405280600981526020017f4d6f746f7262696b65000000000000000000000000000000000000000000000081525081526020016040518060400160405280600381526020017f436172000000000000000000000000000000000000000000000000000000000081525081526020016040518060400160405280600781526020017f42696379636c650000000000000000000000000000000000000000000000000081525081526020016040518060400160405280600481526020017f4a6565700000000000000000000000000000000000000000000000000000000081525081526020016040518060400160405280600781526020017f4f6e20466f6f740000000000000000000000000000000000000000000000000081525081526020016040518060400160405280600a81526020017f48656c69636f707465720000000000000000000000000000000000000000000081525081526020016040518060400160405280600481526020017f426f61740000000000000000000000000000000000000000000000000000000081525081526020016040518060400160405280600a81526020017f536b617465626f6172640000000000000000000000000000000000000000000081525081526020016040518060400160405280600c81526020017f526f6c6c6572626c61646573000000000000000000000000000000000000000081525081526020016040518060400160405280600781526020017f53636f6f74657200000000000000000000000000000000000000000000000000815250815250601890600a6200068792919062000ea8565b50604051806101c001604052806040518060400160405280600581526020017f546f72636800000000000000000000000000000000000000000000000000000081525081526020016040518060400160405280600c81526020017f416e696d616c20536e617265000000000000000000000000000000000000000081525081526020016040518060400160405280600881526020017f4d65646963696e6500000000000000000000000000000000000000000000000081525081526020016040518060400160405280600581526020017f526164696f00000000000000000000000000000000000000000000000000000081525081526020016040518060400160405280600381526020017f4d6170000000000000000000000000000000000000000000000000000000000081525081526020016040518060400160405280600681526020017f576973746c65000000000000000000000000000000000000000000000000000081525081526020016040518060400160405280600681526020017f43616e646c65000000000000000000000000000000000000000000000000000081525081526020016040518060400160405280600d81526020017f57616c6b69652d54616c6b69650000000000000000000000000000000000000081525081526020016040518060400160405280600c81526020017f576174657220426f74746c65000000000000000000000000000000000000000081525081526020016040518060400160405280601a81526020017f576174657220507572696669636174696f6e205461626c65747300000000000081525081526020016040518060400160405280600681526020017f476c6f766573000000000000000000000000000000000000000000000000000081525081526020016040518060400160405280600a81526020017f42696e6f63756c6172730000000000000000000000000000000000000000000081525081526020016040518060400160405280600581526020017f576174636800000000000000000000000000000000000000000000000000000081525081526020016040518060400160405280600c81526020017f466f6f6420526174696f6e730000000000000000000000000000000000000000815250815250601990600e620009de92919062000f0f565b506040518060c001604052806040518060400160405280600381526020017f726564000000000000000000000000000000000000000000000000000000000081525081526020016040518060400160405280600581526020017f626c61636b00000000000000000000000000000000000000000000000000000081525081526020016040518060400160405280600481526020017f626c75650000000000000000000000000000000000000000000000000000000081525081526020016040518060400160405280600581526020017f677265656e00000000000000000000000000000000000000000000000000000081525081526020016040518060400160405280600681526020017f696e6469676f000000000000000000000000000000000000000000000000000081525081526020016040518060400160405280600481526020017f6772657900000000000000000000000000000000000000000000000000000000815250815250601a90600662000b5c92919062000f76565b5034801562000b6a57600080fd5b506040516200742238038062007422833981810160405281019062000b90919062001121565b85858484816000908051906020019062000bac92919062000db0565b50806001908051906020019062000bc592919062000db0565b5050506000600b60006101000a81548160ff02191690831515021790555062000c0362000bf762000ce260201b60201c565b62000cea60201b60201c565b8173ffffffffffffffffffffffffffffffffffffffff1660a08173ffffffffffffffffffffffffffffffffffffffff1660601b815250508073ffffffffffffffffffffffffffffffffffffffff1660808173ffffffffffffffffffffffffffffffffffffffff1660601b8152505050506000811162000cb9576040517f08c379a000000000000000000000000000000000000000000000000000000000815260040162000cb0906200122b565b60405180910390fd5b80600d8190555083600e8190555067016345785d8a0000600f8190555050505050505062001425565b600033905090565b6000600b60019054906101000a900473ffffffffffffffffffffffffffffffffffffffff16905081600b60016101000a81548173ffffffffffffffffffffffffffffffffffffffff021916908373ffffffffffffffffffffffffffffffffffffffff1602179055508173ffffffffffffffffffffffffffffffffffffffff168173ffffffffffffffffffffffffffffffffffffffff167f8be0079c531659141344cd1fd0a4f28419497f9722a3daafe3b4186f6b6457e060405160405180910390a35050565b82805462000dbe9062001343565b90600052602060002090601f01602090048101928262000de2576000855562000e2e565b82601f1062000dfd57805160ff191683800117855562000e2e565b8280016001018555821562000e2e579182015b8281111562000e2d57825182559160200191906001019062000e10565b5b50905062000e3d919062000fdd565b5090565b82805482825590600052602060002090810192821562000e95579160200282015b8281111562000e9457825182908051906020019062000e8392919062000db0565b509160200191906001019062000e62565b5b50905062000ea4919062000ffc565b5090565b82805482825590600052602060002090810192821562000efc579160200282015b8281111562000efb57825182908051906020019062000eea92919062000db0565b509160200191906001019062000ec9565b5b50905062000f0b919062000ffc565b5090565b82805482825590600052602060002090810192821562000f63579160200282015b8281111562000f6257825182908051906020019062000f5192919062000db0565b509160200191906001019062000f30565b5b50905062000f72919062000ffc565b5090565b82805482825590600052602060002090810192821562000fca579160200282015b8281111562000fc957825182908051906020019062000fb892919062000db0565b509160200191906001019062000f97565b5b50905062000fd9919062000ffc565b5090565b5b8082111562000ff857600081600090555060010162000fde565b5090565b5b8082111562001020576000818162001016919062001024565b5060010162000ffd565b5090565b508054620010329062001343565b6000825580601f1062001046575062001067565b601f01602090049060005260206000209081019062001066919062000fdd565b5b50565b6000620010816200107b8462001281565b6200124d565b9050828152602081018484840111156200109a57600080fd5b620010a78482856200130d565b509392505050565b600081519050620010c081620013d7565b92915050565b600081519050620010d781620013f1565b92915050565b600082601f830112620010ef57600080fd5b8151620011018482602086016200106a565b91505092915050565b6000815190506200111b816200140b565b92915050565b60008060008060008060c087890312156200113b57600080fd5b60006200114b89828a01620010af565b96505060206200115e89828a01620010af565b95505060406200117189828a01620010c6565b945050606087015167ffffffffffffffff8111156200118f57600080fd5b6200119d89828a01620010dd565b935050608087015167ffffffffffffffff811115620011bb57600080fd5b620011c989828a01620010dd565b92505060a0620011dc89828a016200110a565b9150509295509295509295565b6000620011f8602083620012b4565b91507f737570706c79436170206d7573742062652067726561746572207468616e20306000830152602082019050919050565b600060208201905081810360008301526200124681620011e9565b9050919050565b6000604051905081810181811067ffffffffffffffff82111715620012775762001276620013a8565b5b8060405250919050565b600067ffffffffffffffff8211156200129f576200129e620013a8565b5b601f19601f8301169050602081019050919050565b600082825260208201905092915050565b6000620012d282620012e3565b9050919050565b6000819050919050565b600073ffffffffffffffffffffffffffffffffffffffff82169050919050565b6000819050919050565b60005b838110156200132d57808201518184015260208101905062001310565b838111156200133d576000848401525b50505050565b600060028204905060018216806200135c57607f821691505b6020821081141562001373576200137262001379565b5b50919050565b7f4e487b7100000000000000000000000000000000000000000000000000000000600052602260045260246000fd5b7f4e487b7100000000000000000000000000000000000000000000000000000000600052604160045260246000fd5b620013e281620012c5565b8114620013ee57600080fd5b50565b620013fc81620012d9565b81146200140857600080fd5b50565b620014168162001303565b81146200142257600080fd5b50565b60805160601c60a05160601c615ef06200145f600039600081816114f60152612fa10152600081816118ba0152612f650152615ef06000f3fe6080604052600436106101e35760003560e01c80635c975abb11610102578063a22cb46511610095578063e985e9c511610064578063e985e9c514610681578063efc81a8c146106be578063f2fde38b146106e9578063fd02c23914610712576101e3565b8063a22cb465146105c7578063b88d4fde146105f0578063c87b56dd14610619578063e6c7c45614610656576101e3565b80638456cb59116100d15780638456cb59146105315780638da5cb5b1461054857806394985ddd1461057357806395d89b411461059c576101e3565b80635c975abb146104755780636352211e146104a057806370a08231146104dd578063715018a61461051a576101e3565b8063203618141161017a57806342619f661161014957806342619f66146103da57806342842e0e1461040557806349649fbf1461042e5780634f6ccce714610438576101e3565b8063203618141461033257806323b872dd1461035d5780632f745c59146103865780633f4ba83a146103c3576101e3565b8063095ea7b3116101b6578063095ea7b3146102b857806314f710fe146102e1578063155dd5ee146102eb57806318160ddd14610307576101e3565b806301ffc9a7146101e8578063060475901461022557806306fdde0314610250578063081812fc1461027b575b600080fd5b3480156101f457600080fd5b5061020f600480360381019061020a919061425c565b61073d565b60405161021c91906154d4565b60405180910390f35b34801561023157600080fd5b5061023a61074f565b604051610247919061599f565b60405180910390f35b34801561025c57600080fd5b50610265610760565b6040516102729190615578565b60405180910390f35b34801561028757600080fd5b506102a2600480360381019061029d91906142ae565b6107f2565b6040516102af9190615406565b60405180910390f35b3480156102c457600080fd5b506102df60048036038101906102da91906141bb565b610877565b005b6102e961098f565b005b610305600480360381019061030091906142ae565b610d85565b005b34801561031357600080fd5b5061031c610eb1565b604051610329919061599f565b60405180910390f35b34801561033e57600080fd5b50610347610ebe565b604051610354919061599f565b60405180910390f35b34801561036957600080fd5b50610384600480360381019061037f91906140b5565b610ec8565b005b34801561039257600080fd5b506103ad60048036038101906103a891906141bb565b610f28565b6040516103ba919061599f565b60405180910390f35b3480156103cf57600080fd5b506103d8610fcd565b005b3480156103e657600080fd5b506103ef611053565b6040516103fc919061599f565b60405180910390f35b34801561041157600080fd5b5061042c600480360381019061042791906140b5565b611059565b005b610436611079565b005b34801561044457600080fd5b5061045f600480360381019061045a91906142ae565b6111a4565b60405161046c919061599f565b60405180910390f35b34801561048157600080fd5b5061048a61123b565b60405161049791906154d4565b60405180910390f35b3480156104ac57600080fd5b506104c760048036038101906104c291906142ae565b611252565b6040516104d49190615406565b60405180910390f35b3480156104e957600080fd5b5061050460048036038101906104ff9190614050565b611304565b604051610511919061599f565b60405180910390f35b34801561052657600080fd5b5061052f6113bc565b005b34801561053d57600080fd5b50610546611444565b005b34801561055457600080fd5b5061055d6114ca565b60405161056a9190615406565b60405180910390f35b34801561057f57600080fd5b5061059a60048036038101906105959190614220565b6114f4565b005b3480156105a857600080fd5b506105b1611590565b6040516105be9190615578565b60405180910390f35b3480156105d357600080fd5b506105ee60048036038101906105e9919061417f565b611622565b005b3480156105fc57600080fd5b5061061760048036038101906106129190614104565b6117a3565b005b34801561062557600080fd5b50610640600480360381019061063b91906142ae565b611805565b60405161064d9190615578565b60405180910390f35b34801561066257600080fd5b5061066b611817565b604051610678919061599f565b60405180910390f35b34801561068d57600080fd5b506106a860048036038101906106a39190614079565b61181f565b6040516106b591906154d4565b60405180910390f35b3480156106ca57600080fd5b506106d36118b3565b6040516106e091906154ef565b60405180910390f35b3480156106f557600080fd5b50610710600480360381019061070b9190614050565b611a69565b005b34801561071e57600080fd5b50610727611b61565b604051610734919061599f565b60405180910390f35b600061074882611b7f565b9050919050565b600061075b6014611bf9565b905090565b60606000805461076f90615c53565b80601f016020809104026020016040519081016040528092919081815260200182805461079b90615c53565b80156107e85780601f106107bd576101008083540402835291602001916107e8565b820191906000526020600020905b8154815290600101906020018083116107cb57829003601f168201915b5050505050905090565b60006107fd82611c07565b61083c576040517f08c379a00000000000000000000000000000000000000000000000000000000081526004016108339061587f565b60405180910390fd5b6004600083815260200190815260200160002060009054906101000a900473ffffffffffffffffffffffffffffffffffffffff169050919050565b600061088282611252565b90508073ffffffffffffffffffffffffffffffffffffffff168373ffffffffffffffffffffffffffffffffffffffff1614156108f3576040517f08c379a00000000000000000000000000000000000000000000000000000000081526004016108ea9061591f565b60405180910390fd5b8073ffffffffffffffffffffffffffffffffffffffff16610912611c73565b73ffffffffffffffffffffffffffffffffffffffff16148061094157506109408161093b611c73565b61181f565b5b610980576040517f08c379a0000000000000000000000000000000000000000000000000000000008152600401610977906157bf565b60405180910390fd5b61098a8383611c7b565b505050565b61099761123b565b156109d7576040517f08c379a00000000000000000000000000000000000000000000000000000000081526004016109ce9061579f565b60405180910390fd5b600d546109e46014611bf9565b1115610a25576040517f08c379a0000000000000000000000000000000000000000000000000000000008152600401610a1c9061569f565b60405180910390fd5b662386f26fc10000341015610a6f576040517f08c379a0000000000000000000000000000000000000000000000000000000008152600401610a669061597f565b60405180910390fd5b610a776118b3565b506000610a846014611bf9565b90506000610a9182611d34565b90506000610a9e83611e52565b90506000610aab84611f70565b90506000838383604051602001610ac49392919061522b565b6040516020818303038152906040529050610b146040518060400160405280600d81526020017f636f6d706c6574654b69743a200000000000000000000000000000000000000081525082612172565b6000610b1f8661220e565b905060006015826016610b3389600161232c565b610b3e89600261232c565b610b4989600361232c565b604051602001610b5e9695949392919061525c565b6040516020818303038152906040529050610bae6040518060400160405280600a81526020017f66696e616c5376673a200000000000000000000000000000000000000000000081525082612172565b6000610be0610bbc83612420565b604051602001610bcc919061536a565b604051602081830303815290604052612420565b9050610c216040518060400160405280601581526020017f42415345363420656e636f646564204a534f4e3a20000000000000000000000081525082612172565b600081604051602001610c3491906153ad565b6040516020818303038152906040529050610c846040518060400160405280600f81526020017f66696e616c546f6b656e5572693a20000000000000000000000000000000000081525082612172565b610cc26040518060400160405280601581526020017f0a2d2d2d2d2d2d2d2d2d2d2d2d2d2d2d2d2d2d2d2d00000000000000000000008152506125de565b610d006040518060400160405280601581526020017f2d2d2d2d2d2d2d2d2d2d2d2d2d2d2d2d2d2d2d2d0a00000000000000000000008152506125de565b610d0a338a612677565b610d148982612695565b610d1e6014612709565b610d41604051806060016040528060278152602001615e94602791398a3361271f565b7f75f619ddab9326bcf7e428ba55311feaad4aa7dec1f5cc227b218a7ad2276411338a604051610d7292919061546d565b60405180910390a1505050505050505050565b610d8d611c73565b73ffffffffffffffffffffffffffffffffffffffff16610dab6114ca565b73ffffffffffffffffffffffffffffffffffffffff1614610e01576040517f08c379a0000000000000000000000000000000000000000000000000000000008152600401610df89061589f565b60405180910390fd5b60003373ffffffffffffffffffffffffffffffffffffffff1682604051610e27906153f1565b60006040518083038185875af1925050503d8060008114610e64576040519150601f19603f3d011682016040523d82523d6000602084013e610e69565b606091505b5050905080610ead576040517f08c379a0000000000000000000000000000000000000000000000000000000008152600401610ea4906156ff565b60405180910390fd5b5050565b6000600880549050905090565b6000600d54905090565b610ed9610ed3611c73565b826127be565b610f18576040517f08c379a0000000000000000000000000000000000000000000000000000000008152600401610f0f9061593f565b60405180910390fd5b610f2383838361289c565b505050565b6000610f3383611304565b8210610f74576040517f08c379a0000000000000000000000000000000000000000000000000000000008152600401610f6b9061565f565b60405180910390fd5b600660008473ffffffffffffffffffffffffffffffffffffffff1673ffffffffffffffffffffffffffffffffffffffff168152602001908152602001600020600083815260200190815260200160002054905092915050565b610fd5611c73565b73ffffffffffffffffffffffffffffffffffffffff16610ff36114ca565b73ffffffffffffffffffffffffffffffffffffffff1614611049576040517f08c379a00000000000000000000000000000000000000000000000000000000081526004016110409061589f565b60405180910390fd5b611051612af8565b565b60105481565b611074838383604051806020016040528060008152506117a3565b505050565b611081611c73565b73ffffffffffffffffffffffffffffffffffffffff1661109f6114ca565b73ffffffffffffffffffffffffffffffffffffffff16146110f5576040517f08c379a00000000000000000000000000000000000000000000000000000000081526004016110ec9061589f565b60405180910390fd5b60003373ffffffffffffffffffffffffffffffffffffffff164760405161111b906153f1565b60006040518083038185875af1925050503d8060008114611158576040519150601f19603f3d011682016040523d82523d6000602084013e61115d565b606091505b50509050806111a1576040517f08c379a0000000000000000000000000000000000000000000000000000000008152600401611198906156ff565b60405180910390fd5b50565b60006111ae610eb1565b82106111ef576040517f08c379a00000000000000000000000000000000000000000000000000000000081526004016111e69061595f565b60405180910390fd5b60088281548110611229577f4e487b7100000000000000000000000000000000000000000000000000000000600052603260045260246000fd5b90600052602060002001549050919050565b6000600b60009054906101000a900460ff16905090565b6000806002600084815260200190815260200160002060009054906101000a900473ffffffffffffffffffffffffffffffffffffffff169050600073ffffffffffffffffffffffffffffffffffffffff168173ffffffffffffffffffffffffffffffffffffffff1614156112fb576040517f08c379a00000000000000000000000000000000000000000000000000000000081526004016112f2906157ff565b60405180910390fd5b80915050919050565b60008073ffffffffffffffffffffffffffffffffffffffff168273ffffffffffffffffffffffffffffffffffffffff161415611375576040517f08c379a000000000000000000000000000000000000000000000000000000000815260040161136c906157df565b60405180910390fd5b600360008373ffffffffffffffffffffffffffffffffffffffff1673ffffffffffffffffffffffffffffffffffffffff168152602001908152602001600020549050919050565b6113c4611c73565b73ffffffffffffffffffffffffffffffffffffffff166113e26114ca565b73ffffffffffffffffffffffffffffffffffffffff1614611438576040517f08c379a000000000000000000000000000000000000000000000000000000000815260040161142f9061589f565b60405180910390fd5b6114426000612b9a565b565b61144c611c73565b73ffffffffffffffffffffffffffffffffffffffff1661146a6114ca565b73ffffffffffffffffffffffffffffffffffffffff16146114c0576040517f08c379a00000000000000000000000000000000000000000000000000000000081526004016114b79061589f565b60405180910390fd5b6114c8612c60565b565b6000600b60019054906101000a900473ffffffffffffffffffffffffffffffffffffffff16905090565b7f000000000000000000000000000000000000000000000000000000000000000073ffffffffffffffffffffffffffffffffffffffff163373ffffffffffffffffffffffffffffffffffffffff1614611582576040517f08c379a0000000000000000000000000000000000000000000000000000000008152600401611579906158ff565b60405180910390fd5b61158c8282612d03565b5050565b60606001805461159f90615c53565b80601f01602080910402602001604051908101604052809291908181526020018280546115cb90615c53565b80156116185780601f106115ed57610100808354040283529160200191611618565b820191906000526020600020905b8154815290600101906020018083116115fb57829003601f168201915b5050505050905090565b61162a611c73565b73ffffffffffffffffffffffffffffffffffffffff168273ffffffffffffffffffffffffffffffffffffffff161415611698576040517f08c379a000000000000000000000000000000000000000000000000000000000815260040161168f9061573f565b60405180910390fd5b80600560006116a5611c73565b73ffffffffffffffffffffffffffffffffffffffff1673ffffffffffffffffffffffffffffffffffffffff16815260200190815260200160002060008473ffffffffffffffffffffffffffffffffffffffff1673ffffffffffffffffffffffffffffffffffffffff16815260200190815260200160002060006101000a81548160ff0219169083151502179055508173ffffffffffffffffffffffffffffffffffffffff16611752611c73565b73ffffffffffffffffffffffffffffffffffffffff167f17307eab39ab6107e8899845ad3d59bd9653f200f220920489ca2b5937696c318360405161179791906154d4565b60405180910390a35050565b6117b46117ae611c73565b836127be565b6117f3576040517f08c379a00000000000000000000000000000000000000000000000000000000081526004016117ea9061593f565b60405180910390fd5b6117ff84848484612db3565b50505050565b606061181082612e0f565b9050919050565b600047905090565b6000600560008473ffffffffffffffffffffffffffffffffffffffff1673ffffffffffffffffffffffffffffffffffffffff16815260200190815260200160002060008373ffffffffffffffffffffffffffffffffffffffff1673ffffffffffffffffffffffffffffffffffffffff16815260200190815260200160002060009054906101000a900460ff16905092915050565b6000600f547f000000000000000000000000000000000000000000000000000000000000000073ffffffffffffffffffffffffffffffffffffffff166370a08231306040518263ffffffff1660e01b81526004016119119190615406565b60206040518083038186803b15801561192957600080fd5b505afa15801561193d573d6000803e3d6000fd5b505050506040513d601f19601f8201168201806040525081019061196191906142d7565b10156119a2576040517f08c379a00000000000000000000000000000000000000000000000000000000081526004016119999061575f565b60405180910390fd5b6119b0600e54600f54612f61565b9050336011600083815260200190815260200160002060006101000a81548173ffffffffffffffffffffffffffffffffffffffff021916908373ffffffffffffffffffffffffffffffffffffffff160217905550611a0e6014611bf9565b6012600083815260200190815260200160002081905550611a2f6014611bf9565b817fa30dbb727a2a799952fce85eef1e411c12905bd49491abf6d3c2192a09979bc560405160405180910390a3611a666014612709565b90565b611a71611c73565b73ffffffffffffffffffffffffffffffffffffffff16611a8f6114ca565b73ffffffffffffffffffffffffffffffffffffffff1614611ae5576040517f08c379a0000000000000000000000000000000000000000000000000000000008152600401611adc9061589f565b60405180910390fd5b600073ffffffffffffffffffffffffffffffffffffffff168173ffffffffffffffffffffffffffffffffffffffff161415611b55576040517f08c379a0000000000000000000000000000000000000000000000000000000008152600401611b4c906156bf565b60405180910390fd5b611b5e81612b9a565b50565b6000611b6d6014611bf9565b600d54611b7a9190615b5f565b905090565b60007f780e9d63000000000000000000000000000000000000000000000000000000007bffffffffffffffffffffffffffffffffffffffffffffffffffffffff1916827bffffffffffffffffffffffffffffffffffffffffffffffffffffffff19161480611bf25750611bf1826130c3565b5b9050919050565b600081600001549050919050565b60008073ffffffffffffffffffffffffffffffffffffffff166002600084815260200190815260200160002060009054906101000a900473ffffffffffffffffffffffffffffffffffffffff1673ffffffffffffffffffffffffffffffffffffffff1614159050919050565b600033905090565b816004600083815260200190815260200160002060006101000a81548173ffffffffffffffffffffffffffffffffffffffff021916908373ffffffffffffffffffffffffffffffffffffffff160217905550808273ffffffffffffffffffffffffffffffffffffffff16611cee83611252565b73ffffffffffffffffffffffffffffffffffffffff167f8c5be1e5ebec7d5bd14f71427d1e84f3dd0314c0f7b2291e5b200ac8c7c3b92560405160405180910390a45050565b60606000611d68611d44846131a5565b604051602001611d549190615303565b604051602081830303815290604052613352565b905060178054905081611d7b9190615ce2565b905060178181548110611db7577f4e487b7100000000000000000000000000000000000000000000000000000000600052603260045260246000fd5b906000526020600020018054611dcc90615c53565b80601f0160208091040260200160405190810160405280929190818152602001828054611df890615c53565b8015611e455780601f10611e1a57610100808354040283529160200191611e45565b820191906000526020600020905b815481529060010190602001808311611e2857829003601f168201915b5050505050915050919050565b60606000611e86611e62846131a5565b604051602001611e7291906152e1565b604051602081830303815290604052613352565b905060188054905081611e999190615ce2565b905060188181548110611ed5577f4e487b7100000000000000000000000000000000000000000000000000000000600052603260045260246000fd5b906000526020600020018054611eea90615c53565b80601f0160208091040260200160405190810160405280929190818152602001828054611f1690615c53565b8015611f635780601f10611f3857610100808354040283529160200191611f63565b820191906000526020600020905b815481529060010190602001808311611f4657829003601f168201915b5050505050915050919050565b6060611fd86040518060400160405280600d81526020017f52616e646f6d20536565643a2000000000000000000000000000000000000000815250611fb4846131a5565b604051602001611fc491906152bf565b604051602081830303815290604052612172565b600061200a611fe6846131a5565b604051602001611ff691906152bf565b604051602081830303815290604052613352565b905061204b6040518060400160405280601581526020017f7069636b52616e646f6d4974656d2072616e643a20000000000000000000000081525082613385565b6019805490508161205c9190615ce2565b905061209d6040518060400160405280601581526020017f7069636b52616e646f6d4974656d2072616e643a20000000000000000000000081525082613385565b601981815481106120d7577f4e487b7100000000000000000000000000000000000000000000000000000000600052603260045260246000fd5b9060005260206000200180546120ec90615c53565b80601f016020809104026020016040519081016040528092919081815260200182805461211890615c53565b80156121655780601f1061213a57610100808354040283529160200191612165565b820191906000526020600020905b81548152906001019060200180831161214857829003601f168201915b5050505050915050919050565b61220a828260405160240161218892919061559a565b6040516020818303038152906040527f4b5c4277000000000000000000000000000000000000000000000000000000007bffffffffffffffffffffffffffffffffffffffffffffffffffffffff19166020820180517bffffffffffffffffffffffffffffffffffffffffffffffffffffffff8381831617835250505050613421565b5050565b6060600061224261221e846131a5565b60405160200161222e91906153cf565b604051602081830303815290604052613352565b9050601a80549050816122559190615ce2565b9050601a8181548110612291577f4e487b7100000000000000000000000000000000000000000000000000000000600052603260045260246000fd5b9060005260206000200180546122a690615c53565b80601f01602080910402602001604051908101604052809291908181526020018280546122d290615c53565b801561231f5780601f106122f45761010080835404028352916020019161231f565b820191906000526020600020905b81548152906001019060200180831161230257829003601f168201915b5050505050915050919050565b6060806001831415612375576040518060400160405280600381526020017f343025000000000000000000000000000000000000000000000000000000000081525090506123f5565b60028314156123bb576040518060400160405280600381526020017f353025000000000000000000000000000000000000000000000000000000000081525090506123f4565b6040518060400160405280600381526020017f363025000000000000000000000000000000000000000000000000000000000081525090505b5b8084604051602001612408929190615325565b60405160208183030381529060405291505092915050565b6060600082519050600081141561244957604051806020016040528060008152509150506125d9565b6000600360028361245a9190615a7e565b6124649190615ad4565b60046124709190615b05565b905060006020826124819190615a7e565b67ffffffffffffffff8111156124c0577f4e487b7100000000000000000000000000000000000000000000000000000000600052604160045260246000fd5b6040519080825280601f01601f1916602001820160405280156124f25781602001600182028036833780820191505090505b5090506000604051806060016040528060408152602001615e54604091399050600181016020830160005b868110156125965760038101905062ffffff818a015116603f8160121c168401518060081b905060ff603f83600c1c1686015116810190508060081b905060ff603f8360061c1686015116810190508060081b905060ff603f831686015116810190508060e01b9050808452600484019350505061251d565b5060038606600181146125b057600281146125c0576125cb565b613d3d60f01b60028303526125cb565b603d60f81b60018303525b508484525050819450505050505b919050565b612674816040516024016125f29190615578565b6040516020818303038152906040527f41304fac000000000000000000000000000000000000000000000000000000007bffffffffffffffffffffffffffffffffffffffffffffffffffffffff19166020820180517bffffffffffffffffffffffffffffffffffffffffffffffffffffffff8381831617835250505050613421565b50565b61269182826040518060200160405280600081525061344a565b5050565b61269e82611c07565b6126dd576040517f08c379a00000000000000000000000000000000000000000000000000000000081526004016126d49061581f565b60405180910390fd5b80600a60008481526020019081526020016000209080519060200190612704929190613e9d565b505050565b6001816000016000828254019250508190555050565b6127b983838360405160240161273793929190615601565b6040516020818303038152906040527fe3849f79000000000000000000000000000000000000000000000000000000007bffffffffffffffffffffffffffffffffffffffffffffffffffffffff19166020820180517bffffffffffffffffffffffffffffffffffffffffffffffffffffffff8381831617835250505050613421565b505050565b60006127c982611c07565b612808576040517f08c379a00000000000000000000000000000000000000000000000000000000081526004016127ff9061577f565b60405180910390fd5b600061281383611252565b90508073ffffffffffffffffffffffffffffffffffffffff168473ffffffffffffffffffffffffffffffffffffffff16148061288257508373ffffffffffffffffffffffffffffffffffffffff1661286a846107f2565b73ffffffffffffffffffffffffffffffffffffffff16145b806128935750612892818561181f565b5b91505092915050565b8273ffffffffffffffffffffffffffffffffffffffff166128bc82611252565b73ffffffffffffffffffffffffffffffffffffffff1614612912576040517f08c379a0000000000000000000000000000000000000000000000000000000008152600401612909906158bf565b60405180910390fd5b600073ffffffffffffffffffffffffffffffffffffffff168273ffffffffffffffffffffffffffffffffffffffff161415612982576040517f08c379a00000000000000000000000000000000000000000000000000000000081526004016129799061571f565b60405180910390fd5b61298d8383836134a5565b612998600082611c7b565b6001600360008573ffffffffffffffffffffffffffffffffffffffff1673ffffffffffffffffffffffffffffffffffffffff16815260200190815260200160002060008282546129e89190615b5f565b925050819055506001600360008473ffffffffffffffffffffffffffffffffffffffff1673ffffffffffffffffffffffffffffffffffffffff1681526020019081526020016000206000828254612a3f9190615a7e565b92505081905550816002600083815260200190815260200160002060006101000a81548173ffffffffffffffffffffffffffffffffffffffff021916908373ffffffffffffffffffffffffffffffffffffffff160217905550808273ffffffffffffffffffffffffffffffffffffffff168473ffffffffffffffffffffffffffffffffffffffff167fddf252ad1be2c89b69c2b068fc378daa952ba7f163c4a11628f55a4df523b3ef60405160405180910390a4505050565b612b0061123b565b612b3f576040517f08c379a0000000000000000000000000000000000000000000000000000000008152600401612b369061563f565b60405180910390fd5b6000600b60006101000a81548160ff0219169083151502179055507f5db9ee0a495bf2e6ff9c91a7834c1ba4fdd244a5e8aa4e537bd38aeae4b073aa612b83611c73565b604051612b909190615406565b60405180910390a1565b6000600b60019054906101000a900473ffffffffffffffffffffffffffffffffffffffff16905081600b60016101000a81548173ffffffffffffffffffffffffffffffffffffffff021916908373ffffffffffffffffffffffffffffffffffffffff1602179055508173ffffffffffffffffffffffffffffffffffffffff168173ffffffffffffffffffffffffffffffffffffffff167f8be0079c531659141344cd1fd0a4f28419497f9722a3daafe3b4186f6b6457e060405160405180910390a35050565b612c6861123b565b15612ca8576040517f08c379a0000000000000000000000000000000000000000000000000000000008152600401612c9f9061579f565b60405180910390fd5b6001600b60006101000a81548160ff0219169083151502179055507f62e78cea01bee320cd4e420270b5ea74000d11b0c9f74754ebdbfc544b05a258612cec611c73565b604051612cf99190615406565b60405180910390a1565b60006011600084815260200190815260200160002060009054906101000a900473ffffffffffffffffffffffffffffffffffffffff169050600060126000858152602001908152602001600020549050612d5d8282612677565b826013600083815260200190815260200160002081905550807faad5362ce528ed941024b95d4c18dfd49b8503e1f586a5c353631d98c2af41b784604051612da5919061599f565b60405180910390a250505050565b612dbe84848461289c565b612dca848484846134fd565b612e09576040517f08c379a0000000000000000000000000000000000000000000000000000000008152600401612e009061567f565b60405180910390fd5b50505050565b6060612e1a82611c07565b612e59576040517f08c379a0000000000000000000000000000000000000000000000000000000008152600401612e509061585f565b60405180910390fd5b6000600a60008481526020019081526020016000208054612e7990615c53565b80601f0160208091040260200160405190810160405280929190818152602001828054612ea590615c53565b8015612ef25780601f10612ec757610100808354040283529160200191612ef2565b820191906000526020600020905b815481529060010190602001808311612ed557829003601f168201915b505050505090506000612f03613694565b9050600081511415612f19578192505050612f5c565b600082511115612f4e578082604051602001612f36929190615207565b60405160208183030381529060405292505050612f5c565b612f57846136ab565b925050505b919050565b60007f000000000000000000000000000000000000000000000000000000000000000073ffffffffffffffffffffffffffffffffffffffff16634000aea07f000000000000000000000000000000000000000000000000000000000000000084866000604051602001612fd592919061550a565b6040516020818303038152906040526040518463ffffffff1660e01b815260040161300293929190615496565b602060405180830381600087803b15801561301c57600080fd5b505af1158015613030573d6000803e3d6000fd5b505050506040513d601f19601f8201168201806040525081019061305491906141f7565b50600061307784600030600c600089815260200190815260200160002054613752565b90506001600c6000868152602001908152602001600020546130999190615a7e565b600c6000868152602001908152602001600020819055506130ba848261378e565b91505092915050565b60007f80ac58cd000000000000000000000000000000000000000000000000000000007bffffffffffffffffffffffffffffffffffffffffffffffffffffffff1916827bffffffffffffffffffffffffffffffffffffffffffffffffffffffff1916148061318e57507f5b5e139f000000000000000000000000000000000000000000000000000000007bffffffffffffffffffffffffffffffffffffffffffffffffffffffff1916827bffffffffffffffffffffffffffffffffffffffffffffffffffffffff1916145b8061319e575061319d826137c1565b5b9050919050565b606060008214156131ed576040518060400160405280600181526020017f3000000000000000000000000000000000000000000000000000000000000000815250905061334d565b600082905060005b6000821461321f57808061320890615c85565b915050600a826132189190615ad4565b91506131f5565b60008167ffffffffffffffff811115613261577f4e487b7100000000000000000000000000000000000000000000000000000000600052604160045260246000fd5b6040519080825280601f01601f1916602001820160405280156132935781602001600182028036833780820191505090505b5090505b60008514613346576001826132ac9190615b5f565b9150600a856132bb9190615ce2565b60306132c79190615a7e565b60f81b818381518110613303577f4e487b7100000000000000000000000000000000000000000000000000000000600052603260045260246000fd5b60200101907effffffffffffffffffffffffffffffffffffffffffffffffffffffffffffff1916908160001a905350600a8561333f9190615ad4565b9450613297565b8093505050505b919050565b60008160405160200161336591906151f0565b6040516020818303038152906040528051906020012060001c9050919050565b61341d828260405160240161339b9291906155d1565b6040516020818303038152906040527f9710a9d0000000000000000000000000000000000000000000000000000000007bffffffffffffffffffffffffffffffffffffffffffffffffffffffff19166020820180517bffffffffffffffffffffffffffffffffffffffffffffffffffffffff8381831617835250505050613421565b5050565b60008151905060006a636f6e736f6c652e6c6f679050602083016000808483855afa5050505050565b613454838361382b565b61346160008484846134fd565b6134a0576040517f08c379a00000000000000000000000000000000000000000000000000000000081526004016134979061567f565b60405180910390fd5b505050565b6134ad61123b565b156134ed576040517f08c379a00000000000000000000000000000000000000000000000000000000081526004016134e49061579f565b60405180910390fd5b6134f88383836139f9565b505050565b600061351e8473ffffffffffffffffffffffffffffffffffffffff16613b0d565b15613687578373ffffffffffffffffffffffffffffffffffffffff1663150b7a02613547611c73565b8786866040518563ffffffff1660e01b81526004016135699493929190615421565b602060405180830381600087803b15801561358357600080fd5b505af19250505080156135b457506040513d601f19601f820116820180604052508101906135b19190614285565b60015b613637573d80600081146135e4576040519150601f19603f3d011682016040523d82523d6000602084013e6135e9565b606091505b5060008151141561362f576040517f08c379a00000000000000000000000000000000000000000000000000000000081526004016136269061567f565b60405180910390fd5b805181602001fd5b63150b7a0260e01b7bffffffffffffffffffffffffffffffffffffffffffffffffffffffff1916817bffffffffffffffffffffffffffffffffffffffffffffffffffffffff19161491505061368c565b600190505b949350505050565b606060405180602001604052806000815250905090565b60606136b682611c07565b6136f5576040517f08c379a00000000000000000000000000000000000000000000000000000000081526004016136ec906158df565b60405180910390fd5b60006136ff613694565b9050600081511161371f576040518060200160405280600081525061374a565b80613729846131a5565b60405160200161373a929190615207565b6040516020818303038152906040525b915050919050565b60008484848460405160200161376b9493929190615533565b6040516020818303038152906040528051906020012060001c9050949350505050565b600082826040516020016137a39291906151c4565b60405160208183030381529060405280519060200120905092915050565b60007f01ffc9a7000000000000000000000000000000000000000000000000000000007bffffffffffffffffffffffffffffffffffffffffffffffffffffffff1916827bffffffffffffffffffffffffffffffffffffffffffffffffffffffff1916149050919050565b600073ffffffffffffffffffffffffffffffffffffffff168273ffffffffffffffffffffffffffffffffffffffff16141561389b576040517f08c379a00000000000000000000000000000000000000000000000000000000081526004016138929061583f565b60405180910390fd5b6138a481611c07565b156138e4576040517f08c379a00000000000000000000000000000000000000000000000000000000081526004016138db906156df565b60405180910390fd5b6138f0600083836134a5565b6001600360008473ffffffffffffffffffffffffffffffffffffffff1673ffffffffffffffffffffffffffffffffffffffff16815260200190815260200160002060008282546139409190615a7e565b92505081905550816002600083815260200190815260200160002060006101000a81548173ffffffffffffffffffffffffffffffffffffffff021916908373ffffffffffffffffffffffffffffffffffffffff160217905550808273ffffffffffffffffffffffffffffffffffffffff16600073ffffffffffffffffffffffffffffffffffffffff167fddf252ad1be2c89b69c2b068fc378daa952ba7f163c4a11628f55a4df523b3ef60405160405180910390a45050565b613a04838383613b20565b600073ffffffffffffffffffffffffffffffffffffffff168373ffffffffffffffffffffffffffffffffffffffff161415613a4757613a4281613b25565b613a86565b8173ffffffffffffffffffffffffffffffffffffffff168373ffffffffffffffffffffffffffffffffffffffff1614613a8557613a848382613b6e565b5b5b600073ffffffffffffffffffffffffffffffffffffffff168273ffffffffffffffffffffffffffffffffffffffff161415613ac957613ac481613cdb565b613b08565b8273ffffffffffffffffffffffffffffffffffffffff168273ffffffffffffffffffffffffffffffffffffffff1614613b0757613b068282613e1e565b5b5b505050565b600080823b905060008111915050919050565b505050565b6008805490506009600083815260200190815260200160002081905550600881908060018154018082558091505060019003906000526020600020016000909190919091505550565b60006001613b7b84611304565b613b859190615b5f565b9050600060076000848152602001908152602001600020549050818114613c6a576000600660008673ffffffffffffffffffffffffffffffffffffffff1673ffffffffffffffffffffffffffffffffffffffff168152602001908152602001600020600084815260200190815260200160002054905080600660008773ffffffffffffffffffffffffffffffffffffffff1673ffffffffffffffffffffffffffffffffffffffff168152602001908152602001600020600084815260200190815260200160002081905550816007600083815260200190815260200160002081905550505b6007600084815260200190815260200160002060009055600660008573ffffffffffffffffffffffffffffffffffffffff1673ffffffffffffffffffffffffffffffffffffffff16815260200190815260200160002060008381526020019081526020016000206000905550505050565b60006001600880549050613cef9190615b5f565b9050600060096000848152602001908152602001600020549050600060088381548110613d45577f4e487b7100000000000000000000000000000000000000000000000000000000600052603260045260246000fd5b906000526020600020015490508060088381548110613d8d577f4e487b7100000000000000000000000000000000000000000000000000000000600052603260045260246000fd5b906000526020600020018190555081600960008381526020019081526020016000208190555060096000858152602001908152602001600020600090556008805480613e02577f4e487b7100000000000000000000000000000000000000000000000000000000600052603160045260246000fd5b6001900381819060005260206000200160009055905550505050565b6000613e2983611304565b905081600660008573ffffffffffffffffffffffffffffffffffffffff1673ffffffffffffffffffffffffffffffffffffffff168152602001908152602001600020600083815260200190815260200160002081905550806007600084815260200190815260200160002081905550505050565b828054613ea990615c53565b90600052602060002090601f016020900481019282613ecb5760008555613f12565b82601f10613ee457805160ff1916838001178555613f12565b82800160010185558215613f12579182015b82811115613f11578251825591602001919060010190613ef6565b5b509050613f1f9190613f23565b5090565b5b80821115613f3c576000816000905550600101613f24565b5090565b6000613f53613f4e846159eb565b6159ba565b905082815260208101848484011115613f6b57600080fd5b613f76848285615c11565b509392505050565b600081359050613f8d81615de0565b92915050565b600081359050613fa281615df7565b92915050565b600081519050613fb781615df7565b92915050565b600081359050613fcc81615e0e565b92915050565b600081359050613fe181615e25565b92915050565b600081519050613ff681615e25565b92915050565b600082601f83011261400d57600080fd5b813561401d848260208601613f40565b91505092915050565b60008135905061403581615e3c565b92915050565b60008151905061404a81615e3c565b92915050565b60006020828403121561406257600080fd5b600061407084828501613f7e565b91505092915050565b6000806040838503121561408c57600080fd5b600061409a85828601613f7e565b92505060206140ab85828601613f7e565b9150509250929050565b6000806000606084860312156140ca57600080fd5b60006140d886828701613f7e565b93505060206140e986828701613f7e565b92505060406140fa86828701614026565b9150509250925092565b6000806000806080858703121561411a57600080fd5b600061412887828801613f7e565b945050602061413987828801613f7e565b935050604061414a87828801614026565b925050606085013567ffffffffffffffff81111561416757600080fd5b61417387828801613ffc565b91505092959194509250565b6000806040838503121561419257600080fd5b60006141a085828601613f7e565b92505060206141b185828601613f93565b9150509250929050565b600080604083850312156141ce57600080fd5b60006141dc85828601613f7e565b92505060206141ed85828601614026565b9150509250929050565b60006020828403121561420957600080fd5b600061421784828501613fa8565b91505092915050565b6000806040838503121561423357600080fd5b600061424185828601613fbd565b925050602061425285828601614026565b9150509250929050565b60006020828403121561426e57600080fd5b600061427c84828501613fd2565b91505092915050565b60006020828403121561429757600080fd5b60006142a584828501613fe7565b91505092915050565b6000602082840312156142c057600080fd5b60006142ce84828501614026565b91505092915050565b6000602082840312156142e957600080fd5b60006142f78482850161403b565b91505092915050565b61430981615b93565b82525050565b61431881615ba5565b82525050565b61432781615bb1565b82525050565b61433e61433982615bb1565b615cce565b82525050565b600061434f82615a30565b6143598185615a46565b9350614369818560208601615c20565b61437281615dcf565b840191505092915050565b600061438882615a3b565b6143928185615a62565b93506143a2818560208601615c20565b6143ab81615dcf565b840191505092915050565b60006143c182615a3b565b6143cb8185615a73565b93506143db818560208601615c20565b80840191505092915050565b600081546143f481615c53565b6143fe8186615a73565b94506001821660008114614419576001811461442a5761445d565b60ff1983168652818601935061445d565b61443385615a1b565b60005b8381101561445557815481890152600182019150602081019050614436565b838801955050505b50505092915050565b6000614473601483615a62565b91507f5061757361626c653a206e6f74207061757365640000000000000000000000006000830152602082019050919050565b60006144b3602b83615a62565b91507f455243373231456e756d657261626c653a206f776e657220696e646578206f7560008301527f74206f6620626f756e64730000000000000000000000000000000000000000006020830152604082019050919050565b6000614519603283615a62565b91507f4552433732313a207472616e7366657220746f206e6f6e20455243373231526560008301527f63656976657220696d706c656d656e74657200000000000000000000000000006020830152604082019050919050565b600061457f603f83615a73565b91507f2720636c6173733d27626173652720646f6d696e616e742d626173656c696e6560008301527f3d276d6964646c652720746578742d616e63686f723d276d6964646c65273e006020830152603f82019050919050565b60006145e5601e83615a62565b91507f546865726520617265206e6f204e465473206c65667420746f206d696e7400006000830152602082019050919050565b6000614625602683615a62565b91507f4f776e61626c653a206e6577206f776e657220697320746865207a65726f206160008301527f64647265737300000000000000000000000000000000000000000000000000006020830152604082019050919050565b600061468b600c83615a73565b91507f537572766976616c204b697400000000000000000000000000000000000000006000830152600c82019050919050565b60006146cb601c83615a62565b91507f4552433732313a20746f6b656e20616c7265616479206d696e746564000000006000830152602082019050919050565b600061470b600a83615a73565b91507f54484952445f574f5244000000000000000000000000000000000000000000006000830152600a82019050919050565b600061474b600983615a73565b91507f5452414e53504f525400000000000000000000000000000000000000000000006000830152600982019050919050565b600061478b600683615a73565b91507f574541504f4e00000000000000000000000000000000000000000000000000006000830152600682019050919050565b60006147cb601483615a62565b91507f4661696c656420746f2073656e642045746865720000000000000000000000006000830152602082019050919050565b600061480b602483615a62565b91507f4552433732313a207472616e7366657220746f20746865207a65726f2061646460008301527f72657373000000000000000000000000000000000000000000000000000000006020830152604082019050919050565b6000614871601983615a62565b91507f4552433732313a20617070726f766520746f2063616c6c6572000000000000006000830152602082019050919050565b60006148b1602b83615a62565b91507f4e6f7420656e6f756768204c494e4b202d2066696c6c20636f6e74726163742060008301527f77697468206661756365740000000000000000000000000000000000000000006020830152604082019050919050565b6000614917602c83615a62565b91507f4552433732313a206f70657261746f7220717565727920666f72206e6f6e657860008301527f697374656e7420746f6b656e00000000000000000000000000000000000000006020830152604082019050919050565b600061497d601083615a62565b91507f5061757361626c653a20706175736564000000000000000000000000000000006000830152602082019050919050565b60006149bd603883615a62565b91507f4552433732313a20617070726f76652063616c6c6572206973206e6f74206f7760008301527f6e6572206e6f7220617070726f76656420666f7220616c6c00000000000000006020830152604082019050919050565b6000614a23602a83615a62565b91507f4552433732313a2062616c616e636520717565727920666f7220746865207a6560008301527f726f2061646472657373000000000000000000000000000000000000000000006020830152604082019050919050565b6000614a89602983615a62565b91507f4552433732313a206f776e657220717565727920666f72206e6f6e657869737460008301527f656e7420746f6b656e00000000000000000000000000000000000000000000006020830152604082019050919050565b6000614aef602e83615a62565b91507f45524337323155524953746f726167653a2055524920736574206f66206e6f6e60008301527f6578697374656e7420746f6b656e0000000000000000000000000000000000006020830152604082019050919050565b6000614b55600283615a73565b91507f227d0000000000000000000000000000000000000000000000000000000000006000830152600282019050919050565b6000614b95600783615a73565b91507f3c2f746578743e000000000000000000000000000000000000000000000000006000830152600782019050919050565b6000614bd5602083615a62565b91507f4552433732313a206d696e7420746f20746865207a65726f20616464726573736000830152602082019050919050565b6000614c15603183615a62565b91507f45524337323155524953746f726167653a2055524920717565727920666f722060008301527f6e6f6e6578697374656e7420746f6b656e0000000000000000000000000000006020830152604082019050919050565b6000614c7b602c83615a62565b91507f4552433732313a20617070726f76656420717565727920666f72206e6f6e657860008301527f697374656e7420746f6b656e00000000000000000000000000000000000000006020830152604082019050919050565b6000614ce1602083615a62565b91507f4f776e61626c653a2063616c6c6572206973206e6f7420746865206f776e65726000830152602082019050919050565b6000614d21602983615a62565b91507f4552433732313a207472616e73666572206f6620746f6b656e2074686174206960008301527f73206e6f74206f776e00000000000000000000000000000000000000000000006020830152604082019050919050565b6000614d87602f83615a62565b91507f4552433732314d657461646174613a2055524920717565727920666f72206e6f60008301527f6e6578697374656e7420746f6b656e00000000000000000000000000000000006020830152604082019050919050565b6000614ded601183615a73565b91507f3c7465787420783d273530252720793d270000000000000000000000000000006000830152601182019050919050565b6000614e2d600a83615a73565b91507f7b226e616d65223a2022000000000000000000000000000000000000000000006000830152600a82019050919050565b6000614e6d601f83615a62565b91507f4f6e6c7920565246436f6f7264696e61746f722063616e2066756c66696c6c006000830152602082019050919050565b6000614ead602183615a62565b91507f4552433732313a20617070726f76616c20746f2063757272656e74206f776e6560008301527f72000000000000000000000000000000000000000000000000000000000000006020830152604082019050919050565b6000614f13601d83615a73565b91507f646174613a6170706c69636174696f6e2f6a736f6e3b6261736536342c0000006000830152601d82019050919050565b6000614f53605883615a73565b91507f222c20226465736372697074696f6e223a20225a6f6d6269652041706f63616c60008301527f7970736520537572766976616c204b6974222c2022696d616765223a2022646160208301527f74613a696d6167652f7376672b786d6c3b6261736536342c00000000000000006040830152605882019050919050565b6000614fdf600683615a73565b91507f434f4c4f555200000000000000000000000000000000000000000000000000006000830152600682019050919050565b600061501f600083615a57565b9150600082019050919050565b6000615039603183615a62565b91507f4552433732313a207472616e736665722063616c6c6572206973206e6f74206f60008301527f776e6572206e6f7220617070726f7665640000000000000000000000000000006020830152604082019050919050565b600061509f602c83615a62565b91507f455243373231456e756d657261626c653a20676c6f62616c20696e646578206f60008301527f7574206f6620626f756e647300000000000000000000000000000000000000006020830152604082019050919050565b6000615105602183615a62565b91507f4e6f7420656e6f756768204554482073656e743b20636865636b20707269636560008301527f21000000000000000000000000000000000000000000000000000000000000006020830152604082019050919050565b600061516b600683615a73565b91507f3c2f7376673e00000000000000000000000000000000000000000000000000006000830152600682019050919050565b6151a781615c07565b82525050565b6151be6151b982615c07565b615cd8565b82525050565b60006151d0828561432d565b6020820191506151e082846151ad565b6020820191508190509392505050565b60006151fc82846143b6565b915081905092915050565b600061521382856143b6565b915061521f82846143b6565b91508190509392505050565b600061523782866143b6565b915061524382856143b6565b915061524f82846143b6565b9150819050949350505050565b600061526882896143e7565b915061527482886143b6565b915061528082876143e7565b915061528c82866143b6565b915061529882856143b6565b91506152a482846143b6565b91506152af8261515e565b9150819050979650505050505050565b60006152ca826146fe565b91506152d682846143b6565b915081905092915050565b60006152ec8261473e565b91506152f882846143b6565b915081905092915050565b600061530e8261477e565b915061531a82846143b6565b915081905092915050565b600061533082614de0565b915061533c82856143b6565b915061534782614572565b915061535382846143b6565b915061535e82614b88565b91508190509392505050565b600061537582614e20565b91506153808261467e565b915061538b82614f46565b915061539782846143b6565b91506153a282614b48565b915081905092915050565b60006153b882614f06565b91506153c482846143b6565b915081905092915050565b60006153da82614fd2565b91506153e682846143b6565b915081905092915050565b60006153fc82615012565b9150819050919050565b600060208201905061541b6000830184614300565b92915050565b60006080820190506154366000830187614300565b6154436020830186614300565b615450604083018561519e565b81810360608301526154628184614344565b905095945050505050565b60006040820190506154826000830185614300565b61548f602083018461519e565b9392505050565b60006060820190506154ab6000830186614300565b6154b8602083018561519e565b81810360408301526154ca8184614344565b9050949350505050565b60006020820190506154e9600083018461430f565b92915050565b6000602082019050615504600083018461431e565b92915050565b600060408201905061551f600083018561431e565b61552c602083018461519e565b9392505050565b6000608082019050615548600083018761431e565b615555602083018661519e565b6155626040830185614300565b61556f606083018461519e565b95945050505050565b60006020820190508181036000830152615592818461437d565b905092915050565b600060408201905081810360008301526155b4818561437d565b905081810360208301526155c8818461437d565b90509392505050565b600060408201905081810360008301526155eb818561437d565b90506155fa602083018461519e565b9392505050565b6000606082019050818103600083015261561b818661437d565b905061562a602083018561519e565b6156376040830184614300565b949350505050565b6000602082019050818103600083015261565881614466565b9050919050565b60006020820190508181036000830152615678816144a6565b9050919050565b600060208201905081810360008301526156988161450c565b9050919050565b600060208201905081810360008301526156b8816145d8565b9050919050565b600060208201905081810360008301526156d881614618565b9050919050565b600060208201905081810360008301526156f8816146be565b9050919050565b60006020820190508181036000830152615718816147be565b9050919050565b60006020820190508181036000830152615738816147fe565b9050919050565b6000602082019050818103600083015261575881614864565b9050919050565b60006020820190508181036000830152615778816148a4565b9050919050565b600060208201905081810360008301526157988161490a565b9050919050565b600060208201905081810360008301526157b881614970565b9050919050565b600060208201905081810360008301526157d8816149b0565b9050919050565b600060208201905081810360008301526157f881614a16565b9050919050565b6000602082019050818103600083015261581881614a7c565b9050919050565b6000602082019050818103600083015261583881614ae2565b9050919050565b6000602082019050818103600083015261585881614bc8565b9050919050565b6000602082019050818103600083015261587881614c08565b9050919050565b6000602082019050818103600083015261589881614c6e565b9050919050565b600060208201905081810360008301526158b881614cd4565b9050919050565b600060208201905081810360008301526158d881614d14565b9050919050565b600060208201905081810360008301526158f881614d7a565b9050919050565b6000602082019050818103600083015261591881614e60565b9050919050565b6000602082019050818103600083015261593881614ea0565b9050919050565b600060208201905081810360008301526159588161502c565b9050919050565b6000602082019050818103600083015261597881615092565b9050919050565b60006020820190508181036000830152615998816150f8565b9050919050565b60006020820190506159b4600083018461519e565b92915050565b6000604051905081810181811067ffffffffffffffff821117156159e1576159e0615da0565b5b8060405250919050565b600067ffffffffffffffff821115615a0657615a05615da0565b5b601f19601f8301169050602081019050919050565b60008190508160005260206000209050919050565b600081519050919050565b600081519050919050565b600082825260208201905092915050565b600081905092915050565b600082825260208201905092915050565b600081905092915050565b6000615a8982615c07565b9150615a9483615c07565b9250827fffffffffffffffffffffffffffffffffffffffffffffffffffffffffffffffff03821115615ac957615ac8615d13565b5b828201905092915050565b6000615adf82615c07565b9150615aea83615c07565b925082615afa57615af9615d42565b5b828204905092915050565b6000615b1082615c07565b9150615b1b83615c07565b9250817fffffffffffffffffffffffffffffffffffffffffffffffffffffffffffffffff0483118215151615615b5457615b53615d13565b5b828202905092915050565b6000615b6a82615c07565b9150615b7583615c07565b925082821015615b8857615b87615d13565b5b828203905092915050565b6000615b9e82615be7565b9050919050565b60008115159050919050565b6000819050919050565b60007fffffffff0000000000000000000000000000000000000000000000000000000082169050919050565b600073ffffffffffffffffffffffffffffffffffffffff82169050919050565b6000819050919050565b82818337600083830152505050565b60005b83811015615c3e578082015181840152602081019050615c23565b83811115615c4d576000848401525b50505050565b60006002820490506001821680615c6b57607f821691505b60208210811415615c7f57615c7e615d71565b5b50919050565b6000615c9082615c07565b91507fffffffffffffffffffffffffffffffffffffffffffffffffffffffffffffffff821415615cc357615cc2615d13565b5b600182019050919050565b6000819050919050565b6000819050919050565b6000615ced82615c07565b9150615cf883615c07565b925082615d0857615d07615d42565b5b828206905092915050565b7f4e487b7100000000000000000000000000000000000000000000000000000000600052601160045260246000fd5b7f4e487b7100000000000000000000000000000000000000000000000000000000600052601260045260246000fd5b7f4e487b7100000000000000000000000000000000000000000000000000000000600052602260045260246000fd5b7f4e487b7100000000000000000000000000000000000000000000000000000000600052604160045260246000fd5b6000601f19601f8301169050919050565b615de981615b93565b8114615df457600080fd5b50565b615e0081615ba5565b8114615e0b57600080fd5b50565b615e1781615bb1565b8114615e2257600080fd5b50565b615e2e81615bbb565b8114615e3957600080fd5b50565b615e4581615c07565b8114615e5057600080fd5b5056fe4142434445464748494a4b4c4d4e4f505152535455565758595a6162636465666768696a6b6c6d6e6f707172737475767778797a303132333435363738392b2f416e204e4654207769746820494420257320686173206265656e206d696e74656420746f202573a2646970667358221220b960caf8e1e68cd5491941de78aeae927edce9951b64aa24be74147eece5aeee64736f6c634300080000333c73766720786d6c6e733d27687474703a2f2f7777772e77332e6f72672f323030302f73766727207072657365727665417370656374526174696f3d27784d696e594d696e206d656574272076696577426f783d273020302033353020333530273e3c7374796c653e2e62617365207b2066696c6c3a2077686974653b20666f6e742d66616d696c793a2073657269663b20666f6e742d73697a653a20323470783b207d3c2f7374796c653e3c726563742077696474683d273130302527206865696768743d2731303025272066696c6c3d27",
  "immutableReferences": {
    "73": [
      {
        "length": 32,
        "start": 6330
      },
      {
        "length": 32,
        "start": 12133
      }
    ],
    "75": [
      {
        "length": 32,
        "start": 5366
      },
      {
        "length": 32,
        "start": 12193
      }
    ]
  },
  "source": "// SPDX-License-Identifier: MIT\npragma solidity 0.8.0;\n\n// We selectedWeapon import some OpenZeppelin Contracts.\nimport \"@openzeppelin/contracts/utils/Strings.sol\";\nimport \"@openzeppelin/contracts/token/ERC721/ERC721.sol\";\nimport \"@openzeppelin/contracts/token/ERC721/extensions/ERC721URIStorage.sol\";\nimport \"@openzeppelin/contracts/utils/Counters.sol\";\nimport \"@openzeppelin/contracts/security/Pausable.sol\";\nimport \"@openzeppelin/contracts/access/Ownable.sol\";\nimport \"@openzeppelin/contracts/token/ERC721/extensions/ERC721Enumerable.sol\";\nimport \"hardhat-console/contracts/console.sol\";\nimport \"@chainlink/contracts/src/v0.8/VRFConsumerBase.sol\";\n\n// Import helper functions needed for Base62 encoding\nimport { Base64 } from \"./libraries/Base64.sol\";\n\n/**\n@title Zombie Apocalipse Survival kit generator\n@author Ben Naylor\n@notice This contract currently only handles free mints. No payment is taken.\n\n */\ncontract SurvivalKitClaim is ERC721, ERC721Enumerable, ERC721URIStorage, Pausable, Ownable, VRFConsumerBase {\n\n    uint private supplyCap = 3000;\n    bytes32 keyHash;\n    uint256 fee;\n    uint256 public randomResult;\n    mapping(bytes32 => address) private requestIdToSender;\n    mapping(bytes32 => uint256) private requestIdToTokenId;\n    mapping(uint256 => uint256) private tokenIdToRandomNumber;\n\n    /// @notice keep track of token ids using purpose built OpenZeppelin utility\n    using Counters for Counters.Counter;\n    Counters.Counter private _tokenIds;\n\n    /// @dev We split the SVG at the part where it asks for the background color.\n    string svgPartOne = \"<svg xmlns='http://www.w3.org/2000/svg' preserveAspectRatio='xMinYMin meet' viewBox='0 0 350 350'><style>.base { fill: white; font-family: serif; font-size: 24px; }</style><rect width='100%' height='100%' fill='\";\n    // string svgPartTwo = \"'/><text x='50%' y='50%' class='base' dominant-baseline='middle' text-anchor='middle'>\";\n    string svgPartTwo = \"'/>\";\n\n    string[] weapon = [\"Crossbow\", \"Shotgun\", \"Samuri Sword\", \"Baseball Bat\", \"Crowbar\", \"slingshot\", \"Axe\", \"Katana\", \"Sledge Hammer\", \"Machete\", \"Handgun\", \"Kunckle Duster\", \"Rifle\", \"Tomahawk\", \"Pointy Stick\"];\n    string[] transport = [\"Motorbike\", \"Car\", \"Bicycle\", \"Jeep\", \"On Foot\", \"Helicopter\", \"Boat\", \"Skateboard\", \"Rollerblades\", \"Scooter\"];\n    string[] item = [\"Torch\", \"Animal Snare\", \"Medicine\", \"Radio\", \"Map\", \"Wistle\", \"Candle\", \"Walkie-Talkie\", \"Water Bottle\", \"Water Purification Tablets\", \"Gloves\", \"Binoculars\", \"Watch\", \"Food Rations\"];\n    string[] colors = [\"red\", \"black\", \"blue\", \"green\", \"indigo\", \"grey\"];\n\n    /// @notice Event to be emitted after a successful mint\n    /// @param sender The address of the transaction sender\n    /// @param tokenId The id of the token that has just been minted\n    event SurvivalKitNftClaimed(address sender, uint256 tokenId);\n    \n    event RequestRandomNumber(bytes32 indexed requestId, uint256 indexed tokenId);\n\n    event CreatedUnfinishedRandomSVG(uint256 indexed tokenId, uint256 randomNumber);\n    \n    /// @notice contract constructor. Takes parameters and passes them to the inherited ERC721 contract constructor\n    /// @param _name the name of the contract\n    /// @param _symbol the symbol that contract tokens will be represented by\n    /// @param _supplyCap the maximum token that are mintable from this contract\n    constructor(\n        address _VRFCoordinator,\n        address _linkToken,\n        bytes32 _keyhash,\n        string memory _name, \n        string memory _symbol, \n        uint _supplyCap)\n    VRFConsumerBase(_VRFCoordinator, _linkToken)\n    ERC721(_name, _symbol) {\n        require(_supplyCap > 0, \"supplyCap must be greater than 0\");\n        supplyCap = _supplyCap;\n        keyHash = _keyhash;\n        fee = 0.1 * 10 ** 18;\n    }\n\n    /// @notice pauses the contract. \n    /// @dev Inherits _pause() function from Pausable.sol and the onlyOwner modifier from Ownable.sol\n    function pause() public onlyOwner {\n        _pause();\n    }\n\n    /// @notice unpauses the contract. \n    /// @dev Inherits _unpause() function from Pausable.sol and the onlyOwner modifier from Ownable.sol\n    function unpause() public onlyOwner {\n        _unpause();\n    }\n\n    /// @return maximum number of mints allowed on contract \n    function getSupplyCap() public view returns(uint256) {\n        return supplyCap;\n    }\n\n    /// @return number of remaining mints on the contract\n    function getRemainingMints () public view returns (uint256) {\n        return supplyCap - _tokenIds.current();\n    }\n\n    /// @return number of tokens minted on the contract so far.\n    function getTotalNFTsMintedSoFar () public view returns (uint256) {\n        return _tokenIds.current();\n    }\n\n    /// @return a uint representing the balance (in wei) held by the contract.\n    function balanceOfContract()  public view returns(uint){\n        return address(this).balance;\n    }\n\n    /// @notice allows the contract owner to withdraw the funds currently being held by the contract. \n    function withdrawAllFunds()  public payable onlyOwner {\n        (bool sent, ) = msg.sender.call{value: address(this).balance}(\"\");\n        require(sent, \"Failed to send Ether\");\n    }\n\n    /// @notice allows the contract owner to withdraw the funds currently being held by the contract. \n    function withdrawFunds(uint amount)  public payable onlyOwner {\n        (bool sent, ) = msg.sender.call{value: amount}(\"\");\n        require(sent, \"Failed to send Ether\");\n    }\n    \n    /** \n     * Requests randomness \n     */\n    function create() public returns (bytes32 requestId) {\n        require(LINK.balanceOf(address(this)) >= fee, \"Not enough LINK - fill contract with faucet\");\n        requestId = requestRandomness(keyHash, fee);\n        // map request to sender\n        requestIdToSender[requestId] = msg.sender;\n        // map request to token id\n        requestIdToTokenId[requestId] = _tokenIds.current();\n        emit RequestRandomNumber(requestId, _tokenIds.current());\n        _tokenIds.increment();\n    }\n\n    /**\n     * Callback function used by VRF Coordinator\n     */\n    function fulfillRandomness(bytes32 requestId, uint256 randomness) internal override {\n        address nftOwner = requestIdToSender[requestId];\n        uint tokenId = requestIdToTokenId[requestId];\n        _safeMint(nftOwner, tokenId);\n        tokenIdToRandomNumber[tokenId] = randomness;\n        // good practice to emit an event after a mapping\n        CreatedUnfinishedRandomSVG(tokenId, randomness);\n    }\n    \n    \n\n    /// @notice pick a random weappon to equip the player with\n    /// @dev the randomness could be improved by using an oracle feed.\n    /// @param tokenId used to seed the random function\n    /// @return A random weapon from the array of weapons available.\n    function pickRandomWeapon(uint256 tokenId) internal view returns (string memory) {\n        // seed the random generator\n        uint256 rand = random(string(abi.encodePacked(\"WEAPON\", Strings.toString(tokenId))));\n        // Squash the # between 0 and the length of the array to avoid going out of bounds.\n        rand = rand % weapon.length;\n        return weapon[rand];\n    }\n\n    /// @notice pick a random transport to equip the player with\n    /// @param tokenId used to seed the random function\n    /// @return A random weapon from the array of transport available.\n    function pickRandomTransport(uint256 tokenId) internal view returns (string memory) {\n        uint256 rand = random(string(abi.encodePacked(\"TRANSPORT\", Strings.toString(tokenId))));\n        rand = rand % transport.length;\n        return transport[rand];\n    }\n\n    /// @notice pick a random item to equip the player with\n    /// @param tokenId used to seed the random function\n    /// @return A random item from the array of items available.\n    function pickRandomItem(uint256 tokenId) internal view returns (string memory) {\n        console.log(\"Random Seed: \", string(abi.encodePacked(\"THIRD_WORD\", Strings.toString(tokenId))));\n        uint256 rand = random(string(abi.encodePacked(\"THIRD_WORD\", Strings.toString(tokenId))));\n        console.log(\"pickRandomItem rand: \", rand);\n        rand = rand % item.length;\n        console.log(\"pickRandomItem rand: \", rand);\n        return item[rand];\n    }\n\n    /// @notice pick a random background colour for the players card\n    /// @param tokenId used to seed the random function\n    /// @return A random background colour from the array of colours available.\n    function pickRandomBackgroundColour(uint256 tokenId) internal view returns (string memory) {\n        uint256 rand = random(string(abi.encodePacked(\"COLOUR\", Strings.toString(tokenId))));\n        rand = rand % colors.length;\n        return colors[rand];\n    } \n\n    /// @param input string input which is hashed to generate the 'random' number.\n    /// @dev this function could be made truly random by using an oracle feed.\n    /// @return A random integer\n    function random(string memory input) internal pure returns (uint256) {\n        return uint(keccak256(abi.encodePacked(input)));\n    }\n\n    /// @dev overriding this function was required to inherit from ERC721 and ERC721URIStorage\n    function _burn(uint256 tokenId) internal whenNotPaused override(ERC721, ERC721URIStorage) {\n        super._burn(tokenId);\n    }\n\n    /// @param tokenId the tokenId to retrieve URI for\n    /// @return the token URI containing the tokens metadata\n    function tokenURI(uint256 tokenId) public view override (ERC721, ERC721URIStorage) returns (string memory) {\n        return super.tokenURI(tokenId);\n    }\n\n    function createItem(string memory claimedItem, uint itemNumber) internal pure returns (string memory) {\n        string memory position;\n        if(itemNumber == 1) {\n            position = \"40%\";\n        } else if (itemNumber == 2) {\n            position = \"50%\";\n        } else {\n            position = \"60%\";\n        }\n        \n        return string(abi.encodePacked(\"<text x='50%' y='\", position, \"' class='base' dominant-baseline='middle' text-anchor='middle'>\", claimedItem, \"</text>\"));\n    }\n    \n\n    /// @notice mint an ERC721 token on the contract. The caller will receive a token containing a survival kit that includes a weapon, a transport and an item. All are randomly selected.  \n    /// @dev currently does not accept payment\n    /// @dev this function creates and stores the tokens URI. This is a JSON string constisting of name, description and image fields. The image is a BASE64 encoded SVG. Finally The whole JSON metadata string is BASE64 encoded and mapped to the tokenId.\n    function mintNFT() public payable whenNotPaused{\n        require(_tokenIds.current() <= supplyCap, \"There are no NFTs left to mint\");\n        require(msg.value >= 10000000000000000, \"Not enough ETH sent; check price!\");\n        \n        // create \n        create();\n        \n        // get the current tokenId, this starts at 0\n        uint newItemId = _tokenIds.current();\n\n        // randomly grab one word from each of the arrays\n        string memory selectedWeapon = pickRandomWeapon(newItemId);\n        string memory selectedTransport = pickRandomTransport(newItemId);\n        string memory selectedItem = pickRandomItem(newItemId);\n        string memory completeKit = string(abi.encodePacked(selectedWeapon, selectedTransport, selectedItem));\n\n        console.log(\"completeKit: \", completeKit);\n\n        // Add the random color in.\n        string memory randomColor = pickRandomBackgroundColour(newItemId);\n        // string memory finalSvg = string(abi.encodePacked(svgPartOne, randomColor, svgPartTwo, completeKit, \"</text></svg>\"));\n        string memory finalSvg = string(abi.encodePacked(svgPartOne, randomColor, svgPartTwo, \n        createItem(selectedWeapon, 1), \n        createItem(selectedTransport, 2), \n        createItem(selectedItem, 3), \n        \"</svg>\"));\n\n        console.log(\"finalSvg: \", finalSvg);\n\n        // get all the JSON metadata in place and base64 encode it\n        string memory json = Base64.encode(\n            bytes(\n                string(\n                    abi.encodePacked(\n                        '{\"name\": \"',\"Survival Kit\",\n                        '\", \"description\": \"Zombie Apocalypse Survival Kit\", \"image\": \"data:image/svg+xml;base64,',\n                    // add data:image/svg+xml;base64 and then append our base64 encode our svg.\n                    Base64.encode(bytes(finalSvg)),\n                    '\"}'\n                    )\n                )\n            )\n        );\n        console.log(\"BASE64 encoded JSON: \", json);\n\n        // Just like before, we prepend data:application/json;base64, to our data.\n        string memory finalTokenUri = string(\n            abi.encodePacked(\"data:application/json;base64,\", json)\n        );\n        console.log(\"finalTokenUri: \", finalTokenUri);\n\n        console.log(\"\\n--------------------\");\n        // console.log(finalTokenUri);\n        console.log(\"--------------------\\n\");  \n\n        // actually mint the NFT to the sender using msg.sender\n        _safeMint(msg.sender, newItemId);\n\n        // store the tokens metadata\n        _setTokenURI(newItemId, finalTokenUri);\n\n        // increment the counter for when the next NFT is minted\n        _tokenIds.increment();\n        console.log(\"An NFT with ID %s has been minted to %s\", newItemId, msg.sender);\n        emit SurvivalKitNftClaimed(msg.sender, newItemId);\n    }\n\n    // The following functions are overrides required by Solidity.\n    function _beforeTokenTransfer(address from, address to, uint256 tokenId) internal whenNotPaused override(ERC721, ERC721Enumerable) {\n        super._beforeTokenTransfer(from, to, tokenId);\n    }\n\n    function supportsInterface(bytes4 interfaceId) public view override(ERC721, ERC721Enumerable) returns (bool) {\n        return super.supportsInterface(interfaceId);\n    }\n}",
  "sourcePath": "/Users/bennaylor/Development/Consensys Academy/blockchain-developer-bootcamp-final-project/contracts/SurvivalKitClaim.sol",
  "compiler": {
    "name": "solc",
    "version": "0.8.0+commit.c7dfd78e.Emscripten.clang"
  },
  "schemaVersion": "3.4.3",
  "updatedAt": "2021-11-17T12:24:03.940Z",
  "devdoc": {
    "author": "Ben Naylor",
    "events": {
      "SurvivalKitNftClaimed(address,uint256)": {
        "params": {
          "sender": "The address of the transaction sender",
          "tokenId": "The id of the token that has just been minted"
        }
      }
    },
    "kind": "dev",
    "methods": {
      "approve(address,uint256)": {
        "details": "See {IERC721-approve}."
      },
      "balanceOf(address)": {
        "details": "See {IERC721-balanceOf}."
      },
      "balanceOfContract()": {
        "returns": {
          "_0": "a uint representing the balance (in wei) held by the contract."
        }
      },
      "constructor": {
        "params": {
          "_name": "the name of the contract",
          "_supplyCap": "the maximum token that are mintable from this contract",
          "_symbol": "the symbol that contract tokens will be represented by"
        }
      },
      "getApproved(uint256)": {
        "details": "See {IERC721-getApproved}."
      },
      "getRemainingMints()": {
        "returns": {
          "_0": "number of remaining mints on the contract"
        }
      },
      "getSupplyCap()": {
        "returns": {
          "_0": "maximum number of mints allowed on contract "
        }
      },
      "getTotalNFTsMintedSoFar()": {
        "returns": {
          "_0": "number of tokens minted on the contract so far."
        }
      },
      "isApprovedForAll(address,address)": {
        "details": "See {IERC721-isApprovedForAll}."
      },
      "mintNFT()": {
        "details": "currently does not accept paymentthis function creates and stores the tokens URI. This is a JSON string constisting of name, description and image fields. The image is a BASE64 encoded SVG. Finally The whole JSON metadata string is BASE64 encoded and mapped to the tokenId."
      },
      "name()": {
        "details": "See {IERC721Metadata-name}."
      },
      "owner()": {
        "details": "Returns the address of the current owner."
      },
      "ownerOf(uint256)": {
        "details": "See {IERC721-ownerOf}."
      },
      "pause()": {
        "details": "Inherits _pause() function from Pausable.sol and the onlyOwner modifier from Ownable.sol"
      },
      "paused()": {
        "details": "Returns true if the contract is paused, and false otherwise."
      },
      "renounceOwnership()": {
        "details": "Leaves the contract without owner. It will not be possible to call `onlyOwner` functions anymore. Can only be called by the current owner. NOTE: Renouncing ownership will leave the contract without an owner, thereby removing any functionality that is only available to the owner."
      },
      "safeTransferFrom(address,address,uint256)": {
        "details": "See {IERC721-safeTransferFrom}."
      },
      "safeTransferFrom(address,address,uint256,bytes)": {
        "details": "See {IERC721-safeTransferFrom}."
      },
      "setApprovalForAll(address,bool)": {
        "details": "See {IERC721-setApprovalForAll}."
      },
      "symbol()": {
        "details": "See {IERC721Metadata-symbol}."
      },
      "tokenByIndex(uint256)": {
        "details": "See {IERC721Enumerable-tokenByIndex}."
      },
      "tokenOfOwnerByIndex(address,uint256)": {
        "details": "See {IERC721Enumerable-tokenOfOwnerByIndex}."
      },
      "tokenURI(uint256)": {
        "params": {
          "tokenId": "the tokenId to retrieve URI for"
        },
        "returns": {
          "_0": "the token URI containing the tokens metadata"
        }
      },
      "totalSupply()": {
        "details": "See {IERC721Enumerable-totalSupply}."
      },
      "transferFrom(address,address,uint256)": {
        "details": "See {IERC721-transferFrom}."
      },
      "transferOwnership(address)": {
        "details": "Transfers ownership of the contract to a new account (`newOwner`). Can only be called by the current owner."
      },
      "unpause()": {
        "details": "Inherits _unpause() function from Pausable.sol and the onlyOwner modifier from Ownable.sol"
      }
    },
    "stateVariables": {
      "svgPartOne": {
        "details": "We split the SVG at the part where it asks for the background color."
      }
    },
    "title": "Zombie Apocalipse Survival kit generator",
    "version": 1
  },
  "userdoc": {
    "events": {
      "SurvivalKitNftClaimed(address,uint256)": {
        "notice": "Event to be emitted after a successful mint"
      }
    },
    "kind": "user",
    "methods": {
      "constructor": {
        "notice": "contract constructor. Takes parameters and passes them to the inherited ERC721 contract constructor"
      },
      "create()": {
        "notice": "Requests randomness "
      },
      "mintNFT()": {
        "notice": "mint an ERC721 token on the contract. The caller will receive a token containing a survival kit that includes a weapon, a transport and an item. All are randomly selected.  "
      },
      "pause()": {
        "notice": "pauses the contract. "
      },
      "unpause()": {
        "notice": "unpauses the contract. "
      },
      "withdrawAllFunds()": {
        "notice": "allows the contract owner to withdraw the funds currently being held by the contract. "
      },
      "withdrawFunds(uint256)": {
        "notice": "allows the contract owner to withdraw the funds currently being held by the contract. "
      }
    },
    "notice": "This contract currently only handles free mints. No payment is taken.",
    "version": 1
  }
}