{
  "contractName": "SurvivalKitClaim",
  "abi": [
    {
      "inputs": [
        {
          "internalType": "string",
          "name": "_name",
          "type": "string"
        },
        {
          "internalType": "string",
          "name": "_symbol",
          "type": "string"
        },
        {
          "internalType": "uint256",
          "name": "_supplyCap",
          "type": "uint256"
        }
      ],
      "stateMutability": "nonpayable",
      "type": "constructor"
    },
    {
      "anonymous": false,
      "inputs": [
        {
          "indexed": true,
          "internalType": "address",
          "name": "owner",
          "type": "address"
        },
        {
          "indexed": true,
          "internalType": "address",
          "name": "approved",
          "type": "address"
        },
        {
          "indexed": true,
          "internalType": "uint256",
          "name": "tokenId",
          "type": "uint256"
        }
      ],
      "name": "Approval",
      "type": "event"
    },
    {
      "anonymous": false,
      "inputs": [
        {
          "indexed": true,
          "internalType": "address",
          "name": "owner",
          "type": "address"
        },
        {
          "indexed": true,
          "internalType": "address",
          "name": "operator",
          "type": "address"
        },
        {
          "indexed": false,
          "internalType": "bool",
          "name": "approved",
          "type": "bool"
        }
      ],
      "name": "ApprovalForAll",
      "type": "event"
    },
    {
      "anonymous": false,
      "inputs": [
        {
          "indexed": true,
          "internalType": "address",
          "name": "previousOwner",
          "type": "address"
        },
        {
          "indexed": true,
          "internalType": "address",
          "name": "newOwner",
          "type": "address"
        }
      ],
      "name": "OwnershipTransferred",
      "type": "event"
    },
    {
      "anonymous": false,
      "inputs": [
        {
          "indexed": false,
          "internalType": "address",
          "name": "account",
          "type": "address"
        }
      ],
      "name": "Paused",
      "type": "event"
    },
    {
      "anonymous": false,
      "inputs": [
        {
          "indexed": false,
          "internalType": "address",
          "name": "sender",
          "type": "address"
        },
        {
          "indexed": false,
          "internalType": "uint256",
          "name": "tokenId",
          "type": "uint256"
        }
      ],
      "name": "SurvivalKitNftClaimed",
      "type": "event"
    },
    {
      "anonymous": false,
      "inputs": [
        {
          "indexed": true,
          "internalType": "address",
          "name": "from",
          "type": "address"
        },
        {
          "indexed": true,
          "internalType": "address",
          "name": "to",
          "type": "address"
        },
        {
          "indexed": true,
          "internalType": "uint256",
          "name": "tokenId",
          "type": "uint256"
        }
      ],
      "name": "Transfer",
      "type": "event"
    },
    {
      "anonymous": false,
      "inputs": [
        {
          "indexed": false,
          "internalType": "address",
          "name": "account",
          "type": "address"
        }
      ],
      "name": "Unpaused",
      "type": "event"
    },
    {
      "inputs": [
        {
          "internalType": "address",
          "name": "to",
          "type": "address"
        },
        {
          "internalType": "uint256",
          "name": "tokenId",
          "type": "uint256"
        }
      ],
      "name": "approve",
      "outputs": [],
      "stateMutability": "nonpayable",
      "type": "function"
    },
    {
      "inputs": [
        {
          "internalType": "address",
          "name": "owner",
          "type": "address"
        }
      ],
      "name": "balanceOf",
      "outputs": [
        {
          "internalType": "uint256",
          "name": "",
          "type": "uint256"
        }
      ],
      "stateMutability": "view",
      "type": "function",
      "constant": true
    },
    {
      "inputs": [
        {
          "internalType": "uint256",
          "name": "tokenId",
          "type": "uint256"
        }
      ],
      "name": "getApproved",
      "outputs": [
        {
          "internalType": "address",
          "name": "",
          "type": "address"
        }
      ],
      "stateMutability": "view",
      "type": "function",
      "constant": true
    },
    {
      "inputs": [
        {
          "internalType": "address",
          "name": "owner",
          "type": "address"
        },
        {
          "internalType": "address",
          "name": "operator",
          "type": "address"
        }
      ],
      "name": "isApprovedForAll",
      "outputs": [
        {
          "internalType": "bool",
          "name": "",
          "type": "bool"
        }
      ],
      "stateMutability": "view",
      "type": "function",
      "constant": true
    },
    {
      "inputs": [],
      "name": "name",
      "outputs": [
        {
          "internalType": "string",
          "name": "",
          "type": "string"
        }
      ],
      "stateMutability": "view",
      "type": "function",
      "constant": true
    },
    {
      "inputs": [],
      "name": "owner",
      "outputs": [
        {
          "internalType": "address",
          "name": "",
          "type": "address"
        }
      ],
      "stateMutability": "view",
      "type": "function",
      "constant": true
    },
    {
      "inputs": [
        {
          "internalType": "uint256",
          "name": "tokenId",
          "type": "uint256"
        }
      ],
      "name": "ownerOf",
      "outputs": [
        {
          "internalType": "address",
          "name": "",
          "type": "address"
        }
      ],
      "stateMutability": "view",
      "type": "function",
      "constant": true
    },
    {
      "inputs": [],
      "name": "paused",
      "outputs": [
        {
          "internalType": "bool",
          "name": "",
          "type": "bool"
        }
      ],
      "stateMutability": "view",
      "type": "function",
      "constant": true
    },
    {
      "inputs": [],
      "name": "renounceOwnership",
      "outputs": [],
      "stateMutability": "nonpayable",
      "type": "function"
    },
    {
      "inputs": [
        {
          "internalType": "address",
          "name": "from",
          "type": "address"
        },
        {
          "internalType": "address",
          "name": "to",
          "type": "address"
        },
        {
          "internalType": "uint256",
          "name": "tokenId",
          "type": "uint256"
        }
      ],
      "name": "safeTransferFrom",
      "outputs": [],
      "stateMutability": "nonpayable",
      "type": "function"
    },
    {
      "inputs": [
        {
          "internalType": "address",
          "name": "from",
          "type": "address"
        },
        {
          "internalType": "address",
          "name": "to",
          "type": "address"
        },
        {
          "internalType": "uint256",
          "name": "tokenId",
          "type": "uint256"
        },
        {
          "internalType": "bytes",
          "name": "_data",
          "type": "bytes"
        }
      ],
      "name": "safeTransferFrom",
      "outputs": [],
      "stateMutability": "nonpayable",
      "type": "function"
    },
    {
      "inputs": [
        {
          "internalType": "address",
          "name": "operator",
          "type": "address"
        },
        {
          "internalType": "bool",
          "name": "approved",
          "type": "bool"
        }
      ],
      "name": "setApprovalForAll",
      "outputs": [],
      "stateMutability": "nonpayable",
      "type": "function"
    },
    {
      "inputs": [],
      "name": "symbol",
      "outputs": [
        {
          "internalType": "string",
          "name": "",
          "type": "string"
        }
      ],
      "stateMutability": "view",
      "type": "function",
      "constant": true
    },
    {
      "inputs": [
        {
          "internalType": "uint256",
          "name": "index",
          "type": "uint256"
        }
      ],
      "name": "tokenByIndex",
      "outputs": [
        {
          "internalType": "uint256",
          "name": "",
          "type": "uint256"
        }
      ],
      "stateMutability": "view",
      "type": "function",
      "constant": true
    },
    {
      "inputs": [
        {
          "internalType": "address",
          "name": "owner",
          "type": "address"
        },
        {
          "internalType": "uint256",
          "name": "index",
          "type": "uint256"
        }
      ],
      "name": "tokenOfOwnerByIndex",
      "outputs": [
        {
          "internalType": "uint256",
          "name": "",
          "type": "uint256"
        }
      ],
      "stateMutability": "view",
      "type": "function",
      "constant": true
    },
    {
      "inputs": [],
      "name": "totalSupply",
      "outputs": [
        {
          "internalType": "uint256",
          "name": "",
          "type": "uint256"
        }
      ],
      "stateMutability": "view",
      "type": "function",
      "constant": true
    },
    {
      "inputs": [
        {
          "internalType": "address",
          "name": "from",
          "type": "address"
        },
        {
          "internalType": "address",
          "name": "to",
          "type": "address"
        },
        {
          "internalType": "uint256",
          "name": "tokenId",
          "type": "uint256"
        }
      ],
      "name": "transferFrom",
      "outputs": [],
      "stateMutability": "nonpayable",
      "type": "function"
    },
    {
      "inputs": [
        {
          "internalType": "address",
          "name": "newOwner",
          "type": "address"
        }
      ],
      "name": "transferOwnership",
      "outputs": [],
      "stateMutability": "nonpayable",
      "type": "function"
    },
    {
      "inputs": [],
      "name": "pause",
      "outputs": [],
      "stateMutability": "nonpayable",
      "type": "function"
    },
    {
      "inputs": [],
      "name": "unpause",
      "outputs": [],
      "stateMutability": "nonpayable",
      "type": "function"
    },
    {
      "inputs": [],
      "name": "getSupplyCap",
      "outputs": [
        {
          "internalType": "uint256",
          "name": "",
          "type": "uint256"
        }
      ],
      "stateMutability": "view",
      "type": "function",
      "constant": true
    },
    {
      "inputs": [],
      "name": "getRemainingMints",
      "outputs": [
        {
          "internalType": "uint256",
          "name": "",
          "type": "uint256"
        }
      ],
      "stateMutability": "view",
      "type": "function",
      "constant": true
    },
    {
      "inputs": [],
      "name": "getTotalNFTsMintedSoFar",
      "outputs": [
        {
          "internalType": "uint256",
          "name": "",
          "type": "uint256"
        }
      ],
      "stateMutability": "view",
      "type": "function",
      "constant": true
    },
    {
      "inputs": [],
      "name": "balanceOfContract",
      "outputs": [
        {
          "internalType": "uint256",
          "name": "",
          "type": "uint256"
        }
      ],
      "stateMutability": "view",
      "type": "function",
      "constant": true
    },
    {
      "inputs": [],
      "name": "withdrawContractFunds",
      "outputs": [],
      "stateMutability": "payable",
      "type": "function",
      "payable": true
    },
    {
      "inputs": [
        {
          "internalType": "uint256",
          "name": "tokenId",
          "type": "uint256"
        }
      ],
      "name": "tokenURI",
      "outputs": [
        {
          "internalType": "string",
          "name": "",
          "type": "string"
        }
      ],
      "stateMutability": "view",
      "type": "function",
      "constant": true
    },
    {
      "inputs": [],
      "name": "mintNFT",
      "outputs": [],
      "stateMutability": "payable",
      "type": "function",
      "payable": true
    },
    {
      "inputs": [
        {
          "internalType": "bytes4",
          "name": "interfaceId",
          "type": "bytes4"
        }
      ],
      "name": "supportsInterface",
      "outputs": [
        {
          "internalType": "bool",
          "name": "",
          "type": "bool"
        }
      ],
      "stateMutability": "view",
      "type": "function",
      "constant": true
    }
  ],
  "bytecode": "0x6080604052610bb8600c5560405180610100016040528060d38152602001620067d660d39139600e90805190602001906200003c92919062000d25565b506040518060400160405280600381526020017f272f3e0000000000000000000000000000000000000000000000000000000000815250600f90805190602001906200008a92919062000d25565b50604051806101e001604052806040518060400160405280600881526020017f43726f7373626f7700000000000000000000000000000000000000000000000081525081526020016040518060400160405280600781526020017f53686f7467756e0000000000000000000000000000000000000000000000000081525081526020016040518060400160405280600c81526020017f53616d7572692053776f7264000000000000000000000000000000000000000081525081526020016040518060400160405280600c81526020017f4261736562616c6c20426174000000000000000000000000000000000000000081525081526020016040518060400160405280600781526020017f43726f776261720000000000000000000000000000000000000000000000000081525081526020016040518060400160405280600981526020017f736c696e6773686f74000000000000000000000000000000000000000000000081525081526020016040518060400160405280600381526020017f417865000000000000000000000000000000000000000000000000000000000081525081526020016040518060400160405280600681526020017f4b6174616e61000000000000000000000000000000000000000000000000000081525081526020016040518060400160405280600d81526020017f536c656467652048616d6d65720000000000000000000000000000000000000081525081526020016040518060400160405280600781526020017f4d6163686574650000000000000000000000000000000000000000000000000081525081526020016040518060400160405280600781526020017f48616e6467756e0000000000000000000000000000000000000000000000000081525081526020016040518060400160405280600e81526020017f4b756e636b6c652044757374657200000000000000000000000000000000000081525081526020016040518060400160405280600581526020017f5269666c6500000000000000000000000000000000000000000000000000000081525081526020016040518060400160405280600881526020017f546f6d616861776b00000000000000000000000000000000000000000000000081525081526020016040518060400160405280600c81526020017f506f696e747920537469636b0000000000000000000000000000000000000000815250815250601090600f6200041c92919062000db6565b506040518061014001604052806040518060400160405280600981526020017f4d6f746f7262696b65000000000000000000000000000000000000000000000081525081526020016040518060400160405280600381526020017f436172000000000000000000000000000000000000000000000000000000000081525081526020016040518060400160405280600781526020017f42696379636c650000000000000000000000000000000000000000000000000081525081526020016040518060400160405280600481526020017f4a6565700000000000000000000000000000000000000000000000000000000081525081526020016040518060400160405280600781526020017f4f6e20466f6f740000000000000000000000000000000000000000000000000081525081526020016040518060400160405280600a81526020017f48656c69636f707465720000000000000000000000000000000000000000000081525081526020016040518060400160405280600481526020017f426f61740000000000000000000000000000000000000000000000000000000081525081526020016040518060400160405280600a81526020017f536b617465626f6172640000000000000000000000000000000000000000000081525081526020016040518060400160405280600c81526020017f526f6c6c6572626c61646573000000000000000000000000000000000000000081525081526020016040518060400160405280600781526020017f53636f6f74657200000000000000000000000000000000000000000000000000815250815250601190600a6200068792919062000e1d565b50604051806101c001604052806040518060400160405280600581526020017f546f72636800000000000000000000000000000000000000000000000000000081525081526020016040518060400160405280600c81526020017f416e696d616c20536e617265000000000000000000000000000000000000000081525081526020016040518060400160405280600881526020017f4d65646963696e6500000000000000000000000000000000000000000000000081525081526020016040518060400160405280600581526020017f526164696f00000000000000000000000000000000000000000000000000000081525081526020016040518060400160405280600381526020017f4d6170000000000000000000000000000000000000000000000000000000000081525081526020016040518060400160405280600681526020017f576973746c65000000000000000000000000000000000000000000000000000081525081526020016040518060400160405280600681526020017f43616e646c65000000000000000000000000000000000000000000000000000081525081526020016040518060400160405280600d81526020017f57616c6b69652d54616c6b69650000000000000000000000000000000000000081525081526020016040518060400160405280600c81526020017f576174657220426f74746c65000000000000000000000000000000000000000081525081526020016040518060400160405280601a81526020017f576174657220507572696669636174696f6e205461626c65747300000000000081525081526020016040518060400160405280600681526020017f476c6f766573000000000000000000000000000000000000000000000000000081525081526020016040518060400160405280600a81526020017f42696e6f63756c6172730000000000000000000000000000000000000000000081525081526020016040518060400160405280600581526020017f576174636800000000000000000000000000000000000000000000000000000081525081526020016040518060400160405280600c81526020017f466f6f6420526174696f6e730000000000000000000000000000000000000000815250815250601290600e620009de92919062000e84565b506040518060c001604052806040518060400160405280600381526020017f726564000000000000000000000000000000000000000000000000000000000081525081526020016040518060400160405280600581526020017f626c61636b00000000000000000000000000000000000000000000000000000081525081526020016040518060400160405280600481526020017f626c75650000000000000000000000000000000000000000000000000000000081525081526020016040518060400160405280600581526020017f677265656e00000000000000000000000000000000000000000000000000000081525081526020016040518060400160405280600681526020017f696e6469676f000000000000000000000000000000000000000000000000000081525081526020016040518060400160405280600481526020017f6772657900000000000000000000000000000000000000000000000000000000815250815250601390600662000b5c92919062000eeb565b5034801562000b6a57600080fd5b50604051620068a9380380620068a9833981810160405281019062000b90919062001068565b8282816000908051906020019062000baa92919062000d25565b50806001908051906020019062000bc392919062000d25565b5050506000600b60006101000a81548160ff02191690831515021790555062000c0162000bf562000c5760201b60201c565b62000c5f60201b60201c565b6000811162000c47576040517f08c379a000000000000000000000000000000000000000000000000000000000815260040162000c3e9062001132565b60405180910390fd5b80600c81905550505050620012ba565b600033905090565b6000600b60019054906101000a900473ffffffffffffffffffffffffffffffffffffffff16905081600b60016101000a81548173ffffffffffffffffffffffffffffffffffffffff021916908373ffffffffffffffffffffffffffffffffffffffff1602179055508173ffffffffffffffffffffffffffffffffffffffff168173ffffffffffffffffffffffffffffffffffffffff167f8be0079c531659141344cd1fd0a4f28419497f9722a3daafe3b4186f6b6457e060405160405180910390a35050565b82805462000d33906200120c565b90600052602060002090601f01602090048101928262000d57576000855562000da3565b82601f1062000d7257805160ff191683800117855562000da3565b8280016001018555821562000da3579182015b8281111562000da257825182559160200191906001019062000d85565b5b50905062000db2919062000f52565b5090565b82805482825590600052602060002090810192821562000e0a579160200282015b8281111562000e0957825182908051906020019062000df892919062000d25565b509160200191906001019062000dd7565b5b50905062000e19919062000f71565b5090565b82805482825590600052602060002090810192821562000e71579160200282015b8281111562000e7057825182908051906020019062000e5f92919062000d25565b509160200191906001019062000e3e565b5b50905062000e80919062000f71565b5090565b82805482825590600052602060002090810192821562000ed8579160200282015b8281111562000ed757825182908051906020019062000ec692919062000d25565b509160200191906001019062000ea5565b5b50905062000ee7919062000f71565b5090565b82805482825590600052602060002090810192821562000f3f579160200282015b8281111562000f3e57825182908051906020019062000f2d92919062000d25565b509160200191906001019062000f0c565b5b50905062000f4e919062000f71565b5090565b5b8082111562000f6d57600081600090555060010162000f53565b5090565b5b8082111562000f95576000818162000f8b919062000f99565b5060010162000f72565b5090565b50805462000fa7906200120c565b6000825580601f1062000fbb575062000fdc565b601f01602090049060005260206000209081019062000fdb919062000f52565b5b50565b600062000ff662000ff08462001188565b62001154565b9050828152602081018484840111156200100f57600080fd5b6200101c848285620011d6565b509392505050565b600082601f8301126200103657600080fd5b81516200104884826020860162000fdf565b91505092915050565b6000815190506200106281620012a0565b92915050565b6000806000606084860312156200107e57600080fd5b600084015167ffffffffffffffff8111156200109957600080fd5b620010a78682870162001024565b935050602084015167ffffffffffffffff811115620010c557600080fd5b620010d38682870162001024565b9250506040620010e68682870162001051565b9150509250925092565b6000620010ff602083620011bb565b91507f737570706c79436170206d7573742062652067726561746572207468616e20306000830152602082019050919050565b600060208201905081810360008301526200114d81620010f0565b9050919050565b6000604051905081810181811067ffffffffffffffff821117156200117e576200117d62001271565b5b8060405250919050565b600067ffffffffffffffff821115620011a657620011a562001271565b5b601f19601f8301169050602081019050919050565b600082825260208201905092915050565b6000819050919050565b60005b83811015620011f6578082015181840152602081019050620011d9565b8381111562001206576000848401525b50505050565b600060028204905060018216806200122557607f821691505b602082108114156200123c576200123b62001242565b5b50919050565b7f4e487b7100000000000000000000000000000000000000000000000000000000600052602260045260246000fd5b7f4e487b7100000000000000000000000000000000000000000000000000000000600052604160045260246000fd5b620012ab81620011cc565b8114620012b757600080fd5b50565b61550c80620012ca6000396000f3fe6080604052600436106101b75760003560e01c80635c975abb116100ec578063a22cb4651161008a578063e6c7c45611610064578063e6c7c456146105ba578063e985e9c5146105e5578063f2fde38b14610622578063fd02c2391461064b576101b7565b8063a22cb4651461052b578063b88d4fde14610554578063c87b56dd1461057d576101b7565b8063715018a6116100c6578063715018a6146104a75780638456cb59146104be5780638da5cb5b146104d557806395d89b4114610500576101b7565b80635c975abb146104025780636352211e1461042d57806370a082311461046a576101b7565b806320361814116101595780632f745c59116101335780632f745c59146103485780633f4ba83a1461038557806342842e0e1461039c5780634f6ccce7146103c5576101b7565b806320361814146102ea578063210094231461031557806323b872dd1461031f576101b7565b8063081812fc11610195578063081812fc1461024f578063095ea7b31461028c57806314f710fe146102b557806318160ddd146102bf576101b7565b806301ffc9a7146101bc57806306047590146101f957806306fdde0314610224575b600080fd5b3480156101c857600080fd5b506101e360048036038101906101de9190613aec565b610676565b6040516101f09190614bee565b60405180910390f35b34801561020557600080fd5b5061020e610688565b60405161021b9190614ff0565b60405180910390f35b34801561023057600080fd5b50610239610699565b6040516102469190614c09565b60405180910390f35b34801561025b57600080fd5b5061027660048036038101906102719190613b3e565b61072b565b6040516102839190614b5e565b60405180910390f35b34801561029857600080fd5b506102b360048036038101906102ae9190613ab0565b6107b0565b005b6102bd6108c8565b005b3480156102cb57600080fd5b506102d4610cb5565b6040516102e19190614ff0565b60405180910390f35b3480156102f657600080fd5b506102ff610cc2565b60405161030c9190614ff0565b60405180910390f35b61031d610ccc565b005b34801561032b57600080fd5b50610346600480360381019061034191906139aa565b610e00565b005b34801561035457600080fd5b5061036f600480360381019061036a9190613ab0565b610e60565b60405161037c9190614ff0565b60405180910390f35b34801561039157600080fd5b5061039a610f05565b005b3480156103a857600080fd5b506103c360048036038101906103be91906139aa565b610f8b565b005b3480156103d157600080fd5b506103ec60048036038101906103e79190613b3e565b610fab565b6040516103f99190614ff0565b60405180910390f35b34801561040e57600080fd5b50610417611042565b6040516104249190614bee565b60405180910390f35b34801561043957600080fd5b50610454600480360381019061044f9190613b3e565b611059565b6040516104619190614b5e565b60405180910390f35b34801561047657600080fd5b50610491600480360381019061048c9190613945565b61110b565b60405161049e9190614ff0565b60405180910390f35b3480156104b357600080fd5b506104bc6111c3565b005b3480156104ca57600080fd5b506104d361124b565b005b3480156104e157600080fd5b506104ea6112d1565b6040516104f79190614b5e565b60405180910390f35b34801561050c57600080fd5b506105156112fb565b6040516105229190614c09565b60405180910390f35b34801561053757600080fd5b50610552600480360381019061054d9190613a74565b61138d565b005b34801561056057600080fd5b5061057b600480360381019061057691906139f9565b61150e565b005b34801561058957600080fd5b506105a4600480360381019061059f9190613b3e565b611570565b6040516105b19190614c09565b60405180910390f35b3480156105c657600080fd5b506105cf611582565b6040516105dc9190614ff0565b60405180910390f35b3480156105f157600080fd5b5061060c6004803603810190610607919061396e565b61158a565b6040516106199190614bee565b60405180910390f35b34801561062e57600080fd5b5061064960048036038101906106449190613945565b61161e565b005b34801561065757600080fd5b50610660611716565b60405161066d9190614ff0565b60405180910390f35b600061068182611734565b9050919050565b6000610694600d6117ae565b905090565b6060600080546106a89061529a565b80601f01602080910402602001604051908101604052809291908181526020018280546106d49061529a565b80156107215780601f106106f657610100808354040283529160200191610721565b820191906000526020600020905b81548152906001019060200180831161070457829003601f168201915b5050505050905090565b6000610736826117bc565b610775576040517f08c379a000000000000000000000000000000000000000000000000000000000815260040161076c90614ef0565b60405180910390fd5b6004600083815260200190815260200160002060009054906101000a900473ffffffffffffffffffffffffffffffffffffffff169050919050565b60006107bb82611059565b90508073ffffffffffffffffffffffffffffffffffffffff168373ffffffffffffffffffffffffffffffffffffffff16141561082c576040517f08c379a000000000000000000000000000000000000000000000000000000000815260040161082390614f70565b60405180910390fd5b8073ffffffffffffffffffffffffffffffffffffffff1661084b611828565b73ffffffffffffffffffffffffffffffffffffffff16148061087a575061087981610874611828565b61158a565b5b6108b9576040517f08c379a00000000000000000000000000000000000000000000000000000000081526004016108b090614e30565b60405180910390fd5b6108c38383611830565b505050565b6108d0611042565b15610910576040517f08c379a000000000000000000000000000000000000000000000000000000000815260040161090790614e10565b60405180910390fd5b600c5461091d600d6117ae565b111561095e576040517f08c379a000000000000000000000000000000000000000000000000000000000815260040161095590614d30565b60405180910390fd5b662386f26fc100003410156109a8576040517f08c379a000000000000000000000000000000000000000000000000000000000815260040161099f90614fd0565b60405180910390fd5b60006109b4600d6117ae565b905060006109c1826118e9565b905060006109ce83611a07565b905060006109db84611b25565b905060008383836040516020016109f493929190614983565b6040516020818303038152906040529050610a446040518060400160405280600d81526020017f636f6d706c6574654b69743a200000000000000000000000000000000000000081525082611d27565b6000610a4f86611dc3565b90506000600e82600f610a63896001611ee1565b610a6e896002611ee1565b610a79896003611ee1565b604051602001610a8e969594939291906149b4565b6040516020818303038152906040529050610ade6040518060400160405280600a81526020017f66696e616c5376673a200000000000000000000000000000000000000000000081525082611d27565b6000610b10610aec83611fd5565b604051602001610afc9190614ac2565b604051602081830303815290604052611fd5565b9050610b516040518060400160405280601581526020017f42415345363420656e636f646564204a534f4e3a20000000000000000000000081525082611d27565b600081604051602001610b649190614b05565b6040516020818303038152906040529050610bb46040518060400160405280600f81526020017f66696e616c546f6b656e5572693a20000000000000000000000000000000000081525082611d27565b610bf26040518060400160405280601581526020017f0a2d2d2d2d2d2d2d2d2d2d2d2d2d2d2d2d2d2d2d2d0000000000000000000000815250612193565b610c306040518060400160405280601581526020017f2d2d2d2d2d2d2d2d2d2d2d2d2d2d2d2d2d2d2d2d0a0000000000000000000000815250612193565b610c3a338a61222c565b610c44898261224a565b610c4e600d6122be565b610c716040518060600160405280602781526020016154b0602791398a336122d4565b7f75f619ddab9326bcf7e428ba55311feaad4aa7dec1f5cc227b218a7ad2276411338a604051610ca2929190614bc5565b60405180910390a1505050505050505050565b6000600880549050905090565b6000600c54905090565b610cd4611828565b73ffffffffffffffffffffffffffffffffffffffff16610cf26112d1565b73ffffffffffffffffffffffffffffffffffffffff1614610d48576040517f08c379a0000000000000000000000000000000000000000000000000000000008152600401610d3f90614f10565b60405180910390fd5b60003390506000808273ffffffffffffffffffffffffffffffffffffffff1647604051610d7490614b49565b60006040518083038185875af1925050503d8060008114610db1576040519150601f19603f3d011682016040523d82523d6000602084013e610db6565b606091505b509150915081610dfb576040517f08c379a0000000000000000000000000000000000000000000000000000000008152600401610df290614d90565b60405180910390fd5b505050565b610e11610e0b611828565b82612373565b610e50576040517f08c379a0000000000000000000000000000000000000000000000000000000008152600401610e4790614f90565b60405180910390fd5b610e5b838383612451565b505050565b6000610e6b8361110b565b8210610eac576040517f08c379a0000000000000000000000000000000000000000000000000000000008152600401610ea390614cf0565b60405180910390fd5b600660008473ffffffffffffffffffffffffffffffffffffffff1673ffffffffffffffffffffffffffffffffffffffff168152602001908152602001600020600083815260200190815260200160002054905092915050565b610f0d611828565b73ffffffffffffffffffffffffffffffffffffffff16610f2b6112d1565b73ffffffffffffffffffffffffffffffffffffffff1614610f81576040517f08c379a0000000000000000000000000000000000000000000000000000000008152600401610f7890614f10565b60405180910390fd5b610f896126ad565b565b610fa68383836040518060200160405280600081525061150e565b505050565b6000610fb5610cb5565b8210610ff6576040517f08c379a0000000000000000000000000000000000000000000000000000000008152600401610fed90614fb0565b60405180910390fd5b60088281548110611030577f4e487b7100000000000000000000000000000000000000000000000000000000600052603260045260246000fd5b90600052602060002001549050919050565b6000600b60009054906101000a900460ff16905090565b6000806002600084815260200190815260200160002060009054906101000a900473ffffffffffffffffffffffffffffffffffffffff169050600073ffffffffffffffffffffffffffffffffffffffff168173ffffffffffffffffffffffffffffffffffffffff161415611102576040517f08c379a00000000000000000000000000000000000000000000000000000000081526004016110f990614e70565b60405180910390fd5b80915050919050565b60008073ffffffffffffffffffffffffffffffffffffffff168273ffffffffffffffffffffffffffffffffffffffff16141561117c576040517f08c379a000000000000000000000000000000000000000000000000000000000815260040161117390614e50565b60405180910390fd5b600360008373ffffffffffffffffffffffffffffffffffffffff1673ffffffffffffffffffffffffffffffffffffffff168152602001908152602001600020549050919050565b6111cb611828565b73ffffffffffffffffffffffffffffffffffffffff166111e96112d1565b73ffffffffffffffffffffffffffffffffffffffff161461123f576040517f08c379a000000000000000000000000000000000000000000000000000000000815260040161123690614f10565b60405180910390fd5b611249600061274f565b565b611253611828565b73ffffffffffffffffffffffffffffffffffffffff166112716112d1565b73ffffffffffffffffffffffffffffffffffffffff16146112c7576040517f08c379a00000000000000000000000000000000000000000000000000000000081526004016112be90614f10565b60405180910390fd5b6112cf612815565b565b6000600b60019054906101000a900473ffffffffffffffffffffffffffffffffffffffff16905090565b60606001805461130a9061529a565b80601f01602080910402602001604051908101604052809291908181526020018280546113369061529a565b80156113835780601f1061135857610100808354040283529160200191611383565b820191906000526020600020905b81548152906001019060200180831161136657829003601f168201915b5050505050905090565b611395611828565b73ffffffffffffffffffffffffffffffffffffffff168273ffffffffffffffffffffffffffffffffffffffff161415611403576040517f08c379a00000000000000000000000000000000000000000000000000000000081526004016113fa90614dd0565b60405180910390fd5b8060056000611410611828565b73ffffffffffffffffffffffffffffffffffffffff1673ffffffffffffffffffffffffffffffffffffffff16815260200190815260200160002060008473ffffffffffffffffffffffffffffffffffffffff1673ffffffffffffffffffffffffffffffffffffffff16815260200190815260200160002060006101000a81548160ff0219169083151502179055508173ffffffffffffffffffffffffffffffffffffffff166114bd611828565b73ffffffffffffffffffffffffffffffffffffffff167f17307eab39ab6107e8899845ad3d59bd9653f200f220920489ca2b5937696c31836040516115029190614bee565b60405180910390a35050565b61151f611519611828565b83612373565b61155e576040517f08c379a000000000000000000000000000000000000000000000000000000000815260040161155590614f90565b60405180910390fd5b61156a848484846128b8565b50505050565b606061157b82612914565b9050919050565b600047905090565b6000600560008473ffffffffffffffffffffffffffffffffffffffff1673ffffffffffffffffffffffffffffffffffffffff16815260200190815260200160002060008373ffffffffffffffffffffffffffffffffffffffff1673ffffffffffffffffffffffffffffffffffffffff16815260200190815260200160002060009054906101000a900460ff16905092915050565b611626611828565b73ffffffffffffffffffffffffffffffffffffffff166116446112d1565b73ffffffffffffffffffffffffffffffffffffffff161461169a576040517f08c379a000000000000000000000000000000000000000000000000000000000815260040161169190614f10565b60405180910390fd5b600073ffffffffffffffffffffffffffffffffffffffff168173ffffffffffffffffffffffffffffffffffffffff16141561170a576040517f08c379a000000000000000000000000000000000000000000000000000000000815260040161170190614d50565b60405180910390fd5b6117138161274f565b50565b6000611722600d6117ae565b600c5461172f91906151b0565b905090565b60007f780e9d63000000000000000000000000000000000000000000000000000000007bffffffffffffffffffffffffffffffffffffffffffffffffffffffff1916827bffffffffffffffffffffffffffffffffffffffffffffffffffffffff191614806117a757506117a682612a66565b5b9050919050565b600081600001549050919050565b60008073ffffffffffffffffffffffffffffffffffffffff166002600084815260200190815260200160002060009054906101000a900473ffffffffffffffffffffffffffffffffffffffff1673ffffffffffffffffffffffffffffffffffffffff1614159050919050565b600033905090565b816004600083815260200190815260200160002060006101000a81548173ffffffffffffffffffffffffffffffffffffffff021916908373ffffffffffffffffffffffffffffffffffffffff160217905550808273ffffffffffffffffffffffffffffffffffffffff166118a383611059565b73ffffffffffffffffffffffffffffffffffffffff167f8c5be1e5ebec7d5bd14f71427d1e84f3dd0314c0f7b2291e5b200ac8c7c3b92560405160405180910390a45050565b6060600061191d6118f984612b48565b6040516020016119099190614a5b565b604051602081830303815290604052612cf5565b9050601080549050816119309190615315565b90506010818154811061196c577f4e487b7100000000000000000000000000000000000000000000000000000000600052603260045260246000fd5b9060005260206000200180546119819061529a565b80601f01602080910402602001604051908101604052809291908181526020018280546119ad9061529a565b80156119fa5780601f106119cf576101008083540402835291602001916119fa565b820191906000526020600020905b8154815290600101906020018083116119dd57829003601f168201915b5050505050915050919050565b60606000611a3b611a1784612b48565b604051602001611a279190614a39565b604051602081830303815290604052612cf5565b905060118054905081611a4e9190615315565b905060118181548110611a8a577f4e487b7100000000000000000000000000000000000000000000000000000000600052603260045260246000fd5b906000526020600020018054611a9f9061529a565b80601f0160208091040260200160405190810160405280929190818152602001828054611acb9061529a565b8015611b185780601f10611aed57610100808354040283529160200191611b18565b820191906000526020600020905b815481529060010190602001808311611afb57829003601f168201915b5050505050915050919050565b6060611b8d6040518060400160405280600d81526020017f52616e646f6d20536565643a2000000000000000000000000000000000000000815250611b6984612b48565b604051602001611b799190614a17565b604051602081830303815290604052611d27565b6000611bbf611b9b84612b48565b604051602001611bab9190614a17565b604051602081830303815290604052612cf5565b9050611c006040518060400160405280601581526020017f7069636b52616e646f6d4974656d2072616e643a20000000000000000000000081525082612d28565b60128054905081611c119190615315565b9050611c526040518060400160405280601581526020017f7069636b52616e646f6d4974656d2072616e643a20000000000000000000000081525082612d28565b60128181548110611c8c577f4e487b7100000000000000000000000000000000000000000000000000000000600052603260045260246000fd5b906000526020600020018054611ca19061529a565b80601f0160208091040260200160405190810160405280929190818152602001828054611ccd9061529a565b8015611d1a5780601f10611cef57610100808354040283529160200191611d1a565b820191906000526020600020905b815481529060010190602001808311611cfd57829003601f168201915b5050505050915050919050565b611dbf8282604051602401611d3d929190614c2b565b6040516020818303038152906040527f4b5c4277000000000000000000000000000000000000000000000000000000007bffffffffffffffffffffffffffffffffffffffffffffffffffffffff19166020820180517bffffffffffffffffffffffffffffffffffffffffffffffffffffffff8381831617835250505050612dc4565b5050565b60606000611df7611dd384612b48565b604051602001611de39190614b27565b604051602081830303815290604052612cf5565b905060138054905081611e0a9190615315565b905060138181548110611e46577f4e487b7100000000000000000000000000000000000000000000000000000000600052603260045260246000fd5b906000526020600020018054611e5b9061529a565b80601f0160208091040260200160405190810160405280929190818152602001828054611e879061529a565b8015611ed45780601f10611ea957610100808354040283529160200191611ed4565b820191906000526020600020905b815481529060010190602001808311611eb757829003601f168201915b5050505050915050919050565b6060806001831415611f2a576040518060400160405280600381526020017f34302500000000000000000000000000000000000000000000000000000000008152509050611faa565b6002831415611f70576040518060400160405280600381526020017f35302500000000000000000000000000000000000000000000000000000000008152509050611fa9565b6040518060400160405280600381526020017f363025000000000000000000000000000000000000000000000000000000000081525090505b5b8084604051602001611fbd929190614a7d565b60405160208183030381529060405291505092915050565b60606000825190506000811415611ffe576040518060200160405280600081525091505061218e565b6000600360028361200f91906150cf565b6120199190615125565b60046120259190615156565b9050600060208261203691906150cf565b67ffffffffffffffff811115612075577f4e487b7100000000000000000000000000000000000000000000000000000000600052604160045260246000fd5b6040519080825280601f01601f1916602001820160405280156120a75781602001600182028036833780820191505090505b5090506000604051806060016040528060408152602001615470604091399050600181016020830160005b8681101561214b5760038101905062ffffff818a015116603f8160121c168401518060081b905060ff603f83600c1c1686015116810190508060081b905060ff603f8360061c1686015116810190508060081b905060ff603f831686015116810190508060e01b905080845260048401935050506120d2565b506003860660018114612165576002811461217557612180565b613d3d60f01b6002830352612180565b603d60f81b60018303525b508484525050819450505050505b919050565b612229816040516024016121a79190614c09565b6040516020818303038152906040527f41304fac000000000000000000000000000000000000000000000000000000007bffffffffffffffffffffffffffffffffffffffffffffffffffffffff19166020820180517bffffffffffffffffffffffffffffffffffffffffffffffffffffffff8381831617835250505050612dc4565b50565b612246828260405180602001604052806000815250612ded565b5050565b612253826117bc565b612292576040517f08c379a000000000000000000000000000000000000000000000000000000000815260040161228990614e90565b60405180910390fd5b80600a600084815260200190815260200160002090805190602001906122b99291906137d1565b505050565b6001816000016000828254019250508190555050565b61236e8383836040516024016122ec93929190614c92565b6040516020818303038152906040527fe3849f79000000000000000000000000000000000000000000000000000000007bffffffffffffffffffffffffffffffffffffffffffffffffffffffff19166020820180517bffffffffffffffffffffffffffffffffffffffffffffffffffffffff8381831617835250505050612dc4565b505050565b600061237e826117bc565b6123bd576040517f08c379a00000000000000000000000000000000000000000000000000000000081526004016123b490614df0565b60405180910390fd5b60006123c883611059565b90508073ffffffffffffffffffffffffffffffffffffffff168473ffffffffffffffffffffffffffffffffffffffff16148061243757508373ffffffffffffffffffffffffffffffffffffffff1661241f8461072b565b73ffffffffffffffffffffffffffffffffffffffff16145b806124485750612447818561158a565b5b91505092915050565b8273ffffffffffffffffffffffffffffffffffffffff1661247182611059565b73ffffffffffffffffffffffffffffffffffffffff16146124c7576040517f08c379a00000000000000000000000000000000000000000000000000000000081526004016124be90614f30565b60405180910390fd5b600073ffffffffffffffffffffffffffffffffffffffff168273ffffffffffffffffffffffffffffffffffffffff161415612537576040517f08c379a000000000000000000000000000000000000000000000000000000000815260040161252e90614db0565b60405180910390fd5b612542838383612e48565b61254d600082611830565b6001600360008573ffffffffffffffffffffffffffffffffffffffff1673ffffffffffffffffffffffffffffffffffffffff168152602001908152602001600020600082825461259d91906151b0565b925050819055506001600360008473ffffffffffffffffffffffffffffffffffffffff1673ffffffffffffffffffffffffffffffffffffffff16815260200190815260200160002060008282546125f491906150cf565b92505081905550816002600083815260200190815260200160002060006101000a81548173ffffffffffffffffffffffffffffffffffffffff021916908373ffffffffffffffffffffffffffffffffffffffff160217905550808273ffffffffffffffffffffffffffffffffffffffff168473ffffffffffffffffffffffffffffffffffffffff167fddf252ad1be2c89b69c2b068fc378daa952ba7f163c4a11628f55a4df523b3ef60405160405180910390a4505050565b6126b5611042565b6126f4576040517f08c379a00000000000000000000000000000000000000000000000000000000081526004016126eb90614cd0565b60405180910390fd5b6000600b60006101000a81548160ff0219169083151502179055507f5db9ee0a495bf2e6ff9c91a7834c1ba4fdd244a5e8aa4e537bd38aeae4b073aa612738611828565b6040516127459190614b5e565b60405180910390a1565b6000600b60019054906101000a900473ffffffffffffffffffffffffffffffffffffffff16905081600b60016101000a81548173ffffffffffffffffffffffffffffffffffffffff021916908373ffffffffffffffffffffffffffffffffffffffff1602179055508173ffffffffffffffffffffffffffffffffffffffff168173ffffffffffffffffffffffffffffffffffffffff167f8be0079c531659141344cd1fd0a4f28419497f9722a3daafe3b4186f6b6457e060405160405180910390a35050565b61281d611042565b1561285d576040517f08c379a000000000000000000000000000000000000000000000000000000000815260040161285490614e10565b60405180910390fd5b6001600b60006101000a81548160ff0219169083151502179055507f62e78cea01bee320cd4e420270b5ea74000d11b0c9f74754ebdbfc544b05a2586128a1611828565b6040516128ae9190614b5e565b60405180910390a1565b6128c3848484612451565b6128cf84848484612ea0565b61290e576040517f08c379a000000000000000000000000000000000000000000000000000000000815260040161290590614d10565b60405180910390fd5b50505050565b606061291f826117bc565b61295e576040517f08c379a000000000000000000000000000000000000000000000000000000000815260040161295590614ed0565b60405180910390fd5b6000600a6000848152602001908152602001600020805461297e9061529a565b80601f01602080910402602001604051908101604052809291908181526020018280546129aa9061529a565b80156129f75780601f106129cc576101008083540402835291602001916129f7565b820191906000526020600020905b8154815290600101906020018083116129da57829003601f168201915b505050505090506000612a08613037565b9050600081511415612a1e578192505050612a61565b600082511115612a53578082604051602001612a3b92919061495f565b60405160208183030381529060405292505050612a61565b612a5c8461304e565b925050505b919050565b60007f80ac58cd000000000000000000000000000000000000000000000000000000007bffffffffffffffffffffffffffffffffffffffffffffffffffffffff1916827bffffffffffffffffffffffffffffffffffffffffffffffffffffffff19161480612b3157507f5b5e139f000000000000000000000000000000000000000000000000000000007bffffffffffffffffffffffffffffffffffffffffffffffffffffffff1916827bffffffffffffffffffffffffffffffffffffffffffffffffffffffff1916145b80612b415750612b40826130f5565b5b9050919050565b60606000821415612b90576040518060400160405280600181526020017f30000000000000000000000000000000000000000000000000000000000000008152509050612cf0565b600082905060005b60008214612bc2578080612bab906152cc565b915050600a82612bbb9190615125565b9150612b98565b60008167ffffffffffffffff811115612c04577f4e487b7100000000000000000000000000000000000000000000000000000000600052604160045260246000fd5b6040519080825280601f01601f191660200182016040528015612c365781602001600182028036833780820191505090505b5090505b60008514612ce957600182612c4f91906151b0565b9150600a85612c5e9190615315565b6030612c6a91906150cf565b60f81b818381518110612ca6577f4e487b7100000000000000000000000000000000000000000000000000000000600052603260045260246000fd5b60200101907effffffffffffffffffffffffffffffffffffffffffffffffffffffffffffff1916908160001a905350600a85612ce29190615125565b9450612c3a565b8093505050505b919050565b600081604051602001612d089190614948565b6040516020818303038152906040528051906020012060001c9050919050565b612dc08282604051602401612d3e929190614c62565b6040516020818303038152906040527f9710a9d0000000000000000000000000000000000000000000000000000000007bffffffffffffffffffffffffffffffffffffffffffffffffffffffff19166020820180517bffffffffffffffffffffffffffffffffffffffffffffffffffffffff8381831617835250505050612dc4565b5050565b60008151905060006a636f6e736f6c652e6c6f679050602083016000808483855afa5050505050565b612df7838361315f565b612e046000848484612ea0565b612e43576040517f08c379a0000000000000000000000000000000000000000000000000000000008152600401612e3a90614d10565b60405180910390fd5b505050565b612e50611042565b15612e90576040517f08c379a0000000000000000000000000000000000000000000000000000000008152600401612e8790614e10565b60405180910390fd5b612e9b83838361332d565b505050565b6000612ec18473ffffffffffffffffffffffffffffffffffffffff16613441565b1561302a578373ffffffffffffffffffffffffffffffffffffffff1663150b7a02612eea611828565b8786866040518563ffffffff1660e01b8152600401612f0c9493929190614b79565b602060405180830381600087803b158015612f2657600080fd5b505af1925050508015612f5757506040513d601f19601f82011682018060405250810190612f549190613b15565b60015b612fda573d8060008114612f87576040519150601f19603f3d011682016040523d82523d6000602084013e612f8c565b606091505b50600081511415612fd2576040517f08c379a0000000000000000000000000000000000000000000000000000000008152600401612fc990614d10565b60405180910390fd5b805181602001fd5b63150b7a0260e01b7bffffffffffffffffffffffffffffffffffffffffffffffffffffffff1916817bffffffffffffffffffffffffffffffffffffffffffffffffffffffff19161491505061302f565b600190505b949350505050565b606060405180602001604052806000815250905090565b6060613059826117bc565b613098576040517f08c379a000000000000000000000000000000000000000000000000000000000815260040161308f90614f50565b60405180910390fd5b60006130a2613037565b905060008151116130c257604051806020016040528060008152506130ed565b806130cc84612b48565b6040516020016130dd92919061495f565b6040516020818303038152906040525b915050919050565b60007f01ffc9a7000000000000000000000000000000000000000000000000000000007bffffffffffffffffffffffffffffffffffffffffffffffffffffffff1916827bffffffffffffffffffffffffffffffffffffffffffffffffffffffff1916149050919050565b600073ffffffffffffffffffffffffffffffffffffffff168273ffffffffffffffffffffffffffffffffffffffff1614156131cf576040517f08c379a00000000000000000000000000000000000000000000000000000000081526004016131c690614eb0565b60405180910390fd5b6131d8816117bc565b15613218576040517f08c379a000000000000000000000000000000000000000000000000000000000815260040161320f90614d70565b60405180910390fd5b61322460008383612e48565b6001600360008473ffffffffffffffffffffffffffffffffffffffff1673ffffffffffffffffffffffffffffffffffffffff168152602001908152602001600020600082825461327491906150cf565b92505081905550816002600083815260200190815260200160002060006101000a81548173ffffffffffffffffffffffffffffffffffffffff021916908373ffffffffffffffffffffffffffffffffffffffff160217905550808273ffffffffffffffffffffffffffffffffffffffff16600073ffffffffffffffffffffffffffffffffffffffff167fddf252ad1be2c89b69c2b068fc378daa952ba7f163c4a11628f55a4df523b3ef60405160405180910390a45050565b613338838383613454565b600073ffffffffffffffffffffffffffffffffffffffff168373ffffffffffffffffffffffffffffffffffffffff16141561337b5761337681613459565b6133ba565b8173ffffffffffffffffffffffffffffffffffffffff168373ffffffffffffffffffffffffffffffffffffffff16146133b9576133b883826134a2565b5b5b600073ffffffffffffffffffffffffffffffffffffffff168273ffffffffffffffffffffffffffffffffffffffff1614156133fd576133f88161360f565b61343c565b8273ffffffffffffffffffffffffffffffffffffffff168273ffffffffffffffffffffffffffffffffffffffff161461343b5761343a8282613752565b5b5b505050565b600080823b905060008111915050919050565b505050565b6008805490506009600083815260200190815260200160002081905550600881908060018154018082558091505060019003906000526020600020016000909190919091505550565b600060016134af8461110b565b6134b991906151b0565b905060006007600084815260200190815260200160002054905081811461359e576000600660008673ffffffffffffffffffffffffffffffffffffffff1673ffffffffffffffffffffffffffffffffffffffff168152602001908152602001600020600084815260200190815260200160002054905080600660008773ffffffffffffffffffffffffffffffffffffffff1673ffffffffffffffffffffffffffffffffffffffff168152602001908152602001600020600084815260200190815260200160002081905550816007600083815260200190815260200160002081905550505b6007600084815260200190815260200160002060009055600660008573ffffffffffffffffffffffffffffffffffffffff1673ffffffffffffffffffffffffffffffffffffffff16815260200190815260200160002060008381526020019081526020016000206000905550505050565b6000600160088054905061362391906151b0565b9050600060096000848152602001908152602001600020549050600060088381548110613679577f4e487b7100000000000000000000000000000000000000000000000000000000600052603260045260246000fd5b9060005260206000200154905080600883815481106136c1577f4e487b7100000000000000000000000000000000000000000000000000000000600052603260045260246000fd5b906000526020600020018190555081600960008381526020019081526020016000208190555060096000858152602001908152602001600020600090556008805480613736577f4e487b7100000000000000000000000000000000000000000000000000000000600052603160045260246000fd5b6001900381819060005260206000200160009055905550505050565b600061375d8361110b565b905081600660008573ffffffffffffffffffffffffffffffffffffffff1673ffffffffffffffffffffffffffffffffffffffff168152602001908152602001600020600083815260200190815260200160002081905550806007600084815260200190815260200160002081905550505050565b8280546137dd9061529a565b90600052602060002090601f0160209004810192826137ff5760008555613846565b82601f1061381857805160ff1916838001178555613846565b82800160010185558215613846579182015b8281111561384557825182559160200191906001019061382a565b5b5090506138539190613857565b5090565b5b80821115613870576000816000905550600101613858565b5090565b60006138876138828461503c565b61500b565b90508281526020810184848401111561389f57600080fd5b6138aa848285615258565b509392505050565b6000813590506138c181615413565b92915050565b6000813590506138d68161542a565b92915050565b6000813590506138eb81615441565b92915050565b60008151905061390081615441565b92915050565b600082601f83011261391757600080fd5b8135613927848260208601613874565b91505092915050565b60008135905061393f81615458565b92915050565b60006020828403121561395757600080fd5b6000613965848285016138b2565b91505092915050565b6000806040838503121561398157600080fd5b600061398f858286016138b2565b92505060206139a0858286016138b2565b9150509250929050565b6000806000606084860312156139bf57600080fd5b60006139cd868287016138b2565b93505060206139de868287016138b2565b92505060406139ef86828701613930565b9150509250925092565b60008060008060808587031215613a0f57600080fd5b6000613a1d878288016138b2565b9450506020613a2e878288016138b2565b9350506040613a3f87828801613930565b925050606085013567ffffffffffffffff811115613a5c57600080fd5b613a6887828801613906565b91505092959194509250565b60008060408385031215613a8757600080fd5b6000613a95858286016138b2565b9250506020613aa6858286016138c7565b9150509250929050565b60008060408385031215613ac357600080fd5b6000613ad1858286016138b2565b9250506020613ae285828601613930565b9150509250929050565b600060208284031215613afe57600080fd5b6000613b0c848285016138dc565b91505092915050565b600060208284031215613b2757600080fd5b6000613b35848285016138f1565b91505092915050565b600060208284031215613b5057600080fd5b6000613b5e84828501613930565b91505092915050565b613b70816151e4565b82525050565b613b7f816151f6565b82525050565b6000613b9082615081565b613b9a8185615097565b9350613baa818560208601615267565b613bb381615402565b840191505092915050565b6000613bc98261508c565b613bd381856150b3565b9350613be3818560208601615267565b613bec81615402565b840191505092915050565b6000613c028261508c565b613c0c81856150c4565b9350613c1c818560208601615267565b80840191505092915050565b60008154613c358161529a565b613c3f81866150c4565b94506001821660008114613c5a5760018114613c6b57613c9e565b60ff19831686528186019350613c9e565b613c748561506c565b60005b83811015613c9657815481890152600182019150602081019050613c77565b838801955050505b50505092915050565b6000613cb46014836150b3565b91507f5061757361626c653a206e6f74207061757365640000000000000000000000006000830152602082019050919050565b6000613cf4602b836150b3565b91507f455243373231456e756d657261626c653a206f776e657220696e646578206f7560008301527f74206f6620626f756e64730000000000000000000000000000000000000000006020830152604082019050919050565b6000613d5a6032836150b3565b91507f4552433732313a207472616e7366657220746f206e6f6e20455243373231526560008301527f63656976657220696d706c656d656e74657200000000000000000000000000006020830152604082019050919050565b6000613dc0603f836150c4565b91507f2720636c6173733d27626173652720646f6d696e616e742d626173656c696e6560008301527f3d276d6964646c652720746578742d616e63686f723d276d6964646c65273e006020830152603f82019050919050565b6000613e26601e836150b3565b91507f546865726520617265206e6f204e465473206c65667420746f206d696e7400006000830152602082019050919050565b6000613e666026836150b3565b91507f4f776e61626c653a206e6577206f776e657220697320746865207a65726f206160008301527f64647265737300000000000000000000000000000000000000000000000000006020830152604082019050919050565b6000613ecc600c836150c4565b91507f537572766976616c204b697400000000000000000000000000000000000000006000830152600c82019050919050565b6000613f0c601c836150b3565b91507f4552433732313a20746f6b656e20616c7265616479206d696e746564000000006000830152602082019050919050565b6000613f4c600a836150c4565b91507f54484952445f574f5244000000000000000000000000000000000000000000006000830152600a82019050919050565b6000613f8c6009836150c4565b91507f5452414e53504f525400000000000000000000000000000000000000000000006000830152600982019050919050565b6000613fcc6006836150c4565b91507f574541504f4e00000000000000000000000000000000000000000000000000006000830152600682019050919050565b600061400c6014836150b3565b91507f4661696c656420746f2073656e642045746865720000000000000000000000006000830152602082019050919050565b600061404c6024836150b3565b91507f4552433732313a207472616e7366657220746f20746865207a65726f2061646460008301527f72657373000000000000000000000000000000000000000000000000000000006020830152604082019050919050565b60006140b26019836150b3565b91507f4552433732313a20617070726f766520746f2063616c6c6572000000000000006000830152602082019050919050565b60006140f2602c836150b3565b91507f4552433732313a206f70657261746f7220717565727920666f72206e6f6e657860008301527f697374656e7420746f6b656e00000000000000000000000000000000000000006020830152604082019050919050565b60006141586010836150b3565b91507f5061757361626c653a20706175736564000000000000000000000000000000006000830152602082019050919050565b60006141986038836150b3565b91507f4552433732313a20617070726f76652063616c6c6572206973206e6f74206f7760008301527f6e6572206e6f7220617070726f76656420666f7220616c6c00000000000000006020830152604082019050919050565b60006141fe602a836150b3565b91507f4552433732313a2062616c616e636520717565727920666f7220746865207a6560008301527f726f2061646472657373000000000000000000000000000000000000000000006020830152604082019050919050565b60006142646029836150b3565b91507f4552433732313a206f776e657220717565727920666f72206e6f6e657869737460008301527f656e7420746f6b656e00000000000000000000000000000000000000000000006020830152604082019050919050565b60006142ca602e836150b3565b91507f45524337323155524953746f726167653a2055524920736574206f66206e6f6e60008301527f6578697374656e7420746f6b656e0000000000000000000000000000000000006020830152604082019050919050565b60006143306002836150c4565b91507f227d0000000000000000000000000000000000000000000000000000000000006000830152600282019050919050565b60006143706007836150c4565b91507f3c2f746578743e000000000000000000000000000000000000000000000000006000830152600782019050919050565b60006143b06020836150b3565b91507f4552433732313a206d696e7420746f20746865207a65726f20616464726573736000830152602082019050919050565b60006143f06031836150b3565b91507f45524337323155524953746f726167653a2055524920717565727920666f722060008301527f6e6f6e6578697374656e7420746f6b656e0000000000000000000000000000006020830152604082019050919050565b6000614456602c836150b3565b91507f4552433732313a20617070726f76656420717565727920666f72206e6f6e657860008301527f697374656e7420746f6b656e00000000000000000000000000000000000000006020830152604082019050919050565b60006144bc6020836150b3565b91507f4f776e61626c653a2063616c6c6572206973206e6f7420746865206f776e65726000830152602082019050919050565b60006144fc6029836150b3565b91507f4552433732313a207472616e73666572206f6620746f6b656e2074686174206960008301527f73206e6f74206f776e00000000000000000000000000000000000000000000006020830152604082019050919050565b6000614562602f836150b3565b91507f4552433732314d657461646174613a2055524920717565727920666f72206e6f60008301527f6e6578697374656e7420746f6b656e00000000000000000000000000000000006020830152604082019050919050565b60006145c86011836150c4565b91507f3c7465787420783d273530252720793d270000000000000000000000000000006000830152601182019050919050565b6000614608600a836150c4565b91507f7b226e616d65223a2022000000000000000000000000000000000000000000006000830152600a82019050919050565b60006146486021836150b3565b91507f4552433732313a20617070726f76616c20746f2063757272656e74206f776e6560008301527f72000000000000000000000000000000000000000000000000000000000000006020830152604082019050919050565b60006146ae601d836150c4565b91507f646174613a6170706c69636174696f6e2f6a736f6e3b6261736536342c0000006000830152601d82019050919050565b60006146ee6058836150c4565b91507f222c20226465736372697074696f6e223a20225a6f6d6269652041706f63616c60008301527f7970736520537572766976616c204b6974222c2022696d616765223a2022646160208301527f74613a696d6167652f7376672b786d6c3b6261736536342c00000000000000006040830152605882019050919050565b600061477a6006836150c4565b91507f434f4c4f555200000000000000000000000000000000000000000000000000006000830152600682019050919050565b60006147ba6000836150a8565b9150600082019050919050565b60006147d46031836150b3565b91507f4552433732313a207472616e736665722063616c6c6572206973206e6f74206f60008301527f776e6572206e6f7220617070726f7665640000000000000000000000000000006020830152604082019050919050565b600061483a602c836150b3565b91507f455243373231456e756d657261626c653a20676c6f62616c20696e646578206f60008301527f7574206f6620626f756e647300000000000000000000000000000000000000006020830152604082019050919050565b60006148a06021836150b3565b91507f4e6f7420656e6f756768204554482073656e743b20636865636b20707269636560008301527f21000000000000000000000000000000000000000000000000000000000000006020830152604082019050919050565b60006149066006836150c4565b91507f3c2f7376673e00000000000000000000000000000000000000000000000000006000830152600682019050919050565b6149428161524e565b82525050565b60006149548284613bf7565b915081905092915050565b600061496b8285613bf7565b91506149778284613bf7565b91508190509392505050565b600061498f8286613bf7565b915061499b8285613bf7565b91506149a78284613bf7565b9150819050949350505050565b60006149c08289613c28565b91506149cc8288613bf7565b91506149d88287613c28565b91506149e48286613bf7565b91506149f08285613bf7565b91506149fc8284613bf7565b9150614a07826148f9565b9150819050979650505050505050565b6000614a2282613f3f565b9150614a2e8284613bf7565b915081905092915050565b6000614a4482613f7f565b9150614a508284613bf7565b915081905092915050565b6000614a6682613fbf565b9150614a728284613bf7565b915081905092915050565b6000614a88826145bb565b9150614a948285613bf7565b9150614a9f82613db3565b9150614aab8284613bf7565b9150614ab682614363565b91508190509392505050565b6000614acd826145fb565b9150614ad882613ebf565b9150614ae3826146e1565b9150614aef8284613bf7565b9150614afa82614323565b915081905092915050565b6000614b10826146a1565b9150614b1c8284613bf7565b915081905092915050565b6000614b328261476d565b9150614b3e8284613bf7565b915081905092915050565b6000614b54826147ad565b9150819050919050565b6000602082019050614b736000830184613b67565b92915050565b6000608082019050614b8e6000830187613b67565b614b9b6020830186613b67565b614ba86040830185614939565b8181036060830152614bba8184613b85565b905095945050505050565b6000604082019050614bda6000830185613b67565b614be76020830184614939565b9392505050565b6000602082019050614c036000830184613b76565b92915050565b60006020820190508181036000830152614c238184613bbe565b905092915050565b60006040820190508181036000830152614c458185613bbe565b90508181036020830152614c598184613bbe565b90509392505050565b60006040820190508181036000830152614c7c8185613bbe565b9050614c8b6020830184614939565b9392505050565b60006060820190508181036000830152614cac8186613bbe565b9050614cbb6020830185614939565b614cc86040830184613b67565b949350505050565b60006020820190508181036000830152614ce981613ca7565b9050919050565b60006020820190508181036000830152614d0981613ce7565b9050919050565b60006020820190508181036000830152614d2981613d4d565b9050919050565b60006020820190508181036000830152614d4981613e19565b9050919050565b60006020820190508181036000830152614d6981613e59565b9050919050565b60006020820190508181036000830152614d8981613eff565b9050919050565b60006020820190508181036000830152614da981613fff565b9050919050565b60006020820190508181036000830152614dc98161403f565b9050919050565b60006020820190508181036000830152614de9816140a5565b9050919050565b60006020820190508181036000830152614e09816140e5565b9050919050565b60006020820190508181036000830152614e298161414b565b9050919050565b60006020820190508181036000830152614e498161418b565b9050919050565b60006020820190508181036000830152614e69816141f1565b9050919050565b60006020820190508181036000830152614e8981614257565b9050919050565b60006020820190508181036000830152614ea9816142bd565b9050919050565b60006020820190508181036000830152614ec9816143a3565b9050919050565b60006020820190508181036000830152614ee9816143e3565b9050919050565b60006020820190508181036000830152614f0981614449565b9050919050565b60006020820190508181036000830152614f29816144af565b9050919050565b60006020820190508181036000830152614f49816144ef565b9050919050565b60006020820190508181036000830152614f6981614555565b9050919050565b60006020820190508181036000830152614f898161463b565b9050919050565b60006020820190508181036000830152614fa9816147c7565b9050919050565b60006020820190508181036000830152614fc98161482d565b9050919050565b60006020820190508181036000830152614fe981614893565b9050919050565b60006020820190506150056000830184614939565b92915050565b6000604051905081810181811067ffffffffffffffff82111715615032576150316153d3565b5b8060405250919050565b600067ffffffffffffffff821115615057576150566153d3565b5b601f19601f8301169050602081019050919050565b60008190508160005260206000209050919050565b600081519050919050565b600081519050919050565b600082825260208201905092915050565b600081905092915050565b600082825260208201905092915050565b600081905092915050565b60006150da8261524e565b91506150e58361524e565b9250827fffffffffffffffffffffffffffffffffffffffffffffffffffffffffffffffff0382111561511a57615119615346565b5b828201905092915050565b60006151308261524e565b915061513b8361524e565b92508261514b5761514a615375565b5b828204905092915050565b60006151618261524e565b915061516c8361524e565b9250817fffffffffffffffffffffffffffffffffffffffffffffffffffffffffffffffff04831182151516156151a5576151a4615346565b5b828202905092915050565b60006151bb8261524e565b91506151c68361524e565b9250828210156151d9576151d8615346565b5b828203905092915050565b60006151ef8261522e565b9050919050565b60008115159050919050565b60007fffffffff0000000000000000000000000000000000000000000000000000000082169050919050565b600073ffffffffffffffffffffffffffffffffffffffff82169050919050565b6000819050919050565b82818337600083830152505050565b60005b8381101561528557808201518184015260208101905061526a565b83811115615294576000848401525b50505050565b600060028204905060018216806152b257607f821691505b602082108114156152c6576152c56153a4565b5b50919050565b60006152d78261524e565b91507fffffffffffffffffffffffffffffffffffffffffffffffffffffffffffffffff82141561530a57615309615346565b5b600182019050919050565b60006153208261524e565b915061532b8361524e565b92508261533b5761533a615375565b5b828206905092915050565b7f4e487b7100000000000000000000000000000000000000000000000000000000600052601160045260246000fd5b7f4e487b7100000000000000000000000000000000000000000000000000000000600052601260045260246000fd5b7f4e487b7100000000000000000000000000000000000000000000000000000000600052602260045260246000fd5b7f4e487b7100000000000000000000000000000000000000000000000000000000600052604160045260246000fd5b6000601f19601f8301169050919050565b61541c816151e4565b811461542757600080fd5b50565b615433816151f6565b811461543e57600080fd5b50565b61544a81615202565b811461545557600080fd5b50565b6154618161524e565b811461546c57600080fd5b5056fe4142434445464748494a4b4c4d4e4f505152535455565758595a6162636465666768696a6b6c6d6e6f707172737475767778797a303132333435363738392b2f416e204e4654207769746820494420257320686173206265656e206d696e74656420746f202573a2646970667358221220ca60edd8b4e7ac27df6a6e8a23e61cfef8e1fe7cb5813df3c8b60d7a368b271e64736f6c634300080000333c73766720786d6c6e733d27687474703a2f2f7777772e77332e6f72672f323030302f73766727207072657365727665417370656374526174696f3d27784d696e594d696e206d656574272076696577426f783d273020302033353020333530273e3c7374796c653e2e62617365207b2066696c6c3a2077686974653b20666f6e742d66616d696c793a2073657269663b20666f6e742d73697a653a20323470783b207d3c2f7374796c653e3c726563742077696474683d273130302527206865696768743d2731303025272066696c6c3d27",
  "immutableReferences": {},
  "source": "// SPDX-License-Identifier: MIT\npragma solidity 0.8.0;\n\n// We selectedWeapon import some OpenZeppelin Contracts.\nimport \"@openzeppelin/contracts/utils/Strings.sol\";\nimport \"@openzeppelin/contracts/token/ERC721/ERC721.sol\";\nimport \"@openzeppelin/contracts/token/ERC721/extensions/ERC721URIStorage.sol\";\nimport \"@openzeppelin/contracts/utils/Counters.sol\";\nimport \"@openzeppelin/contracts/security/Pausable.sol\";\nimport \"@openzeppelin/contracts/access/Ownable.sol\";\nimport \"@openzeppelin/contracts/token/ERC721/extensions/ERC721Enumerable.sol\";\nimport \"hardhat-console/contracts/console.sol\";\n\n// Import helper functions needed for Base62 encoding\nimport { Base64 } from \"./libraries/Base64.sol\";\n\n/**\n@title Zombie Apocalipse Survival kit generator\n@author Ben Naylor\n@notice This contract currently only handles free mints. No payment is taken.\n\n */\ncontract SurvivalKitClaim is ERC721, ERC721Enumerable, ERC721URIStorage, Pausable, Ownable {\n\n    uint private supplyCap = 3000;\n\n    /// @notice keep track of token ids using purpose built OpenZeppelin utility\n    using Counters for Counters.Counter;\n    Counters.Counter private _tokenIds;\n\n    /// @dev We split the SVG at the part where it asks for the background color.\n    string svgPartOne = \"<svg xmlns='http://www.w3.org/2000/svg' preserveAspectRatio='xMinYMin meet' viewBox='0 0 350 350'><style>.base { fill: white; font-family: serif; font-size: 24px; }</style><rect width='100%' height='100%' fill='\";\n    // string svgPartTwo = \"'/><text x='50%' y='50%' class='base' dominant-baseline='middle' text-anchor='middle'>\";\n    string svgPartTwo = \"'/>\";\n\n    string[] weapon = [\"Crossbow\", \"Shotgun\", \"Samuri Sword\", \"Baseball Bat\", \"Crowbar\", \"slingshot\", \"Axe\", \"Katana\", \"Sledge Hammer\", \"Machete\", \"Handgun\", \"Kunckle Duster\", \"Rifle\", \"Tomahawk\", \"Pointy Stick\"];\n    string[] transport = [\"Motorbike\", \"Car\", \"Bicycle\", \"Jeep\", \"On Foot\", \"Helicopter\", \"Boat\", \"Skateboard\", \"Rollerblades\", \"Scooter\"];\n    string[] item = [\"Torch\", \"Animal Snare\", \"Medicine\", \"Radio\", \"Map\", \"Wistle\", \"Candle\", \"Walkie-Talkie\", \"Water Bottle\", \"Water Purification Tablets\", \"Gloves\", \"Binoculars\", \"Watch\", \"Food Rations\"];\n    string[] colors = [\"red\", \"black\", \"blue\", \"green\", \"indigo\", \"grey\"];\n\n    /// @notice Event to be emitted after a successful mint\n    /// @param sender The address of the transaction sender\n    /// @param tokenId The id of the token that has just been minted\n    event SurvivalKitNftClaimed(address sender, uint256 tokenId);\n\n    /// @notice contract constructor. Takes parameters and passes them to the inherited ERC721 contract constructor\n    /// @param _name the name of the contract\n    /// @param _symbol the symbol that contract tokens will be represented by\n    /// @param _supplyCap the maximum token that are mintable from this contract\n    constructor(string memory _name, string memory _symbol, uint _supplyCap) ERC721(_name, _symbol) {\n        require(_supplyCap > 0, \"supplyCap must be greater than 0\");\n        supplyCap = _supplyCap;\n    }\n\n    /// @notice pauses the contract. \n    /// @dev Inherits _pause() function from Pausable.sol and the onlyOwner modifier from Ownable.sol\n    function pause() public onlyOwner {\n        _pause();\n    }\n\n    /// @notice unpauses the contract. \n    /// @dev Inherits _unpause() function from Pausable.sol and the onlyOwner modifier from Ownable.sol\n    function unpause() public onlyOwner {\n        _unpause();\n    }\n\n    /// @return maximum number of mints allowed on contract \n    function getSupplyCap() public view returns(uint256) {\n        return supplyCap;\n    }\n\n    /// @return number of remaining mints on the contract\n    function getRemainingMints () public view returns (uint256) {\n        return supplyCap - _tokenIds.current();\n    }\n\n    /// @return number of tokens minted on the contract so far.\n    function getTotalNFTsMintedSoFar () public view returns (uint256) {\n        return _tokenIds.current();\n    }\n\n    /// @return a uint representing the balance (in wei) held by the contract.\n    function balanceOfContract()  public view returns(uint){\n        return address(this).balance;\n    }\n\n    /// @notice allows the contract owner to withdraw the funds currently being held by the contract. \n    function withdrawContractFunds()  public payable onlyOwner {\n        address _to = msg.sender;\n        (bool sent, bytes memory data) = _to.call{value: address(this).balance}(\"\");\n        require(sent, \"Failed to send Ether\");\n    }\n\n    /// @notice pick a random weappon to equip the player with\n    /// @dev the randomness could be improved by using an oracle feed.\n    /// @param tokenId used to seed the random function\n    /// @return A random weapon from the array of weapons available.\n    function pickRandomWeapon(uint256 tokenId) internal view returns (string memory) {\n        // seed the random generator\n        uint256 rand = random(string(abi.encodePacked(\"WEAPON\", Strings.toString(tokenId))));\n        // Squash the # between 0 and the length of the array to avoid going out of bounds.\n        rand = rand % weapon.length;\n        return weapon[rand];\n    }\n\n    /// @notice pick a random transport to equip the player with\n    /// @param tokenId used to seed the random function\n    /// @return A random weapon from the array of transport available.\n    function pickRandomTransport(uint256 tokenId) internal view returns (string memory) {\n        uint256 rand = random(string(abi.encodePacked(\"TRANSPORT\", Strings.toString(tokenId))));\n        rand = rand % transport.length;\n        return transport[rand];\n    }\n\n    /// @notice pick a random item to equip the player with\n    /// @param tokenId used to seed the random function\n    /// @return A random item from the array of items available.\n    function pickRandomItem(uint256 tokenId) internal view returns (string memory) {\n        console.log(\"Random Seed: \", string(abi.encodePacked(\"THIRD_WORD\", Strings.toString(tokenId))));\n        uint256 rand = random(string(abi.encodePacked(\"THIRD_WORD\", Strings.toString(tokenId))));\n        console.log(\"pickRandomItem rand: \", rand);\n        rand = rand % item.length;\n        console.log(\"pickRandomItem rand: \", rand);\n        return item[rand];\n    }\n\n    /// @notice pick a random background colour for the players card\n    /// @param tokenId used to seed the random function\n    /// @return A random background colour from the array of colours available.\n    function pickRandomBackgroundColour(uint256 tokenId) internal view returns (string memory) {\n        uint256 rand = random(string(abi.encodePacked(\"COLOUR\", Strings.toString(tokenId))));\n        rand = rand % colors.length;\n        return colors[rand];\n    } \n\n    /// @param input string input which is hashed to generate the 'random' number.\n    /// @dev this function could be made truly random by using an oracle feed.\n    /// @return A random integer\n    function random(string memory input) internal pure returns (uint256) {\n        return uint(keccak256(abi.encodePacked(input)));\n    }\n\n    /// @dev overriding this function was required to inherit from ERC721 and ERC721URIStorage\n    function _burn(uint256 tokenId) internal whenNotPaused override(ERC721, ERC721URIStorage) {\n        super._burn(tokenId);\n    }\n\n    /// @param tokenId the tokenId to retrieve URI for\n    /// @return the token URI containing the tokens metadata\n    function tokenURI(uint256 tokenId) public view override (ERC721, ERC721URIStorage) returns (string memory) {\n        return super.tokenURI(tokenId);\n    }\n\n    function createItem(string memory claimedItem, uint itemNumber) internal pure returns (string memory) {\n        string memory position;\n        if(itemNumber == 1) {\n            position = \"40%\";\n        } else if (itemNumber == 2) {\n            position = \"50%\";\n        } else {\n            position = \"60%\";\n        }\n        \n        return string(abi.encodePacked(\"<text x='50%' y='\", position, \"' class='base' dominant-baseline='middle' text-anchor='middle'>\", claimedItem, \"</text>\"));\n    }\n    \n\n    /// @notice mint an ERC721 token on the contract. The caller will receive a token containing a survival kit that includes a weapon, a transport and an item. All are randomly selected.  \n    /// @dev currently does not accept payment\n    /// @dev this function creates and stores the tokens URI. This is a JSON string constisting of name, description and image fields. The image is a BASE64 encoded SVG. Finally The whole JSON metadata string is BASE64 encoded and mapped to the tokenId.\n    function mintNFT() public payable whenNotPaused{\n        require(_tokenIds.current() <= supplyCap, \"There are no NFTs left to mint\");\n        require(msg.value >= 10000000000000000, \"Not enough ETH sent; check price!\");\n        \n        // get the current tokenId, this starts at 0\n        uint newItemId = _tokenIds.current();\n\n        // randomly grab one word from each of the arrays\n        string memory selectedWeapon = pickRandomWeapon(newItemId);\n        string memory selectedTransport = pickRandomTransport(newItemId);\n        string memory selectedItem = pickRandomItem(newItemId);\n        string memory completeKit = string(abi.encodePacked(selectedWeapon, selectedTransport, selectedItem));\n\n        console.log(\"completeKit: \", completeKit);\n\n        // Add the random color in.\n        string memory randomColor = pickRandomBackgroundColour(newItemId);\n        // string memory finalSvg = string(abi.encodePacked(svgPartOne, randomColor, svgPartTwo, completeKit, \"</text></svg>\"));\n        string memory finalSvg = string(abi.encodePacked(svgPartOne, randomColor, svgPartTwo, \n        createItem(selectedWeapon, 1), \n        createItem(selectedTransport, 2), \n        createItem(selectedItem, 3), \n        \"</svg>\"));\n\n        console.log(\"finalSvg: \", finalSvg);\n\n        // get all the JSON metadata in place and base64 encode it\n        string memory json = Base64.encode(\n            bytes(\n                string(\n                    abi.encodePacked(\n                        '{\"name\": \"',\"Survival Kit\",\n                        '\", \"description\": \"Zombie Apocalypse Survival Kit\", \"image\": \"data:image/svg+xml;base64,',\n                    // add data:image/svg+xml;base64 and then append our base64 encode our svg.\n                    Base64.encode(bytes(finalSvg)),\n                    '\"}'\n                    )\n                )\n            )\n        );\n        console.log(\"BASE64 encoded JSON: \", json);\n\n        // Just like before, we prepend data:application/json;base64, to our data.\n        string memory finalTokenUri = string(\n            abi.encodePacked(\"data:application/json;base64,\", json)\n        );\n        console.log(\"finalTokenUri: \", finalTokenUri);\n\n        console.log(\"\\n--------------------\");\n        // console.log(finalTokenUri);\n        console.log(\"--------------------\\n\");  \n\n        // actually mint the NFT to the sender using msg.sender\n        _safeMint(msg.sender, newItemId);\n\n        // store the tokens metadata\n        _setTokenURI(newItemId, finalTokenUri);\n\n        // increment the counter for when the next NFT is minted\n        _tokenIds.increment();\n        console.log(\"An NFT with ID %s has been minted to %s\", newItemId, msg.sender);\n        emit SurvivalKitNftClaimed(msg.sender, newItemId);\n    }\n\n    // The following functions are overrides required by Solidity.\n    function _beforeTokenTransfer(address from, address to, uint256 tokenId) internal whenNotPaused override(ERC721, ERC721Enumerable) {\n        super._beforeTokenTransfer(from, to, tokenId);\n    }\n\n    function supportsInterface(bytes4 interfaceId) public view override(ERC721, ERC721Enumerable) returns (bool) {\n        return super.supportsInterface(interfaceId);\n    }\n}",
  "sourcePath": "/Users/bennaylor/Development/Consensys Academy/blockchain-developer-bootcamp-final-project/contracts/SurvivalKitClaim.sol",
  "compiler": {
    "name": "solc",
    "version": "0.8.0+commit.c7dfd78e.Emscripten.clang"
  },
  "schemaVersion": "3.4.3",
  "updatedAt": "2021-11-11T15:10:49.632Z",
  "networkType": "ethereum",
  "devdoc": {
    "author": "Ben Naylor",
    "events": {
      "SurvivalKitNftClaimed(address,uint256)": {
        "params": {
          "sender": "The address of the transaction sender",
          "tokenId": "The id of the token that has just been minted"
        }
      }
    },
    "kind": "dev",
    "methods": {
      "approve(address,uint256)": {
        "details": "See {IERC721-approve}."
      },
      "balanceOf(address)": {
        "details": "See {IERC721-balanceOf}."
      },
      "balanceOfContract()": {
        "returns": {
          "_0": "a uint representing the balance (in wei) held by the contract."
        }
      },
      "constructor": {
        "params": {
          "_name": "the name of the contract",
          "_supplyCap": "the maximum token that are mintable from this contract",
          "_symbol": "the symbol that contract tokens will be represented by"
        }
      },
      "getApproved(uint256)": {
        "details": "See {IERC721-getApproved}."
      },
      "getRemainingMints()": {
        "returns": {
          "_0": "number of remaining mints on the contract"
        }
      },
      "getSupplyCap()": {
        "returns": {
          "_0": "maximum number of mints allowed on contract "
        }
      },
      "getTotalNFTsMintedSoFar()": {
        "returns": {
          "_0": "number of tokens minted on the contract so far."
        }
      },
      "isApprovedForAll(address,address)": {
        "details": "See {IERC721-isApprovedForAll}."
      },
      "mintNFT()": {
        "details": "currently does not accept paymentthis function creates and stores the tokens URI. This is a JSON string constisting of name, description and image fields. The image is a BASE64 encoded SVG. Finally The whole JSON metadata string is BASE64 encoded and mapped to the tokenId."
      },
      "name()": {
        "details": "See {IERC721Metadata-name}."
      },
      "owner()": {
        "details": "Returns the address of the current owner."
      },
      "ownerOf(uint256)": {
        "details": "See {IERC721-ownerOf}."
      },
      "pause()": {
        "details": "Inherits _pause() function from Pausable.sol and the onlyOwner modifier from Ownable.sol"
      },
      "paused()": {
        "details": "Returns true if the contract is paused, and false otherwise."
      },
      "renounceOwnership()": {
        "details": "Leaves the contract without owner. It will not be possible to call `onlyOwner` functions anymore. Can only be called by the current owner. NOTE: Renouncing ownership will leave the contract without an owner, thereby removing any functionality that is only available to the owner."
      },
      "safeTransferFrom(address,address,uint256)": {
        "details": "See {IERC721-safeTransferFrom}."
      },
      "safeTransferFrom(address,address,uint256,bytes)": {
        "details": "See {IERC721-safeTransferFrom}."
      },
      "setApprovalForAll(address,bool)": {
        "details": "See {IERC721-setApprovalForAll}."
      },
      "symbol()": {
        "details": "See {IERC721Metadata-symbol}."
      },
      "tokenByIndex(uint256)": {
        "details": "See {IERC721Enumerable-tokenByIndex}."
      },
      "tokenOfOwnerByIndex(address,uint256)": {
        "details": "See {IERC721Enumerable-tokenOfOwnerByIndex}."
      },
      "tokenURI(uint256)": {
        "params": {
          "tokenId": "the tokenId to retrieve URI for"
        },
        "returns": {
          "_0": "the token URI containing the tokens metadata"
        }
      },
      "totalSupply()": {
        "details": "See {IERC721Enumerable-totalSupply}."
      },
      "transferFrom(address,address,uint256)": {
        "details": "See {IERC721-transferFrom}."
      },
      "transferOwnership(address)": {
        "details": "Transfers ownership of the contract to a new account (`newOwner`). Can only be called by the current owner."
      },
      "unpause()": {
        "details": "Inherits _unpause() function from Pausable.sol and the onlyOwner modifier from Ownable.sol"
      }
    },
    "stateVariables": {
      "svgPartOne": {
        "details": "We split the SVG at the part where it asks for the background color."
      }
    },
    "title": "Zombie Apocalipse Survival kit generator",
    "version": 1
  },
  "userdoc": {
    "events": {
      "SurvivalKitNftClaimed(address,uint256)": {
        "notice": "Event to be emitted after a successful mint"
      }
    },
    "kind": "user",
    "methods": {
      "constructor": {
        "notice": "contract constructor. Takes parameters and passes them to the inherited ERC721 contract constructor"
      },
      "mintNFT()": {
        "notice": "mint an ERC721 token on the contract. The caller will receive a token containing a survival kit that includes a weapon, a transport and an item. All are randomly selected.  "
      },
      "pause()": {
        "notice": "pauses the contract. "
      },
      "unpause()": {
        "notice": "unpauses the contract. "
      },
      "withdrawContractFunds()": {
        "notice": "allows the contract owner to withdraw the funds currently being held by the contract. "
      }
    },
    "notice": "This contract currently only handles free mints. No payment is taken.",
    "version": 1
  }
}