{
  "contractName": "SurvivalKitClaim",
  "abi": [
    {
      "inputs": [
        {
          "internalType": "string",
          "name": "_name",
          "type": "string"
        },
        {
          "internalType": "string",
          "name": "_symbol",
          "type": "string"
        },
        {
          "internalType": "uint256",
          "name": "_supplyCap",
          "type": "uint256"
        }
      ],
      "stateMutability": "nonpayable",
      "type": "constructor"
    },
    {
      "anonymous": false,
      "inputs": [
        {
          "indexed": true,
          "internalType": "address",
          "name": "owner",
          "type": "address"
        },
        {
          "indexed": true,
          "internalType": "address",
          "name": "approved",
          "type": "address"
        },
        {
          "indexed": true,
          "internalType": "uint256",
          "name": "tokenId",
          "type": "uint256"
        }
      ],
      "name": "Approval",
      "type": "event"
    },
    {
      "anonymous": false,
      "inputs": [
        {
          "indexed": true,
          "internalType": "address",
          "name": "owner",
          "type": "address"
        },
        {
          "indexed": true,
          "internalType": "address",
          "name": "operator",
          "type": "address"
        },
        {
          "indexed": false,
          "internalType": "bool",
          "name": "approved",
          "type": "bool"
        }
      ],
      "name": "ApprovalForAll",
      "type": "event"
    },
    {
      "anonymous": false,
      "inputs": [
        {
          "indexed": true,
          "internalType": "address",
          "name": "previousOwner",
          "type": "address"
        },
        {
          "indexed": true,
          "internalType": "address",
          "name": "newOwner",
          "type": "address"
        }
      ],
      "name": "OwnershipTransferred",
      "type": "event"
    },
    {
      "anonymous": false,
      "inputs": [
        {
          "indexed": false,
          "internalType": "address",
          "name": "account",
          "type": "address"
        }
      ],
      "name": "Paused",
      "type": "event"
    },
    {
      "anonymous": false,
      "inputs": [
        {
          "indexed": false,
          "internalType": "address",
          "name": "sender",
          "type": "address"
        },
        {
          "indexed": false,
          "internalType": "uint256",
          "name": "tokenId",
          "type": "uint256"
        }
      ],
      "name": "SurvivalKitNftClaimed",
      "type": "event"
    },
    {
      "anonymous": false,
      "inputs": [
        {
          "indexed": true,
          "internalType": "address",
          "name": "from",
          "type": "address"
        },
        {
          "indexed": true,
          "internalType": "address",
          "name": "to",
          "type": "address"
        },
        {
          "indexed": true,
          "internalType": "uint256",
          "name": "tokenId",
          "type": "uint256"
        }
      ],
      "name": "Transfer",
      "type": "event"
    },
    {
      "anonymous": false,
      "inputs": [
        {
          "indexed": false,
          "internalType": "address",
          "name": "account",
          "type": "address"
        }
      ],
      "name": "Unpaused",
      "type": "event"
    },
    {
      "inputs": [
        {
          "internalType": "address",
          "name": "to",
          "type": "address"
        },
        {
          "internalType": "uint256",
          "name": "tokenId",
          "type": "uint256"
        }
      ],
      "name": "approve",
      "outputs": [],
      "stateMutability": "nonpayable",
      "type": "function"
    },
    {
      "inputs": [
        {
          "internalType": "address",
          "name": "owner",
          "type": "address"
        }
      ],
      "name": "balanceOf",
      "outputs": [
        {
          "internalType": "uint256",
          "name": "",
          "type": "uint256"
        }
      ],
      "stateMutability": "view",
      "type": "function",
      "constant": true
    },
    {
      "inputs": [
        {
          "internalType": "uint256",
          "name": "tokenId",
          "type": "uint256"
        }
      ],
      "name": "getApproved",
      "outputs": [
        {
          "internalType": "address",
          "name": "",
          "type": "address"
        }
      ],
      "stateMutability": "view",
      "type": "function",
      "constant": true
    },
    {
      "inputs": [
        {
          "internalType": "address",
          "name": "owner",
          "type": "address"
        },
        {
          "internalType": "address",
          "name": "operator",
          "type": "address"
        }
      ],
      "name": "isApprovedForAll",
      "outputs": [
        {
          "internalType": "bool",
          "name": "",
          "type": "bool"
        }
      ],
      "stateMutability": "view",
      "type": "function",
      "constant": true
    },
    {
      "inputs": [],
      "name": "name",
      "outputs": [
        {
          "internalType": "string",
          "name": "",
          "type": "string"
        }
      ],
      "stateMutability": "view",
      "type": "function",
      "constant": true
    },
    {
      "inputs": [],
      "name": "owner",
      "outputs": [
        {
          "internalType": "address",
          "name": "",
          "type": "address"
        }
      ],
      "stateMutability": "view",
      "type": "function",
      "constant": true
    },
    {
      "inputs": [
        {
          "internalType": "uint256",
          "name": "tokenId",
          "type": "uint256"
        }
      ],
      "name": "ownerOf",
      "outputs": [
        {
          "internalType": "address",
          "name": "",
          "type": "address"
        }
      ],
      "stateMutability": "view",
      "type": "function",
      "constant": true
    },
    {
      "inputs": [],
      "name": "paused",
      "outputs": [
        {
          "internalType": "bool",
          "name": "",
          "type": "bool"
        }
      ],
      "stateMutability": "view",
      "type": "function",
      "constant": true
    },
    {
      "inputs": [],
      "name": "renounceOwnership",
      "outputs": [],
      "stateMutability": "nonpayable",
      "type": "function"
    },
    {
      "inputs": [
        {
          "internalType": "address",
          "name": "from",
          "type": "address"
        },
        {
          "internalType": "address",
          "name": "to",
          "type": "address"
        },
        {
          "internalType": "uint256",
          "name": "tokenId",
          "type": "uint256"
        }
      ],
      "name": "safeTransferFrom",
      "outputs": [],
      "stateMutability": "nonpayable",
      "type": "function"
    },
    {
      "inputs": [
        {
          "internalType": "address",
          "name": "from",
          "type": "address"
        },
        {
          "internalType": "address",
          "name": "to",
          "type": "address"
        },
        {
          "internalType": "uint256",
          "name": "tokenId",
          "type": "uint256"
        },
        {
          "internalType": "bytes",
          "name": "_data",
          "type": "bytes"
        }
      ],
      "name": "safeTransferFrom",
      "outputs": [],
      "stateMutability": "nonpayable",
      "type": "function"
    },
    {
      "inputs": [
        {
          "internalType": "address",
          "name": "operator",
          "type": "address"
        },
        {
          "internalType": "bool",
          "name": "approved",
          "type": "bool"
        }
      ],
      "name": "setApprovalForAll",
      "outputs": [],
      "stateMutability": "nonpayable",
      "type": "function"
    },
    {
      "inputs": [],
      "name": "symbol",
      "outputs": [
        {
          "internalType": "string",
          "name": "",
          "type": "string"
        }
      ],
      "stateMutability": "view",
      "type": "function",
      "constant": true
    },
    {
      "inputs": [
        {
          "internalType": "uint256",
          "name": "index",
          "type": "uint256"
        }
      ],
      "name": "tokenByIndex",
      "outputs": [
        {
          "internalType": "uint256",
          "name": "",
          "type": "uint256"
        }
      ],
      "stateMutability": "view",
      "type": "function",
      "constant": true
    },
    {
      "inputs": [
        {
          "internalType": "address",
          "name": "owner",
          "type": "address"
        },
        {
          "internalType": "uint256",
          "name": "index",
          "type": "uint256"
        }
      ],
      "name": "tokenOfOwnerByIndex",
      "outputs": [
        {
          "internalType": "uint256",
          "name": "",
          "type": "uint256"
        }
      ],
      "stateMutability": "view",
      "type": "function",
      "constant": true
    },
    {
      "inputs": [],
      "name": "totalSupply",
      "outputs": [
        {
          "internalType": "uint256",
          "name": "",
          "type": "uint256"
        }
      ],
      "stateMutability": "view",
      "type": "function",
      "constant": true
    },
    {
      "inputs": [
        {
          "internalType": "address",
          "name": "from",
          "type": "address"
        },
        {
          "internalType": "address",
          "name": "to",
          "type": "address"
        },
        {
          "internalType": "uint256",
          "name": "tokenId",
          "type": "uint256"
        }
      ],
      "name": "transferFrom",
      "outputs": [],
      "stateMutability": "nonpayable",
      "type": "function"
    },
    {
      "inputs": [
        {
          "internalType": "address",
          "name": "newOwner",
          "type": "address"
        }
      ],
      "name": "transferOwnership",
      "outputs": [],
      "stateMutability": "nonpayable",
      "type": "function"
    },
    {
      "inputs": [],
      "name": "pause",
      "outputs": [],
      "stateMutability": "nonpayable",
      "type": "function"
    },
    {
      "inputs": [],
      "name": "unpause",
      "outputs": [],
      "stateMutability": "nonpayable",
      "type": "function"
    },
    {
      "inputs": [],
      "name": "getSupplyCap",
      "outputs": [
        {
          "internalType": "uint256",
          "name": "",
          "type": "uint256"
        }
      ],
      "stateMutability": "view",
      "type": "function",
      "constant": true
    },
    {
      "inputs": [],
      "name": "getRemainingMints",
      "outputs": [
        {
          "internalType": "uint256",
          "name": "",
          "type": "uint256"
        }
      ],
      "stateMutability": "view",
      "type": "function",
      "constant": true
    },
    {
      "inputs": [],
      "name": "getTotalNFTsMintedSoFar",
      "outputs": [
        {
          "internalType": "uint256",
          "name": "",
          "type": "uint256"
        }
      ],
      "stateMutability": "view",
      "type": "function",
      "constant": true
    },
    {
      "inputs": [],
      "name": "balanceOfContract",
      "outputs": [
        {
          "internalType": "uint256",
          "name": "",
          "type": "uint256"
        }
      ],
      "stateMutability": "view",
      "type": "function",
      "constant": true
    },
    {
      "inputs": [],
      "name": "withdrawAllFunds",
      "outputs": [],
      "stateMutability": "payable",
      "type": "function",
      "payable": true
    },
    {
      "inputs": [
        {
          "internalType": "uint256",
          "name": "amount",
          "type": "uint256"
        }
      ],
      "name": "withdrawFunds",
      "outputs": [],
      "stateMutability": "payable",
      "type": "function",
      "payable": true
    },
    {
      "inputs": [
        {
          "internalType": "string",
          "name": "a",
          "type": "string"
        },
        {
          "internalType": "string",
          "name": "b",
          "type": "string"
        }
      ],
      "name": "compareStrings",
      "outputs": [
        {
          "internalType": "bool",
          "name": "",
          "type": "bool"
        }
      ],
      "stateMutability": "view",
      "type": "function",
      "constant": true
    },
    {
      "inputs": [
        {
          "internalType": "uint256",
          "name": "tokenId",
          "type": "uint256"
        }
      ],
      "name": "tokenURI",
      "outputs": [
        {
          "internalType": "string",
          "name": "",
          "type": "string"
        }
      ],
      "stateMutability": "view",
      "type": "function",
      "constant": true
    },
    {
      "inputs": [],
      "name": "mintNFT",
      "outputs": [],
      "stateMutability": "payable",
      "type": "function",
      "payable": true
    },
    {
      "inputs": [
        {
          "internalType": "bytes4",
          "name": "interfaceId",
          "type": "bytes4"
        }
      ],
      "name": "supportsInterface",
      "outputs": [
        {
          "internalType": "bool",
          "name": "",
          "type": "bool"
        }
      ],
      "stateMutability": "view",
      "type": "function",
      "constant": true
    }
  ],
  "bytecode": "0x6080604052610bb8600c5560405180610100016040528060d381526020016200646160d39139600e90805190602001906200003c92919062000d25565b506040518060400160405280600381526020017f272f3e0000000000000000000000000000000000000000000000000000000000815250600f90805190602001906200008a92919062000d25565b50604051806101e001604052806040518060400160405280600881526020017f43726f7373626f7700000000000000000000000000000000000000000000000081525081526020016040518060400160405280600781526020017f53686f7467756e0000000000000000000000000000000000000000000000000081525081526020016040518060400160405280600c81526020017f53616d7572692053776f7264000000000000000000000000000000000000000081525081526020016040518060400160405280600c81526020017f4261736562616c6c20426174000000000000000000000000000000000000000081525081526020016040518060400160405280600781526020017f43726f776261720000000000000000000000000000000000000000000000000081525081526020016040518060400160405280600981526020017f736c696e6773686f74000000000000000000000000000000000000000000000081525081526020016040518060400160405280600381526020017f417865000000000000000000000000000000000000000000000000000000000081525081526020016040518060400160405280600681526020017f4b6174616e61000000000000000000000000000000000000000000000000000081525081526020016040518060400160405280600d81526020017f536c656467652048616d6d65720000000000000000000000000000000000000081525081526020016040518060400160405280600781526020017f4d6163686574650000000000000000000000000000000000000000000000000081525081526020016040518060400160405280600781526020017f48616e6467756e0000000000000000000000000000000000000000000000000081525081526020016040518060400160405280600e81526020017f4b756e636b6c652044757374657200000000000000000000000000000000000081525081526020016040518060400160405280600581526020017f5269666c6500000000000000000000000000000000000000000000000000000081525081526020016040518060400160405280600881526020017f546f6d616861776b00000000000000000000000000000000000000000000000081525081526020016040518060400160405280600c81526020017f506f696e747920537469636b0000000000000000000000000000000000000000815250815250601090600f6200041c92919062000db6565b506040518061014001604052806040518060400160405280600981526020017f4d6f746f7262696b65000000000000000000000000000000000000000000000081525081526020016040518060400160405280600381526020017f436172000000000000000000000000000000000000000000000000000000000081525081526020016040518060400160405280600781526020017f42696379636c650000000000000000000000000000000000000000000000000081525081526020016040518060400160405280600481526020017f4a6565700000000000000000000000000000000000000000000000000000000081525081526020016040518060400160405280600781526020017f4f6e20466f6f740000000000000000000000000000000000000000000000000081525081526020016040518060400160405280600a81526020017f48656c69636f707465720000000000000000000000000000000000000000000081525081526020016040518060400160405280600481526020017f426f61740000000000000000000000000000000000000000000000000000000081525081526020016040518060400160405280600a81526020017f536b617465626f6172640000000000000000000000000000000000000000000081525081526020016040518060400160405280600c81526020017f526f6c6c6572626c61646573000000000000000000000000000000000000000081525081526020016040518060400160405280600781526020017f53636f6f74657200000000000000000000000000000000000000000000000000815250815250601190600a6200068792919062000e1d565b50604051806101c001604052806040518060400160405280600581526020017f546f72636800000000000000000000000000000000000000000000000000000081525081526020016040518060400160405280600c81526020017f416e696d616c20536e617265000000000000000000000000000000000000000081525081526020016040518060400160405280600881526020017f4d65646963696e6500000000000000000000000000000000000000000000000081525081526020016040518060400160405280600581526020017f526164696f00000000000000000000000000000000000000000000000000000081525081526020016040518060400160405280600381526020017f4d6170000000000000000000000000000000000000000000000000000000000081525081526020016040518060400160405280600681526020017f576973746c65000000000000000000000000000000000000000000000000000081525081526020016040518060400160405280600681526020017f43616e646c65000000000000000000000000000000000000000000000000000081525081526020016040518060400160405280600d81526020017f57616c6b69652d54616c6b69650000000000000000000000000000000000000081525081526020016040518060400160405280600c81526020017f576174657220426f74746c65000000000000000000000000000000000000000081525081526020016040518060400160405280601a81526020017f576174657220507572696669636174696f6e205461626c65747300000000000081525081526020016040518060400160405280600681526020017f476c6f766573000000000000000000000000000000000000000000000000000081525081526020016040518060400160405280600a81526020017f42696e6f63756c6172730000000000000000000000000000000000000000000081525081526020016040518060400160405280600581526020017f576174636800000000000000000000000000000000000000000000000000000081525081526020016040518060400160405280600c81526020017f466f6f6420526174696f6e730000000000000000000000000000000000000000815250815250601290600e620009de92919062000e84565b506040518060c001604052806040518060400160405280600381526020017f726564000000000000000000000000000000000000000000000000000000000081525081526020016040518060400160405280600581526020017f626c61636b00000000000000000000000000000000000000000000000000000081525081526020016040518060400160405280600481526020017f626c75650000000000000000000000000000000000000000000000000000000081525081526020016040518060400160405280600581526020017f677265656e00000000000000000000000000000000000000000000000000000081525081526020016040518060400160405280600681526020017f696e6469676f000000000000000000000000000000000000000000000000000081525081526020016040518060400160405280600481526020017f6772657900000000000000000000000000000000000000000000000000000000815250815250601390600662000b5c92919062000eeb565b5034801562000b6a57600080fd5b506040516200653438038062006534833981810160405281019062000b90919062001068565b8282816000908051906020019062000baa92919062000d25565b50806001908051906020019062000bc392919062000d25565b5050506000600b60006101000a81548160ff02191690831515021790555062000c0162000bf562000c5760201b60201c565b62000c5f60201b60201c565b6000811162000c47576040517f08c379a000000000000000000000000000000000000000000000000000000000815260040162000c3e9062001132565b60405180910390fd5b80600c81905550505050620012ba565b600033905090565b6000600b60019054906101000a900473ffffffffffffffffffffffffffffffffffffffff16905081600b60016101000a81548173ffffffffffffffffffffffffffffffffffffffff021916908373ffffffffffffffffffffffffffffffffffffffff1602179055508173ffffffffffffffffffffffffffffffffffffffff168173ffffffffffffffffffffffffffffffffffffffff167f8be0079c531659141344cd1fd0a4f28419497f9722a3daafe3b4186f6b6457e060405160405180910390a35050565b82805462000d33906200120c565b90600052602060002090601f01602090048101928262000d57576000855562000da3565b82601f1062000d7257805160ff191683800117855562000da3565b8280016001018555821562000da3579182015b8281111562000da257825182559160200191906001019062000d85565b5b50905062000db2919062000f52565b5090565b82805482825590600052602060002090810192821562000e0a579160200282015b8281111562000e0957825182908051906020019062000df892919062000d25565b509160200191906001019062000dd7565b5b50905062000e19919062000f71565b5090565b82805482825590600052602060002090810192821562000e71579160200282015b8281111562000e7057825182908051906020019062000e5f92919062000d25565b509160200191906001019062000e3e565b5b50905062000e80919062000f71565b5090565b82805482825590600052602060002090810192821562000ed8579160200282015b8281111562000ed757825182908051906020019062000ec692919062000d25565b509160200191906001019062000ea5565b5b50905062000ee7919062000f71565b5090565b82805482825590600052602060002090810192821562000f3f579160200282015b8281111562000f3e57825182908051906020019062000f2d92919062000d25565b509160200191906001019062000f0c565b5b50905062000f4e919062000f71565b5090565b5b8082111562000f6d57600081600090555060010162000f53565b5090565b5b8082111562000f95576000818162000f8b919062000f99565b5060010162000f72565b5090565b50805462000fa7906200120c565b6000825580601f1062000fbb575062000fdc565b601f01602090049060005260206000209081019062000fdb919062000f52565b5b50565b600062000ff662000ff08462001188565b62001154565b9050828152602081018484840111156200100f57600080fd5b6200101c848285620011d6565b509392505050565b600082601f8301126200103657600080fd5b81516200104884826020860162000fdf565b91505092915050565b6000815190506200106281620012a0565b92915050565b6000806000606084860312156200107e57600080fd5b600084015167ffffffffffffffff8111156200109957600080fd5b620010a78682870162001024565b935050602084015167ffffffffffffffff811115620010c557600080fd5b620010d38682870162001024565b9250506040620010e68682870162001051565b9150509250925092565b6000620010ff602083620011bb565b91507f737570706c79436170206d7573742062652067726561746572207468616e20306000830152602082019050919050565b600060208201905081810360008301526200114d81620010f0565b9050919050565b6000604051905081810181811067ffffffffffffffff821117156200117e576200117d62001271565b5b8060405250919050565b600067ffffffffffffffff821115620011a657620011a562001271565b5b601f19601f8301169050602081019050919050565b600082825260208201905092915050565b6000819050919050565b60005b83811015620011f6578082015181840152602081019050620011d9565b8381111562001206576000848401525b50505050565b600060028204905060018216806200122557607f821691505b602082108114156200123c576200123b62001242565b5b50919050565b7f4e487b7100000000000000000000000000000000000000000000000000000000600052602260045260246000fd5b7f4e487b7100000000000000000000000000000000000000000000000000000000600052604160045260246000fd5b620012ab81620011cc565b8114620012b757600080fd5b50565b61519780620012ca6000396000f3fe6080604052600436106101cd5760003560e01c80635c975abb116100f7578063a22cb46511610095578063e6c7c45611610064578063e6c7c45614610629578063e985e9c514610654578063f2fde38b14610691578063fd02c239146106ba576101cd565b8063a22cb4651461055d578063b88d4fde14610586578063bed34bba146105af578063c87b56dd146105ec576101cd565b8063715018a6116100d1578063715018a6146104d95780638456cb59146104f05780638da5cb5b1461050757806395d89b4114610532576101cd565b80635c975abb146104345780636352211e1461045f57806370a082311461049c576101cd565b806318160ddd1161016f5780633f4ba83a1161013e5780633f4ba83a146103ad57806342842e0e146103c457806349649fbf146103ed5780634f6ccce7146103f7576101cd565b806318160ddd146102f1578063203618141461031c57806323b872dd146103475780632f745c5914610370576101cd565b8063081812fc116101ab578063081812fc14610265578063095ea7b3146102a257806314f710fe146102cb578063155dd5ee146102d5576101cd565b806301ffc9a7146101d2578063060475901461020f57806306fdde031461023a575b600080fd5b3480156101de57600080fd5b506101f960048036038101906101f49190613960565b6106e5565b6040516102069190614915565b60405180910390f35b34801561021b57600080fd5b506102246106f7565b6040516102319190614c72565b60405180910390f35b34801561024657600080fd5b5061024f610708565b60405161025c9190614930565b60405180910390f35b34801561027157600080fd5b5061028c60048036038101906102879190613a1e565b61079a565b6040516102999190614885565b60405180910390f35b3480156102ae57600080fd5b506102c960048036038101906102c49190613924565b61081f565b005b6102d3610937565b005b6102ef60048036038101906102ea9190613a1e565b610c38565b005b3480156102fd57600080fd5b50610306610d64565b6040516103139190614c72565b60405180910390f35b34801561032857600080fd5b50610331610d71565b60405161033e9190614c72565b60405180910390f35b34801561035357600080fd5b5061036e6004803603810190610369919061381e565b610d7b565b005b34801561037c57600080fd5b5061039760048036038101906103929190613924565b610ddb565b6040516103a49190614c72565b60405180910390f35b3480156103b957600080fd5b506103c2610e80565b005b3480156103d057600080fd5b506103eb60048036038101906103e6919061381e565b610f06565b005b6103f5610f26565b005b34801561040357600080fd5b5061041e60048036038101906104199190613a1e565b611051565b60405161042b9190614c72565b60405180910390f35b34801561044057600080fd5b506104496110e8565b6040516104569190614915565b60405180910390f35b34801561046b57600080fd5b5061048660048036038101906104819190613a1e565b6110ff565b6040516104939190614885565b60405180910390f35b3480156104a857600080fd5b506104c360048036038101906104be91906137b9565b6111b1565b6040516104d09190614c72565b60405180910390f35b3480156104e557600080fd5b506104ee611269565b005b3480156104fc57600080fd5b506105056112f1565b005b34801561051357600080fd5b5061051c611377565b6040516105299190614885565b60405180910390f35b34801561053e57600080fd5b506105476113a1565b6040516105549190614930565b60405180910390f35b34801561056957600080fd5b50610584600480360381019061057f91906138e8565b611433565b005b34801561059257600080fd5b506105ad60048036038101906105a8919061386d565b6115b4565b005b3480156105bb57600080fd5b506105d660048036038101906105d191906139b2565b611616565b6040516105e39190614915565b60405180910390f35b3480156105f857600080fd5b50610613600480360381019061060e9190613a1e565b61166f565b6040516106209190614930565b60405180910390f35b34801561063557600080fd5b5061063e611681565b60405161064b9190614c72565b60405180910390f35b34801561066057600080fd5b5061067b600480360381019061067691906137e2565b611689565b6040516106889190614915565b60405180910390f35b34801561069d57600080fd5b506106b860048036038101906106b391906137b9565b61171d565b005b3480156106c657600080fd5b506106cf611815565b6040516106dc9190614c72565b60405180910390f35b60006106f082611833565b9050919050565b6000610703600d6118ad565b905090565b60606000805461071790614f4c565b80601f016020809104026020016040519081016040528092919081815260200182805461074390614f4c565b80156107905780601f1061076557610100808354040283529160200191610790565b820191906000526020600020905b81548152906001019060200180831161077357829003601f168201915b5050505050905090565b60006107a5826118bb565b6107e4576040517f08c379a00000000000000000000000000000000000000000000000000000000081526004016107db90614b72565b60405180910390fd5b6004600083815260200190815260200160002060009054906101000a900473ffffffffffffffffffffffffffffffffffffffff169050919050565b600061082a826110ff565b90508073ffffffffffffffffffffffffffffffffffffffff168373ffffffffffffffffffffffffffffffffffffffff16141561089b576040517f08c379a000000000000000000000000000000000000000000000000000000000815260040161089290614bf2565b60405180910390fd5b8073ffffffffffffffffffffffffffffffffffffffff166108ba611927565b73ffffffffffffffffffffffffffffffffffffffff1614806108e957506108e8816108e3611927565b611689565b5b610928576040517f08c379a000000000000000000000000000000000000000000000000000000000815260040161091f90614ab2565b60405180910390fd5b610932838361192f565b505050565b61093f6110e8565b1561097f576040517f08c379a000000000000000000000000000000000000000000000000000000000815260040161097690614a92565b60405180910390fd5b600c5461098c600d6118ad565b11156109cd576040517f08c379a00000000000000000000000000000000000000000000000000000000081526004016109c4906149b2565b60405180910390fd5b662386f26fc10000341015610a17576040517f08c379a0000000000000000000000000000000000000000000000000000000008152600401610a0e90614c52565b60405180910390fd5b6000610a23600d6118ad565b90506000610a66826040518060400160405280600681526020017f574541504f4e00000000000000000000000000000000000000000000000000008152506119e8565b90506000610aa9836040518060400160405280600981526020017f5452414e53504f525400000000000000000000000000000000000000000000008152506119e8565b90506000610aec846040518060400160405280600481526020017f4954454d000000000000000000000000000000000000000000000000000000008152506119e8565b90506000610b2f856040518060400160405280600681526020017f434f4c4f555200000000000000000000000000000000000000000000000000008152506119e8565b90506000600e82600f610b43886001611eea565b610b4e886002611eea565b610b59886003611eea565b604051602001610b6e96959493929190614763565b60405160208183030381529060405290506000610bb1610b8d83611fde565b604051602001610b9d919061480b565b604051602081830303815290604052611fde565b9050600081604051602001610bc6919061484e565b6040516020818303038152906040529050610be1338961219c565b610beb88826121ba565b610bf5600d61222e565b7f75f619ddab9326bcf7e428ba55311feaad4aa7dec1f5cc227b218a7ad22764113389604051610c269291906148ec565b60405180910390a15050505050505050565b610c40611927565b73ffffffffffffffffffffffffffffffffffffffff16610c5e611377565b73ffffffffffffffffffffffffffffffffffffffff1614610cb4576040517f08c379a0000000000000000000000000000000000000000000000000000000008152600401610cab90614b92565b60405180910390fd5b60003373ffffffffffffffffffffffffffffffffffffffff1682604051610cda90614870565b60006040518083038185875af1925050503d8060008114610d17576040519150601f19603f3d011682016040523d82523d6000602084013e610d1c565b606091505b5050905080610d60576040517f08c379a0000000000000000000000000000000000000000000000000000000008152600401610d5790614a12565b60405180910390fd5b5050565b6000600880549050905090565b6000600c54905090565b610d8c610d86611927565b82612244565b610dcb576040517f08c379a0000000000000000000000000000000000000000000000000000000008152600401610dc290614c12565b60405180910390fd5b610dd6838383612322565b505050565b6000610de6836111b1565b8210610e27576040517f08c379a0000000000000000000000000000000000000000000000000000000008152600401610e1e90614972565b60405180910390fd5b600660008473ffffffffffffffffffffffffffffffffffffffff1673ffffffffffffffffffffffffffffffffffffffff168152602001908152602001600020600083815260200190815260200160002054905092915050565b610e88611927565b73ffffffffffffffffffffffffffffffffffffffff16610ea6611377565b73ffffffffffffffffffffffffffffffffffffffff1614610efc576040517f08c379a0000000000000000000000000000000000000000000000000000000008152600401610ef390614b92565b60405180910390fd5b610f0461257e565b565b610f21838383604051806020016040528060008152506115b4565b505050565b610f2e611927565b73ffffffffffffffffffffffffffffffffffffffff16610f4c611377565b73ffffffffffffffffffffffffffffffffffffffff1614610fa2576040517f08c379a0000000000000000000000000000000000000000000000000000000008152600401610f9990614b92565b60405180910390fd5b60003373ffffffffffffffffffffffffffffffffffffffff1647604051610fc890614870565b60006040518083038185875af1925050503d8060008114611005576040519150601f19603f3d011682016040523d82523d6000602084013e61100a565b606091505b505090508061104e576040517f08c379a000000000000000000000000000000000000000000000000000000000815260040161104590614a12565b60405180910390fd5b50565b600061105b610d64565b821061109c576040517f08c379a000000000000000000000000000000000000000000000000000000000815260040161109390614c32565b60405180910390fd5b600882815481106110d6577f4e487b7100000000000000000000000000000000000000000000000000000000600052603260045260246000fd5b90600052602060002001549050919050565b6000600b60009054906101000a900460ff16905090565b6000806002600084815260200190815260200160002060009054906101000a900473ffffffffffffffffffffffffffffffffffffffff169050600073ffffffffffffffffffffffffffffffffffffffff168173ffffffffffffffffffffffffffffffffffffffff1614156111a8576040517f08c379a000000000000000000000000000000000000000000000000000000000815260040161119f90614af2565b60405180910390fd5b80915050919050565b60008073ffffffffffffffffffffffffffffffffffffffff168273ffffffffffffffffffffffffffffffffffffffff161415611222576040517f08c379a000000000000000000000000000000000000000000000000000000000815260040161121990614ad2565b60405180910390fd5b600360008373ffffffffffffffffffffffffffffffffffffffff1673ffffffffffffffffffffffffffffffffffffffff168152602001908152602001600020549050919050565b611271611927565b73ffffffffffffffffffffffffffffffffffffffff1661128f611377565b73ffffffffffffffffffffffffffffffffffffffff16146112e5576040517f08c379a00000000000000000000000000000000000000000000000000000000081526004016112dc90614b92565b60405180910390fd5b6112ef6000612620565b565b6112f9611927565b73ffffffffffffffffffffffffffffffffffffffff16611317611377565b73ffffffffffffffffffffffffffffffffffffffff161461136d576040517f08c379a000000000000000000000000000000000000000000000000000000000815260040161136490614b92565b60405180910390fd5b6113756126e6565b565b6000600b60019054906101000a900473ffffffffffffffffffffffffffffffffffffffff16905090565b6060600180546113b090614f4c565b80601f01602080910402602001604051908101604052809291908181526020018280546113dc90614f4c565b80156114295780601f106113fe57610100808354040283529160200191611429565b820191906000526020600020905b81548152906001019060200180831161140c57829003601f168201915b5050505050905090565b61143b611927565b73ffffffffffffffffffffffffffffffffffffffff168273ffffffffffffffffffffffffffffffffffffffff1614156114a9576040517f08c379a00000000000000000000000000000000000000000000000000000000081526004016114a090614a52565b60405180910390fd5b80600560006114b6611927565b73ffffffffffffffffffffffffffffffffffffffff1673ffffffffffffffffffffffffffffffffffffffff16815260200190815260200160002060008473ffffffffffffffffffffffffffffffffffffffff1673ffffffffffffffffffffffffffffffffffffffff16815260200190815260200160002060006101000a81548160ff0219169083151502179055508173ffffffffffffffffffffffffffffffffffffffff16611563611927565b73ffffffffffffffffffffffffffffffffffffffff167f17307eab39ab6107e8899845ad3d59bd9653f200f220920489ca2b5937696c31836040516115a89190614915565b60405180910390a35050565b6115c56115bf611927565b83612244565b611604576040517f08c379a00000000000000000000000000000000000000000000000000000000081526004016115fb90614c12565b60405180910390fd5b61161084848484612789565b50505050565b6000816040516020016116299190614728565b60405160208183030381529060405280519060200120836040516020016116509190614728565b6040516020818303038152906040528051906020012014905092915050565b606061167a826127e5565b9050919050565b600047905090565b6000600560008473ffffffffffffffffffffffffffffffffffffffff1673ffffffffffffffffffffffffffffffffffffffff16815260200190815260200160002060008373ffffffffffffffffffffffffffffffffffffffff1673ffffffffffffffffffffffffffffffffffffffff16815260200190815260200160002060009054906101000a900460ff16905092915050565b611725611927565b73ffffffffffffffffffffffffffffffffffffffff16611743611377565b73ffffffffffffffffffffffffffffffffffffffff1614611799576040517f08c379a000000000000000000000000000000000000000000000000000000000815260040161179090614b92565b60405180910390fd5b600073ffffffffffffffffffffffffffffffffffffffff168173ffffffffffffffffffffffffffffffffffffffff161415611809576040517f08c379a0000000000000000000000000000000000000000000000000000000008152600401611800906149d2565b60405180910390fd5b61181281612620565b50565b6000611821600d6118ad565b600c5461182e9190614e62565b905090565b60007f780e9d63000000000000000000000000000000000000000000000000000000007bffffffffffffffffffffffffffffffffffffffffffffffffffffffff1916827bffffffffffffffffffffffffffffffffffffffffffffffffffffffff191614806118a657506118a582612937565b5b9050919050565b600081600001549050919050565b60008073ffffffffffffffffffffffffffffffffffffffff166002600084815260200190815260200160002060009054906101000a900473ffffffffffffffffffffffffffffffffffffffff1673ffffffffffffffffffffffffffffffffffffffff1614159050919050565b600033905090565b816004600083815260200190815260200160002060006101000a81548173ffffffffffffffffffffffffffffffffffffffff021916908373ffffffffffffffffffffffffffffffffffffffff160217905550808273ffffffffffffffffffffffffffffffffffffffff166119a2836110ff565b73ffffffffffffffffffffffffffffffffffffffff167f8c5be1e5ebec7d5bd14f71427d1e84f3dd0314c0f7b2291e5b200ac8c7c3b92560405160405180910390a45050565b60606000611a1e836119f986612a19565b604051602001611a0a92919061473f565b604051602081830303815290604052612bc6565b9050611a5f836040518060400160405280600681526020017f574541504f4e0000000000000000000000000000000000000000000000000000815250611616565b15611b4c5760108054905081611a759190614fc7565b905060108181548110611ab1577f4e487b7100000000000000000000000000000000000000000000000000000000600052603260045260246000fd5b906000526020600020018054611ac690614f4c565b80601f0160208091040260200160405190810160405280929190818152602001828054611af290614f4c565b8015611b3f5780601f10611b1457610100808354040283529160200191611b3f565b820191906000526020600020905b815481529060010190602001808311611b2257829003601f168201915b5050505050915050611ee4565b611b8b836040518060400160405280600981526020017f5452414e53504f52540000000000000000000000000000000000000000000000815250611616565b15611c785760118054905081611ba19190614fc7565b905060118181548110611bdd577f4e487b7100000000000000000000000000000000000000000000000000000000600052603260045260246000fd5b906000526020600020018054611bf290614f4c565b80601f0160208091040260200160405190810160405280929190818152602001828054611c1e90614f4c565b8015611c6b5780601f10611c4057610100808354040283529160200191611c6b565b820191906000526020600020905b815481529060010190602001808311611c4e57829003601f168201915b5050505050915050611ee4565b611cb7836040518060400160405280600481526020017f4954454d00000000000000000000000000000000000000000000000000000000815250611616565b15611da45760128054905081611ccd9190614fc7565b905060128181548110611d09577f4e487b7100000000000000000000000000000000000000000000000000000000600052603260045260246000fd5b906000526020600020018054611d1e90614f4c565b80601f0160208091040260200160405190810160405280929190818152602001828054611d4a90614f4c565b8015611d975780601f10611d6c57610100808354040283529160200191611d97565b820191906000526020600020905b815481529060010190602001808311611d7a57829003601f168201915b5050505050915050611ee4565b611de3836040518060400160405280600681526020017f434f4c4f55520000000000000000000000000000000000000000000000000000815250611616565b15611ed05760138054905081611df99190614fc7565b905060138181548110611e35577f4e487b7100000000000000000000000000000000000000000000000000000000600052603260045260246000fd5b906000526020600020018054611e4a90614f4c565b80601f0160208091040260200160405190810160405280929190818152602001828054611e7690614f4c565b8015611ec35780601f10611e9857610100808354040283529160200191611ec3565b820191906000526020600020905b815481529060010190602001808311611ea657829003601f168201915b5050505050915050611ee4565b604051806020016040528060008152509150505b92915050565b6060806001831415611f33576040518060400160405280600381526020017f34302500000000000000000000000000000000000000000000000000000000008152509050611fb3565b6002831415611f79576040518060400160405280600381526020017f35302500000000000000000000000000000000000000000000000000000000008152509050611fb2565b6040518060400160405280600381526020017f363025000000000000000000000000000000000000000000000000000000000081525090505b5b8084604051602001611fc69291906147c6565b60405160208183030381529060405291505092915050565b606060008251905060008114156120075760405180602001604052806000815250915050612197565b600060036002836120189190614d81565b6120229190614dd7565b600461202e9190614e08565b9050600060208261203f9190614d81565b67ffffffffffffffff81111561207e577f4e487b7100000000000000000000000000000000000000000000000000000000600052604160045260246000fd5b6040519080825280601f01601f1916602001820160405280156120b05781602001600182028036833780820191505090505b5090506000604051806060016040528060408152602001615122604091399050600181016020830160005b868110156121545760038101905062ffffff818a015116603f8160121c168401518060081b905060ff603f83600c1c1686015116810190508060081b905060ff603f8360061c1686015116810190508060081b905060ff603f831686015116810190508060e01b905080845260048401935050506120db565b50600386066001811461216e576002811461217e57612189565b613d3d60f01b6002830352612189565b603d60f81b60018303525b508484525050819450505050505b919050565b6121b6828260405180602001604052806000815250612bf9565b5050565b6121c3826118bb565b612202576040517f08c379a00000000000000000000000000000000000000000000000000000000081526004016121f990614b12565b60405180910390fd5b80600a600084815260200190815260200160002090805190602001906122299291906135dd565b505050565b6001816000016000828254019250508190555050565b600061224f826118bb565b61228e576040517f08c379a000000000000000000000000000000000000000000000000000000000815260040161228590614a72565b60405180910390fd5b6000612299836110ff565b90508073ffffffffffffffffffffffffffffffffffffffff168473ffffffffffffffffffffffffffffffffffffffff16148061230857508373ffffffffffffffffffffffffffffffffffffffff166122f08461079a565b73ffffffffffffffffffffffffffffffffffffffff16145b8061231957506123188185611689565b5b91505092915050565b8273ffffffffffffffffffffffffffffffffffffffff16612342826110ff565b73ffffffffffffffffffffffffffffffffffffffff1614612398576040517f08c379a000000000000000000000000000000000000000000000000000000000815260040161238f90614bb2565b60405180910390fd5b600073ffffffffffffffffffffffffffffffffffffffff168273ffffffffffffffffffffffffffffffffffffffff161415612408576040517f08c379a00000000000000000000000000000000000000000000000000000000081526004016123ff90614a32565b60405180910390fd5b612413838383612c54565b61241e60008261192f565b6001600360008573ffffffffffffffffffffffffffffffffffffffff1673ffffffffffffffffffffffffffffffffffffffff168152602001908152602001600020600082825461246e9190614e62565b925050819055506001600360008473ffffffffffffffffffffffffffffffffffffffff1673ffffffffffffffffffffffffffffffffffffffff16815260200190815260200160002060008282546124c59190614d81565b92505081905550816002600083815260200190815260200160002060006101000a81548173ffffffffffffffffffffffffffffffffffffffff021916908373ffffffffffffffffffffffffffffffffffffffff160217905550808273ffffffffffffffffffffffffffffffffffffffff168473ffffffffffffffffffffffffffffffffffffffff167fddf252ad1be2c89b69c2b068fc378daa952ba7f163c4a11628f55a4df523b3ef60405160405180910390a4505050565b6125866110e8565b6125c5576040517f08c379a00000000000000000000000000000000000000000000000000000000081526004016125bc90614952565b60405180910390fd5b6000600b60006101000a81548160ff0219169083151502179055507f5db9ee0a495bf2e6ff9c91a7834c1ba4fdd244a5e8aa4e537bd38aeae4b073aa612609611927565b6040516126169190614885565b60405180910390a1565b6000600b60019054906101000a900473ffffffffffffffffffffffffffffffffffffffff16905081600b60016101000a81548173ffffffffffffffffffffffffffffffffffffffff021916908373ffffffffffffffffffffffffffffffffffffffff1602179055508173ffffffffffffffffffffffffffffffffffffffff168173ffffffffffffffffffffffffffffffffffffffff167f8be0079c531659141344cd1fd0a4f28419497f9722a3daafe3b4186f6b6457e060405160405180910390a35050565b6126ee6110e8565b1561272e576040517f08c379a000000000000000000000000000000000000000000000000000000000815260040161272590614a92565b60405180910390fd5b6001600b60006101000a81548160ff0219169083151502179055507f62e78cea01bee320cd4e420270b5ea74000d11b0c9f74754ebdbfc544b05a258612772611927565b60405161277f9190614885565b60405180910390a1565b612794848484612322565b6127a084848484612cac565b6127df576040517f08c379a00000000000000000000000000000000000000000000000000000000081526004016127d690614992565b60405180910390fd5b50505050565b60606127f0826118bb565b61282f576040517f08c379a000000000000000000000000000000000000000000000000000000000815260040161282690614b52565b60405180910390fd5b6000600a6000848152602001908152602001600020805461284f90614f4c565b80601f016020809104026020016040519081016040528092919081815260200182805461287b90614f4c565b80156128c85780601f1061289d576101008083540402835291602001916128c8565b820191906000526020600020905b8154815290600101906020018083116128ab57829003601f168201915b5050505050905060006128d9612e43565b90506000815114156128ef578192505050612932565b60008251111561292457808260405160200161290c92919061473f565b60405160208183030381529060405292505050612932565b61292d84612e5a565b925050505b919050565b60007f80ac58cd000000000000000000000000000000000000000000000000000000007bffffffffffffffffffffffffffffffffffffffffffffffffffffffff1916827bffffffffffffffffffffffffffffffffffffffffffffffffffffffff19161480612a0257507f5b5e139f000000000000000000000000000000000000000000000000000000007bffffffffffffffffffffffffffffffffffffffffffffffffffffffff1916827bffffffffffffffffffffffffffffffffffffffffffffffffffffffff1916145b80612a125750612a1182612f01565b5b9050919050565b60606000821415612a61576040518060400160405280600181526020017f30000000000000000000000000000000000000000000000000000000000000008152509050612bc1565b600082905060005b60008214612a93578080612a7c90614f7e565b915050600a82612a8c9190614dd7565b9150612a69565b60008167ffffffffffffffff811115612ad5577f4e487b7100000000000000000000000000000000000000000000000000000000600052604160045260246000fd5b6040519080825280601f01601f191660200182016040528015612b075781602001600182028036833780820191505090505b5090505b60008514612bba57600182612b209190614e62565b9150600a85612b2f9190614fc7565b6030612b3b9190614d81565b60f81b818381518110612b77577f4e487b7100000000000000000000000000000000000000000000000000000000600052603260045260246000fd5b60200101907effffffffffffffffffffffffffffffffffffffffffffffffffffffffffffff1916908160001a905350600a85612bb39190614dd7565b9450612b0b565b8093505050505b919050565b600081604051602001612bd99190614728565b6040516020818303038152906040528051906020012060001c9050919050565b612c038383612f6b565b612c106000848484612cac565b612c4f576040517f08c379a0000000000000000000000000000000000000000000000000000000008152600401612c4690614992565b60405180910390fd5b505050565b612c5c6110e8565b15612c9c576040517f08c379a0000000000000000000000000000000000000000000000000000000008152600401612c9390614a92565b60405180910390fd5b612ca7838383613139565b505050565b6000612ccd8473ffffffffffffffffffffffffffffffffffffffff1661324d565b15612e36578373ffffffffffffffffffffffffffffffffffffffff1663150b7a02612cf6611927565b8786866040518563ffffffff1660e01b8152600401612d1894939291906148a0565b602060405180830381600087803b158015612d3257600080fd5b505af1925050508015612d6357506040513d601f19601f82011682018060405250810190612d609190613989565b60015b612de6573d8060008114612d93576040519150601f19603f3d011682016040523d82523d6000602084013e612d98565b606091505b50600081511415612dde576040517f08c379a0000000000000000000000000000000000000000000000000000000008152600401612dd590614992565b60405180910390fd5b805181602001fd5b63150b7a0260e01b7bffffffffffffffffffffffffffffffffffffffffffffffffffffffff1916817bffffffffffffffffffffffffffffffffffffffffffffffffffffffff191614915050612e3b565b600190505b949350505050565b606060405180602001604052806000815250905090565b6060612e65826118bb565b612ea4576040517f08c379a0000000000000000000000000000000000000000000000000000000008152600401612e9b90614bd2565b60405180910390fd5b6000612eae612e43565b90506000815111612ece5760405180602001604052806000815250612ef9565b80612ed884612a19565b604051602001612ee992919061473f565b6040516020818303038152906040525b915050919050565b60007f01ffc9a7000000000000000000000000000000000000000000000000000000007bffffffffffffffffffffffffffffffffffffffffffffffffffffffff1916827bffffffffffffffffffffffffffffffffffffffffffffffffffffffff1916149050919050565b600073ffffffffffffffffffffffffffffffffffffffff168273ffffffffffffffffffffffffffffffffffffffff161415612fdb576040517f08c379a0000000000000000000000000000000000000000000000000000000008152600401612fd290614b32565b60405180910390fd5b612fe4816118bb565b15613024576040517f08c379a000000000000000000000000000000000000000000000000000000000815260040161301b906149f2565b60405180910390fd5b61303060008383612c54565b6001600360008473ffffffffffffffffffffffffffffffffffffffff1673ffffffffffffffffffffffffffffffffffffffff16815260200190815260200160002060008282546130809190614d81565b92505081905550816002600083815260200190815260200160002060006101000a81548173ffffffffffffffffffffffffffffffffffffffff021916908373ffffffffffffffffffffffffffffffffffffffff160217905550808273ffffffffffffffffffffffffffffffffffffffff16600073ffffffffffffffffffffffffffffffffffffffff167fddf252ad1be2c89b69c2b068fc378daa952ba7f163c4a11628f55a4df523b3ef60405160405180910390a45050565b613144838383613260565b600073ffffffffffffffffffffffffffffffffffffffff168373ffffffffffffffffffffffffffffffffffffffff1614156131875761318281613265565b6131c6565b8173ffffffffffffffffffffffffffffffffffffffff168373ffffffffffffffffffffffffffffffffffffffff16146131c5576131c483826132ae565b5b5b600073ffffffffffffffffffffffffffffffffffffffff168273ffffffffffffffffffffffffffffffffffffffff161415613209576132048161341b565b613248565b8273ffffffffffffffffffffffffffffffffffffffff168273ffffffffffffffffffffffffffffffffffffffff161461324757613246828261355e565b5b5b505050565b600080823b905060008111915050919050565b505050565b6008805490506009600083815260200190815260200160002081905550600881908060018154018082558091505060019003906000526020600020016000909190919091505550565b600060016132bb846111b1565b6132c59190614e62565b90506000600760008481526020019081526020016000205490508181146133aa576000600660008673ffffffffffffffffffffffffffffffffffffffff1673ffffffffffffffffffffffffffffffffffffffff168152602001908152602001600020600084815260200190815260200160002054905080600660008773ffffffffffffffffffffffffffffffffffffffff1673ffffffffffffffffffffffffffffffffffffffff168152602001908152602001600020600084815260200190815260200160002081905550816007600083815260200190815260200160002081905550505b6007600084815260200190815260200160002060009055600660008573ffffffffffffffffffffffffffffffffffffffff1673ffffffffffffffffffffffffffffffffffffffff16815260200190815260200160002060008381526020019081526020016000206000905550505050565b6000600160088054905061342f9190614e62565b9050600060096000848152602001908152602001600020549050600060088381548110613485577f4e487b7100000000000000000000000000000000000000000000000000000000600052603260045260246000fd5b9060005260206000200154905080600883815481106134cd577f4e487b7100000000000000000000000000000000000000000000000000000000600052603260045260246000fd5b906000526020600020018190555081600960008381526020019081526020016000208190555060096000858152602001908152602001600020600090556008805480613542577f4e487b7100000000000000000000000000000000000000000000000000000000600052603160045260246000fd5b6001900381819060005260206000200160009055905550505050565b6000613569836111b1565b905081600660008573ffffffffffffffffffffffffffffffffffffffff1673ffffffffffffffffffffffffffffffffffffffff168152602001908152602001600020600083815260200190815260200160002081905550806007600084815260200190815260200160002081905550505050565b8280546135e990614f4c565b90600052602060002090601f01602090048101928261360b5760008555613652565b82601f1061362457805160ff1916838001178555613652565b82800160010185558215613652579182015b82811115613651578251825591602001919060010190613636565b5b50905061365f9190613663565b5090565b5b8082111561367c576000816000905550600101613664565b5090565b600061369361368e84614cbe565b614c8d565b9050828152602081018484840111156136ab57600080fd5b6136b6848285614f0a565b509392505050565b60006136d16136cc84614cee565b614c8d565b9050828152602081018484840111156136e957600080fd5b6136f4848285614f0a565b509392505050565b60008135905061370b816150c5565b92915050565b600081359050613720816150dc565b92915050565b600081359050613735816150f3565b92915050565b60008151905061374a816150f3565b92915050565b600082601f83011261376157600080fd5b8135613771848260208601613680565b91505092915050565b600082601f83011261378b57600080fd5b813561379b8482602086016136be565b91505092915050565b6000813590506137b38161510a565b92915050565b6000602082840312156137cb57600080fd5b60006137d9848285016136fc565b91505092915050565b600080604083850312156137f557600080fd5b6000613803858286016136fc565b9250506020613814858286016136fc565b9150509250929050565b60008060006060848603121561383357600080fd5b6000613841868287016136fc565b9350506020613852868287016136fc565b9250506040613863868287016137a4565b9150509250925092565b6000806000806080858703121561388357600080fd5b6000613891878288016136fc565b94505060206138a2878288016136fc565b93505060406138b3878288016137a4565b925050606085013567ffffffffffffffff8111156138d057600080fd5b6138dc87828801613750565b91505092959194509250565b600080604083850312156138fb57600080fd5b6000613909858286016136fc565b925050602061391a85828601613711565b9150509250929050565b6000806040838503121561393757600080fd5b6000613945858286016136fc565b9250506020613956858286016137a4565b9150509250929050565b60006020828403121561397257600080fd5b600061398084828501613726565b91505092915050565b60006020828403121561399b57600080fd5b60006139a98482850161373b565b91505092915050565b600080604083850312156139c557600080fd5b600083013567ffffffffffffffff8111156139df57600080fd5b6139eb8582860161377a565b925050602083013567ffffffffffffffff811115613a0857600080fd5b613a148582860161377a565b9150509250929050565b600060208284031215613a3057600080fd5b6000613a3e848285016137a4565b91505092915050565b613a5081614e96565b82525050565b613a5f81614ea8565b82525050565b6000613a7082614d33565b613a7a8185614d49565b9350613a8a818560208601614f19565b613a93816150b4565b840191505092915050565b6000613aa982614d3e565b613ab38185614d65565b9350613ac3818560208601614f19565b613acc816150b4565b840191505092915050565b6000613ae282614d3e565b613aec8185614d76565b9350613afc818560208601614f19565b80840191505092915050565b60008154613b1581614f4c565b613b1f8186614d76565b94506001821660008114613b3a5760018114613b4b57613b7e565b60ff19831686528186019350613b7e565b613b5485614d1e565b60005b83811015613b7657815481890152600182019150602081019050613b57565b838801955050505b50505092915050565b6000613b94601483614d65565b91507f5061757361626c653a206e6f74207061757365640000000000000000000000006000830152602082019050919050565b6000613bd4602b83614d65565b91507f455243373231456e756d657261626c653a206f776e657220696e646578206f7560008301527f74206f6620626f756e64730000000000000000000000000000000000000000006020830152604082019050919050565b6000613c3a603283614d65565b91507f4552433732313a207472616e7366657220746f206e6f6e20455243373231526560008301527f63656976657220696d706c656d656e74657200000000000000000000000000006020830152604082019050919050565b6000613ca0603f83614d76565b91507f2720636c6173733d27626173652720646f6d696e616e742d626173656c696e6560008301527f3d276d6964646c652720746578742d616e63686f723d276d6964646c65273e006020830152603f82019050919050565b6000613d06601e83614d65565b91507f546865726520617265206e6f204e465473206c65667420746f206d696e7400006000830152602082019050919050565b6000613d46602683614d65565b91507f4f776e61626c653a206e6577206f776e657220697320746865207a65726f206160008301527f64647265737300000000000000000000000000000000000000000000000000006020830152604082019050919050565b6000613dac600c83614d76565b91507f537572766976616c204b697400000000000000000000000000000000000000006000830152600c82019050919050565b6000613dec601c83614d65565b91507f4552433732313a20746f6b656e20616c7265616479206d696e746564000000006000830152602082019050919050565b6000613e2c601483614d65565b91507f4661696c656420746f2073656e642045746865720000000000000000000000006000830152602082019050919050565b6000613e6c602483614d65565b91507f4552433732313a207472616e7366657220746f20746865207a65726f2061646460008301527f72657373000000000000000000000000000000000000000000000000000000006020830152604082019050919050565b6000613ed2601983614d65565b91507f4552433732313a20617070726f766520746f2063616c6c6572000000000000006000830152602082019050919050565b6000613f12602c83614d65565b91507f4552433732313a206f70657261746f7220717565727920666f72206e6f6e657860008301527f697374656e7420746f6b656e00000000000000000000000000000000000000006020830152604082019050919050565b6000613f78601083614d65565b91507f5061757361626c653a20706175736564000000000000000000000000000000006000830152602082019050919050565b6000613fb8603883614d65565b91507f4552433732313a20617070726f76652063616c6c6572206973206e6f74206f7760008301527f6e6572206e6f7220617070726f76656420666f7220616c6c00000000000000006020830152604082019050919050565b600061401e602a83614d65565b91507f4552433732313a2062616c616e636520717565727920666f7220746865207a6560008301527f726f2061646472657373000000000000000000000000000000000000000000006020830152604082019050919050565b6000614084602983614d65565b91507f4552433732313a206f776e657220717565727920666f72206e6f6e657869737460008301527f656e7420746f6b656e00000000000000000000000000000000000000000000006020830152604082019050919050565b60006140ea602e83614d65565b91507f45524337323155524953746f726167653a2055524920736574206f66206e6f6e60008301527f6578697374656e7420746f6b656e0000000000000000000000000000000000006020830152604082019050919050565b6000614150600283614d76565b91507f227d0000000000000000000000000000000000000000000000000000000000006000830152600282019050919050565b6000614190600783614d76565b91507f3c2f746578743e000000000000000000000000000000000000000000000000006000830152600782019050919050565b60006141d0602083614d65565b91507f4552433732313a206d696e7420746f20746865207a65726f20616464726573736000830152602082019050919050565b6000614210603183614d65565b91507f45524337323155524953746f726167653a2055524920717565727920666f722060008301527f6e6f6e6578697374656e7420746f6b656e0000000000000000000000000000006020830152604082019050919050565b6000614276602c83614d65565b91507f4552433732313a20617070726f76656420717565727920666f72206e6f6e657860008301527f697374656e7420746f6b656e00000000000000000000000000000000000000006020830152604082019050919050565b60006142dc602083614d65565b91507f4f776e61626c653a2063616c6c6572206973206e6f7420746865206f776e65726000830152602082019050919050565b600061431c602983614d65565b91507f4552433732313a207472616e73666572206f6620746f6b656e2074686174206960008301527f73206e6f74206f776e00000000000000000000000000000000000000000000006020830152604082019050919050565b6000614382602f83614d65565b91507f4552433732314d657461646174613a2055524920717565727920666f72206e6f60008301527f6e6578697374656e7420746f6b656e00000000000000000000000000000000006020830152604082019050919050565b60006143e8601183614d76565b91507f3c7465787420783d273530252720793d270000000000000000000000000000006000830152601182019050919050565b6000614428600a83614d76565b91507f7b226e616d65223a2022000000000000000000000000000000000000000000006000830152600a82019050919050565b6000614468602183614d65565b91507f4552433732313a20617070726f76616c20746f2063757272656e74206f776e6560008301527f72000000000000000000000000000000000000000000000000000000000000006020830152604082019050919050565b60006144ce601d83614d76565b91507f646174613a6170706c69636174696f6e2f6a736f6e3b6261736536342c0000006000830152601d82019050919050565b600061450e605883614d76565b91507f222c20226465736372697074696f6e223a20225a6f6d6269652041706f63616c60008301527f7970736520537572766976616c204b6974222c2022696d616765223a2022646160208301527f74613a696d6167652f7376672b786d6c3b6261736536342c00000000000000006040830152605882019050919050565b600061459a600083614d5a565b9150600082019050919050565b60006145b4603183614d65565b91507f4552433732313a207472616e736665722063616c6c6572206973206e6f74206f60008301527f776e6572206e6f7220617070726f7665640000000000000000000000000000006020830152604082019050919050565b600061461a602c83614d65565b91507f455243373231456e756d657261626c653a20676c6f62616c20696e646578206f60008301527f7574206f6620626f756e647300000000000000000000000000000000000000006020830152604082019050919050565b6000614680602183614d65565b91507f4e6f7420656e6f756768204554482073656e743b20636865636b20707269636560008301527f21000000000000000000000000000000000000000000000000000000000000006020830152604082019050919050565b60006146e6600683614d76565b91507f3c2f7376673e00000000000000000000000000000000000000000000000000006000830152600682019050919050565b61472281614f00565b82525050565b60006147348284613ad7565b915081905092915050565b600061474b8285613ad7565b91506147578284613ad7565b91508190509392505050565b600061476f8289613b08565b915061477b8288613ad7565b91506147878287613b08565b91506147938286613ad7565b915061479f8285613ad7565b91506147ab8284613ad7565b91506147b6826146d9565b9150819050979650505050505050565b60006147d1826143db565b91506147dd8285613ad7565b91506147e882613c93565b91506147f48284613ad7565b91506147ff82614183565b91508190509392505050565b60006148168261441b565b915061482182613d9f565b915061482c82614501565b91506148388284613ad7565b915061484382614143565b915081905092915050565b6000614859826144c1565b91506148658284613ad7565b915081905092915050565b600061487b8261458d565b9150819050919050565b600060208201905061489a6000830184613a47565b92915050565b60006080820190506148b56000830187613a47565b6148c26020830186613a47565b6148cf6040830185614719565b81810360608301526148e18184613a65565b905095945050505050565b60006040820190506149016000830185613a47565b61490e6020830184614719565b9392505050565b600060208201905061492a6000830184613a56565b92915050565b6000602082019050818103600083015261494a8184613a9e565b905092915050565b6000602082019050818103600083015261496b81613b87565b9050919050565b6000602082019050818103600083015261498b81613bc7565b9050919050565b600060208201905081810360008301526149ab81613c2d565b9050919050565b600060208201905081810360008301526149cb81613cf9565b9050919050565b600060208201905081810360008301526149eb81613d39565b9050919050565b60006020820190508181036000830152614a0b81613ddf565b9050919050565b60006020820190508181036000830152614a2b81613e1f565b9050919050565b60006020820190508181036000830152614a4b81613e5f565b9050919050565b60006020820190508181036000830152614a6b81613ec5565b9050919050565b60006020820190508181036000830152614a8b81613f05565b9050919050565b60006020820190508181036000830152614aab81613f6b565b9050919050565b60006020820190508181036000830152614acb81613fab565b9050919050565b60006020820190508181036000830152614aeb81614011565b9050919050565b60006020820190508181036000830152614b0b81614077565b9050919050565b60006020820190508181036000830152614b2b816140dd565b9050919050565b60006020820190508181036000830152614b4b816141c3565b9050919050565b60006020820190508181036000830152614b6b81614203565b9050919050565b60006020820190508181036000830152614b8b81614269565b9050919050565b60006020820190508181036000830152614bab816142cf565b9050919050565b60006020820190508181036000830152614bcb8161430f565b9050919050565b60006020820190508181036000830152614beb81614375565b9050919050565b60006020820190508181036000830152614c0b8161445b565b9050919050565b60006020820190508181036000830152614c2b816145a7565b9050919050565b60006020820190508181036000830152614c4b8161460d565b9050919050565b60006020820190508181036000830152614c6b81614673565b9050919050565b6000602082019050614c876000830184614719565b92915050565b6000604051905081810181811067ffffffffffffffff82111715614cb457614cb3615085565b5b8060405250919050565b600067ffffffffffffffff821115614cd957614cd8615085565b5b601f19601f8301169050602081019050919050565b600067ffffffffffffffff821115614d0957614d08615085565b5b601f19601f8301169050602081019050919050565b60008190508160005260206000209050919050565b600081519050919050565b600081519050919050565b600082825260208201905092915050565b600081905092915050565b600082825260208201905092915050565b600081905092915050565b6000614d8c82614f00565b9150614d9783614f00565b9250827fffffffffffffffffffffffffffffffffffffffffffffffffffffffffffffffff03821115614dcc57614dcb614ff8565b5b828201905092915050565b6000614de282614f00565b9150614ded83614f00565b925082614dfd57614dfc615027565b5b828204905092915050565b6000614e1382614f00565b9150614e1e83614f00565b9250817fffffffffffffffffffffffffffffffffffffffffffffffffffffffffffffffff0483118215151615614e5757614e56614ff8565b5b828202905092915050565b6000614e6d82614f00565b9150614e7883614f00565b925082821015614e8b57614e8a614ff8565b5b828203905092915050565b6000614ea182614ee0565b9050919050565b60008115159050919050565b60007fffffffff0000000000000000000000000000000000000000000000000000000082169050919050565b600073ffffffffffffffffffffffffffffffffffffffff82169050919050565b6000819050919050565b82818337600083830152505050565b60005b83811015614f37578082015181840152602081019050614f1c565b83811115614f46576000848401525b50505050565b60006002820490506001821680614f6457607f821691505b60208210811415614f7857614f77615056565b5b50919050565b6000614f8982614f00565b91507fffffffffffffffffffffffffffffffffffffffffffffffffffffffffffffffff821415614fbc57614fbb614ff8565b5b600182019050919050565b6000614fd282614f00565b9150614fdd83614f00565b925082614fed57614fec615027565b5b828206905092915050565b7f4e487b7100000000000000000000000000000000000000000000000000000000600052601160045260246000fd5b7f4e487b7100000000000000000000000000000000000000000000000000000000600052601260045260246000fd5b7f4e487b7100000000000000000000000000000000000000000000000000000000600052602260045260246000fd5b7f4e487b7100000000000000000000000000000000000000000000000000000000600052604160045260246000fd5b6000601f19601f8301169050919050565b6150ce81614e96565b81146150d957600080fd5b50565b6150e581614ea8565b81146150f057600080fd5b50565b6150fc81614eb4565b811461510757600080fd5b50565b61511381614f00565b811461511e57600080fd5b5056fe4142434445464748494a4b4c4d4e4f505152535455565758595a6162636465666768696a6b6c6d6e6f707172737475767778797a303132333435363738392b2fa26469706673582212205ddce246857f5fca15b6e81dcafe32610e1af2c1052b9681e639516d3d1c0c8964736f6c634300080000333c73766720786d6c6e733d27687474703a2f2f7777772e77332e6f72672f323030302f73766727207072657365727665417370656374526174696f3d27784d696e594d696e206d656574272076696577426f783d273020302033353020333530273e3c7374796c653e2e62617365207b2066696c6c3a2077686974653b20666f6e742d66616d696c793a2073657269663b20666f6e742d73697a653a20323470783b207d3c2f7374796c653e3c726563742077696474683d273130302527206865696768743d2731303025272066696c6c3d27",
  "immutableReferences": {},
  "source": "// SPDX-License-Identifier: MIT\npragma solidity 0.8.0;\n\n// We selectedWeapon import some OpenZeppelin Contracts.\nimport \"@openzeppelin/contracts/utils/Strings.sol\";\nimport \"@openzeppelin/contracts/token/ERC721/ERC721.sol\";\nimport \"@openzeppelin/contracts/token/ERC721/extensions/ERC721URIStorage.sol\";\nimport \"@openzeppelin/contracts/utils/Counters.sol\";\nimport \"@openzeppelin/contracts/security/Pausable.sol\";\nimport \"@openzeppelin/contracts/access/Ownable.sol\";\nimport \"@openzeppelin/contracts/token/ERC721/extensions/ERC721Enumerable.sol\";\nimport \"hardhat-console/contracts/console.sol\";\n\n// Import helper functions needed for Base62 encoding\nimport { Base64 } from \"./libraries/Base64.sol\";\n\n/**\n@title Zombie Apocalipse Survival kit generator\n@author Ben Naylor\n */\ncontract SurvivalKitClaim is ERC721, ERC721Enumerable, ERC721URIStorage, Pausable, Ownable {\n\n    uint private supplyCap = 3000;\n\n    /// @notice keep track of token ids using purpose built OpenZeppelin utility\n    using Counters for Counters.Counter;\n    Counters.Counter private _tokenIds;\n\n    /// @dev We split the SVG at the part where it asks for the background color.\n    string svgPartOne = \"<svg xmlns='http://www.w3.org/2000/svg' preserveAspectRatio='xMinYMin meet' viewBox='0 0 350 350'><style>.base { fill: white; font-family: serif; font-size: 24px; }</style><rect width='100%' height='100%' fill='\";\n    // string svgPartTwo = \"'/><text x='50%' y='50%' class='base' dominant-baseline='middle' text-anchor='middle'>\";\n    string svgPartTwo = \"'/>\";\n\n    string[] weapon = [\"Crossbow\", \"Shotgun\", \"Samuri Sword\", \"Baseball Bat\", \"Crowbar\", \"slingshot\", \"Axe\", \"Katana\", \"Sledge Hammer\", \"Machete\", \"Handgun\", \"Kunckle Duster\", \"Rifle\", \"Tomahawk\", \"Pointy Stick\"];\n    string[] transport = [\"Motorbike\", \"Car\", \"Bicycle\", \"Jeep\", \"On Foot\", \"Helicopter\", \"Boat\", \"Skateboard\", \"Rollerblades\", \"Scooter\"];\n    string[] item = [\"Torch\", \"Animal Snare\", \"Medicine\", \"Radio\", \"Map\", \"Wistle\", \"Candle\", \"Walkie-Talkie\", \"Water Bottle\", \"Water Purification Tablets\", \"Gloves\", \"Binoculars\", \"Watch\", \"Food Rations\"];\n    string[] colors = [\"red\", \"black\", \"blue\", \"green\", \"indigo\", \"grey\"];\n\n    /// @notice Event to be emitted after a successful mint\n    /// @param sender The address of the transaction sender\n    /// @param tokenId The id of the token that has just been minted\n    event SurvivalKitNftClaimed(address sender, uint256 tokenId);\n\n    /// @notice contract constructor. Takes parameters and passes them to the inherited ERC721 contract constructor\n    /// @param _name the name of the contract\n    /// @param _symbol the symbol that contract tokens will be represented by\n    /// @param _supplyCap the maximum token that are mintable from this contract\n    constructor(string memory _name, string memory _symbol, uint _supplyCap) ERC721(_name, _symbol) {\n        require(_supplyCap > 0, \"supplyCap must be greater than 0\");\n        supplyCap = _supplyCap;\n    }\n\n    /// @notice pauses the contract. \n    /// @dev Inherits _pause() function from Pausable.sol and the onlyOwner modifier from Ownable.sol\n    function pause() public onlyOwner {\n        _pause();\n    }\n\n    /// @notice unpauses the contract. \n    /// @dev Inherits _unpause() function from Pausable.sol and the onlyOwner modifier from Ownable.sol\n    function unpause() public onlyOwner {\n        _unpause();\n    }\n\n    /// @return maximum number of mints allowed on contract \n    function getSupplyCap() public view returns(uint256) {\n        return supplyCap;\n    }\n\n    /// @return number of remaining mints on the contract\n    function getRemainingMints () public view returns (uint256) {\n        return supplyCap - _tokenIds.current();\n    }\n\n    /// @return number of tokens minted on the contract so far.\n    function getTotalNFTsMintedSoFar () public view returns (uint256) {\n        return _tokenIds.current();\n    }\n\n    /// @return a uint representing the balance (in wei) held by the contract.\n    function balanceOfContract()  public view returns(uint){\n        return address(this).balance;\n    }\n\n    /// @notice allows the contract owner to withdraw the funds currently being held by the contract. \n    function withdrawAllFunds()  public payable onlyOwner {\n        (bool sent, ) = msg.sender.call{value: address(this).balance}(\"\");\n        require(sent, \"Failed to send Ether\");\n    }\n\n    /// @notice allows the contract owner to withdraw the funds currently being held by the contract. \n    function withdrawFunds(uint amount)  public payable onlyOwner {\n        (bool sent, ) = msg.sender.call{value: amount}(\"\");\n        require(sent, \"Failed to send Ether\");\n    }\n\n    function compareStrings(string memory a, string memory b) public view returns (bool) {\n    return (keccak256(abi.encodePacked((a))) == keccak256(abi.encodePacked((b))));\n}\n\n    function pickRandomTrait(uint tokenId, string memory trait) internal view returns (string memory) {\n        // create the psuedo random number using function paramters as a seed\n        uint256 rand = random(string(abi.encodePacked(trait, Strings.toString(tokenId))));\n\n        if (compareStrings(trait, \"WEAPON\")) {\n            rand = rand % weapon.length;\n            return weapon[rand];\n        } else if (compareStrings(trait, \"TRANSPORT\")) {\n            rand = rand % transport.length;\n            return transport[rand];\n        } else if (compareStrings(trait, \"ITEM\")) {\n            rand = rand % item.length;\n            return item[rand];\n        } else if (compareStrings(trait, \"COLOUR\")) {\n            rand = rand % colors.length;\n            return colors[rand];\n        } else {\n            return \"\";\n        }\n\n    }\n\n    /// @param input string input which is hashed to generate the 'random' number.\n    /// @dev this function could be made truly random by using an oracle feed.\n    /// @return A random integer\n    function random(string memory input) internal pure returns (uint256) {\n        return uint(keccak256(abi.encodePacked(input)));\n    }\n\n    /// @dev overriding this function was required to inherit from both ERC721 and ERC721URIStorage\n    function _burn(uint256 tokenId) internal whenNotPaused override(ERC721, ERC721URIStorage) {\n        super._burn(tokenId);\n    }\n\n    /// @param tokenId the tokenId to retrieve URI for\n    /// @return the token URI containing the tokens metadata\n    function tokenURI(uint256 tokenId) public view override (ERC721, ERC721URIStorage) returns (string memory) {\n        return super.tokenURI(tokenId);\n    }\n\n    /// @notice helper function to place items on separate lines. \n    /// @dev function seems clunky. This should be refactor into a more elegant solution.\n    /// @param claimedItem the name of the item to be added to the NFT.\n    /// @param itemNumber the position in which to display the item in the NFT art.\n    /// @return An SVG string containing the item and its display position in the NFT art. \n    function createItem(string memory claimedItem, uint itemNumber) internal pure returns (string memory) {\n        string memory position;\n        if(itemNumber == 1) {\n            position = \"40%\";\n        } else if (itemNumber == 2) {\n            position = \"50%\";\n        } else {\n            position = \"60%\";\n        }\n        \n        return string(abi.encodePacked(\"<text x='50%' y='\", position, \"' class='base' dominant-baseline='middle' text-anchor='middle'>\", claimedItem, \"</text>\"));\n    }\n    \n\n    /// @notice mint an ERC721 token on the contract. The caller will receive a token containing a survival kit that includes a weapon, a transport and an item. All are randomly selected.  \n    /// @dev currently does not accept payment\n    /// @dev this function creates and stores the tokens URI. This is a JSON string constisting of name, description and image fields. The image is a BASE64 encoded SVG. Finally The whole JSON metadata string is BASE64 encoded and mapped to the tokenId.\n    function mintNFT() public payable whenNotPaused{\n        require(_tokenIds.current() <= supplyCap, \"There are no NFTs left to mint\");\n        require(msg.value >= 10000000000000000, \"Not enough ETH sent; check price!\");\n        \n        // get the current tokenId, this starts at 0\n        uint newItemId = _tokenIds.current();\n\n        // randomly grab one word from each of the arrays\n        string memory selectedWeapon = pickRandomTrait(newItemId, \"WEAPON\");\n        string memory selectedTransport = pickRandomTrait(newItemId, \"TRANSPORT\");\n        string memory selectedItem = pickRandomTrait(newItemId, \"ITEM\");\n\n        // Add the random color in.\n        string memory randomColor = pickRandomTrait(newItemId, \"COLOUR\");\n        string memory finalSvg = string(abi.encodePacked(svgPartOne, randomColor, svgPartTwo, \n        createItem(selectedWeapon, 1), \n        createItem(selectedTransport, 2), \n        createItem(selectedItem, 3), \n        \"</svg>\"));\n        // get all the JSON metadata in place and base64 encode it\n        string memory json = Base64.encode(\n            bytes(\n                string(\n                    abi.encodePacked(\n                        '{\"name\": \"',\"Survival Kit\",\n                        '\", \"description\": \"Zombie Apocalypse Survival Kit\", \"image\": \"data:image/svg+xml;base64,',\n                    // add data:image/svg+xml;base64 and then append our base64 encode our svg.\n                    Base64.encode(bytes(finalSvg)),\n                    '\"}'\n                    )\n                )\n            )\n        );\n\n        // Just like before, we prepend data:application/json;base64, to our data.\n        string memory finalTokenUri = string(\n            abi.encodePacked(\"data:application/json;base64,\", json)\n        );\n\n        // actually mint the NFT to the sender using msg.sender\n        _safeMint(msg.sender, newItemId);\n\n        // store the tokens metadata\n        _setTokenURI(newItemId, finalTokenUri);\n\n        // increment the counter for when the next NFT is minted\n        _tokenIds.increment();\n        emit SurvivalKitNftClaimed(msg.sender, newItemId);\n    }\n\n    // The following functions are overrides required by Solidity.\n    function _beforeTokenTransfer(address from, address to, uint256 tokenId) internal whenNotPaused override(ERC721, ERC721Enumerable) {\n        super._beforeTokenTransfer(from, to, tokenId);\n    }\n\n    /// @notice required override in order to inherit from both ERC721 and ERC721Enumerable\n    function supportsInterface(bytes4 interfaceId) public view override(ERC721, ERC721Enumerable) returns (bool) {\n        return super.supportsInterface(interfaceId);\n    }\n}",
  "sourcePath": "/Users/bennaylor/Development/Consensys Academy/blockchain-developer-bootcamp-final-project/contracts/SurvivalKitClaim.sol",
  "compiler": {
    "name": "solc",
    "version": "0.8.0+commit.c7dfd78e.Emscripten.clang"
  },
  "schemaVersion": "3.4.3",
  "updatedAt": "2021-11-26T14:33:46.025Z",
  "networkType": "ethereum",
  "devdoc": {
    "author": "Ben Naylor",
    "events": {
      "SurvivalKitNftClaimed(address,uint256)": {
        "params": {
          "sender": "The address of the transaction sender",
          "tokenId": "The id of the token that has just been minted"
        }
      }
    },
    "kind": "dev",
    "methods": {
      "approve(address,uint256)": {
        "details": "See {IERC721-approve}."
      },
      "balanceOf(address)": {
        "details": "See {IERC721-balanceOf}."
      },
      "balanceOfContract()": {
        "returns": {
          "_0": "a uint representing the balance (in wei) held by the contract."
        }
      },
      "constructor": {
        "params": {
          "_name": "the name of the contract",
          "_supplyCap": "the maximum token that are mintable from this contract",
          "_symbol": "the symbol that contract tokens will be represented by"
        }
      },
      "getApproved(uint256)": {
        "details": "See {IERC721-getApproved}."
      },
      "getRemainingMints()": {
        "returns": {
          "_0": "number of remaining mints on the contract"
        }
      },
      "getSupplyCap()": {
        "returns": {
          "_0": "maximum number of mints allowed on contract "
        }
      },
      "getTotalNFTsMintedSoFar()": {
        "returns": {
          "_0": "number of tokens minted on the contract so far."
        }
      },
      "isApprovedForAll(address,address)": {
        "details": "See {IERC721-isApprovedForAll}."
      },
      "mintNFT()": {
        "details": "currently does not accept paymentthis function creates and stores the tokens URI. This is a JSON string constisting of name, description and image fields. The image is a BASE64 encoded SVG. Finally The whole JSON metadata string is BASE64 encoded and mapped to the tokenId."
      },
      "name()": {
        "details": "See {IERC721Metadata-name}."
      },
      "owner()": {
        "details": "Returns the address of the current owner."
      },
      "ownerOf(uint256)": {
        "details": "See {IERC721-ownerOf}."
      },
      "pause()": {
        "details": "Inherits _pause() function from Pausable.sol and the onlyOwner modifier from Ownable.sol"
      },
      "paused()": {
        "details": "Returns true if the contract is paused, and false otherwise."
      },
      "renounceOwnership()": {
        "details": "Leaves the contract without owner. It will not be possible to call `onlyOwner` functions anymore. Can only be called by the current owner. NOTE: Renouncing ownership will leave the contract without an owner, thereby removing any functionality that is only available to the owner."
      },
      "safeTransferFrom(address,address,uint256)": {
        "details": "See {IERC721-safeTransferFrom}."
      },
      "safeTransferFrom(address,address,uint256,bytes)": {
        "details": "See {IERC721-safeTransferFrom}."
      },
      "setApprovalForAll(address,bool)": {
        "details": "See {IERC721-setApprovalForAll}."
      },
      "symbol()": {
        "details": "See {IERC721Metadata-symbol}."
      },
      "tokenByIndex(uint256)": {
        "details": "See {IERC721Enumerable-tokenByIndex}."
      },
      "tokenOfOwnerByIndex(address,uint256)": {
        "details": "See {IERC721Enumerable-tokenOfOwnerByIndex}."
      },
      "tokenURI(uint256)": {
        "params": {
          "tokenId": "the tokenId to retrieve URI for"
        },
        "returns": {
          "_0": "the token URI containing the tokens metadata"
        }
      },
      "totalSupply()": {
        "details": "See {IERC721Enumerable-totalSupply}."
      },
      "transferFrom(address,address,uint256)": {
        "details": "See {IERC721-transferFrom}."
      },
      "transferOwnership(address)": {
        "details": "Transfers ownership of the contract to a new account (`newOwner`). Can only be called by the current owner."
      },
      "unpause()": {
        "details": "Inherits _unpause() function from Pausable.sol and the onlyOwner modifier from Ownable.sol"
      }
    },
    "stateVariables": {
      "svgPartOne": {
        "details": "We split the SVG at the part where it asks for the background color."
      }
    },
    "title": "Zombie Apocalipse Survival kit generator",
    "version": 1
  },
  "userdoc": {
    "events": {
      "SurvivalKitNftClaimed(address,uint256)": {
        "notice": "Event to be emitted after a successful mint"
      }
    },
    "kind": "user",
    "methods": {
      "constructor": {
        "notice": "contract constructor. Takes parameters and passes them to the inherited ERC721 contract constructor"
      },
      "mintNFT()": {
        "notice": "mint an ERC721 token on the contract. The caller will receive a token containing a survival kit that includes a weapon, a transport and an item. All are randomly selected.  "
      },
      "pause()": {
        "notice": "pauses the contract. "
      },
      "supportsInterface(bytes4)": {
        "notice": "required override in order to inherit from both ERC721 and ERC721Enumerable"
      },
      "unpause()": {
        "notice": "unpauses the contract. "
      },
      "withdrawAllFunds()": {
        "notice": "allows the contract owner to withdraw the funds currently being held by the contract. "
      },
      "withdrawFunds(uint256)": {
        "notice": "allows the contract owner to withdraw the funds currently being held by the contract. "
      }
    },
    "version": 1
  }
}