{
  "contractName": "SurvivalKitClaim",
  "abi": [
    {
      "inputs": [
        {
          "internalType": "string",
          "name": "_name",
          "type": "string"
        },
        {
          "internalType": "string",
          "name": "_symbol",
          "type": "string"
        },
        {
          "internalType": "uint256",
          "name": "_supplyCap",
          "type": "uint256"
        }
      ],
      "stateMutability": "nonpayable",
      "type": "constructor"
    },
    {
      "anonymous": false,
      "inputs": [
        {
          "indexed": true,
          "internalType": "address",
          "name": "owner",
          "type": "address"
        },
        {
          "indexed": true,
          "internalType": "address",
          "name": "approved",
          "type": "address"
        },
        {
          "indexed": true,
          "internalType": "uint256",
          "name": "tokenId",
          "type": "uint256"
        }
      ],
      "name": "Approval",
      "type": "event"
    },
    {
      "anonymous": false,
      "inputs": [
        {
          "indexed": true,
          "internalType": "address",
          "name": "owner",
          "type": "address"
        },
        {
          "indexed": true,
          "internalType": "address",
          "name": "operator",
          "type": "address"
        },
        {
          "indexed": false,
          "internalType": "bool",
          "name": "approved",
          "type": "bool"
        }
      ],
      "name": "ApprovalForAll",
      "type": "event"
    },
    {
      "anonymous": false,
      "inputs": [
        {
          "indexed": true,
          "internalType": "address",
          "name": "previousOwner",
          "type": "address"
        },
        {
          "indexed": true,
          "internalType": "address",
          "name": "newOwner",
          "type": "address"
        }
      ],
      "name": "OwnershipTransferred",
      "type": "event"
    },
    {
      "anonymous": false,
      "inputs": [
        {
          "indexed": false,
          "internalType": "address",
          "name": "account",
          "type": "address"
        }
      ],
      "name": "Paused",
      "type": "event"
    },
    {
      "anonymous": false,
      "inputs": [
        {
          "indexed": false,
          "internalType": "address",
          "name": "sender",
          "type": "address"
        },
        {
          "indexed": false,
          "internalType": "uint256",
          "name": "tokenId",
          "type": "uint256"
        }
      ],
      "name": "SurvivalKitNftClaimed",
      "type": "event"
    },
    {
      "anonymous": false,
      "inputs": [
        {
          "indexed": true,
          "internalType": "address",
          "name": "from",
          "type": "address"
        },
        {
          "indexed": true,
          "internalType": "address",
          "name": "to",
          "type": "address"
        },
        {
          "indexed": true,
          "internalType": "uint256",
          "name": "tokenId",
          "type": "uint256"
        }
      ],
      "name": "Transfer",
      "type": "event"
    },
    {
      "anonymous": false,
      "inputs": [
        {
          "indexed": false,
          "internalType": "address",
          "name": "account",
          "type": "address"
        }
      ],
      "name": "Unpaused",
      "type": "event"
    },
    {
      "inputs": [
        {
          "internalType": "address",
          "name": "to",
          "type": "address"
        },
        {
          "internalType": "uint256",
          "name": "tokenId",
          "type": "uint256"
        }
      ],
      "name": "approve",
      "outputs": [],
      "stateMutability": "nonpayable",
      "type": "function"
    },
    {
      "inputs": [
        {
          "internalType": "address",
          "name": "owner",
          "type": "address"
        }
      ],
      "name": "balanceOf",
      "outputs": [
        {
          "internalType": "uint256",
          "name": "",
          "type": "uint256"
        }
      ],
      "stateMutability": "view",
      "type": "function",
      "constant": true
    },
    {
      "inputs": [
        {
          "internalType": "uint256",
          "name": "tokenId",
          "type": "uint256"
        }
      ],
      "name": "getApproved",
      "outputs": [
        {
          "internalType": "address",
          "name": "",
          "type": "address"
        }
      ],
      "stateMutability": "view",
      "type": "function",
      "constant": true
    },
    {
      "inputs": [
        {
          "internalType": "address",
          "name": "owner",
          "type": "address"
        },
        {
          "internalType": "address",
          "name": "operator",
          "type": "address"
        }
      ],
      "name": "isApprovedForAll",
      "outputs": [
        {
          "internalType": "bool",
          "name": "",
          "type": "bool"
        }
      ],
      "stateMutability": "view",
      "type": "function",
      "constant": true
    },
    {
      "inputs": [],
      "name": "name",
      "outputs": [
        {
          "internalType": "string",
          "name": "",
          "type": "string"
        }
      ],
      "stateMutability": "view",
      "type": "function",
      "constant": true
    },
    {
      "inputs": [],
      "name": "owner",
      "outputs": [
        {
          "internalType": "address",
          "name": "",
          "type": "address"
        }
      ],
      "stateMutability": "view",
      "type": "function",
      "constant": true
    },
    {
      "inputs": [
        {
          "internalType": "uint256",
          "name": "tokenId",
          "type": "uint256"
        }
      ],
      "name": "ownerOf",
      "outputs": [
        {
          "internalType": "address",
          "name": "",
          "type": "address"
        }
      ],
      "stateMutability": "view",
      "type": "function",
      "constant": true
    },
    {
      "inputs": [],
      "name": "paused",
      "outputs": [
        {
          "internalType": "bool",
          "name": "",
          "type": "bool"
        }
      ],
      "stateMutability": "view",
      "type": "function",
      "constant": true
    },
    {
      "inputs": [],
      "name": "renounceOwnership",
      "outputs": [],
      "stateMutability": "nonpayable",
      "type": "function"
    },
    {
      "inputs": [
        {
          "internalType": "address",
          "name": "from",
          "type": "address"
        },
        {
          "internalType": "address",
          "name": "to",
          "type": "address"
        },
        {
          "internalType": "uint256",
          "name": "tokenId",
          "type": "uint256"
        }
      ],
      "name": "safeTransferFrom",
      "outputs": [],
      "stateMutability": "nonpayable",
      "type": "function"
    },
    {
      "inputs": [
        {
          "internalType": "address",
          "name": "from",
          "type": "address"
        },
        {
          "internalType": "address",
          "name": "to",
          "type": "address"
        },
        {
          "internalType": "uint256",
          "name": "tokenId",
          "type": "uint256"
        },
        {
          "internalType": "bytes",
          "name": "_data",
          "type": "bytes"
        }
      ],
      "name": "safeTransferFrom",
      "outputs": [],
      "stateMutability": "nonpayable",
      "type": "function"
    },
    {
      "inputs": [
        {
          "internalType": "address",
          "name": "operator",
          "type": "address"
        },
        {
          "internalType": "bool",
          "name": "approved",
          "type": "bool"
        }
      ],
      "name": "setApprovalForAll",
      "outputs": [],
      "stateMutability": "nonpayable",
      "type": "function"
    },
    {
      "inputs": [],
      "name": "symbol",
      "outputs": [
        {
          "internalType": "string",
          "name": "",
          "type": "string"
        }
      ],
      "stateMutability": "view",
      "type": "function",
      "constant": true
    },
    {
      "inputs": [
        {
          "internalType": "uint256",
          "name": "index",
          "type": "uint256"
        }
      ],
      "name": "tokenByIndex",
      "outputs": [
        {
          "internalType": "uint256",
          "name": "",
          "type": "uint256"
        }
      ],
      "stateMutability": "view",
      "type": "function",
      "constant": true
    },
    {
      "inputs": [
        {
          "internalType": "address",
          "name": "owner",
          "type": "address"
        },
        {
          "internalType": "uint256",
          "name": "index",
          "type": "uint256"
        }
      ],
      "name": "tokenOfOwnerByIndex",
      "outputs": [
        {
          "internalType": "uint256",
          "name": "",
          "type": "uint256"
        }
      ],
      "stateMutability": "view",
      "type": "function",
      "constant": true
    },
    {
      "inputs": [],
      "name": "totalSupply",
      "outputs": [
        {
          "internalType": "uint256",
          "name": "",
          "type": "uint256"
        }
      ],
      "stateMutability": "view",
      "type": "function",
      "constant": true
    },
    {
      "inputs": [
        {
          "internalType": "address",
          "name": "from",
          "type": "address"
        },
        {
          "internalType": "address",
          "name": "to",
          "type": "address"
        },
        {
          "internalType": "uint256",
          "name": "tokenId",
          "type": "uint256"
        }
      ],
      "name": "transferFrom",
      "outputs": [],
      "stateMutability": "nonpayable",
      "type": "function"
    },
    {
      "inputs": [
        {
          "internalType": "address",
          "name": "newOwner",
          "type": "address"
        }
      ],
      "name": "transferOwnership",
      "outputs": [],
      "stateMutability": "nonpayable",
      "type": "function"
    },
    {
      "inputs": [],
      "name": "pause",
      "outputs": [],
      "stateMutability": "nonpayable",
      "type": "function"
    },
    {
      "inputs": [],
      "name": "unpause",
      "outputs": [],
      "stateMutability": "nonpayable",
      "type": "function"
    },
    {
      "inputs": [],
      "name": "getSupplyCap",
      "outputs": [
        {
          "internalType": "uint256",
          "name": "",
          "type": "uint256"
        }
      ],
      "stateMutability": "view",
      "type": "function",
      "constant": true
    },
    {
      "inputs": [],
      "name": "getRemainingMints",
      "outputs": [
        {
          "internalType": "uint256",
          "name": "",
          "type": "uint256"
        }
      ],
      "stateMutability": "view",
      "type": "function",
      "constant": true
    },
    {
      "inputs": [],
      "name": "getTotalNFTsMintedSoFar",
      "outputs": [
        {
          "internalType": "uint256",
          "name": "",
          "type": "uint256"
        }
      ],
      "stateMutability": "view",
      "type": "function",
      "constant": true
    },
    {
      "inputs": [],
      "name": "balanceOfContract",
      "outputs": [
        {
          "internalType": "uint256",
          "name": "",
          "type": "uint256"
        }
      ],
      "stateMutability": "view",
      "type": "function",
      "constant": true
    },
    {
      "inputs": [],
      "name": "withdrawAllFunds",
      "outputs": [],
      "stateMutability": "payable",
      "type": "function",
      "payable": true
    },
    {
      "inputs": [
        {
          "internalType": "uint256",
          "name": "amount",
          "type": "uint256"
        }
      ],
      "name": "withdrawFunds",
      "outputs": [],
      "stateMutability": "payable",
      "type": "function",
      "payable": true
    },
    {
      "inputs": [
        {
          "internalType": "uint256",
          "name": "tokenId",
          "type": "uint256"
        }
      ],
      "name": "tokenURI",
      "outputs": [
        {
          "internalType": "string",
          "name": "",
          "type": "string"
        }
      ],
      "stateMutability": "view",
      "type": "function",
      "constant": true
    },
    {
      "inputs": [],
      "name": "mintNFT",
      "outputs": [],
      "stateMutability": "payable",
      "type": "function",
      "payable": true
    },
    {
      "inputs": [
        {
          "internalType": "bytes4",
          "name": "interfaceId",
          "type": "bytes4"
        }
      ],
      "name": "supportsInterface",
      "outputs": [
        {
          "internalType": "bool",
          "name": "",
          "type": "bool"
        }
      ],
      "stateMutability": "view",
      "type": "function",
      "constant": true
    }
  ],
  "bytecode": "0x6080604052610bb8600c5560405180610100016040528060d38152602001620062e260d39139600e90805190602001906200003c92919062000d25565b506040518060400160405280600381526020017f272f3e0000000000000000000000000000000000000000000000000000000000815250600f90805190602001906200008a92919062000d25565b50604051806101e001604052806040518060400160405280600881526020017f43726f7373626f7700000000000000000000000000000000000000000000000081525081526020016040518060400160405280600781526020017f53686f7467756e0000000000000000000000000000000000000000000000000081525081526020016040518060400160405280600c81526020017f53616d7572692053776f7264000000000000000000000000000000000000000081525081526020016040518060400160405280600c81526020017f4261736562616c6c20426174000000000000000000000000000000000000000081525081526020016040518060400160405280600781526020017f43726f776261720000000000000000000000000000000000000000000000000081525081526020016040518060400160405280600981526020017f736c696e6773686f74000000000000000000000000000000000000000000000081525081526020016040518060400160405280600381526020017f417865000000000000000000000000000000000000000000000000000000000081525081526020016040518060400160405280600681526020017f4b6174616e61000000000000000000000000000000000000000000000000000081525081526020016040518060400160405280600d81526020017f536c656467652048616d6d65720000000000000000000000000000000000000081525081526020016040518060400160405280600781526020017f4d6163686574650000000000000000000000000000000000000000000000000081525081526020016040518060400160405280600781526020017f48616e6467756e0000000000000000000000000000000000000000000000000081525081526020016040518060400160405280600e81526020017f4b756e636b6c652044757374657200000000000000000000000000000000000081525081526020016040518060400160405280600581526020017f5269666c6500000000000000000000000000000000000000000000000000000081525081526020016040518060400160405280600881526020017f546f6d616861776b00000000000000000000000000000000000000000000000081525081526020016040518060400160405280600c81526020017f506f696e747920537469636b0000000000000000000000000000000000000000815250815250601090600f6200041c92919062000db6565b506040518061014001604052806040518060400160405280600981526020017f4d6f746f7262696b65000000000000000000000000000000000000000000000081525081526020016040518060400160405280600381526020017f436172000000000000000000000000000000000000000000000000000000000081525081526020016040518060400160405280600781526020017f42696379636c650000000000000000000000000000000000000000000000000081525081526020016040518060400160405280600481526020017f4a6565700000000000000000000000000000000000000000000000000000000081525081526020016040518060400160405280600781526020017f4f6e20466f6f740000000000000000000000000000000000000000000000000081525081526020016040518060400160405280600a81526020017f48656c69636f707465720000000000000000000000000000000000000000000081525081526020016040518060400160405280600481526020017f426f61740000000000000000000000000000000000000000000000000000000081525081526020016040518060400160405280600a81526020017f536b617465626f6172640000000000000000000000000000000000000000000081525081526020016040518060400160405280600c81526020017f526f6c6c6572626c61646573000000000000000000000000000000000000000081525081526020016040518060400160405280600781526020017f53636f6f74657200000000000000000000000000000000000000000000000000815250815250601190600a6200068792919062000e1d565b50604051806101c001604052806040518060400160405280600581526020017f546f72636800000000000000000000000000000000000000000000000000000081525081526020016040518060400160405280600c81526020017f416e696d616c20536e617265000000000000000000000000000000000000000081525081526020016040518060400160405280600881526020017f4d65646963696e6500000000000000000000000000000000000000000000000081525081526020016040518060400160405280600581526020017f526164696f00000000000000000000000000000000000000000000000000000081525081526020016040518060400160405280600381526020017f4d6170000000000000000000000000000000000000000000000000000000000081525081526020016040518060400160405280600681526020017f576973746c65000000000000000000000000000000000000000000000000000081525081526020016040518060400160405280600681526020017f43616e646c65000000000000000000000000000000000000000000000000000081525081526020016040518060400160405280600d81526020017f57616c6b69652d54616c6b69650000000000000000000000000000000000000081525081526020016040518060400160405280600c81526020017f576174657220426f74746c65000000000000000000000000000000000000000081525081526020016040518060400160405280601a81526020017f576174657220507572696669636174696f6e205461626c65747300000000000081525081526020016040518060400160405280600681526020017f476c6f766573000000000000000000000000000000000000000000000000000081525081526020016040518060400160405280600a81526020017f42696e6f63756c6172730000000000000000000000000000000000000000000081525081526020016040518060400160405280600581526020017f576174636800000000000000000000000000000000000000000000000000000081525081526020016040518060400160405280600c81526020017f466f6f6420526174696f6e730000000000000000000000000000000000000000815250815250601290600e620009de92919062000e84565b506040518060c001604052806040518060400160405280600381526020017f726564000000000000000000000000000000000000000000000000000000000081525081526020016040518060400160405280600581526020017f626c61636b00000000000000000000000000000000000000000000000000000081525081526020016040518060400160405280600481526020017f626c75650000000000000000000000000000000000000000000000000000000081525081526020016040518060400160405280600581526020017f677265656e00000000000000000000000000000000000000000000000000000081525081526020016040518060400160405280600681526020017f696e6469676f000000000000000000000000000000000000000000000000000081525081526020016040518060400160405280600481526020017f6772657900000000000000000000000000000000000000000000000000000000815250815250601390600662000b5c92919062000eeb565b5034801562000b6a57600080fd5b50604051620063b5380380620063b5833981810160405281019062000b90919062001068565b8282816000908051906020019062000baa92919062000d25565b50806001908051906020019062000bc392919062000d25565b5050506000600b60006101000a81548160ff02191690831515021790555062000c0162000bf562000c5760201b60201c565b62000c5f60201b60201c565b6000811162000c47576040517f08c379a000000000000000000000000000000000000000000000000000000000815260040162000c3e9062001132565b60405180910390fd5b80600c81905550505050620012ba565b600033905090565b6000600b60019054906101000a900473ffffffffffffffffffffffffffffffffffffffff16905081600b60016101000a81548173ffffffffffffffffffffffffffffffffffffffff021916908373ffffffffffffffffffffffffffffffffffffffff1602179055508173ffffffffffffffffffffffffffffffffffffffff168173ffffffffffffffffffffffffffffffffffffffff167f8be0079c531659141344cd1fd0a4f28419497f9722a3daafe3b4186f6b6457e060405160405180910390a35050565b82805462000d33906200120c565b90600052602060002090601f01602090048101928262000d57576000855562000da3565b82601f1062000d7257805160ff191683800117855562000da3565b8280016001018555821562000da3579182015b8281111562000da257825182559160200191906001019062000d85565b5b50905062000db2919062000f52565b5090565b82805482825590600052602060002090810192821562000e0a579160200282015b8281111562000e0957825182908051906020019062000df892919062000d25565b509160200191906001019062000dd7565b5b50905062000e19919062000f71565b5090565b82805482825590600052602060002090810192821562000e71579160200282015b8281111562000e7057825182908051906020019062000e5f92919062000d25565b509160200191906001019062000e3e565b5b50905062000e80919062000f71565b5090565b82805482825590600052602060002090810192821562000ed8579160200282015b8281111562000ed757825182908051906020019062000ec692919062000d25565b509160200191906001019062000ea5565b5b50905062000ee7919062000f71565b5090565b82805482825590600052602060002090810192821562000f3f579160200282015b8281111562000f3e57825182908051906020019062000f2d92919062000d25565b509160200191906001019062000f0c565b5b50905062000f4e919062000f71565b5090565b5b8082111562000f6d57600081600090555060010162000f53565b5090565b5b8082111562000f95576000818162000f8b919062000f99565b5060010162000f72565b5090565b50805462000fa7906200120c565b6000825580601f1062000fbb575062000fdc565b601f01602090049060005260206000209081019062000fdb919062000f52565b5b50565b600062000ff662000ff08462001188565b62001154565b9050828152602081018484840111156200100f57600080fd5b6200101c848285620011d6565b509392505050565b600082601f8301126200103657600080fd5b81516200104884826020860162000fdf565b91505092915050565b6000815190506200106281620012a0565b92915050565b6000806000606084860312156200107e57600080fd5b600084015167ffffffffffffffff8111156200109957600080fd5b620010a78682870162001024565b935050602084015167ffffffffffffffff811115620010c557600080fd5b620010d38682870162001024565b9250506040620010e68682870162001051565b9150509250925092565b6000620010ff602083620011bb565b91507f737570706c79436170206d7573742062652067726561746572207468616e20306000830152602082019050919050565b600060208201905081810360008301526200114d81620010f0565b9050919050565b6000604051905081810181811067ffffffffffffffff821117156200117e576200117d62001271565b5b8060405250919050565b600067ffffffffffffffff821115620011a657620011a562001271565b5b601f19601f8301169050602081019050919050565b600082825260208201905092915050565b6000819050919050565b60005b83811015620011f6578082015181840152602081019050620011d9565b8381111562001206576000848401525b50505050565b600060028204905060018216806200122557607f821691505b602082108114156200123c576200123b62001242565b5b50919050565b7f4e487b7100000000000000000000000000000000000000000000000000000000600052602260045260246000fd5b7f4e487b7100000000000000000000000000000000000000000000000000000000600052604160045260246000fd5b620012ab81620011cc565b8114620012b757600080fd5b50565b61501880620012ca6000396000f3fe6080604052600436106101c25760003560e01c80634f6ccce7116100f757806395d89b4111610095578063e6c7c45611610064578063e6c7c456146105e1578063e985e9c51461060c578063f2fde38b14610649578063fd02c23914610672576101c2565b806395d89b4114610527578063a22cb46514610552578063b88d4fde1461057b578063c87b56dd146105a4576101c2565b806370a08231116100d157806370a0823114610491578063715018a6146104ce5780638456cb59146104e55780638da5cb5b146104fc576101c2565b80634f6ccce7146103ec5780635c975abb146104295780636352211e14610454576101c2565b806318160ddd116101645780632f745c591161013e5780632f745c59146103655780633f4ba83a146103a257806342842e0e146103b957806349649fbf146103e2576101c2565b806318160ddd146102e6578063203618141461031157806323b872dd1461033c576101c2565b8063081812fc116101a0578063081812fc1461025a578063095ea7b31461029757806314f710fe146102c0578063155dd5ee146102ca576101c2565b806301ffc9a7146101c7578063060475901461020457806306fdde031461022f575b600080fd5b3480156101d357600080fd5b506101ee60048036038101906101e991906136f5565b61069d565b6040516101fb91906147c6565b60405180910390f35b34801561021057600080fd5b506102196106af565b6040516102269190614b23565b60405180910390f35b34801561023b57600080fd5b506102446106c0565b60405161025191906147e1565b60405180910390f35b34801561026657600080fd5b50610281600480360381019061027c9190613747565b610752565b60405161028e9190614736565b60405180910390f35b3480156102a357600080fd5b506102be60048036038101906102b991906136b9565b6107d7565b005b6102c86108ef565b005b6102e460048036038101906102df9190613747565b610b18565b005b3480156102f257600080fd5b506102fb610c44565b6040516103089190614b23565b60405180910390f35b34801561031d57600080fd5b50610326610c51565b6040516103339190614b23565b60405180910390f35b34801561034857600080fd5b50610363600480360381019061035e91906135b3565b610c5b565b005b34801561037157600080fd5b5061038c600480360381019061038791906136b9565b610cbb565b6040516103999190614b23565b60405180910390f35b3480156103ae57600080fd5b506103b7610d60565b005b3480156103c557600080fd5b506103e060048036038101906103db91906135b3565b610de6565b005b6103ea610e06565b005b3480156103f857600080fd5b50610413600480360381019061040e9190613747565b610f31565b6040516104209190614b23565b60405180910390f35b34801561043557600080fd5b5061043e610fc8565b60405161044b91906147c6565b60405180910390f35b34801561046057600080fd5b5061047b60048036038101906104769190613747565b610fdf565b6040516104889190614736565b60405180910390f35b34801561049d57600080fd5b506104b860048036038101906104b3919061354e565b611091565b6040516104c59190614b23565b60405180910390f35b3480156104da57600080fd5b506104e3611149565b005b3480156104f157600080fd5b506104fa6111d1565b005b34801561050857600080fd5b50610511611257565b60405161051e9190614736565b60405180910390f35b34801561053357600080fd5b5061053c611281565b60405161054991906147e1565b60405180910390f35b34801561055e57600080fd5b506105796004803603810190610574919061367d565b611313565b005b34801561058757600080fd5b506105a2600480360381019061059d9190613602565b611494565b005b3480156105b057600080fd5b506105cb60048036038101906105c69190613747565b6114f6565b6040516105d891906147e1565b60405180910390f35b3480156105ed57600080fd5b506105f6611508565b6040516106039190614b23565b60405180910390f35b34801561061857600080fd5b50610633600480360381019061062e9190613577565b611510565b60405161064091906147c6565b60405180910390f35b34801561065557600080fd5b50610670600480360381019061066b919061354e565b6115a4565b005b34801561067e57600080fd5b5061068761169c565b6040516106949190614b23565b60405180910390f35b60006106a8826116ba565b9050919050565b60006106bb600d611734565b905090565b6060600080546106cf90614dcd565b80601f01602080910402602001604051908101604052809291908181526020018280546106fb90614dcd565b80156107485780601f1061071d57610100808354040283529160200191610748565b820191906000526020600020905b81548152906001019060200180831161072b57829003601f168201915b5050505050905090565b600061075d82611742565b61079c576040517f08c379a000000000000000000000000000000000000000000000000000000000815260040161079390614a23565b60405180910390fd5b6004600083815260200190815260200160002060009054906101000a900473ffffffffffffffffffffffffffffffffffffffff169050919050565b60006107e282610fdf565b90508073ffffffffffffffffffffffffffffffffffffffff168373ffffffffffffffffffffffffffffffffffffffff161415610853576040517f08c379a000000000000000000000000000000000000000000000000000000000815260040161084a90614aa3565b60405180910390fd5b8073ffffffffffffffffffffffffffffffffffffffff166108726117ae565b73ffffffffffffffffffffffffffffffffffffffff1614806108a157506108a08161089b6117ae565b611510565b5b6108e0576040517f08c379a00000000000000000000000000000000000000000000000000000000081526004016108d790614963565b60405180910390fd5b6108ea83836117b6565b505050565b6108f7610fc8565b15610937576040517f08c379a000000000000000000000000000000000000000000000000000000000815260040161092e90614943565b60405180910390fd5b600c54610944600d611734565b1115610985576040517f08c379a000000000000000000000000000000000000000000000000000000000815260040161097c90614863565b60405180910390fd5b662386f26fc100003410156109cf576040517f08c379a00000000000000000000000000000000000000000000000000000000081526004016109c690614b03565b60405180910390fd5b60006109db600d611734565b905060006109e88261186f565b905060006109f58361198d565b90506000610a0284611aab565b90506000610a0f85611bc9565b90506000600e82600f610a23886001611ce7565b610a2e886002611ce7565b610a39886003611ce7565b604051602001610a4e9695949392919061458c565b60405160208183030381529060405290506000610a91610a6d83611ddb565b604051602001610a7d919061469a565b604051602081830303815290604052611ddb565b9050600081604051602001610aa691906146dd565b6040516020818303038152906040529050610ac13389611f99565b610acb8882611fb7565b610ad5600d61202b565b7f75f619ddab9326bcf7e428ba55311feaad4aa7dec1f5cc227b218a7ad22764113389604051610b0692919061479d565b60405180910390a15050505050505050565b610b206117ae565b73ffffffffffffffffffffffffffffffffffffffff16610b3e611257565b73ffffffffffffffffffffffffffffffffffffffff1614610b94576040517f08c379a0000000000000000000000000000000000000000000000000000000008152600401610b8b90614a43565b60405180910390fd5b60003373ffffffffffffffffffffffffffffffffffffffff1682604051610bba90614721565b60006040518083038185875af1925050503d8060008114610bf7576040519150601f19603f3d011682016040523d82523d6000602084013e610bfc565b606091505b5050905080610c40576040517f08c379a0000000000000000000000000000000000000000000000000000000008152600401610c37906148c3565b60405180910390fd5b5050565b6000600880549050905090565b6000600c54905090565b610c6c610c666117ae565b82612041565b610cab576040517f08c379a0000000000000000000000000000000000000000000000000000000008152600401610ca290614ac3565b60405180910390fd5b610cb683838361211f565b505050565b6000610cc683611091565b8210610d07576040517f08c379a0000000000000000000000000000000000000000000000000000000008152600401610cfe90614823565b60405180910390fd5b600660008473ffffffffffffffffffffffffffffffffffffffff1673ffffffffffffffffffffffffffffffffffffffff168152602001908152602001600020600083815260200190815260200160002054905092915050565b610d686117ae565b73ffffffffffffffffffffffffffffffffffffffff16610d86611257565b73ffffffffffffffffffffffffffffffffffffffff1614610ddc576040517f08c379a0000000000000000000000000000000000000000000000000000000008152600401610dd390614a43565b60405180910390fd5b610de461237b565b565b610e0183838360405180602001604052806000815250611494565b505050565b610e0e6117ae565b73ffffffffffffffffffffffffffffffffffffffff16610e2c611257565b73ffffffffffffffffffffffffffffffffffffffff1614610e82576040517f08c379a0000000000000000000000000000000000000000000000000000000008152600401610e7990614a43565b60405180910390fd5b60003373ffffffffffffffffffffffffffffffffffffffff1647604051610ea890614721565b60006040518083038185875af1925050503d8060008114610ee5576040519150601f19603f3d011682016040523d82523d6000602084013e610eea565b606091505b5050905080610f2e576040517f08c379a0000000000000000000000000000000000000000000000000000000008152600401610f25906148c3565b60405180910390fd5b50565b6000610f3b610c44565b8210610f7c576040517f08c379a0000000000000000000000000000000000000000000000000000000008152600401610f7390614ae3565b60405180910390fd5b60088281548110610fb6577f4e487b7100000000000000000000000000000000000000000000000000000000600052603260045260246000fd5b90600052602060002001549050919050565b6000600b60009054906101000a900460ff16905090565b6000806002600084815260200190815260200160002060009054906101000a900473ffffffffffffffffffffffffffffffffffffffff169050600073ffffffffffffffffffffffffffffffffffffffff168173ffffffffffffffffffffffffffffffffffffffff161415611088576040517f08c379a000000000000000000000000000000000000000000000000000000000815260040161107f906149a3565b60405180910390fd5b80915050919050565b60008073ffffffffffffffffffffffffffffffffffffffff168273ffffffffffffffffffffffffffffffffffffffff161415611102576040517f08c379a00000000000000000000000000000000000000000000000000000000081526004016110f990614983565b60405180910390fd5b600360008373ffffffffffffffffffffffffffffffffffffffff1673ffffffffffffffffffffffffffffffffffffffff168152602001908152602001600020549050919050565b6111516117ae565b73ffffffffffffffffffffffffffffffffffffffff1661116f611257565b73ffffffffffffffffffffffffffffffffffffffff16146111c5576040517f08c379a00000000000000000000000000000000000000000000000000000000081526004016111bc90614a43565b60405180910390fd5b6111cf600061241d565b565b6111d96117ae565b73ffffffffffffffffffffffffffffffffffffffff166111f7611257565b73ffffffffffffffffffffffffffffffffffffffff161461124d576040517f08c379a000000000000000000000000000000000000000000000000000000000815260040161124490614a43565b60405180910390fd5b6112556124e3565b565b6000600b60019054906101000a900473ffffffffffffffffffffffffffffffffffffffff16905090565b60606001805461129090614dcd565b80601f01602080910402602001604051908101604052809291908181526020018280546112bc90614dcd565b80156113095780601f106112de57610100808354040283529160200191611309565b820191906000526020600020905b8154815290600101906020018083116112ec57829003601f168201915b5050505050905090565b61131b6117ae565b73ffffffffffffffffffffffffffffffffffffffff168273ffffffffffffffffffffffffffffffffffffffff161415611389576040517f08c379a000000000000000000000000000000000000000000000000000000000815260040161138090614903565b60405180910390fd5b80600560006113966117ae565b73ffffffffffffffffffffffffffffffffffffffff1673ffffffffffffffffffffffffffffffffffffffff16815260200190815260200160002060008473ffffffffffffffffffffffffffffffffffffffff1673ffffffffffffffffffffffffffffffffffffffff16815260200190815260200160002060006101000a81548160ff0219169083151502179055508173ffffffffffffffffffffffffffffffffffffffff166114436117ae565b73ffffffffffffffffffffffffffffffffffffffff167f17307eab39ab6107e8899845ad3d59bd9653f200f220920489ca2b5937696c318360405161148891906147c6565b60405180910390a35050565b6114a561149f6117ae565b83612041565b6114e4576040517f08c379a00000000000000000000000000000000000000000000000000000000081526004016114db90614ac3565b60405180910390fd5b6114f084848484612586565b50505050565b6060611501826125e2565b9050919050565b600047905090565b6000600560008473ffffffffffffffffffffffffffffffffffffffff1673ffffffffffffffffffffffffffffffffffffffff16815260200190815260200160002060008373ffffffffffffffffffffffffffffffffffffffff1673ffffffffffffffffffffffffffffffffffffffff16815260200190815260200160002060009054906101000a900460ff16905092915050565b6115ac6117ae565b73ffffffffffffffffffffffffffffffffffffffff166115ca611257565b73ffffffffffffffffffffffffffffffffffffffff1614611620576040517f08c379a000000000000000000000000000000000000000000000000000000000815260040161161790614a43565b60405180910390fd5b600073ffffffffffffffffffffffffffffffffffffffff168173ffffffffffffffffffffffffffffffffffffffff161415611690576040517f08c379a000000000000000000000000000000000000000000000000000000000815260040161168790614883565b60405180910390fd5b6116998161241d565b50565b60006116a8600d611734565b600c546116b59190614ce3565b905090565b60007f780e9d63000000000000000000000000000000000000000000000000000000007bffffffffffffffffffffffffffffffffffffffffffffffffffffffff1916827bffffffffffffffffffffffffffffffffffffffffffffffffffffffff1916148061172d575061172c82612734565b5b9050919050565b600081600001549050919050565b60008073ffffffffffffffffffffffffffffffffffffffff166002600084815260200190815260200160002060009054906101000a900473ffffffffffffffffffffffffffffffffffffffff1673ffffffffffffffffffffffffffffffffffffffff1614159050919050565b600033905090565b816004600083815260200190815260200160002060006101000a81548173ffffffffffffffffffffffffffffffffffffffff021916908373ffffffffffffffffffffffffffffffffffffffff160217905550808273ffffffffffffffffffffffffffffffffffffffff1661182983610fdf565b73ffffffffffffffffffffffffffffffffffffffff167f8c5be1e5ebec7d5bd14f71427d1e84f3dd0314c0f7b2291e5b200ac8c7c3b92560405160405180910390a45050565b606060006118a361187f84612816565b60405160200161188f9190614633565b6040516020818303038152906040526129c3565b9050601080549050816118b69190614e48565b9050601081815481106118f2577f4e487b7100000000000000000000000000000000000000000000000000000000600052603260045260246000fd5b90600052602060002001805461190790614dcd565b80601f016020809104026020016040519081016040528092919081815260200182805461193390614dcd565b80156119805780601f1061195557610100808354040283529160200191611980565b820191906000526020600020905b81548152906001019060200180831161196357829003601f168201915b5050505050915050919050565b606060006119c161199d84612816565b6040516020016119ad9190614611565b6040516020818303038152906040526129c3565b9050601180549050816119d49190614e48565b905060118181548110611a10577f4e487b7100000000000000000000000000000000000000000000000000000000600052603260045260246000fd5b906000526020600020018054611a2590614dcd565b80601f0160208091040260200160405190810160405280929190818152602001828054611a5190614dcd565b8015611a9e5780601f10611a7357610100808354040283529160200191611a9e565b820191906000526020600020905b815481529060010190602001808311611a8157829003601f168201915b5050505050915050919050565b60606000611adf611abb84612816565b604051602001611acb91906145ef565b6040516020818303038152906040526129c3565b905060128054905081611af29190614e48565b905060128181548110611b2e577f4e487b7100000000000000000000000000000000000000000000000000000000600052603260045260246000fd5b906000526020600020018054611b4390614dcd565b80601f0160208091040260200160405190810160405280929190818152602001828054611b6f90614dcd565b8015611bbc5780601f10611b9157610100808354040283529160200191611bbc565b820191906000526020600020905b815481529060010190602001808311611b9f57829003601f168201915b5050505050915050919050565b60606000611bfd611bd984612816565b604051602001611be991906146ff565b6040516020818303038152906040526129c3565b905060138054905081611c109190614e48565b905060138181548110611c4c577f4e487b7100000000000000000000000000000000000000000000000000000000600052603260045260246000fd5b906000526020600020018054611c6190614dcd565b80601f0160208091040260200160405190810160405280929190818152602001828054611c8d90614dcd565b8015611cda5780601f10611caf57610100808354040283529160200191611cda565b820191906000526020600020905b815481529060010190602001808311611cbd57829003601f168201915b5050505050915050919050565b6060806001831415611d30576040518060400160405280600381526020017f34302500000000000000000000000000000000000000000000000000000000008152509050611db0565b6002831415611d76576040518060400160405280600381526020017f35302500000000000000000000000000000000000000000000000000000000008152509050611daf565b6040518060400160405280600381526020017f363025000000000000000000000000000000000000000000000000000000000081525090505b5b8084604051602001611dc3929190614655565b60405160208183030381529060405291505092915050565b60606000825190506000811415611e045760405180602001604052806000815250915050611f94565b60006003600283611e159190614c02565b611e1f9190614c58565b6004611e2b9190614c89565b90506000602082611e3c9190614c02565b67ffffffffffffffff811115611e7b577f4e487b7100000000000000000000000000000000000000000000000000000000600052604160045260246000fd5b6040519080825280601f01601f191660200182016040528015611ead5781602001600182028036833780820191505090505b5090506000604051806060016040528060408152602001614fa3604091399050600181016020830160005b86811015611f515760038101905062ffffff818a015116603f8160121c168401518060081b905060ff603f83600c1c1686015116810190508060081b905060ff603f8360061c1686015116810190508060081b905060ff603f831686015116810190508060e01b90508084526004840193505050611ed8565b506003860660018114611f6b5760028114611f7b57611f86565b613d3d60f01b6002830352611f86565b603d60f81b60018303525b508484525050819450505050505b919050565b611fb38282604051806020016040528060008152506129f6565b5050565b611fc082611742565b611fff576040517f08c379a0000000000000000000000000000000000000000000000000000000008152600401611ff6906149c3565b60405180910390fd5b80600a600084815260200190815260200160002090805190602001906120269291906133da565b505050565b6001816000016000828254019250508190555050565b600061204c82611742565b61208b576040517f08c379a000000000000000000000000000000000000000000000000000000000815260040161208290614923565b60405180910390fd5b600061209683610fdf565b90508073ffffffffffffffffffffffffffffffffffffffff168473ffffffffffffffffffffffffffffffffffffffff16148061210557508373ffffffffffffffffffffffffffffffffffffffff166120ed84610752565b73ffffffffffffffffffffffffffffffffffffffff16145b8061211657506121158185611510565b5b91505092915050565b8273ffffffffffffffffffffffffffffffffffffffff1661213f82610fdf565b73ffffffffffffffffffffffffffffffffffffffff1614612195576040517f08c379a000000000000000000000000000000000000000000000000000000000815260040161218c90614a63565b60405180910390fd5b600073ffffffffffffffffffffffffffffffffffffffff168273ffffffffffffffffffffffffffffffffffffffff161415612205576040517f08c379a00000000000000000000000000000000000000000000000000000000081526004016121fc906148e3565b60405180910390fd5b612210838383612a51565b61221b6000826117b6565b6001600360008573ffffffffffffffffffffffffffffffffffffffff1673ffffffffffffffffffffffffffffffffffffffff168152602001908152602001600020600082825461226b9190614ce3565b925050819055506001600360008473ffffffffffffffffffffffffffffffffffffffff1673ffffffffffffffffffffffffffffffffffffffff16815260200190815260200160002060008282546122c29190614c02565b92505081905550816002600083815260200190815260200160002060006101000a81548173ffffffffffffffffffffffffffffffffffffffff021916908373ffffffffffffffffffffffffffffffffffffffff160217905550808273ffffffffffffffffffffffffffffffffffffffff168473ffffffffffffffffffffffffffffffffffffffff167fddf252ad1be2c89b69c2b068fc378daa952ba7f163c4a11628f55a4df523b3ef60405160405180910390a4505050565b612383610fc8565b6123c2576040517f08c379a00000000000000000000000000000000000000000000000000000000081526004016123b990614803565b60405180910390fd5b6000600b60006101000a81548160ff0219169083151502179055507f5db9ee0a495bf2e6ff9c91a7834c1ba4fdd244a5e8aa4e537bd38aeae4b073aa6124066117ae565b6040516124139190614736565b60405180910390a1565b6000600b60019054906101000a900473ffffffffffffffffffffffffffffffffffffffff16905081600b60016101000a81548173ffffffffffffffffffffffffffffffffffffffff021916908373ffffffffffffffffffffffffffffffffffffffff1602179055508173ffffffffffffffffffffffffffffffffffffffff168173ffffffffffffffffffffffffffffffffffffffff167f8be0079c531659141344cd1fd0a4f28419497f9722a3daafe3b4186f6b6457e060405160405180910390a35050565b6124eb610fc8565b1561252b576040517f08c379a000000000000000000000000000000000000000000000000000000000815260040161252290614943565b60405180910390fd5b6001600b60006101000a81548160ff0219169083151502179055507f62e78cea01bee320cd4e420270b5ea74000d11b0c9f74754ebdbfc544b05a25861256f6117ae565b60405161257c9190614736565b60405180910390a1565b61259184848461211f565b61259d84848484612aa9565b6125dc576040517f08c379a00000000000000000000000000000000000000000000000000000000081526004016125d390614843565b60405180910390fd5b50505050565b60606125ed82611742565b61262c576040517f08c379a000000000000000000000000000000000000000000000000000000000815260040161262390614a03565b60405180910390fd5b6000600a6000848152602001908152602001600020805461264c90614dcd565b80601f016020809104026020016040519081016040528092919081815260200182805461267890614dcd565b80156126c55780601f1061269a576101008083540402835291602001916126c5565b820191906000526020600020905b8154815290600101906020018083116126a857829003601f168201915b5050505050905060006126d6612c40565b90506000815114156126ec57819250505061272f565b600082511115612721578082604051602001612709929190614568565b6040516020818303038152906040529250505061272f565b61272a84612c57565b925050505b919050565b60007f80ac58cd000000000000000000000000000000000000000000000000000000007bffffffffffffffffffffffffffffffffffffffffffffffffffffffff1916827bffffffffffffffffffffffffffffffffffffffffffffffffffffffff191614806127ff57507f5b5e139f000000000000000000000000000000000000000000000000000000007bffffffffffffffffffffffffffffffffffffffffffffffffffffffff1916827bffffffffffffffffffffffffffffffffffffffffffffffffffffffff1916145b8061280f575061280e82612cfe565b5b9050919050565b6060600082141561285e576040518060400160405280600181526020017f300000000000000000000000000000000000000000000000000000000000000081525090506129be565b600082905060005b6000821461289057808061287990614dff565b915050600a826128899190614c58565b9150612866565b60008167ffffffffffffffff8111156128d2577f4e487b7100000000000000000000000000000000000000000000000000000000600052604160045260246000fd5b6040519080825280601f01601f1916602001820160405280156129045781602001600182028036833780820191505090505b5090505b600085146129b75760018261291d9190614ce3565b9150600a8561292c9190614e48565b60306129389190614c02565b60f81b818381518110612974577f4e487b7100000000000000000000000000000000000000000000000000000000600052603260045260246000fd5b60200101907effffffffffffffffffffffffffffffffffffffffffffffffffffffffffffff1916908160001a905350600a856129b09190614c58565b9450612908565b8093505050505b919050565b6000816040516020016129d69190614551565b6040516020818303038152906040528051906020012060001c9050919050565b612a008383612d68565b612a0d6000848484612aa9565b612a4c576040517f08c379a0000000000000000000000000000000000000000000000000000000008152600401612a4390614843565b60405180910390fd5b505050565b612a59610fc8565b15612a99576040517f08c379a0000000000000000000000000000000000000000000000000000000008152600401612a9090614943565b60405180910390fd5b612aa4838383612f36565b505050565b6000612aca8473ffffffffffffffffffffffffffffffffffffffff1661304a565b15612c33578373ffffffffffffffffffffffffffffffffffffffff1663150b7a02612af36117ae565b8786866040518563ffffffff1660e01b8152600401612b159493929190614751565b602060405180830381600087803b158015612b2f57600080fd5b505af1925050508015612b6057506040513d601f19601f82011682018060405250810190612b5d919061371e565b60015b612be3573d8060008114612b90576040519150601f19603f3d011682016040523d82523d6000602084013e612b95565b606091505b50600081511415612bdb576040517f08c379a0000000000000000000000000000000000000000000000000000000008152600401612bd290614843565b60405180910390fd5b805181602001fd5b63150b7a0260e01b7bffffffffffffffffffffffffffffffffffffffffffffffffffffffff1916817bffffffffffffffffffffffffffffffffffffffffffffffffffffffff191614915050612c38565b600190505b949350505050565b606060405180602001604052806000815250905090565b6060612c6282611742565b612ca1576040517f08c379a0000000000000000000000000000000000000000000000000000000008152600401612c9890614a83565b60405180910390fd5b6000612cab612c40565b90506000815111612ccb5760405180602001604052806000815250612cf6565b80612cd584612816565b604051602001612ce6929190614568565b6040516020818303038152906040525b915050919050565b60007f01ffc9a7000000000000000000000000000000000000000000000000000000007bffffffffffffffffffffffffffffffffffffffffffffffffffffffff1916827bffffffffffffffffffffffffffffffffffffffffffffffffffffffff1916149050919050565b600073ffffffffffffffffffffffffffffffffffffffff168273ffffffffffffffffffffffffffffffffffffffff161415612dd8576040517f08c379a0000000000000000000000000000000000000000000000000000000008152600401612dcf906149e3565b60405180910390fd5b612de181611742565b15612e21576040517f08c379a0000000000000000000000000000000000000000000000000000000008152600401612e18906148a3565b60405180910390fd5b612e2d60008383612a51565b6001600360008473ffffffffffffffffffffffffffffffffffffffff1673ffffffffffffffffffffffffffffffffffffffff1681526020019081526020016000206000828254612e7d9190614c02565b92505081905550816002600083815260200190815260200160002060006101000a81548173ffffffffffffffffffffffffffffffffffffffff021916908373ffffffffffffffffffffffffffffffffffffffff160217905550808273ffffffffffffffffffffffffffffffffffffffff16600073ffffffffffffffffffffffffffffffffffffffff167fddf252ad1be2c89b69c2b068fc378daa952ba7f163c4a11628f55a4df523b3ef60405160405180910390a45050565b612f4183838361305d565b600073ffffffffffffffffffffffffffffffffffffffff168373ffffffffffffffffffffffffffffffffffffffff161415612f8457612f7f81613062565b612fc3565b8173ffffffffffffffffffffffffffffffffffffffff168373ffffffffffffffffffffffffffffffffffffffff1614612fc257612fc183826130ab565b5b5b600073ffffffffffffffffffffffffffffffffffffffff168273ffffffffffffffffffffffffffffffffffffffff1614156130065761300181613218565b613045565b8273ffffffffffffffffffffffffffffffffffffffff168273ffffffffffffffffffffffffffffffffffffffff161461304457613043828261335b565b5b5b505050565b600080823b905060008111915050919050565b505050565b6008805490506009600083815260200190815260200160002081905550600881908060018154018082558091505060019003906000526020600020016000909190919091505550565b600060016130b884611091565b6130c29190614ce3565b90506000600760008481526020019081526020016000205490508181146131a7576000600660008673ffffffffffffffffffffffffffffffffffffffff1673ffffffffffffffffffffffffffffffffffffffff168152602001908152602001600020600084815260200190815260200160002054905080600660008773ffffffffffffffffffffffffffffffffffffffff1673ffffffffffffffffffffffffffffffffffffffff168152602001908152602001600020600084815260200190815260200160002081905550816007600083815260200190815260200160002081905550505b6007600084815260200190815260200160002060009055600660008573ffffffffffffffffffffffffffffffffffffffff1673ffffffffffffffffffffffffffffffffffffffff16815260200190815260200160002060008381526020019081526020016000206000905550505050565b6000600160088054905061322c9190614ce3565b9050600060096000848152602001908152602001600020549050600060088381548110613282577f4e487b7100000000000000000000000000000000000000000000000000000000600052603260045260246000fd5b9060005260206000200154905080600883815481106132ca577f4e487b7100000000000000000000000000000000000000000000000000000000600052603260045260246000fd5b90600052602060002001819055508160096000838152602001908152602001600020819055506009600085815260200190815260200160002060009055600880548061333f577f4e487b7100000000000000000000000000000000000000000000000000000000600052603160045260246000fd5b6001900381819060005260206000200160009055905550505050565b600061336683611091565b905081600660008573ffffffffffffffffffffffffffffffffffffffff1673ffffffffffffffffffffffffffffffffffffffff168152602001908152602001600020600083815260200190815260200160002081905550806007600084815260200190815260200160002081905550505050565b8280546133e690614dcd565b90600052602060002090601f016020900481019282613408576000855561344f565b82601f1061342157805160ff191683800117855561344f565b8280016001018555821561344f579182015b8281111561344e578251825591602001919060010190613433565b5b50905061345c9190613460565b5090565b5b80821115613479576000816000905550600101613461565b5090565b600061349061348b84614b6f565b614b3e565b9050828152602081018484840111156134a857600080fd5b6134b3848285614d8b565b509392505050565b6000813590506134ca81614f46565b92915050565b6000813590506134df81614f5d565b92915050565b6000813590506134f481614f74565b92915050565b60008151905061350981614f74565b92915050565b600082601f83011261352057600080fd5b813561353084826020860161347d565b91505092915050565b60008135905061354881614f8b565b92915050565b60006020828403121561356057600080fd5b600061356e848285016134bb565b91505092915050565b6000806040838503121561358a57600080fd5b6000613598858286016134bb565b92505060206135a9858286016134bb565b9150509250929050565b6000806000606084860312156135c857600080fd5b60006135d6868287016134bb565b93505060206135e7868287016134bb565b92505060406135f886828701613539565b9150509250925092565b6000806000806080858703121561361857600080fd5b6000613626878288016134bb565b9450506020613637878288016134bb565b935050604061364887828801613539565b925050606085013567ffffffffffffffff81111561366557600080fd5b6136718782880161350f565b91505092959194509250565b6000806040838503121561369057600080fd5b600061369e858286016134bb565b92505060206136af858286016134d0565b9150509250929050565b600080604083850312156136cc57600080fd5b60006136da858286016134bb565b92505060206136eb85828601613539565b9150509250929050565b60006020828403121561370757600080fd5b6000613715848285016134e5565b91505092915050565b60006020828403121561373057600080fd5b600061373e848285016134fa565b91505092915050565b60006020828403121561375957600080fd5b600061376784828501613539565b91505092915050565b61377981614d17565b82525050565b61378881614d29565b82525050565b600061379982614bb4565b6137a38185614bca565b93506137b3818560208601614d9a565b6137bc81614f35565b840191505092915050565b60006137d282614bbf565b6137dc8185614be6565b93506137ec818560208601614d9a565b6137f581614f35565b840191505092915050565b600061380b82614bbf565b6138158185614bf7565b9350613825818560208601614d9a565b80840191505092915050565b6000815461383e81614dcd565b6138488186614bf7565b945060018216600081146138635760018114613874576138a7565b60ff198316865281860193506138a7565b61387d85614b9f565b60005b8381101561389f57815481890152600182019150602081019050613880565b838801955050505b50505092915050565b60006138bd601483614be6565b91507f5061757361626c653a206e6f74207061757365640000000000000000000000006000830152602082019050919050565b60006138fd602b83614be6565b91507f455243373231456e756d657261626c653a206f776e657220696e646578206f7560008301527f74206f6620626f756e64730000000000000000000000000000000000000000006020830152604082019050919050565b6000613963603283614be6565b91507f4552433732313a207472616e7366657220746f206e6f6e20455243373231526560008301527f63656976657220696d706c656d656e74657200000000000000000000000000006020830152604082019050919050565b60006139c9603f83614bf7565b91507f2720636c6173733d27626173652720646f6d696e616e742d626173656c696e6560008301527f3d276d6964646c652720746578742d616e63686f723d276d6964646c65273e006020830152603f82019050919050565b6000613a2f601e83614be6565b91507f546865726520617265206e6f204e465473206c65667420746f206d696e7400006000830152602082019050919050565b6000613a6f602683614be6565b91507f4f776e61626c653a206e6577206f776e657220697320746865207a65726f206160008301527f64647265737300000000000000000000000000000000000000000000000000006020830152604082019050919050565b6000613ad5600c83614bf7565b91507f537572766976616c204b697400000000000000000000000000000000000000006000830152600c82019050919050565b6000613b15601c83614be6565b91507f4552433732313a20746f6b656e20616c7265616479206d696e746564000000006000830152602082019050919050565b6000613b55600a83614bf7565b91507f54484952445f574f5244000000000000000000000000000000000000000000006000830152600a82019050919050565b6000613b95600983614bf7565b91507f5452414e53504f525400000000000000000000000000000000000000000000006000830152600982019050919050565b6000613bd5600683614bf7565b91507f574541504f4e00000000000000000000000000000000000000000000000000006000830152600682019050919050565b6000613c15601483614be6565b91507f4661696c656420746f2073656e642045746865720000000000000000000000006000830152602082019050919050565b6000613c55602483614be6565b91507f4552433732313a207472616e7366657220746f20746865207a65726f2061646460008301527f72657373000000000000000000000000000000000000000000000000000000006020830152604082019050919050565b6000613cbb601983614be6565b91507f4552433732313a20617070726f766520746f2063616c6c6572000000000000006000830152602082019050919050565b6000613cfb602c83614be6565b91507f4552433732313a206f70657261746f7220717565727920666f72206e6f6e657860008301527f697374656e7420746f6b656e00000000000000000000000000000000000000006020830152604082019050919050565b6000613d61601083614be6565b91507f5061757361626c653a20706175736564000000000000000000000000000000006000830152602082019050919050565b6000613da1603883614be6565b91507f4552433732313a20617070726f76652063616c6c6572206973206e6f74206f7760008301527f6e6572206e6f7220617070726f76656420666f7220616c6c00000000000000006020830152604082019050919050565b6000613e07602a83614be6565b91507f4552433732313a2062616c616e636520717565727920666f7220746865207a6560008301527f726f2061646472657373000000000000000000000000000000000000000000006020830152604082019050919050565b6000613e6d602983614be6565b91507f4552433732313a206f776e657220717565727920666f72206e6f6e657869737460008301527f656e7420746f6b656e00000000000000000000000000000000000000000000006020830152604082019050919050565b6000613ed3602e83614be6565b91507f45524337323155524953746f726167653a2055524920736574206f66206e6f6e60008301527f6578697374656e7420746f6b656e0000000000000000000000000000000000006020830152604082019050919050565b6000613f39600283614bf7565b91507f227d0000000000000000000000000000000000000000000000000000000000006000830152600282019050919050565b6000613f79600783614bf7565b91507f3c2f746578743e000000000000000000000000000000000000000000000000006000830152600782019050919050565b6000613fb9602083614be6565b91507f4552433732313a206d696e7420746f20746865207a65726f20616464726573736000830152602082019050919050565b6000613ff9603183614be6565b91507f45524337323155524953746f726167653a2055524920717565727920666f722060008301527f6e6f6e6578697374656e7420746f6b656e0000000000000000000000000000006020830152604082019050919050565b600061405f602c83614be6565b91507f4552433732313a20617070726f76656420717565727920666f72206e6f6e657860008301527f697374656e7420746f6b656e00000000000000000000000000000000000000006020830152604082019050919050565b60006140c5602083614be6565b91507f4f776e61626c653a2063616c6c6572206973206e6f7420746865206f776e65726000830152602082019050919050565b6000614105602983614be6565b91507f4552433732313a207472616e73666572206f6620746f6b656e2074686174206960008301527f73206e6f74206f776e00000000000000000000000000000000000000000000006020830152604082019050919050565b600061416b602f83614be6565b91507f4552433732314d657461646174613a2055524920717565727920666f72206e6f60008301527f6e6578697374656e7420746f6b656e00000000000000000000000000000000006020830152604082019050919050565b60006141d1601183614bf7565b91507f3c7465787420783d273530252720793d270000000000000000000000000000006000830152601182019050919050565b6000614211600a83614bf7565b91507f7b226e616d65223a2022000000000000000000000000000000000000000000006000830152600a82019050919050565b6000614251602183614be6565b91507f4552433732313a20617070726f76616c20746f2063757272656e74206f776e6560008301527f72000000000000000000000000000000000000000000000000000000000000006020830152604082019050919050565b60006142b7601d83614bf7565b91507f646174613a6170706c69636174696f6e2f6a736f6e3b6261736536342c0000006000830152601d82019050919050565b60006142f7605883614bf7565b91507f222c20226465736372697074696f6e223a20225a6f6d6269652041706f63616c60008301527f7970736520537572766976616c204b6974222c2022696d616765223a2022646160208301527f74613a696d6167652f7376672b786d6c3b6261736536342c00000000000000006040830152605882019050919050565b6000614383600683614bf7565b91507f434f4c4f555200000000000000000000000000000000000000000000000000006000830152600682019050919050565b60006143c3600083614bdb565b9150600082019050919050565b60006143dd603183614be6565b91507f4552433732313a207472616e736665722063616c6c6572206973206e6f74206f60008301527f776e6572206e6f7220617070726f7665640000000000000000000000000000006020830152604082019050919050565b6000614443602c83614be6565b91507f455243373231456e756d657261626c653a20676c6f62616c20696e646578206f60008301527f7574206f6620626f756e647300000000000000000000000000000000000000006020830152604082019050919050565b60006144a9602183614be6565b91507f4e6f7420656e6f756768204554482073656e743b20636865636b20707269636560008301527f21000000000000000000000000000000000000000000000000000000000000006020830152604082019050919050565b600061450f600683614bf7565b91507f3c2f7376673e00000000000000000000000000000000000000000000000000006000830152600682019050919050565b61454b81614d81565b82525050565b600061455d8284613800565b915081905092915050565b60006145748285613800565b91506145808284613800565b91508190509392505050565b60006145988289613831565b91506145a48288613800565b91506145b08287613831565b91506145bc8286613800565b91506145c88285613800565b91506145d48284613800565b91506145df82614502565b9150819050979650505050505050565b60006145fa82613b48565b91506146068284613800565b915081905092915050565b600061461c82613b88565b91506146288284613800565b915081905092915050565b600061463e82613bc8565b915061464a8284613800565b915081905092915050565b6000614660826141c4565b915061466c8285613800565b9150614677826139bc565b91506146838284613800565b915061468e82613f6c565b91508190509392505050565b60006146a582614204565b91506146b082613ac8565b91506146bb826142ea565b91506146c78284613800565b91506146d282613f2c565b915081905092915050565b60006146e8826142aa565b91506146f48284613800565b915081905092915050565b600061470a82614376565b91506147168284613800565b915081905092915050565b600061472c826143b6565b9150819050919050565b600060208201905061474b6000830184613770565b92915050565b60006080820190506147666000830187613770565b6147736020830186613770565b6147806040830185614542565b8181036060830152614792818461378e565b905095945050505050565b60006040820190506147b26000830185613770565b6147bf6020830184614542565b9392505050565b60006020820190506147db600083018461377f565b92915050565b600060208201905081810360008301526147fb81846137c7565b905092915050565b6000602082019050818103600083015261481c816138b0565b9050919050565b6000602082019050818103600083015261483c816138f0565b9050919050565b6000602082019050818103600083015261485c81613956565b9050919050565b6000602082019050818103600083015261487c81613a22565b9050919050565b6000602082019050818103600083015261489c81613a62565b9050919050565b600060208201905081810360008301526148bc81613b08565b9050919050565b600060208201905081810360008301526148dc81613c08565b9050919050565b600060208201905081810360008301526148fc81613c48565b9050919050565b6000602082019050818103600083015261491c81613cae565b9050919050565b6000602082019050818103600083015261493c81613cee565b9050919050565b6000602082019050818103600083015261495c81613d54565b9050919050565b6000602082019050818103600083015261497c81613d94565b9050919050565b6000602082019050818103600083015261499c81613dfa565b9050919050565b600060208201905081810360008301526149bc81613e60565b9050919050565b600060208201905081810360008301526149dc81613ec6565b9050919050565b600060208201905081810360008301526149fc81613fac565b9050919050565b60006020820190508181036000830152614a1c81613fec565b9050919050565b60006020820190508181036000830152614a3c81614052565b9050919050565b60006020820190508181036000830152614a5c816140b8565b9050919050565b60006020820190508181036000830152614a7c816140f8565b9050919050565b60006020820190508181036000830152614a9c8161415e565b9050919050565b60006020820190508181036000830152614abc81614244565b9050919050565b60006020820190508181036000830152614adc816143d0565b9050919050565b60006020820190508181036000830152614afc81614436565b9050919050565b60006020820190508181036000830152614b1c8161449c565b9050919050565b6000602082019050614b386000830184614542565b92915050565b6000604051905081810181811067ffffffffffffffff82111715614b6557614b64614f06565b5b8060405250919050565b600067ffffffffffffffff821115614b8a57614b89614f06565b5b601f19601f8301169050602081019050919050565b60008190508160005260206000209050919050565b600081519050919050565b600081519050919050565b600082825260208201905092915050565b600081905092915050565b600082825260208201905092915050565b600081905092915050565b6000614c0d82614d81565b9150614c1883614d81565b9250827fffffffffffffffffffffffffffffffffffffffffffffffffffffffffffffffff03821115614c4d57614c4c614e79565b5b828201905092915050565b6000614c6382614d81565b9150614c6e83614d81565b925082614c7e57614c7d614ea8565b5b828204905092915050565b6000614c9482614d81565b9150614c9f83614d81565b9250817fffffffffffffffffffffffffffffffffffffffffffffffffffffffffffffffff0483118215151615614cd857614cd7614e79565b5b828202905092915050565b6000614cee82614d81565b9150614cf983614d81565b925082821015614d0c57614d0b614e79565b5b828203905092915050565b6000614d2282614d61565b9050919050565b60008115159050919050565b60007fffffffff0000000000000000000000000000000000000000000000000000000082169050919050565b600073ffffffffffffffffffffffffffffffffffffffff82169050919050565b6000819050919050565b82818337600083830152505050565b60005b83811015614db8578082015181840152602081019050614d9d565b83811115614dc7576000848401525b50505050565b60006002820490506001821680614de557607f821691505b60208210811415614df957614df8614ed7565b5b50919050565b6000614e0a82614d81565b91507fffffffffffffffffffffffffffffffffffffffffffffffffffffffffffffffff821415614e3d57614e3c614e79565b5b600182019050919050565b6000614e5382614d81565b9150614e5e83614d81565b925082614e6e57614e6d614ea8565b5b828206905092915050565b7f4e487b7100000000000000000000000000000000000000000000000000000000600052601160045260246000fd5b7f4e487b7100000000000000000000000000000000000000000000000000000000600052601260045260246000fd5b7f4e487b7100000000000000000000000000000000000000000000000000000000600052602260045260246000fd5b7f4e487b7100000000000000000000000000000000000000000000000000000000600052604160045260246000fd5b6000601f19601f8301169050919050565b614f4f81614d17565b8114614f5a57600080fd5b50565b614f6681614d29565b8114614f7157600080fd5b50565b614f7d81614d35565b8114614f8857600080fd5b50565b614f9481614d81565b8114614f9f57600080fd5b5056fe4142434445464748494a4b4c4d4e4f505152535455565758595a6162636465666768696a6b6c6d6e6f707172737475767778797a303132333435363738392b2fa264697066735822122079b3c5e56c2ce121fd87604eba094b6957068d0814c8ac7fe466a5bdeac248b764736f6c634300080000333c73766720786d6c6e733d27687474703a2f2f7777772e77332e6f72672f323030302f73766727207072657365727665417370656374526174696f3d27784d696e594d696e206d656574272076696577426f783d273020302033353020333530273e3c7374796c653e2e62617365207b2066696c6c3a2077686974653b20666f6e742d66616d696c793a2073657269663b20666f6e742d73697a653a20323470783b207d3c2f7374796c653e3c726563742077696474683d273130302527206865696768743d2731303025272066696c6c3d27",
  "immutableReferences": {},
  "source": "// SPDX-License-Identifier: MIT\npragma solidity 0.8.0;\n\n// We selectedWeapon import some OpenZeppelin Contracts.\nimport \"@openzeppelin/contracts/utils/Strings.sol\";\nimport \"@openzeppelin/contracts/token/ERC721/ERC721.sol\";\nimport \"@openzeppelin/contracts/token/ERC721/extensions/ERC721URIStorage.sol\";\nimport \"@openzeppelin/contracts/utils/Counters.sol\";\nimport \"@openzeppelin/contracts/security/Pausable.sol\";\nimport \"@openzeppelin/contracts/access/Ownable.sol\";\nimport \"@openzeppelin/contracts/token/ERC721/extensions/ERC721Enumerable.sol\";\nimport \"hardhat-console/contracts/console.sol\";\n\n// Import helper functions needed for Base62 encoding\nimport { Base64 } from \"./libraries/Base64.sol\";\n\n/**\n@title Zombie Apocalipse Survival kit generator\n@author Ben Naylor\n */\ncontract SurvivalKitClaim is ERC721, ERC721Enumerable, ERC721URIStorage, Pausable, Ownable {\n\n    uint private supplyCap = 3000;\n\n    /// @notice keep track of token ids using purpose built OpenZeppelin utility\n    using Counters for Counters.Counter;\n    Counters.Counter private _tokenIds;\n\n    /// @dev We split the SVG at the part where it asks for the background color.\n    string svgPartOne = \"<svg xmlns='http://www.w3.org/2000/svg' preserveAspectRatio='xMinYMin meet' viewBox='0 0 350 350'><style>.base { fill: white; font-family: serif; font-size: 24px; }</style><rect width='100%' height='100%' fill='\";\n    // string svgPartTwo = \"'/><text x='50%' y='50%' class='base' dominant-baseline='middle' text-anchor='middle'>\";\n    string svgPartTwo = \"'/>\";\n\n    string[] weapon = [\"Crossbow\", \"Shotgun\", \"Samuri Sword\", \"Baseball Bat\", \"Crowbar\", \"slingshot\", \"Axe\", \"Katana\", \"Sledge Hammer\", \"Machete\", \"Handgun\", \"Kunckle Duster\", \"Rifle\", \"Tomahawk\", \"Pointy Stick\"];\n    string[] transport = [\"Motorbike\", \"Car\", \"Bicycle\", \"Jeep\", \"On Foot\", \"Helicopter\", \"Boat\", \"Skateboard\", \"Rollerblades\", \"Scooter\"];\n    string[] item = [\"Torch\", \"Animal Snare\", \"Medicine\", \"Radio\", \"Map\", \"Wistle\", \"Candle\", \"Walkie-Talkie\", \"Water Bottle\", \"Water Purification Tablets\", \"Gloves\", \"Binoculars\", \"Watch\", \"Food Rations\"];\n    string[] colors = [\"red\", \"black\", \"blue\", \"green\", \"indigo\", \"grey\"];\n\n    /// @notice Event to be emitted after a successful mint\n    /// @param sender The address of the transaction sender\n    /// @param tokenId The id of the token that has just been minted\n    event SurvivalKitNftClaimed(address sender, uint256 tokenId);\n\n    /// @notice contract constructor. Takes parameters and passes them to the inherited ERC721 contract constructor\n    /// @param _name the name of the contract\n    /// @param _symbol the symbol that contract tokens will be represented by\n    /// @param _supplyCap the maximum token that are mintable from this contract\n    constructor(string memory _name, string memory _symbol, uint _supplyCap) ERC721(_name, _symbol) {\n        require(_supplyCap > 0, \"supplyCap must be greater than 0\");\n        supplyCap = _supplyCap;\n    }\n\n    /// @notice pauses the contract. \n    /// @dev Inherits _pause() function from Pausable.sol and the onlyOwner modifier from Ownable.sol\n    function pause() public onlyOwner {\n        _pause();\n    }\n\n    /// @notice unpauses the contract. \n    /// @dev Inherits _unpause() function from Pausable.sol and the onlyOwner modifier from Ownable.sol\n    function unpause() public onlyOwner {\n        _unpause();\n    }\n\n    /// @return maximum number of mints allowed on contract \n    function getSupplyCap() public view returns(uint256) {\n        return supplyCap;\n    }\n\n    /// @return number of remaining mints on the contract\n    function getRemainingMints () public view returns (uint256) {\n        return supplyCap - _tokenIds.current();\n    }\n\n    /// @return number of tokens minted on the contract so far.\n    function getTotalNFTsMintedSoFar () public view returns (uint256) {\n        return _tokenIds.current();\n    }\n\n    /// @return a uint representing the balance (in wei) held by the contract.\n    function balanceOfContract()  public view returns(uint){\n        return address(this).balance;\n    }\n\n    /// @notice allows the contract owner to withdraw the funds currently being held by the contract. \n    function withdrawAllFunds()  public payable onlyOwner {\n        (bool sent, ) = msg.sender.call{value: address(this).balance}(\"\");\n        require(sent, \"Failed to send Ether\");\n    }\n\n    /// @notice allows the contract owner to withdraw the funds currently being held by the contract. \n    function withdrawFunds(uint amount)  public payable onlyOwner {\n        (bool sent, ) = msg.sender.call{value: amount}(\"\");\n        require(sent, \"Failed to send Ether\");\n    }\n\n    /// @notice pick a random weappon to equip the player with\n    /// @dev the randomness could be improved by using an oracle feed.\n    /// @param tokenId used to seed the random function\n    /// @return A random weapon from the array of weapons available.\n    function pickRandomWeapon(uint256 tokenId) internal view returns (string memory) {\n        // seed the random generator\n        uint256 rand = random(string(abi.encodePacked(\"WEAPON\", Strings.toString(tokenId))));\n        // Squash the # between 0 and the length of the array to avoid going out of bounds.\n        rand = rand % weapon.length;\n        return weapon[rand];\n    }\n\n    /// @notice pick a random transport to equip the player with\n    /// @param tokenId used to seed the random function\n    /// @return A random weapon from the array of transport available.\n    function pickRandomTransport(uint256 tokenId) internal view returns (string memory) {\n        uint256 rand = random(string(abi.encodePacked(\"TRANSPORT\", Strings.toString(tokenId))));\n        rand = rand % transport.length;\n        return transport[rand];\n    }\n\n    /// @notice pick a random item to equip the player with\n    /// @param tokenId used to seed the random function\n    /// @return A random item from the array of items available.\n    function pickRandomItem(uint256 tokenId) internal view returns (string memory) {\n        uint256 rand = random(string(abi.encodePacked(\"THIRD_WORD\", Strings.toString(tokenId))));\n        rand = rand % item.length;\n        return item[rand];\n    }\n\n    /// @notice pick a random background colour for the players card\n    /// @param tokenId used to seed the random function\n    /// @return A random background colour from the array of colours available.\n    function pickRandomBackgroundColour(uint256 tokenId) internal view returns (string memory) {\n        uint256 rand = random(string(abi.encodePacked(\"COLOUR\", Strings.toString(tokenId))));\n        rand = rand % colors.length;\n        return colors[rand];\n    } \n\n    /// @param input string input which is hashed to generate the 'random' number.\n    /// @dev this function could be made truly random by using an oracle feed.\n    /// @return A random integer\n    function random(string memory input) internal pure returns (uint256) {\n        return uint(keccak256(abi.encodePacked(input)));\n    }\n\n    /// @dev overriding this function was required to inherit from both ERC721 and ERC721URIStorage\n    function _burn(uint256 tokenId) internal whenNotPaused override(ERC721, ERC721URIStorage) {\n        super._burn(tokenId);\n    }\n\n    /// @param tokenId the tokenId to retrieve URI for\n    /// @return the token URI containing the tokens metadata\n    function tokenURI(uint256 tokenId) public view override (ERC721, ERC721URIStorage) returns (string memory) {\n        return super.tokenURI(tokenId);\n    }\n\n    /// @notice helper function to place items on separate lines. \n    /// @dev function seems clunky. This should be refactor into a more elegant solution.\n    /// @param claimedItem the name of the item to be added to the NFT.\n    /// @param itemNumber the position in which to display the item in the NFT art.\n    /// @return An SVG string containing the item and its display position in the NFT art. \n    function createItem(string memory claimedItem, uint itemNumber) internal pure returns (string memory) {\n        string memory position;\n        if(itemNumber == 1) {\n            position = \"40%\";\n        } else if (itemNumber == 2) {\n            position = \"50%\";\n        } else {\n            position = \"60%\";\n        }\n        \n        return string(abi.encodePacked(\"<text x='50%' y='\", position, \"' class='base' dominant-baseline='middle' text-anchor='middle'>\", claimedItem, \"</text>\"));\n    }\n    \n\n    /// @notice mint an ERC721 token on the contract. The caller will receive a token containing a survival kit that includes a weapon, a transport and an item. All are randomly selected.  \n    /// @dev currently does not accept payment\n    /// @dev this function creates and stores the tokens URI. This is a JSON string constisting of name, description and image fields. The image is a BASE64 encoded SVG. Finally The whole JSON metadata string is BASE64 encoded and mapped to the tokenId.\n    function mintNFT() public payable whenNotPaused{\n        require(_tokenIds.current() <= supplyCap, \"There are no NFTs left to mint\");\n        require(msg.value >= 10000000000000000, \"Not enough ETH sent; check price!\");\n        \n        // get the current tokenId, this starts at 0\n        uint newItemId = _tokenIds.current();\n\n        // randomly grab one word from each of the arrays\n        string memory selectedWeapon = pickRandomWeapon(newItemId);\n        string memory selectedTransport = pickRandomTransport(newItemId);\n        string memory selectedItem = pickRandomItem(newItemId);\n\n        // Add the random color in.\n        string memory randomColor = pickRandomBackgroundColour(newItemId);\n        string memory finalSvg = string(abi.encodePacked(svgPartOne, randomColor, svgPartTwo, \n        createItem(selectedWeapon, 1), \n        createItem(selectedTransport, 2), \n        createItem(selectedItem, 3), \n        \"</svg>\"));\n        // get all the JSON metadata in place and base64 encode it\n        string memory json = Base64.encode(\n            bytes(\n                string(\n                    abi.encodePacked(\n                        '{\"name\": \"',\"Survival Kit\",\n                        '\", \"description\": \"Zombie Apocalypse Survival Kit\", \"image\": \"data:image/svg+xml;base64,',\n                    // add data:image/svg+xml;base64 and then append our base64 encode our svg.\n                    Base64.encode(bytes(finalSvg)),\n                    '\"}'\n                    )\n                )\n            )\n        );\n\n        // Just like before, we prepend data:application/json;base64, to our data.\n        string memory finalTokenUri = string(\n            abi.encodePacked(\"data:application/json;base64,\", json)\n        );\n\n        // actually mint the NFT to the sender using msg.sender\n        _safeMint(msg.sender, newItemId);\n\n        // store the tokens metadata\n        _setTokenURI(newItemId, finalTokenUri);\n\n        // increment the counter for when the next NFT is minted\n        _tokenIds.increment();\n        emit SurvivalKitNftClaimed(msg.sender, newItemId);\n    }\n\n    // The following functions are overrides required by Solidity.\n    function _beforeTokenTransfer(address from, address to, uint256 tokenId) internal whenNotPaused override(ERC721, ERC721Enumerable) {\n        super._beforeTokenTransfer(from, to, tokenId);\n    }\n\n    /// @notice required override in order to inherit from both ERC721 and ERC721Enumerable\n    function supportsInterface(bytes4 interfaceId) public view override(ERC721, ERC721Enumerable) returns (bool) {\n        return super.supportsInterface(interfaceId);\n    }\n}",
  "sourcePath": "/Users/bennaylor/Development/Consensys Academy/blockchain-developer-bootcamp-final-project/contracts/SurvivalKitClaim.sol",
  "compiler": {
    "name": "solc",
    "version": "0.8.0+commit.c7dfd78e.Emscripten.clang"
  },
  "schemaVersion": "3.4.3",
  "updatedAt": "2021-11-22T14:36:30.460Z",
  "networkType": "ethereum",
  "devdoc": {
    "author": "Ben Naylor",
    "events": {
      "SurvivalKitNftClaimed(address,uint256)": {
        "params": {
          "sender": "The address of the transaction sender",
          "tokenId": "The id of the token that has just been minted"
        }
      }
    },
    "kind": "dev",
    "methods": {
      "approve(address,uint256)": {
        "details": "See {IERC721-approve}."
      },
      "balanceOf(address)": {
        "details": "See {IERC721-balanceOf}."
      },
      "balanceOfContract()": {
        "returns": {
          "_0": "a uint representing the balance (in wei) held by the contract."
        }
      },
      "constructor": {
        "params": {
          "_name": "the name of the contract",
          "_supplyCap": "the maximum token that are mintable from this contract",
          "_symbol": "the symbol that contract tokens will be represented by"
        }
      },
      "getApproved(uint256)": {
        "details": "See {IERC721-getApproved}."
      },
      "getRemainingMints()": {
        "returns": {
          "_0": "number of remaining mints on the contract"
        }
      },
      "getSupplyCap()": {
        "returns": {
          "_0": "maximum number of mints allowed on contract "
        }
      },
      "getTotalNFTsMintedSoFar()": {
        "returns": {
          "_0": "number of tokens minted on the contract so far."
        }
      },
      "isApprovedForAll(address,address)": {
        "details": "See {IERC721-isApprovedForAll}."
      },
      "mintNFT()": {
        "details": "currently does not accept paymentthis function creates and stores the tokens URI. This is a JSON string constisting of name, description and image fields. The image is a BASE64 encoded SVG. Finally The whole JSON metadata string is BASE64 encoded and mapped to the tokenId."
      },
      "name()": {
        "details": "See {IERC721Metadata-name}."
      },
      "owner()": {
        "details": "Returns the address of the current owner."
      },
      "ownerOf(uint256)": {
        "details": "See {IERC721-ownerOf}."
      },
      "pause()": {
        "details": "Inherits _pause() function from Pausable.sol and the onlyOwner modifier from Ownable.sol"
      },
      "paused()": {
        "details": "Returns true if the contract is paused, and false otherwise."
      },
      "renounceOwnership()": {
        "details": "Leaves the contract without owner. It will not be possible to call `onlyOwner` functions anymore. Can only be called by the current owner. NOTE: Renouncing ownership will leave the contract without an owner, thereby removing any functionality that is only available to the owner."
      },
      "safeTransferFrom(address,address,uint256)": {
        "details": "See {IERC721-safeTransferFrom}."
      },
      "safeTransferFrom(address,address,uint256,bytes)": {
        "details": "See {IERC721-safeTransferFrom}."
      },
      "setApprovalForAll(address,bool)": {
        "details": "See {IERC721-setApprovalForAll}."
      },
      "symbol()": {
        "details": "See {IERC721Metadata-symbol}."
      },
      "tokenByIndex(uint256)": {
        "details": "See {IERC721Enumerable-tokenByIndex}."
      },
      "tokenOfOwnerByIndex(address,uint256)": {
        "details": "See {IERC721Enumerable-tokenOfOwnerByIndex}."
      },
      "tokenURI(uint256)": {
        "params": {
          "tokenId": "the tokenId to retrieve URI for"
        },
        "returns": {
          "_0": "the token URI containing the tokens metadata"
        }
      },
      "totalSupply()": {
        "details": "See {IERC721Enumerable-totalSupply}."
      },
      "transferFrom(address,address,uint256)": {
        "details": "See {IERC721-transferFrom}."
      },
      "transferOwnership(address)": {
        "details": "Transfers ownership of the contract to a new account (`newOwner`). Can only be called by the current owner."
      },
      "unpause()": {
        "details": "Inherits _unpause() function from Pausable.sol and the onlyOwner modifier from Ownable.sol"
      }
    },
    "stateVariables": {
      "svgPartOne": {
        "details": "We split the SVG at the part where it asks for the background color."
      }
    },
    "title": "Zombie Apocalipse Survival kit generator",
    "version": 1
  },
  "userdoc": {
    "events": {
      "SurvivalKitNftClaimed(address,uint256)": {
        "notice": "Event to be emitted after a successful mint"
      }
    },
    "kind": "user",
    "methods": {
      "constructor": {
        "notice": "contract constructor. Takes parameters and passes them to the inherited ERC721 contract constructor"
      },
      "mintNFT()": {
        "notice": "mint an ERC721 token on the contract. The caller will receive a token containing a survival kit that includes a weapon, a transport and an item. All are randomly selected.  "
      },
      "pause()": {
        "notice": "pauses the contract. "
      },
      "supportsInterface(bytes4)": {
        "notice": "required override in order to inherit from both ERC721 and ERC721Enumerable"
      },
      "unpause()": {
        "notice": "unpauses the contract. "
      },
      "withdrawAllFunds()": {
        "notice": "allows the contract owner to withdraw the funds currently being held by the contract. "
      },
      "withdrawFunds(uint256)": {
        "notice": "allows the contract owner to withdraw the funds currently being held by the contract. "
      }
    },
    "version": 1
  }
}